{
  "_format": "hh-sol-artifact-1",
  "contractName": "ReputationOracle",
  "sourceName": "src/ReputationOracle.sol",
  "abi": [
    {
      "inputs": [
        {
          "internalType": "address",
          "name": "_collectorRegistry",
          "type": "address"
        }
      ],
      "stateMutability": "nonpayable",
      "type": "constructor"
    },
    {
      "anonymous": false,
      "inputs": [
        {
          "indexed": true,
          "internalType": "address",
          "name": "agent",
          "type": "address"
        }
      ],
      "name": "RecoveryAgentSet",
      "type": "event"
    },
    {
      "anonymous": false,
      "inputs": [
        {
          "indexed": true,
          "internalType": "address",
          "name": "collector",
          "type": "address"
        },
        {
          "indexed": false,
          "internalType": "uint256",
          "name": "oldScore",
          "type": "uint256"
        },
        {
          "indexed": false,
          "internalType": "uint256",
          "name": "newScore",
          "type": "uint256"
        },
        {
          "indexed": false,
          "internalType": "uint8",
          "name": "newTier",
          "type": "uint8"
        }
      ],
      "name": "ReputationScoreUpdated",
      "type": "event"
    },
    {
      "inputs": [],
      "name": "admin",
      "outputs": [
        {
          "internalType": "address",
          "name": "",
          "type": "address"
        }
      ],
      "stateMutability": "view",
      "type": "function"
    },
    {
      "inputs": [
        {
          "internalType": "address[]",
          "name": "_collectors",
          "type": "address[]"
        },
        {
          "internalType": "uint256[]",
          "name": "_totalKgs",
          "type": "uint256[]"
        },
        {
          "internalType": "uint8[]",
          "name": "_uniqueStations",
          "type": "uint8[]"
        },
        {
          "internalType": "uint16[]",
          "name": "_activeWeeks",
          "type": "uint16[]"
        },
        {
          "internalType": "uint256[]",
          "name": "_fishingGearKgs",
          "type": "uint256[]"
        },
        {
          "internalType": "uint256[]",
          "name": "_microplasticKgs",
          "type": "uint256[]"
        }
      ],
      "name": "batchUpdateReputation",
      "outputs": [],
      "stateMutability": "nonpayable",
      "type": "function"
    },
    {
      "inputs": [],
      "name": "collectorRegistry",
      "outputs": [
        {
          "internalType": "contract CollectorRegistry",
          "name": "",
          "type": "address"
        }
      ],
      "stateMutability": "view",
      "type": "function"
    },
    {
      "inputs": [
        {
          "internalType": "address",
          "name": "_collector",
          "type": "address"
        }
      ],
      "name": "getPayoutMultiplierBps",
      "outputs": [
        {
          "internalType": "uint256",
          "name": "",
          "type": "uint256"
        }
      ],
      "stateMutability": "view",
      "type": "function"
    },
    {
      "inputs": [
        {
          "internalType": "address",
          "name": "_collector",
          "type": "address"
        }
      ],
      "name": "getReputation",
      "outputs": [
        {
          "components": [
            {
              "internalType": "uint256",
              "name": "score",
              "type": "uint256"
            },
            {
              "internalType": "uint8",
              "name": "tier",
              "type": "uint8"
            },
            {
              "internalType": "uint256",
              "name": "totalKgRecovered",
              "type": "uint256"
            },
            {
              "internalType": "uint8",
              "name": "uniqueStations",
              "type": "uint8"
            },
            {
              "internalType": "uint16",
              "name": "activeWeeks",
              "type": "uint16"
            },
            {
              "internalType": "uint256",
              "name": "fishingGearKg",
              "type": "uint256"
            },
            {
              "internalType": "uint256",
              "name": "microplasticKg",
              "type": "uint256"
            },
            {
              "internalType": "uint256",
              "name": "lastUpdated",
              "type": "uint256"
            }
          ],
          "internalType": "struct ReputationOracle.ReputationData",
          "name": "",
          "type": "tuple"
        }
      ],
      "stateMutability": "view",
      "type": "function"
    },
    {
      "inputs": [
        {
          "internalType": "address",
          "name": "_collector",
          "type": "address"
        }
      ],
      "name": "getScore",
      "outputs": [
        {
          "internalType": "uint256",
          "name": "",
          "type": "uint256"
        }
      ],
      "stateMutability": "view",
      "type": "function"
    },
    {
      "inputs": [
        {
          "internalType": "address",
          "name": "_collector",
          "type": "address"
        }
      ],
      "name": "getTier",
      "outputs": [
        {
          "internalType": "uint8",
          "name": "",
          "type": "uint8"
        }
      ],
      "stateMutability": "view",
      "type": "function"
    },
    {
      "inputs": [],
      "name": "recoveryAgent",
      "outputs": [
        {
          "internalType": "address",
          "name": "",
          "type": "address"
        }
      ],
      "stateMutability": "view",
      "type": "function"
    },
    {
      "inputs": [
        {
          "internalType": "address",
          "name": "",
          "type": "address"
        }
      ],
      "name": "reputationData",
      "outputs": [
        {
          "internalType": "uint256",
          "name": "score",
          "type": "uint256"
        },
        {
          "internalType": "uint8",
          "name": "tier",
          "type": "uint8"
        },
        {
          "internalType": "uint256",
          "name": "totalKgRecovered",
          "type": "uint256"
        },
        {
          "internalType": "uint8",
          "name": "uniqueStations",
          "type": "uint8"
        },
        {
          "internalType": "uint16",
          "name": "activeWeeks",
          "type": "uint16"
        },
        {
          "internalType": "uint256",
          "name": "fishingGearKg",
          "type": "uint256"
        },
        {
          "internalType": "uint256",
          "name": "microplasticKg",
          "type": "uint256"
        },
        {
          "internalType": "uint256",
          "name": "lastUpdated",
          "type": "uint256"
        }
      ],
      "stateMutability": "view",
      "type": "function"
    },
    {
      "inputs": [
        {
          "internalType": "address",
          "name": "_agent",
          "type": "address"
        }
      ],
      "name": "setRecoveryAgent",
      "outputs": [],
      "stateMutability": "nonpayable",
      "type": "function"
    },
    {
      "inputs": [
        {
          "internalType": "address",
          "name": "_collector",
          "type": "address"
        },
        {
          "internalType": "uint256",
          "name": "_totalKgRecovered",
          "type": "uint256"
        },
        {
          "internalType": "uint8",
          "name": "_uniqueStations",
          "type": "uint8"
        },
        {
          "internalType": "uint16",
          "name": "_activeWeeks",
          "type": "uint16"
        },
        {
          "internalType": "uint256",
          "name": "_fishingGearKg",
          "type": "uint256"
        },
        {
          "internalType": "uint256",
          "name": "_microplasticKg",
          "type": "uint256"
        }
      ],
      "name": "updateReputation",
      "outputs": [],
      "stateMutability": "nonpayable",
      "type": "function"
    }
  ],
  "bytecode": "0x60a03461008c57601f610e4238819003918201601f19168301916001600160401b038311848410176100915780849260209460405283398101031261008c57516001600160a01b0381169081900361008c57608052600180546001600160a01b03191633179055604051610d9a90816100a882396080518181816104d7015281816107770152610ac30152f35b600080fd5b634e487b7160e01b600052604160045260246000fdfe608080604052600436101561001357600080fd5b600090813560e01c9081630513d07814610aaf575080634a7805c314610a865780636f98ebe3146106fb57806390553315146106cf57806396030f071461037a5780639bac7669146102d95780639c89a0e2146101cb578063a87693051461013d578063b45aae52146100fd578063d47875d0146100c55763f851a4401461009a57600080fd5b346100c257806003193601126100c2576001546040516001600160a01b039091168152602090f35b80fd5b50346100c25760203660031901126100c2576020906040906001600160a01b036100ed610af2565b1681528083522054604051908152f35b50346100c25760203660031901126100c25760209060ff906001906040906001600160a01b0361012b610af2565b16815280855220015416604051908152f35b50346100c25760203660031901126100c257610100906040906001600160a01b03610166610af2565b168152806020522080549060ff60018201541690600281015461ffff600383015460048401549260066005860154950154956040519788526020880152604087015260ff8116606087015260081c16608085015260a084015260c083015260e0820152f35b50346100c25760203660031901126100c2576040610100916101eb610af2565b8160e084516101f981610ba5565b82815282602082015282868201528260608201528260808201528260a08201528260c0820152015260018060a01b03168152806020522060405161023c81610ba5565b81549182825260ff6001820154166020830190815260028201546040840190815260038301549060ff606086018184168152608087019261ffff809560081c1684528260048801549660a08a0197885260e0600660058b01549a60c08d019b8c5201549a01998a526040519a8b52511660208a015251604089015251166060870152511660808501525160a08401525160c08301525160e0820152f35b50346100c25760203660031901126100c2576102f3610af2565b6001546001600160a01b039190821633036103495716806bffffffffffffffffffffffff60a01b60025416176002557ff7578aa4efe31be3a6e580abe1584a374cb525536655e38225b96ef0dfc368388280a280f35b60405162461bcd60e51b81526020600482015260096024820152682737ba1030b236b4b760b91b6044820152606490fd5b50346100c25760c03660031901126100c25760043567ffffffffffffffff81116106cb576103ac903690600401610b0d565b9060243567ffffffffffffffff8111610625576103cd903690600401610b0d565b909160443567ffffffffffffffff81116106c7576103ef903690600401610b0d565b909260643567ffffffffffffffff81116106c357610411903690600401610b0d565b909260843567ffffffffffffffff81116106bf57610433903690600401610b0d565b92909167ffffffffffffffff60a435116106bb576104563660a435600401610b0d565b95909760018060a01b0360015416331480156106a7575b61047690610b3e565b818c148061069e575b80610695575b15610658578c905b8d8d83106104985780f35b6104ac6104a78f859085610c2e565b610c54565b60405163dbcd13df60e01b81526001600160a01b0391821660048201529390602090859060249082907f0000000000000000000000000000000000000000000000000000000000000000165afa8015610612578f948f918f91899189918791610629575b5061052b575b5050505061052390610c1f565b92505061048d565b9061054b8580936105456104a78361055298999d8d610c2e565b9a610c2e565b3593610c2e565b3560ff8116810361062557610568838a8f610c2e565b359061ffff82168203610621578e91610590858f8f8f610589918491610c2e565b3595610c2e565b3593303b1561061d57604051636f98ebe360e01b81526001600160a01b0390991660048a0152602489015260ff909116604488015261ffff166064870152608486015260a4850152818460c48183305af1938415610612578f946105f9575b508d8d8787610516565b8291945061060690610b7b565b6100c2578d92386105ef565b6040513d84823e3d90fd5b8680fd5b8480fd5b8380fd5b61064b915060203d602011610651575b6106438183610bc2565b810190610be4565b38610510565b503d610639565b60405162461bcd60e51b8152602060048201526015602482015274082e4e4c2f240d8cadccee8d040dad2e6dac2e8c6d605b1b6044820152606490fd5b50838c14610485565b50828c1461047f565b506002546001600160a01b0316331461046d565b8a80fd5b8980fd5b8780fd5b8580fd5b5080fd5b50346100c25760203660031901126100c25760206106f36106ee610af2565b610c68565b604051908152f35b50346100c25760c03660031901126100c257610715610af2565b60443560ff811691828203610625576064359061ffff8216918281036106c7576001546001600160a01b03959060a4359060843590881633148015610a79575b61075e90610b3e565b876040519563dbcd13df60e01b875216978860048701527f0000000000000000000000000000000000000000000000000000000000000000169260209660249688818981895afa908115610a6e578c91610a51575b5015610a1657898b528a885260408b20958654998835918260028a015560038901908562ffff0083549260081b169162ffffff19161717905584600489015585600589015542600689015561080782610d05565b92601981029080820460191490151715610a0357600a9004938d601e86116109fa575b50600510156109f457506005935b6103fc60ff86169560021b1694808604600414901517156109e157908c95949392918695821591821561097b575b505050509161087c61087c926108819594610bfc565b610bfc565b936103e8808611610973575b5084845560ff600161089e87610cc4565b950194168060ff19865416178555833b1561096f57888387956064936040519788968795630a39a91760e21b8752600487015285015260448401525af1801561096457610925575b50917f77ac235d545f3629a6434c27b333240b6328132ec9a29da1a2fb2ca627fa19db939160ff6060945416916040519384528301526040820152a280f35b9160ff60609492976109587f77ac235d545f3629a6434c27b333240b6328132ec9a29da1a2fb2ca627fa19db9795610b7b565b979294505091936108e6565b6040513d89823e3d90fd5b8280fd5b94503861088d565b909193975061098c92949650610bfc565b90600a820291808304600a14901517156109e1576109ce579161088193918c95930491600a83116109c5575b9193388080959395610866565b600a92506109b8565b634e487b7160e01b8c526012600452878cfd5b634e487b7160e01b8d526011600452888dfd5b93610838565b601e955061082a565b634e487b7160e01b8e526011600452898efd5b60405162461bcd60e51b81526004810189905260148189015273436f6c6c6563746f72206e6f742061637469766560601b6044820152606490fd5b610a689150893d8b11610651576106438183610bc2565b386107b3565b6040513d8e823e3d90fd5b5060025488163314610755565b50346100c257806003193601126100c2576002546040516001600160a01b039091168152602090f35b9050346106cb57816003193601126106cb577f00000000000000000000000000000000000000000000000000000000000000006001600160a01b03168152602090f35b600435906001600160a01b0382168203610b0857565b600080fd5b9181601f84011215610b085782359167ffffffffffffffff8311610b08576020808501948460051b010111610b0857565b15610b4557565b60405162461bcd60e51b815260206004820152600e60248201526d139bdd08185d5d1a1bdc9a5e995960921b6044820152606490fd5b67ffffffffffffffff8111610b8f57604052565b634e487b7160e01b600052604160045260246000fd5b610100810190811067ffffffffffffffff821117610b8f57604052565b90601f8019910116810190811067ffffffffffffffff821117610b8f57604052565b90816020910312610b0857518015158103610b085790565b91908201809211610c0957565b634e487b7160e01b600052601160045260246000fd5b6000198114610c095760010190565b9190811015610c3e5760051b0190565b634e487b7160e01b600052603260045260246000fd5b356001600160a01b0381168103610b085790565b6001600160a01b031660009081526020819052604090206001015460ff168015610cbd5760018114610cb65760028114610caf57600314610ca957613a9890565b6134bc90565b50612ee090565b50612af890565b5061271090565b610321811015610cff576101f5811015610cf95760c9811015610cf35760331115610cee57600090565b600190565b50600290565b50600390565b50600490565b8015610d5e576001808201809211610c0957600090825b610d4a57506104b580820292508115918304141715610c09576064900460288111610d445790565b50602890565b610d5892811c928392610c1f565b91610d1c565b5060009056fea2646970667358221220ca2c8313b10d4a67403738ff3277468aa3b87d233f9455a806be97a662b6e6f364736f6c63430008130033",
  "linkReferences": {},
  "deployedLinkReferences": {}
}