{
  "_format": "hh-sol-artifact-1",
  "contractName": "CleanupEventPool",
  "sourceName": "src/CleanupEventPool.sol",
  "abi": [
    {
      "anonymous": false,
      "inputs": [
        {
          "indexed": true,
          "internalType": "string",
          "name": "eventId",
          "type": "string"
        },
        {
          "indexed": false,
          "internalType": "uint256",
          "name": "totalKg",
          "type": "uint256"
        },
        {
          "indexed": false,
          "internalType": "uint256",
          "name": "collectorCount",
          "type": "uint256"
        },
        {
          "indexed": false,
          "internalType": "uint256",
          "name": "hbarDistributed",
          "type": "uint256"
        }
      ],
      "name": "EventCompleted",
      "type": "event"
    },
    {
      "anonymous": false,
      "inputs": [
        {
          "indexed": true,
          "internalType": "string",
          "name": "eventId",
          "type": "string"
        },
        {
          "indexed": true,
          "internalType": "address",
          "name": "organizer",
          "type": "address"
        },
        {
          "indexed": false,
          "internalType": "string",
          "name": "eventName",
          "type": "string"
        },
        {
          "indexed": false,
          "internalType": "string[]",
          "name": "zones",
          "type": "string[]"
        },
        {
          "indexed": false,
          "internalType": "uint256",
          "name": "startDate",
          "type": "uint256"
        },
        {
          "indexed": false,
          "internalType": "uint256",
          "name": "endDate",
          "type": "uint256"
        }
      ],
      "name": "EventRegistered",
      "type": "event"
    },
    {
      "anonymous": false,
      "inputs": [
        {
          "indexed": true,
          "internalType": "string",
          "name": "eventId",
          "type": "string"
        },
        {
          "indexed": true,
          "internalType": "address",
          "name": "sponsor",
          "type": "address"
        },
        {
          "indexed": false,
          "internalType": "string",
          "name": "sponsorName",
          "type": "string"
        },
        {
          "indexed": false,
          "internalType": "uint256",
          "name": "poolAmount",
          "type": "uint256"
        },
        {
          "indexed": false,
          "internalType": "uint256",
          "name": "multiplier",
          "type": "uint256"
        }
      ],
      "name": "EventSponsored",
      "type": "event"
    },
    {
      "anonymous": false,
      "inputs": [
        {
          "indexed": true,
          "internalType": "string",
          "name": "eventId",
          "type": "string"
        },
        {
          "indexed": false,
          "internalType": "uint256",
          "name": "multiplier",
          "type": "uint256"
        }
      ],
      "name": "EventStarted",
      "type": "event"
    },
    {
      "inputs": [],
      "name": "MIN_POOL_AMOUNT",
      "outputs": [
        {
          "internalType": "uint256",
          "name": "",
          "type": "uint256"
        }
      ],
      "stateMutability": "view",
      "type": "function"
    },
    {
      "inputs": [],
      "name": "PLATFORM_FEE_BPS",
      "outputs": [
        {
          "internalType": "uint256",
          "name": "",
          "type": "uint256"
        }
      ],
      "stateMutability": "view",
      "type": "function"
    },
    {
      "inputs": [
        {
          "internalType": "string",
          "name": "",
          "type": "string"
        }
      ],
      "name": "activeEvents",
      "outputs": [
        {
          "internalType": "bool",
          "name": "",
          "type": "bool"
        }
      ],
      "stateMutability": "view",
      "type": "function"
    },
    {
      "inputs": [
        {
          "internalType": "string",
          "name": "_eventId",
          "type": "string"
        }
      ],
      "name": "cancelEvent",
      "outputs": [],
      "stateMutability": "nonpayable",
      "type": "function"
    },
    {
      "inputs": [
        {
          "internalType": "string",
          "name": "",
          "type": "string"
        }
      ],
      "name": "cleanupEvents",
      "outputs": [
        {
          "internalType": "string",
          "name": "eventId",
          "type": "string"
        },
        {
          "internalType": "address",
          "name": "organizer",
          "type": "address"
        },
        {
          "internalType": "string",
          "name": "eventName",
          "type": "string"
        },
        {
          "internalType": "uint256",
          "name": "startDate",
          "type": "uint256"
        },
        {
          "internalType": "uint256",
          "name": "endDate",
          "type": "uint256"
        },
        {
          "internalType": "uint256",
          "name": "targetKg",
          "type": "uint256"
        },
        {
          "internalType": "string",
          "name": "description",
          "type": "string"
        },
        {
          "internalType": "address",
          "name": "sponsor",
          "type": "address"
        },
        {
          "internalType": "string",
          "name": "sponsorName",
          "type": "string"
        },
        {
          "internalType": "uint256",
          "name": "poolAmount",
          "type": "uint256"
        },
        {
          "internalType": "uint256",
          "name": "multiplier",
          "type": "uint256"
        },
        {
          "internalType": "uint256",
          "name": "totalKgCollected",
          "type": "uint256"
        },
        {
          "internalType": "uint256",
          "name": "collectorsParticipating",
          "type": "uint256"
        },
        {
          "internalType": "enum CleanupEventPool.EventStatus",
          "name": "status",
          "type": "uint8"
        },
        {
          "internalType": "uint256",
          "name": "hcsEventSequence",
          "type": "uint256"
        },
        {
          "internalType": "uint256",
          "name": "createdAt",
          "type": "uint256"
        }
      ],
      "stateMutability": "view",
      "type": "function"
    },
    {
      "inputs": [
        {
          "internalType": "string",
          "name": "_eventId",
          "type": "string"
        },
        {
          "internalType": "uint256",
          "name": "_totalKgCollected",
          "type": "uint256"
        },
        {
          "internalType": "uint256",
          "name": "_collectorCount",
          "type": "uint256"
        },
        {
          "internalType": "uint256",
          "name": "_hbarDistributed",
          "type": "uint256"
        }
      ],
      "name": "completeEvent",
      "outputs": [],
      "stateMutability": "nonpayable",
      "type": "function"
    },
    {
      "inputs": [
        {
          "internalType": "uint256",
          "name": "",
          "type": "uint256"
        }
      ],
      "name": "eventIds",
      "outputs": [
        {
          "internalType": "string",
          "name": "",
          "type": "string"
        }
      ],
      "stateMutability": "view",
      "type": "function"
    },
    {
      "inputs": [
        {
          "internalType": "string",
          "name": "_zone",
          "type": "string"
        }
      ],
      "name": "getActiveEventsForZone",
      "outputs": [
        {
          "internalType": "string[]",
          "name": "",
          "type": "string[]"
        }
      ],
      "stateMutability": "view",
      "type": "function"
    },
    {
      "inputs": [
        {
          "internalType": "string",
          "name": "_eventId",
          "type": "string"
        }
      ],
      "name": "getEvent",
      "outputs": [
        {
          "components": [
            {
              "internalType": "string",
              "name": "eventId",
              "type": "string"
            },
            {
              "internalType": "address",
              "name": "organizer",
              "type": "address"
            },
            {
              "internalType": "string",
              "name": "eventName",
              "type": "string"
            },
            {
              "internalType": "string[]",
              "name": "zones",
              "type": "string[]"
            },
            {
              "internalType": "uint256",
              "name": "startDate",
              "type": "uint256"
            },
            {
              "internalType": "uint256",
              "name": "endDate",
              "type": "uint256"
            },
            {
              "internalType": "uint256",
              "name": "targetKg",
              "type": "uint256"
            },
            {
              "internalType": "string",
              "name": "description",
              "type": "string"
            },
            {
              "internalType": "address",
              "name": "sponsor",
              "type": "address"
            },
            {
              "internalType": "string",
              "name": "sponsorName",
              "type": "string"
            },
            {
              "internalType": "uint256",
              "name": "poolAmount",
              "type": "uint256"
            },
            {
              "internalType": "uint256",
              "name": "multiplier",
              "type": "uint256"
            },
            {
              "internalType": "uint256",
              "name": "totalKgCollected",
              "type": "uint256"
            },
            {
              "internalType": "uint256",
              "name": "collectorsParticipating",
              "type": "uint256"
            },
            {
              "internalType": "enum CleanupEventPool.EventStatus",
              "name": "status",
              "type": "uint8"
            },
            {
              "internalType": "uint256",
              "name": "hcsEventSequence",
              "type": "uint256"
            },
            {
              "internalType": "uint256",
              "name": "createdAt",
              "type": "uint256"
            }
          ],
          "internalType": "struct CleanupEventPool.CleanupEvent",
          "name": "",
          "type": "tuple"
        }
      ],
      "stateMutability": "view",
      "type": "function"
    },
    {
      "inputs": [],
      "name": "getEventCount",
      "outputs": [
        {
          "internalType": "uint256",
          "name": "",
          "type": "uint256"
        }
      ],
      "stateMutability": "view",
      "type": "function"
    },
    {
      "inputs": [
        {
          "internalType": "string",
          "name": "_eventId",
          "type": "string"
        }
      ],
      "name": "getEventMultiplier",
      "outputs": [
        {
          "internalType": "uint256",
          "name": "",
          "type": "uint256"
        }
      ],
      "stateMutability": "view",
      "type": "function"
    },
    {
      "inputs": [
        {
          "internalType": "string",
          "name": "_eventId",
          "type": "string"
        }
      ],
      "name": "isEventActive",
      "outputs": [
        {
          "internalType": "bool",
          "name": "",
          "type": "bool"
        }
      ],
      "stateMutability": "view",
      "type": "function"
    },
    {
      "inputs": [
        {
          "internalType": "string",
          "name": "_eventId",
          "type": "string"
        },
        {
          "internalType": "string",
          "name": "_eventName",
          "type": "string"
        },
        {
          "internalType": "string[]",
          "name": "_zones",
          "type": "string[]"
        },
        {
          "internalType": "uint256",
          "name": "_startDate",
          "type": "uint256"
        },
        {
          "internalType": "uint256",
          "name": "_endDate",
          "type": "uint256"
        },
        {
          "internalType": "uint256",
          "name": "_targetKg",
          "type": "uint256"
        },
        {
          "internalType": "string",
          "name": "_description",
          "type": "string"
        }
      ],
      "name": "registerEvent",
      "outputs": [],
      "stateMutability": "nonpayable",
      "type": "function"
    },
    {
      "inputs": [
        {
          "internalType": "string",
          "name": "_eventId",
          "type": "string"
        },
        {
          "internalType": "string",
          "name": "_sponsorName",
          "type": "string"
        },
        {
          "internalType": "uint256",
          "name": "_expectedTotalPayout",
          "type": "uint256"
        }
      ],
      "name": "sponsorEvent",
      "outputs": [],
      "stateMutability": "payable",
      "type": "function"
    },
    {
      "inputs": [
        {
          "internalType": "string",
          "name": "_eventId",
          "type": "string"
        }
      ],
      "name": "startEvent",
      "outputs": [],
      "stateMutability": "nonpayable",
      "type": "function"
    }
  ],
  "bytecode": "0x6080806040523461001657611de3908161001c8239f35b600080fdfe60a080604052600436101561001357600080fd5b60003560e01c90816317ab06e1146118675750806321349940146115345780635133066714611394578063539aa77f146113775780636a87b58a146111a75780636e06a97f146111655780638eca37f614610f20578063923d302c14610ebf578063998f6ac014610e74578063d68f15ab14610ccd578063d9e48f5c14610caf578063e1902063146109b7578063ead149ca146103d6578063eff63953146101945763fa7fb9df146100c457600080fd5b3461018f5760208060031936011261018f576004356001600160401b03811161018f576100f59036906004016118c6565b6040518260ff83519282818187019561010f81838961191c565b8101600181520301902054169182610164575b82610134575b50906040519015158152f35b61014d925060059360405193849283925192839161191c565b810160008152030190200154421115808238610128565b915060046040518281865161017a81838961191c565b81016000815203019020015442101591610122565b600080fd5b3461018f5760208060031936011261018f576004356001600160401b03811161018f576101c59036906004016118c6565b90604051825191808401926101db81848661191c565b82016000815260018383828060a01b0395869403019020015416331480156103ac575b156103775760ff600e6040518381885161021981838b61191c565b8101600081520301902001541660048110156103615760021461031d57600e6040518281875161024a81838a61191c565b810160008152030190200160ff19906003828254161790556040518281875161027481838a61191c565b81016001815203019020908154169055600a6040518281875161029881838a61191c565b8101600081520301902001546102aa57005b600093600a6102ec86959386959486956008604051848189516102ce81838961191c565b81018b8152030190200154169460405193849283925192839161191c565b810186815203019020015490828215610314575bf11561030857005b6040513d6000823e3d90fd5b506108fc610300565b6064906040519062461bcd60e51b82526004820152601760248201527f4576656e7420616c726561647920636f6d706c657465640000000000000000006044820152fd5b634e487b7160e01b600052602160045260246000fd5b6064906040519062461bcd60e51b82526004820152600e60248201526d139bdd08185d5d1a1bdc9a5e995960921b6044820152fd5b50816008604051838188516103c281838b61191c565b8101600081520301902001541633146101fe565b3461018f5760e036600319011261018f576001600160401b0360043581811161018f576104079036906004016118c6565b9060243581811161018f576104209036906004016118c6565b916044359180831161018f573660238401121561018f57826004013561044581611afa565b9361045360405195866118a5565b8185526024602086019260051b8201019136831161018f5760248201905b83821061098f575050505060c43581811161018f576104949036906004016118c6565b906104bd60405160208186516104ad8183858b0161191c565b810160008152030190205461193f565b61094a574260643511156109055760643560843511156108b657621275006064350180606435116108a0576084351161085b57604051916104fd83611889565b838352336020840152856040840152846060840152606435608084015260843560a084015260a43560c084015260e0830152600061010083015260405190816020810110906020830111176107af5760208101604052600081526101208201526000610140820152612710610160820152600061018082015260006101a082015260006101c082015260006101e08201524261020082015260405160208184516105aa818385890161191c565b81016000815203019020906105c0815183611b28565b6001820160018060a01b036020830151166001600160601b0360a01b8254161790556105f3604082015160028401611b28565b6060810151805190600160401b82116107af5760038401548260038601558083106107e2575b506020016003840160005260206000206000915b8383106107c557505050506080810151600483015560a0810151600583015560c0810151600683015561066760e082015160078401611b28565b6008820160018060a01b03610100830151166001600160601b0360a01b82541617905561069c61012082015160098401611b28565b610140810151600a830155610160810151600b830155610180810151600c8301556101a0810151600d8301556101c0810151600e8301916004821015610361576010926102009260ff801983541691161790556101e0810151600f8501550151910155600254600160401b8110156107af5780600161071e9201600255611a51565b9190916107995761075c81610757610780937fbe7a1815d02600470baf49741a76112bfee6a4f1cf0290e445db85d38bfd5a3295611b28565b611c2c565b9261077260405195608087526080870190611a1f565b908582036020870152611a9e565b92606435604082015260843560608201528033940390a3005b634e487b7160e01b600052600060045260246000fd5b634e487b7160e01b600052604160045260246000fd5b60016020826107d683945186611b28565b0192019201919061062d565b600385016000526020600020908382015b8183018110610803575050610619565b806108106001925461193f565b8061081d575b50016107f3565b601f908181118414610836575050600081555b8b610816565b61085260009284845260208420920160051c8201858301611b11565b81835555610830565b60405162461bcd60e51b815260206004820152601a60248201527f4576656e74206475726174696f6e206d617820313420646179730000000000006044820152606490fd5b634e487b7160e01b600052601160045260246000fd5b60405162461bcd60e51b815260206004820152602160248201527f456e642064617465206d757374206265206166746572207374617274206461746044820152606560f81b6064820152608490fd5b60405162461bcd60e51b815260206004820152601c60248201527f53746172742064617465206d75737420626520696e20667574757265000000006044820152606490fd5b60405162461bcd60e51b815260206004820152601760248201527f4576656e7420494420616c7265616479206578697374730000000000000000006044820152606490fd5b813585811161018f576020916109ac8392602436918801016118c6565b815201910190610471565b3461018f57602036600319011261018f576004356001600160401b03811161018f5760206109ec610a7a9236906004016118c6565b60006102006040516109fd81611889565b606081528285820152606060408201526060808201528260808201528260a08201528260c0820152606060e0820152826101008201526060610120820152826101408201528261016082015282610180820152826101a0820152826101c0820152826101e08201520152816040519382858094519384920161191c565b8101600081520301902060405190610a9182611889565b610a9a81611979565b825260018101546001600160a01b03166020830152610abb60028201611979565b6040830152610acc60038201611ceb565b606083015260048101546080830152600581015460a0830152600681015460c0830152610afb60078201611979565b60e083015260088101546001600160a01b0316610100830152610b2060098201611979565b610120830152600a810154610140830152600b810154610160830152600c810154610180830152600d8101546101a083015260ff600e82015416906004821015610361576010916101c0840152600f8101546101e08401520154610200820152604051809160208252610200610c54610c26610bf1610bdb610bb0865161022060208a0152610240890190611a1f565b60208701516001600160a01b0316604089810191909152870151888203601f190160608a0152611a1f565b6060860151878203601f19016080890152611a9e565b608085015160a087015260a085015160c087015260c085015160e087015260e0850151601f1987830301610100880152611a1f565b6101008401516001600160a01b031661012086810191909152840151858203601f1901610140870152611a1f565b916101408101516101608501526101608101516101808501526101808101516101a08501526101a08101516101c0850152610c996101c08201516101e0860190611a44565b6101e08101518285015201516102208301520390f35b3461018f57600036600319011261018f576020600254604051908152f35b3461018f5760208060031936011261018f576004356001600160401b03811161018f57610cfe9036906004016118c6565b9060025491610d0c83611d40565b9260009160005b828110610d7b57505050610d2681611d40565b9260005b828110610d4c57505050610d48604051928284938452830190611a9e565b0390f35b80610d5a610d769284611d99565b51610d658288611d99565b52610d708187611d99565b50611d8a565b610d2a565b610d8d610d8782611a51565b50611979565b6040519086815160ff82840191610da581878561191c565b8501948381600197888152030190205416610dcd575b50505050610dc890611d8a565b610d13565b6003610de98593610df99360405180938192895192839161191c565b8101600081520301902001611ceb565b6000898701925b610e0e575b50889150610dbb565b8151811015610e6f57610e218183611d99565b518a81519101208751842014610e4157610e3b8591611d8a565b90610e00565b505050610e64915094610dc89295610e59828a611d99565b52610d708189611d99565b939087808080610e05565b610e05565b3461018f57602036600319011261018f5760043560025481101561018f57610e9b90611a51565b61079957610eab610d4891611979565b604051918291602083526020830190611a1f565b3461018f57602036600319011261018f576004356001600160401b03811161018f5760ff610f0a6020610ef7819436906004016118c6565b816040519382858094519384920161191c565b8101600181520301902054166040519015158152f35b3461018f57608036600319011261018f576004356001600160401b03811161018f57610f509036906004016118c6565b602435604435604051928051610f7d610f766020968781818701956104ad81838961191c565b1515611c4c565b60ff600e60405187818651610f9381838961191c565b8101600081520301902001541660048110156103615760010361112d57600560405186818551610fc481838861191c565b81016000815203019020015442108015906110fc575b156110b757916110a27f14c0c689591f22b9491a7710c35edd0938d7841d50a6c2173de72fced88e1c79949260609461108d88600e6040518281875161102181838a61191c565b81016000815203019020019260ff199360028582541617905587600c6040518481895161104f81838961191c565b81016000815203019020015586600d6040518481895161107081838961191c565b81016000815203019020015560405180938192875192839161191c565b81016001815203019020908154169055611c2c565b946040519283528201526064356040820152a2005b60405162461bcd60e51b815260048101869052601b60248201527f4576656e74206e6f7420726561647920746f20636f6d706c65746500000000006044820152606490fd5b506040516001835161110f81848661191c565b820191600083528781838060a01b0394030190200154163314610fda565b60405162461bcd60e51b815260048101869052601060248201526f4576656e74206e6f742061637469766560801b6044820152606490fd5b3461018f57602036600319011261018f576004356001600160401b03811161018f5761119f61119a60209236906004016118c6565b611c8f565b604051908152f35b3461018f5760208060031936011261018f576004356001600160401b03811161018f576111d89036906004016118c6565b906040516111f6610f768451928481818801956104ad81838961191c565b60046040518381865161120a81838861191c565b81016000815203019020015442106113325760ff600e6040518481875161123281838961191c565b810160008152030190200154166004811015610361576112f557906112eb600b6112d9837f057b05dc7c997aa34e6d25791f9e81be968ed0d1c14d52794f57d44ad7bfe82695600e60405183818b5161128c81838861191c565b810160008152030190200160ff1990600182825416179055600160405184818c516112b881838961191c565b81018481520301902091825416179055604051809381928a5192839161191c565b81016000815203019020015493611c2c565b92604051908152a2005b60405162461bcd60e51b8152600481018390526015602482015274115d995b9d08185b1c9958591e481cdd185c9d1959605a1b6044820152606490fd5b60405162461bcd60e51b815260048101839052601860248201527f4576656e74206e6f7420726561647920746f20737461727400000000000000006044820152606490fd5b3461018f57600036600319011261018f5760206040516101f48152f35b3461018f57602036600319011261018f576004356001600160401b03811161018f576113c49036906004016118c6565b60405181818093516020819301916113db9261191c565b8101600081520360200190206113f081611979565b60018201546001600160a01b039290831661140d60028301611979565b6004830154946005840154906006850154906007860161142c90611979565b906008870154166009870161144090611979565b91600a88015499600b89015494600c8a015496600d8b015498600e8c015460ff169a600f8d01549c601001549d604051806080526102008091526080510161148791611a1f565b906080516020015260805180820390604001526114a391611a1f565b92608051606001526080516080015260805160a001526080518082039060c001526114cd91611a1f565b9060805160e001526080518082039061010001526114ea91611a1f565b9660805161012001526080516101400152608051610160015260805161018001526080516101a00161151b91611a44565b6080516101c001526080516101e0015260805180910390f35b606036600319011261018f576001600160401b0360043581811161018f576115609036906004016118c6565b602491823590811161018f5761157a9036906004016118c6565b604435906040519280519061159f610f766020968781818601966104ad81838a61191c565b60ff600e604051878185516115b581838a61191c565b8101600081520301902001541660048110156118525761180e576802b5e3af16b188000034106117d2576101f4918234029234840414341517156117bd5761271080930492833403953487116117a85797879882989798958115801561170b575b50505050509082600b6116d37fd874a8ce3cf550948077346970a4f43d7466050dd2d4aad8f17d8d6df14ec91b976116e49560086040518381895161165c81838861191c565b8101600081520301902001336001600160601b0360a01b8254161790556116a189600960405185818b5161169181838a61191c565b8101600081520301902001611b28565b8a600a60405184818a516116b681838961191c565b81016000815203019020015560405180938192885192839161191c565b810160008152030190200155611c2c565b936116fa60405193606085526060850190611a1f565b9583015260408201528033940390a3005b9193959798509193955084890291898304861490341417156117935761177e5704820180921161176a5750859392909180600b6116d37fd874a8ce3cf550948077346970a4f43d7466050dd2d4aad8f17d8d6df14ec91b6116e4611616565b634e487b7160e01b60009081526011600452fd5b82634e487b7160e01b60005260126004526000fd5b83634e487b7160e01b60005260116004526000fd5b88634e487b7160e01b60005260116004526000fd5b86634e487b7160e01b60005260116004526000fd5b60405162461bcd60e51b81526004810186905260158188015274141bdbdb08185b5bdd5b9d081d1bdbc81cdb585b1b605a1b6044820152606490fd5b60405162461bcd60e51b815260048101869052601c818801527f4576656e74206e6f7420696e207570636f6d696e6720737461747573000000006044820152606490fd5b86634e487b7160e01b60005260216004526000fd5b3461018f57600036600319011261018f57806802b5e3af16b188000060209252f35b61022081019081106001600160401b038211176107af57604052565b90601f801991011681019081106001600160401b038211176107af57604052565b81601f8201121561018f578035906001600160401b0382116107af57604051926118fa601f8401601f1916602001856118a5565b8284526020838301011161018f57816000926020809301838601378301015290565b60005b83811061192f5750506000910152565b818101518382015260200161191f565b90600182811c9216801561196f575b602083101461195957565b634e487b7160e01b600052602260045260246000fd5b91607f169161194e565b906040519182600082549261198d8461193f565b9081845260019485811690816000146119fc57506001146119b9575b50506119b7925003836118a5565b565b9093915060005260209081600020936000915b8183106119e45750506119b7935082010138806119a9565b855488840185015294850194879450918301916119cc565b9150506119b794506020925060ff191682840152151560051b82010138806119a9565b90602091611a388151809281855285808601910161191c565b601f01601f1916010190565b9060048210156103615752565b600254811015611a885760026000527f405787fa12a823e0f2b7631cc41b3ba8828b3321ca811111fa75cd3aa3bb5ace0190600090565b634e487b7160e01b600052603260045260246000fd5b908082519081815260208091019281808460051b8301019501936000915b848310611acc5750505050505090565b9091929394958480611aea600193601f198682030187528a51611a1f565b9801930193019194939290611abc565b6001600160401b0381116107af5760051b60200190565b818110611b1c575050565b60008155600101611b11565b91909182516001600160401b0381116107af57611b45825461193f565b601f8111611bef575b50602080601f8311600114611b8b575081929394600092611b80575b50508160011b916000199060031b1c1916179055565b015190503880611b6a565b90601f198316958460005282600020926000905b888210611bd757505083600195969710611bbe575b505050811b019055565b015160001960f88460031b161c19169055388080611bb4565b80600185968294968601518155019501930190611b9f565b611c1c90836000526020600020601f840160051c81019160208510611c22575b601f0160051c0190611b11565b38611b4e565b9091508190611c0f565b611c449060206040519282848094519384920161191c565b810103902090565b15611c5357565b60405162461bcd60e51b8152602060048201526014602482015273115d995b9d08191bd95cc81b9bdd08195e1a5cdd60621b6044820152606490fd5b60405160ff82519160208181860194611ca981838861191c565b81016001815203019020541615611ce3576020611cd491600b9360405193849283925192839161191c565b81016000815203019020015490565b505061271090565b908154611cf781611afa565b92611d0560405194856118a5565b818452600090815260208082208186015b848410611d24575050505050565b6001838192611d3285611979565b815201920193019290611d16565b90611d4a82611afa565b611d5760405191826118a5565b8281528092611d68601f1991611afa565b019060005b828110611d7957505050565b806060602080938501015201611d6d565b60001981146108a05760010190565b8051821015611a885760209160051b01019056fea2646970667358221220fe1c723cadf90d247533e6c5cd2e16bc164929e2ad2054fdf346c65aff0b1e2b64736f6c63430008130033",
  "linkReferences": {},
  "deployedLinkReferences": {}
}