{
  "_format": "hh-sol-artifact-1",
  "contractName": "CorporateVault",
  "sourceName": "src/CorporateVault.sol",
  "abi": [
    {
      "inputs": [
        {
          "internalType": "address",
          "name": "_prcToken",
          "type": "address"
        }
      ],
      "stateMutability": "nonpayable",
      "type": "constructor"
    },
    {
      "anonymous": false,
      "inputs": [
        {
          "indexed": true,
          "internalType": "address",
          "name": "collector",
          "type": "address"
        },
        {
          "indexed": false,
          "internalType": "uint256",
          "name": "amount",
          "type": "uint256"
        },
        {
          "indexed": false,
          "internalType": "string",
          "name": "attestationId",
          "type": "string"
        }
      ],
      "name": "CollectorPaid",
      "type": "event"
    },
    {
      "anonymous": false,
      "inputs": [
        {
          "indexed": true,
          "internalType": "address",
          "name": "buyerAddress",
          "type": "address"
        },
        {
          "indexed": false,
          "internalType": "string",
          "name": "companyName",
          "type": "string"
        },
        {
          "indexed": false,
          "internalType": "string",
          "name": "industry",
          "type": "string"
        }
      ],
      "name": "CorporateBuyerRegistered",
      "type": "event"
    },
    {
      "anonymous": false,
      "inputs": [
        {
          "indexed": true,
          "internalType": "address",
          "name": "buyer",
          "type": "address"
        },
        {
          "indexed": false,
          "internalType": "string",
          "name": "companyName",
          "type": "string"
        },
        {
          "indexed": false,
          "internalType": "uint256",
          "name": "prcsBought",
          "type": "uint256"
        },
        {
          "indexed": false,
          "internalType": "uint256",
          "name": "hbarPaid",
          "type": "uint256"
        }
      ],
      "name": "PRCPurchased",
      "type": "event"
    },
    {
      "anonymous": false,
      "inputs": [
        {
          "indexed": false,
          "internalType": "uint256",
          "name": "amount",
          "type": "uint256"
        }
      ],
      "name": "PaymentPoolDeposit",
      "type": "event"
    },
    {
      "inputs": [],
      "name": "DEFAULT_PRC_PRICE",
      "outputs": [
        {
          "internalType": "uint256",
          "name": "",
          "type": "uint256"
        }
      ],
      "stateMutability": "view",
      "type": "function"
    },
    {
      "inputs": [],
      "name": "POOL_SHARE_BPS",
      "outputs": [
        {
          "internalType": "uint256",
          "name": "",
          "type": "uint256"
        }
      ],
      "stateMutability": "view",
      "type": "function"
    },
    {
      "inputs": [],
      "name": "REGISTRATION_FEE",
      "outputs": [
        {
          "internalType": "uint256",
          "name": "",
          "type": "uint256"
        }
      ],
      "stateMutability": "view",
      "type": "function"
    },
    {
      "inputs": [],
      "name": "TREASURY_SHARE_BPS",
      "outputs": [
        {
          "internalType": "uint256",
          "name": "",
          "type": "uint256"
        }
      ],
      "stateMutability": "view",
      "type": "function"
    },
    {
      "inputs": [],
      "name": "admin",
      "outputs": [
        {
          "internalType": "address",
          "name": "",
          "type": "address"
        }
      ],
      "stateMutability": "view",
      "type": "function"
    },
    {
      "inputs": [
        {
          "internalType": "uint256",
          "name": "",
          "type": "uint256"
        }
      ],
      "name": "buyerAddresses",
      "outputs": [
        {
          "internalType": "address",
          "name": "",
          "type": "address"
        }
      ],
      "stateMutability": "view",
      "type": "function"
    },
    {
      "inputs": [
        {
          "internalType": "uint256",
          "name": "_dailyPayoutEstimate",
          "type": "uint256"
        }
      ],
      "name": "checkPaymentPoolHealth",
      "outputs": [
        {
          "internalType": "bool",
          "name": "isHealthy",
          "type": "bool"
        },
        {
          "internalType": "uint256",
          "name": "daysRemaining",
          "type": "uint256"
        }
      ],
      "stateMutability": "view",
      "type": "function"
    },
    {
      "inputs": [
        {
          "internalType": "address",
          "name": "",
          "type": "address"
        }
      ],
      "name": "corporateBuyers",
      "outputs": [
        {
          "internalType": "address",
          "name": "walletAddress",
          "type": "address"
        },
        {
          "internalType": "string",
          "name": "companyName",
          "type": "string"
        },
        {
          "internalType": "string",
          "name": "industry",
          "type": "string"
        },
        {
          "internalType": "string",
          "name": "contactEmail",
          "type": "string"
        },
        {
          "internalType": "string",
          "name": "registrationNumber",
          "type": "string"
        },
        {
          "internalType": "uint256",
          "name": "totalPrcsOwned",
          "type": "uint256"
        },
        {
          "internalType": "uint256",
          "name": "totalPrcsRetired",
          "type": "uint256"
        },
        {
          "internalType": "uint256",
          "name": "totalHbarSpent",
          "type": "uint256"
        },
        {
          "internalType": "uint256",
          "name": "collectorsSupported",
          "type": "uint256"
        },
        {
          "internalType": "bool",
          "name": "isActive",
          "type": "bool"
        },
        {
          "internalType": "uint256",
          "name": "registeredAt",
          "type": "uint256"
        }
      ],
      "stateMutability": "view",
      "type": "function"
    },
    {
      "inputs": [],
      "name": "getBuyerCount",
      "outputs": [
        {
          "internalType": "uint256",
          "name": "",
          "type": "uint256"
        }
      ],
      "stateMutability": "view",
      "type": "function"
    },
    {
      "inputs": [
        {
          "internalType": "address",
          "name": "_buyer",
          "type": "address"
        }
      ],
      "name": "getCorporateBuyer",
      "outputs": [
        {
          "components": [
            {
              "internalType": "address",
              "name": "walletAddress",
              "type": "address"
            },
            {
              "internalType": "string",
              "name": "companyName",
              "type": "string"
            },
            {
              "internalType": "string",
              "name": "industry",
              "type": "string"
            },
            {
              "internalType": "string",
              "name": "contactEmail",
              "type": "string"
            },
            {
              "internalType": "string",
              "name": "registrationNumber",
              "type": "string"
            },
            {
              "internalType": "uint256",
              "name": "totalPrcsOwned",
              "type": "uint256"
            },
            {
              "internalType": "uint256",
              "name": "totalPrcsRetired",
              "type": "uint256"
            },
            {
              "internalType": "uint256",
              "name": "totalHbarSpent",
              "type": "uint256"
            },
            {
              "internalType": "uint256",
              "name": "collectorsSupported",
              "type": "uint256"
            },
            {
              "internalType": "bool",
              "name": "isActive",
              "type": "bool"
            },
            {
              "internalType": "uint256",
              "name": "registeredAt",
              "type": "uint256"
            }
          ],
          "internalType": "struct CorporateVault.CorporateBuyer",
          "name": "",
          "type": "tuple"
        }
      ],
      "stateMutability": "view",
      "type": "function"
    },
    {
      "inputs": [],
      "name": "getPaymentPoolBalance",
      "outputs": [
        {
          "internalType": "uint256",
          "name": "",
          "type": "uint256"
        }
      ],
      "stateMutability": "view",
      "type": "function"
    },
    {
      "inputs": [],
      "name": "getTreasuryBalance",
      "outputs": [
        {
          "internalType": "uint256",
          "name": "",
          "type": "uint256"
        }
      ],
      "stateMutability": "view",
      "type": "function"
    },
    {
      "inputs": [],
      "name": "paymentPool",
      "outputs": [
        {
          "internalType": "uint256",
          "name": "",
          "type": "uint256"
        }
      ],
      "stateMutability": "view",
      "type": "function"
    },
    {
      "inputs": [],
      "name": "prcToken",
      "outputs": [
        {
          "internalType": "contract PRCToken",
          "name": "",
          "type": "address"
        }
      ],
      "stateMutability": "view",
      "type": "function"
    },
    {
      "inputs": [
        {
          "internalType": "uint256",
          "name": "_prcAmount",
          "type": "uint256"
        }
      ],
      "name": "purchasePRCs",
      "outputs": [],
      "stateMutability": "payable",
      "type": "function"
    },
    {
      "inputs": [],
      "name": "recoveryAgent",
      "outputs": [
        {
          "internalType": "address",
          "name": "",
          "type": "address"
        }
      ],
      "stateMutability": "view",
      "type": "function"
    },
    {
      "inputs": [
        {
          "internalType": "string",
          "name": "_companyName",
          "type": "string"
        },
        {
          "internalType": "string",
          "name": "_industry",
          "type": "string"
        },
        {
          "internalType": "string",
          "name": "_contactEmail",
          "type": "string"
        },
        {
          "internalType": "string",
          "name": "_registrationNumber",
          "type": "string"
        }
      ],
      "name": "registerCorporateBuyer",
      "outputs": [],
      "stateMutability": "payable",
      "type": "function"
    },
    {
      "inputs": [
        {
          "internalType": "uint256",
          "name": "_amount",
          "type": "uint256"
        },
        {
          "internalType": "string",
          "name": "_reportRef",
          "type": "string"
        }
      ],
      "name": "retirePRCs",
      "outputs": [],
      "stateMutability": "nonpayable",
      "type": "function"
    },
    {
      "inputs": [
        {
          "internalType": "address",
          "name": "_agent",
          "type": "address"
        }
      ],
      "name": "setRecoveryAgent",
      "outputs": [],
      "stateMutability": "nonpayable",
      "type": "function"
    },
    {
      "inputs": [],
      "name": "treasury",
      "outputs": [
        {
          "internalType": "uint256",
          "name": "",
          "type": "uint256"
        }
      ],
      "stateMutability": "view",
      "type": "function"
    },
    {
      "inputs": [
        {
          "internalType": "address",
          "name": "_collector",
          "type": "address"
        },
        {
          "internalType": "uint256",
          "name": "_amountTinybar",
          "type": "uint256"
        },
        {
          "internalType": "string",
          "name": "_attestationId",
          "type": "string"
        }
      ],
      "name": "triggerCollectorPayment",
      "outputs": [],
      "stateMutability": "nonpayable",
      "type": "function"
    },
    {
      "stateMutability": "payable",
      "type": "receive"
    }
  ],
  "bytecode": "0x60803461007c57601f61181338819003918201601f19168301916001600160401b038311848410176100815780849260209460405283398101031261007c57516001600160a01b0381169081900361007c5760018060a01b0319908160025416176002553390600354161760035560405161177b90816100988239f35b600080fd5b634e487b7160e01b600052604160045260246000fdfe6080806040526004361015610056575b50361561001b57600080fd5b61002734600554611620565b6005557f94895d32e6ec4d14034bf7e666484e939c9632771195a8db0d8c0d98e10aaa576020604051348152a1005b600090813560e01c90816311c511d2146113b657508063261b7815146112b257806328fea9b614610b5c578063389728b614610b3f5780634335ae841461095f5780634a7805c314610936578063556b790f146108f257806361d027b31461024b57806364b4f751146108ce5780636c9b94af146106675780637f5d099d1461063a57806383de24f114610421578063868b93fc1461028757806393084a2a146102695780639b5655dc1461024b5780639bac7669146101cf578063b803e75314610171578063bfaccec0146101b2578063d47ffd221461018f578063e4625fce146101715763f851a4400361000f573461016e578060031936011261016e576003546040516001600160a01b039091168152602090f35b80fd5b503461016e578060031936011261016e576020600554604051908152f35b503461016e578060031936011261016e576020604051670f43fc2c04ee00008152f35b503461016e578060031936011261016e5760206040516121ca8152f35b503461016e57602036600319011261016e576101e96113db565b6003546001600160a01b0391908216330361021a57166bffffffffffffffffffffffff60a01b600454161760045580f35b60405162461bcd60e51b81526020600482015260096024820152682737ba1030b236b4b760b91b6044820152606490fd5b503461016e578060031936011261016e576020600654604051908152f35b503461016e578060031936011261016e576020600154604051908152f35b503461016e57606036600319011261016e576102a16113db565b6024356044356001600160401b039283821161041d573660238301121561041d57816004013593841161041d57366024858401011161041d576003546001600160a01b039190821633148015610410575b156103da57600554848110610395578461030b91611686565b600555169284838582821561038c575b839283928392f115610381577fd291f499d29b089d125f4fd213c70df65f78c1295c99a1b54ec459c5150a0ce49281606092602460405195869485526040602086015282604086015201848401378181018301879052601f01601f19168101030190a280f35b6040513d86823e3d90fd5b506108fc61031b565b60405162461bcd60e51b815260206004820152601960248201527f496e73756666696369656e7420706f6f6c2062616c616e6365000000000000006044820152606490fd5b60405162461bcd60e51b815260206004820152600e60248201526d139bdd08185d5d1a1bdc9a5e995960921b6044820152606490fd5b50816004541633146102f2565b8480fd5b503461016e576003199060403683011261016e576004356001600160401b036024358181116105bd5761045890369060040161158c565b33845260209184835261047460ff600960408820015416611643565b60025460405163f8b2cb4f60e01b81523360048201526001600160a01b03909116969084816024818b5afa90811561062f5790869188916105fa575b50106105c157946104fc8197829697338452838752838961050b6001604084200193604051998a97889687956320652dd160e01b87526004870152606060248701526064860190611693565b9184830301604485015261154c565b03925af1801561038157610551575b505033825281815260056040832001610534848254611686565b90553382525261054c60066040842001918254611620565b905580f35b3d8085843e6105608184611462565b820191838184031261041d57805191821161041d570181601f820112156105bd5780519061058d82611571565b9261059b6040519485611462565b82845284838301011161041d5783806105b694019101611529565b388061051a565b8380fd5b60405162461bcd60e51b8152600481018590526011602482015270496e73756666696369656e74205052437360781b6044820152606490fd5b809250868092503d8311610628575b6106138183611462565b8101031261062457859051386104b0565b8680fd5b503d610609565b6040513d89823e3d90fd5b503461016e57602036600319011261016e576040610659600435611729565b825191151582526020820152f35b50602080600319360112610844576004359133815280825261069260ff600960408420015416611643565b821561089857670f43fc2c04ee00008302670f43fc2c04edffff1984820401610884576103e890043410610848576002546001600160a01b0316803b156108445781809160446040518094819363a9059cbb60e01b83523360048401528960248401525af180156108395761080e575b5090610546928334029334850414341517156107fa576127107f94895d32e6ec4d14034bf7e666484e939c9632771195a8db0d8c0d98e10aaa579394049061076561074d8334611686565b9261075a84600554611620565b600555600654611620565b60065533855284835260056040862001610780828254611620565b90553385528483526007604086200161079a348254611620565b90553385528483527fb99588f37248a1e685205824f5927af54d97ea932bb2d1d6758ce0e78650c484600160408720016107df60405191606083526060830190611693565b92858201523460408201528033930390a2604051908152a180f35b634e487b7160e01b83526011600452602483fd5b6001600160401b0381116108255760405238610702565b634e487b7160e01b82526041600452602482fd5b6040513d84823e3d90fd5b5080fd5b60405162461bcd60e51b8152600481018390526014602482015273125b9cdd59999a58da595b9d081c185e5b595b9d60621b6044820152606490fd5b634e487b7160e01b82526011600452602482fd5b60405162461bcd60e51b815260048101839052600e60248201526d125b9d985b1a5908185b5bdd5b9d60921b6044820152606490fd5b503461016e578060031936011261016e5760206040516802b5e3af16b18800008152f35b503461016e57602036600319011261016e576004359060015482101561016e57602061091d836115d3565b905460405160039290921b1c6001600160a01b03168152f35b503461016e578060031936011261016e576004546040516001600160a01b039091168152602090f35b503461016e57602036600319011261016e5760409061097c6113db565b81610140845161098b81611430565b82815260606020820152606086820152606080820152606060808201528260a08201528260c08201528260e08201528261010082015282610120820152015260018060a01b031681528060205220600a604051916109e883611430565b80546001600160a01b03168352610a0160018201611483565b6020840152610a1260028201611483565b6040840152610a2360038201611483565b6060840152610a3460048201611483565b6080840152600581015460a0840152600681015460c0840152600781015460e0840152600881015461010084015260ff6009820154161515610120840152015461014082015260405180916020825260018060a01b038151166020830152610140610afb610ab36020840151610160604087015261018086019061154c565b610ae6610ad2604086015192601f1993848983030160608a015261154c565b60608601518388830301608089015261154c565b906080850151908683030160a087015261154c565b9160a081015160c085015260c081015160e085015260e081015161010085015261010081015161012085015261012081015115158285015201516101608301520390f35b503461016e578060031936011261016e5760206040516105468152f35b50608036600319011261016e576004356001600160401b03811161084457610b8890369060040161158c565b6024356001600160401b0381116112ae57610ba790369060040161158c565b906044356001600160401b0381116105bd57610bc790369060040161158c565b6064356001600160401b03811161041d57610be690369060040161158c565b338552602085905260408520546001600160a01b0316611274576802b5e3af16b1880000341061122f5760405191610c1d83611430565b338352836020840152846040840152606083015260808201528360a08201528360c08201528360e08201528361010082015260016101208201524261014082015233845283602052604084209060018060a01b038151166bffffffffffffffffffffffff60a01b83541617825560208101518051906001600160401b038211610fbd578190610caf60018601546113f6565b601f81116111df575b50602090601f8311600114611170578892611165575b50508160011b916000199060031b1c19161760018301555b60408101518051906001600160401b038211610fbd578190610d0b60028601546113f6565b601f8111611115575b50602090601f83116001146110a657889261109b575b50508160011b916000199060031b1c19161760028301555b60608101518051906001600160401b038211610fbd578190610d6760038601546113f6565b601f811161104b575b50602090601f8311600114610fdc578892610fd1575b50508160011b916000199060031b1c19161760038301555b60808101518051906001600160401b038211610fbd57610dc160048501546113f6565b601f8111610f79575b50602090601f8311600114610f06579180600a9492610140948a92610efb575b50508160011b916000199060031b1c19161760048501555b60a0810151600585015560c0810151600685015560e08101516007850155610100810151600885015560098401610120820151151560ff801983541691161790550151910155610e5434600654611620565b60065560015468010000000000000000811015610ee7577fc1425ff0ab2b4ed7ee8a80713b5b2218682be775606e700ab65d79794bfd8c6891610ea0826001610ed294016001556115d3565b81546001600160a01b0360039290921b91821b19163390911b17905560408051818152928392610ee19284019061154c565b8281036020840152339561154c565b0390a280f35b634e487b7160e01b84526041600452602484fd5b015190503880610dea565b906004850188526020882091885b601f1985168110610f61575092600a94926001926101409583601f19811610610f48575b505050811b016004850155610e02565b015160001960f88460031b161c19169055388080610f38565b91926020600181928685015181550194019201610f14565b60048501885260208820601f840160051c810160208510610fb6575b601f830160051c82018110610fab575050610dca565b898155600101610f95565b5080610f95565b634e487b7160e01b87526041600452602487fd5b015190503880610d86565b9250600385018852602088209088935b601f1984168510611030576001945083601f19811610611017575b505050811b016003830155610d9e565b015160001960f88460031b161c19169055388080611007565b81810151835560209485019460019093019290910190610fec565b90915060038501885260208820601f840160051c810160208510611094575b90849392915b601f830160051c82018110611086575050610d70565b8a8155859450600101611070565b508061106a565b015190503880610d2a565b9250600285018852602088209088935b601f19841685106110fa576001945083601f198116106110e1575b505050811b016002830155610d42565b015160001960f88460031b161c191690553880806110d1565b818101518355602094850194600190930192909101906110b6565b90915060028501885260208820601f840160051c81016020851061115e575b90849392915b601f830160051c82018110611150575050610d14565b8a815585945060010161113a565b5080611134565b015190503880610cce565b9250600185018852602088209088935b601f19841685106111c4576001945083601f198116106111ab575b505050811b016001830155610ce6565b015160001960f88460031b161c1916905538808061119b565b81810151835560209485019460019093019290910190611180565b90915060018501885260208820601f840160051c810160208510611228575b90849392915b601f830160051c8201811061121a575050610cb8565b8a8155859450600101611204565b50806111fe565b60405162461bcd60e51b815260206004820152601d60248201527f496e73756666696369656e7420726567697374726174696f6e206665650000006044820152606490fd5b60405162461bcd60e51b8152602060048201526012602482015271105b1c9958591e481c9959da5cdd195c995960721b6044820152606490fd5b8280fd5b503461016e57602036600319011261016e576001600160a01b0390604090826112d96113db565b1681528060205220908154166112f160018301611483565b916112fe60028201611483565b61130a60038301611483565b9161131760048201611483565b92600582015493600683015461138e600785015492611380600887015495611372600a60ff60098b015416990154996113646040519e8f9e8f90815261016090816020820152019061154c565b8d810360408f01529061154c565b908b820360608d015261154c565b9089820360808b015261154c565b9560a088015260c087015260e086015261010085015215156101208401526101408301520390f35b9050346108445781600319360112610844576002546001600160a01b03168152602090f35b600435906001600160a01b03821682036113f157565b600080fd5b90600182811c92168015611426575b602083101461141057565b634e487b7160e01b600052602260045260246000fd5b91607f1691611405565b61016081019081106001600160401b0382111761144c57604052565b634e487b7160e01b600052604160045260246000fd5b90601f801991011681019081106001600160401b0382111761144c57604052565b9060405191826000825492611497846113f6565b90818452600194858116908160001461150657506001146114c3575b50506114c192500383611462565b565b9093915060005260209081600020936000915b8183106114ee5750506114c1935082010138806114b3565b855488840185015294850194879450918301916114d6565b9150506114c194506020925060ff191682840152151560051b82010138806114b3565b60005b83811061153c5750506000910152565b818101518382015260200161152c565b9060209161156581518092818552858086019101611529565b601f01601f1916010190565b6001600160401b03811161144c57601f01601f191660200190565b81601f820112156113f1578035906115a382611571565b926115b16040519485611462565b828452602083830101116113f157816000926020809301838601378301015290565b60015481101561160a5760016000527fb10e2d527612073b26eecdfd717e6a320cf44b4afac2b0732d9fcbe2b7fa0cf60190600090565b634e487b7160e01b600052603260045260246000fd5b9190820180921161162d57565b634e487b7160e01b600052601160045260246000fd5b1561164a57565b60405162461bcd60e51b8152602060048201526014602482015273109d5e595c881b9bdd081c9959da5cdd195c995960621b6044820152606490fd5b9190820391821161162d57565b90600092918054916116a4836113f6565b91828252600193848116908160001461170657506001146116c6575b50505050565b90919394506000526020928360002092846000945b8386106116f25750505050010190388080806116c0565b8054858701830152940193859082016116db565b9294505050602093945060ff191683830152151560051b010190388080806116c0565b801561173b5760055404601e81101591565b506001906000199056fea2646970667358221220c76978179e9616db9d365c41d502ed9ac49e8cf07fa252d4ce3f60887f06eb9f64736f6c63430008130033",
  "linkReferences": {},
  "deployedLinkReferences": {}
}