{"src/CleanupEventPool.sol":{"CleanupEventPool":{"abi":[{"anonymous":false,"inputs":[{"indexed":true,"internalType":"string","name":"eventId","type":"string"},{"indexed":false,"internalType":"uint256","name":"totalKg","type":"uint256"},{"indexed":false,"internalType":"uint256","name":"collectorCount","type":"uint256"},{"indexed":false,"internalType":"uint256","name":"hbarDistributed","type":"uint256"}],"name":"EventCompleted","type":"event"},{"anonymous":false,"inputs":[{"indexed":true,"internalType":"string","name":"eventId","type":"string"},{"indexed":true,"internalType":"address","name":"organizer","type":"address"},{"indexed":false,"internalType":"string","name":"eventName","type":"string"},{"indexed":false,"internalType":"string[]","name":"zones","type":"string[]"},{"indexed":false,"internalType":"uint256","name":"startDate","type":"uint256"},{"indexed":false,"internalType":"uint256","name":"endDate","type":"uint256"}],"name":"EventRegistered","type":"event"},{"anonymous":false,"inputs":[{"indexed":true,"internalType":"string","name":"eventId","type":"string"},{"indexed":true,"internalType":"address","name":"sponsor","type":"address"},{"indexed":false,"internalType":"string","name":"sponsorName","type":"string"},{"indexed":false,"internalType":"uint256","name":"poolAmount","type":"uint256"},{"indexed":false,"internalType":"uint256","name":"multiplier","type":"uint256"}],"name":"EventSponsored","type":"event"},{"anonymous":false,"inputs":[{"indexed":true,"internalType":"string","name":"eventId","type":"string"},{"indexed":false,"internalType":"uint256","name":"multiplier","type":"uint256"}],"name":"EventStarted","type":"event"},{"inputs":[],"name":"MIN_POOL_AMOUNT","outputs":[{"internalType":"uint256","name":"","type":"uint256"}],"stateMutability":"view","type":"function"},{"inputs":[],"name":"PLATFORM_FEE_BPS","outputs":[{"internalType":"uint256","name":"","type":"uint256"}],"stateMutability":"view","type":"function"},{"inputs":[{"internalType":"string","name":"","type":"string"}],"name":"activeEvents","outputs":[{"internalType":"bool","name":"","type":"bool"}],"stateMutability":"view","type":"function"},{"inputs":[{"internalType":"string","name":"_eventId","type":"string"}],"name":"cancelEvent","outputs":[],"stateMutability":"nonpayable","type":"function"},{"inputs":[{"internalType":"string","name":"","type":"string"}],"name":"cleanupEvents","outputs":[{"internalType":"string","name":"eventId","type":"string"},{"internalType":"address","name":"organizer","type":"address"},{"internalType":"string","name":"eventName","type":"string"},{"internalType":"uint256","name":"startDate","type":"uint256"},{"internalType":"uint256","name":"endDate","type":"uint256"},{"internalType":"uint256","name":"targetKg","type":"uint256"},{"internalType":"string","name":"description","type":"string"},{"internalType":"address","name":"sponsor","type":"address"},{"internalType":"string","name":"sponsorName","type":"string"},{"internalType":"uint256","name":"poolAmount","type":"uint256"},{"internalType":"uint256","name":"multiplier","type":"uint256"},{"internalType":"uint256","name":"totalKgCollected","type":"uint256"},{"internalType":"uint256","name":"collectorsParticipating","type":"uint256"},{"internalType":"enum CleanupEventPool.EventStatus","name":"status","type":"uint8"},{"internalType":"uint256","name":"hcsEventSequence","type":"uint256"},{"internalType":"uint256","name":"createdAt","type":"uint256"}],"stateMutability":"view","type":"function"},{"inputs":[{"internalType":"string","name":"_eventId","type":"string"},{"internalType":"uint256","name":"_totalKgCollected","type":"uint256"},{"internalType":"uint256","name":"_collectorCount","type":"uint256"},{"internalType":"uint256","name":"_hbarDistributed","type":"uint256"}],"name":"completeEvent","outputs":[],"stateMutability":"nonpayable","type":"function"},{"inputs":[{"internalType":"uint256","name":"","type":"uint256"}],"name":"eventIds","outputs":[{"internalType":"string","name":"","type":"string"}],"stateMutability":"view","type":"function"},{"inputs":[{"internalType":"string","name":"_zone","type":"string"}],"name":"getActiveEventsForZone","outputs":[{"internalType":"string[]","name":"","type":"string[]"}],"stateMutability":"view","type":"function"},{"inputs":[{"internalType":"string","name":"_eventId","type":"string"}],"name":"getEvent","outputs":[{"components":[{"internalType":"string","name":"eventId","type":"string"},{"internalType":"address","name":"organizer","type":"address"},{"internalType":"string","name":"eventName","type":"string"},{"internalType":"string[]","name":"zones","type":"string[]"},{"internalType":"uint256","name":"startDate","type":"uint256"},{"internalType":"uint256","name":"endDate","type":"uint256"},{"internalType":"uint256","name":"targetKg","type":"uint256"},{"internalType":"string","name":"description","type":"string"},{"internalType":"address","name":"sponsor","type":"address"},{"internalType":"string","name":"sponsorName","type":"string"},{"internalType":"uint256","name":"poolAmount","type":"uint256"},{"internalType":"uint256","name":"multiplier","type":"uint256"},{"internalType":"uint256","name":"totalKgCollected","type":"uint256"},{"internalType":"uint256","name":"collectorsParticipating","type":"uint256"},{"internalType":"enum CleanupEventPool.EventStatus","name":"status","type":"uint8"},{"internalType":"uint256","name":"hcsEventSequence","type":"uint256"},{"internalType":"uint256","name":"createdAt","type":"uint256"}],"internalType":"struct CleanupEventPool.CleanupEvent","name":"","type":"tuple"}],"stateMutability":"view","type":"function"},{"inputs":[],"name":"getEventCount","outputs":[{"internalType":"uint256","name":"","type":"uint256"}],"stateMutability":"view","type":"function"},{"inputs":[{"internalType":"string","name":"_eventId","type":"string"}],"name":"getEventMultiplier","outputs":[{"internalType":"uint256","name":"","type":"uint256"}],"stateMutability":"view","type":"function"},{"inputs":[{"internalType":"string","name":"_eventId","type":"string"}],"name":"isEventActive","outputs":[{"internalType":"bool","name":"","type":"bool"}],"stateMutability":"view","type":"function"},{"inputs":[{"internalType":"string","name":"_eventId","type":"string"},{"internalType":"string","name":"_eventName","type":"string"},{"internalType":"string[]","name":"_zones","type":"string[]"},{"internalType":"uint256","name":"_startDate","type":"uint256"},{"internalType":"uint256","name":"_endDate","type":"uint256"},{"internalType":"uint256","name":"_targetKg","type":"uint256"},{"internalType":"string","name":"_description","type":"string"}],"name":"registerEvent","outputs":[],"stateMutability":"nonpayable","type":"function"},{"inputs":[{"internalType":"string","name":"_eventId","type":"string"},{"internalType":"string","name":"_sponsorName","type":"string"},{"internalType":"uint256","name":"_expectedTotalPayout","type":"uint256"}],"name":"sponsorEvent","outputs":[],"stateMutability":"payable","type":"function"},{"inputs":[{"internalType":"string","name":"_eventId","type":"string"}],"name":"startEvent","outputs":[],"stateMutability":"nonpayable","type":"function"}],"evm":{"bytecode":{"linkReferences":{},"object":"6080806040523461001657611de3908161001c8239f35b600080fdfe60a080604052600436101561001357600080fd5b60003560e01c90816317ab06e1146118675750806321349940146115345780635133066714611394578063539aa77f146113775780636a87b58a146111a75780636e06a97f146111655780638eca37f614610f20578063923d302c14610ebf578063998f6ac014610e74578063d68f15ab14610ccd578063d9e48f5c14610caf578063e1902063146109b7578063ead149ca146103d6578063eff63953146101945763fa7fb9df146100c457600080fd5b3461018f5760208060031936011261018f576004356001600160401b03811161018f576100f59036906004016118c6565b6040518260ff83519282818187019561010f81838961191c565b8101600181520301902054169182610164575b82610134575b50906040519015158152f35b61014d925060059360405193849283925192839161191c565b810160008152030190200154421115808238610128565b915060046040518281865161017a81838961191c565b81016000815203019020015442101591610122565b600080fd5b3461018f5760208060031936011261018f576004356001600160401b03811161018f576101c59036906004016118c6565b90604051825191808401926101db81848661191c565b82016000815260018383828060a01b0395869403019020015416331480156103ac575b156103775760ff600e6040518381885161021981838b61191c565b8101600081520301902001541660048110156103615760021461031d57600e6040518281875161024a81838a61191c565b810160008152030190200160ff19906003828254161790556040518281875161027481838a61191c565b81016001815203019020908154169055600a6040518281875161029881838a61191c565b8101600081520301902001546102aa57005b600093600a6102ec86959386959486956008604051848189516102ce81838961191c565b81018b8152030190200154169460405193849283925192839161191c565b810186815203019020015490828215610314575bf11561030857005b6040513d6000823e3d90fd5b506108fc610300565b6064906040519062461bcd60e51b82526004820152601760248201527f4576656e7420616c726561647920636f6d706c657465640000000000000000006044820152fd5b634e487b7160e01b600052602160045260246000fd5b6064906040519062461bcd60e51b82526004820152600e60248201526d139bdd08185d5d1a1bdc9a5e995960921b6044820152fd5b50816008604051838188516103c281838b61191c565b8101600081520301902001541633146101fe565b3461018f5760e036600319011261018f576001600160401b0360043581811161018f576104079036906004016118c6565b9060243581811161018f576104209036906004016118c6565b916044359180831161018f573660238401121561018f57826004013561044581611afa565b9361045360405195866118a5565b8185526024602086019260051b8201019136831161018f5760248201905b83821061098f575050505060c43581811161018f576104949036906004016118c6565b906104bd60405160208186516104ad8183858b0161191c565b810160008152030190205461193f565b61094a574260643511156109055760643560843511156108b657621275006064350180606435116108a0576084351161085b57604051916104fd83611889565b838352336020840152856040840152846060840152606435608084015260843560a084015260a43560c084015260e0830152600061010083015260405190816020810110906020830111176107af5760208101604052600081526101208201526000610140820152612710610160820152600061018082015260006101a082015260006101c082015260006101e08201524261020082015260405160208184516105aa818385890161191c565b81016000815203019020906105c0815183611b28565b6001820160018060a01b036020830151166001600160601b0360a01b8254161790556105f3604082015160028401611b28565b6060810151805190600160401b82116107af5760038401548260038601558083106107e2575b506020016003840160005260206000206000915b8383106107c557505050506080810151600483015560a0810151600583015560c0810151600683015561066760e082015160078401611b28565b6008820160018060a01b03610100830151166001600160601b0360a01b82541617905561069c61012082015160098401611b28565b610140810151600a830155610160810151600b830155610180810151600c8301556101a0810151600d8301556101c0810151600e8301916004821015610361576010926102009260ff801983541691161790556101e0810151600f8501550151910155600254600160401b8110156107af5780600161071e9201600255611a51565b9190916107995761075c81610757610780937fbe7a1815d02600470baf49741a76112bfee6a4f1cf0290e445db85d38bfd5a3295611b28565b611c2c565b9261077260405195608087526080870190611a1f565b908582036020870152611a9e565b92606435604082015260843560608201528033940390a3005b634e487b7160e01b600052600060045260246000fd5b634e487b7160e01b600052604160045260246000fd5b60016020826107d683945186611b28565b0192019201919061062d565b600385016000526020600020908382015b8183018110610803575050610619565b806108106001925461193f565b8061081d575b50016107f3565b601f908181118414610836575050600081555b8b610816565b61085260009284845260208420920160051c8201858301611b11565b81835555610830565b60405162461bcd60e51b815260206004820152601a60248201527f4576656e74206475726174696f6e206d617820313420646179730000000000006044820152606490fd5b634e487b7160e01b600052601160045260246000fd5b60405162461bcd60e51b815260206004820152602160248201527f456e642064617465206d757374206265206166746572207374617274206461746044820152606560f81b6064820152608490fd5b60405162461bcd60e51b815260206004820152601c60248201527f53746172742064617465206d75737420626520696e20667574757265000000006044820152606490fd5b60405162461bcd60e51b815260206004820152601760248201527f4576656e7420494420616c7265616479206578697374730000000000000000006044820152606490fd5b813585811161018f576020916109ac8392602436918801016118c6565b815201910190610471565b3461018f57602036600319011261018f576004356001600160401b03811161018f5760206109ec610a7a9236906004016118c6565b60006102006040516109fd81611889565b606081528285820152606060408201526060808201528260808201528260a08201528260c0820152606060e0820152826101008201526060610120820152826101408201528261016082015282610180820152826101a0820152826101c0820152826101e08201520152816040519382858094519384920161191c565b8101600081520301902060405190610a9182611889565b610a9a81611979565b825260018101546001600160a01b03166020830152610abb60028201611979565b6040830152610acc60038201611ceb565b606083015260048101546080830152600581015460a0830152600681015460c0830152610afb60078201611979565b60e083015260088101546001600160a01b0316610100830152610b2060098201611979565b610120830152600a810154610140830152600b810154610160830152600c810154610180830152600d8101546101a083015260ff600e82015416906004821015610361576010916101c0840152600f8101546101e08401520154610200820152604051809160208252610200610c54610c26610bf1610bdb610bb0865161022060208a0152610240890190611a1f565b60208701516001600160a01b0316604089810191909152870151888203601f190160608a0152611a1f565b6060860151878203601f19016080890152611a9e565b608085015160a087015260a085015160c087015260c085015160e087015260e0850151601f1987830301610100880152611a1f565b6101008401516001600160a01b031661012086810191909152840151858203601f1901610140870152611a1f565b916101408101516101608501526101608101516101808501526101808101516101a08501526101a08101516101c0850152610c996101c08201516101e0860190611a44565b6101e08101518285015201516102208301520390f35b3461018f57600036600319011261018f576020600254604051908152f35b3461018f5760208060031936011261018f576004356001600160401b03811161018f57610cfe9036906004016118c6565b9060025491610d0c83611d40565b9260009160005b828110610d7b57505050610d2681611d40565b9260005b828110610d4c57505050610d48604051928284938452830190611a9e565b0390f35b80610d5a610d769284611d99565b51610d658288611d99565b52610d708187611d99565b50611d8a565b610d2a565b610d8d610d8782611a51565b50611979565b6040519086815160ff82840191610da581878561191c565b8501948381600197888152030190205416610dcd575b50505050610dc890611d8a565b610d13565b6003610de98593610df99360405180938192895192839161191c565b8101600081520301902001611ceb565b6000898701925b610e0e575b50889150610dbb565b8151811015610e6f57610e218183611d99565b518a81519101208751842014610e4157610e3b8591611d8a565b90610e00565b505050610e64915094610dc89295610e59828a611d99565b52610d708189611d99565b939087808080610e05565b610e05565b3461018f57602036600319011261018f5760043560025481101561018f57610e9b90611a51565b61079957610eab610d4891611979565b604051918291602083526020830190611a1f565b3461018f57602036600319011261018f576004356001600160401b03811161018f5760ff610f0a6020610ef7819436906004016118c6565b816040519382858094519384920161191c565b8101600181520301902054166040519015158152f35b3461018f57608036600319011261018f576004356001600160401b03811161018f57610f509036906004016118c6565b602435604435604051928051610f7d610f766020968781818701956104ad81838961191c565b1515611c4c565b60ff600e60405187818651610f9381838961191c565b8101600081520301902001541660048110156103615760010361112d57600560405186818551610fc481838861191c565b81016000815203019020015442108015906110fc575b156110b757916110a27f14c0c689591f22b9491a7710c35edd0938d7841d50a6c2173de72fced88e1c79949260609461108d88600e6040518281875161102181838a61191c565b81016000815203019020019260ff199360028582541617905587600c6040518481895161104f81838961191c565b81016000815203019020015586600d6040518481895161107081838961191c565b81016000815203019020015560405180938192875192839161191c565b81016001815203019020908154169055611c2c565b946040519283528201526064356040820152a2005b60405162461bcd60e51b815260048101869052601b60248201527f4576656e74206e6f7420726561647920746f20636f6d706c65746500000000006044820152606490fd5b506040516001835161110f81848661191c565b820191600083528781838060a01b0394030190200154163314610fda565b60405162461bcd60e51b815260048101869052601060248201526f4576656e74206e6f742061637469766560801b6044820152606490fd5b3461018f57602036600319011261018f576004356001600160401b03811161018f5761119f61119a60209236906004016118c6565b611c8f565b604051908152f35b3461018f5760208060031936011261018f576004356001600160401b03811161018f576111d89036906004016118c6565b906040516111f6610f768451928481818801956104ad81838961191c565b60046040518381865161120a81838861191c565b81016000815203019020015442106113325760ff600e6040518481875161123281838961191c565b810160008152030190200154166004811015610361576112f557906112eb600b6112d9837f057b05dc7c997aa34e6d25791f9e81be968ed0d1c14d52794f57d44ad7bfe82695600e60405183818b5161128c81838861191c565b810160008152030190200160ff1990600182825416179055600160405184818c516112b881838961191c565b81018481520301902091825416179055604051809381928a5192839161191c565b81016000815203019020015493611c2c565b92604051908152a2005b60405162461bcd60e51b8152600481018390526015602482015274115d995b9d08185b1c9958591e481cdd185c9d1959605a1b6044820152606490fd5b60405162461bcd60e51b815260048101839052601860248201527f4576656e74206e6f7420726561647920746f20737461727400000000000000006044820152606490fd5b3461018f57600036600319011261018f5760206040516101f48152f35b3461018f57602036600319011261018f576004356001600160401b03811161018f576113c49036906004016118c6565b60405181818093516020819301916113db9261191c565b8101600081520360200190206113f081611979565b60018201546001600160a01b039290831661140d60028301611979565b6004830154946005840154906006850154906007860161142c90611979565b906008870154166009870161144090611979565b91600a88015499600b89015494600c8a015496600d8b015498600e8c015460ff169a600f8d01549c601001549d604051806080526102008091526080510161148791611a1f565b906080516020015260805180820390604001526114a391611a1f565b92608051606001526080516080015260805160a001526080518082039060c001526114cd91611a1f565b9060805160e001526080518082039061010001526114ea91611a1f565b9660805161012001526080516101400152608051610160015260805161018001526080516101a00161151b91611a44565b6080516101c001526080516101e0015260805180910390f35b606036600319011261018f576001600160401b0360043581811161018f576115609036906004016118c6565b602491823590811161018f5761157a9036906004016118c6565b604435906040519280519061159f610f766020968781818601966104ad81838a61191c565b60ff600e604051878185516115b581838a61191c565b8101600081520301902001541660048110156118525761180e576802b5e3af16b188000034106117d2576101f4918234029234840414341517156117bd5761271080930492833403953487116117a85797879882989798958115801561170b575b50505050509082600b6116d37fd874a8ce3cf550948077346970a4f43d7466050dd2d4aad8f17d8d6df14ec91b976116e49560086040518381895161165c81838861191c565b8101600081520301902001336001600160601b0360a01b8254161790556116a189600960405185818b5161169181838a61191c565b8101600081520301902001611b28565b8a600a60405184818a516116b681838961191c565b81016000815203019020015560405180938192885192839161191c565b810160008152030190200155611c2c565b936116fa60405193606085526060850190611a1f565b9583015260408201528033940390a3005b9193959798509193955084890291898304861490341417156117935761177e5704820180921161176a5750859392909180600b6116d37fd874a8ce3cf550948077346970a4f43d7466050dd2d4aad8f17d8d6df14ec91b6116e4611616565b634e487b7160e01b60009081526011600452fd5b82634e487b7160e01b60005260126004526000fd5b83634e487b7160e01b60005260116004526000fd5b88634e487b7160e01b60005260116004526000fd5b86634e487b7160e01b60005260116004526000fd5b60405162461bcd60e51b81526004810186905260158188015274141bdbdb08185b5bdd5b9d081d1bdbc81cdb585b1b605a1b6044820152606490fd5b60405162461bcd60e51b815260048101869052601c818801527f4576656e74206e6f7420696e207570636f6d696e6720737461747573000000006044820152606490fd5b86634e487b7160e01b60005260216004526000fd5b3461018f57600036600319011261018f57806802b5e3af16b188000060209252f35b61022081019081106001600160401b038211176107af57604052565b90601f801991011681019081106001600160401b038211176107af57604052565b81601f8201121561018f578035906001600160401b0382116107af57604051926118fa601f8401601f1916602001856118a5565b8284526020838301011161018f57816000926020809301838601378301015290565b60005b83811061192f5750506000910152565b818101518382015260200161191f565b90600182811c9216801561196f575b602083101461195957565b634e487b7160e01b600052602260045260246000fd5b91607f169161194e565b906040519182600082549261198d8461193f565b9081845260019485811690816000146119fc57506001146119b9575b50506119b7925003836118a5565b565b9093915060005260209081600020936000915b8183106119e45750506119b7935082010138806119a9565b855488840185015294850194879450918301916119cc565b9150506119b794506020925060ff191682840152151560051b82010138806119a9565b90602091611a388151809281855285808601910161191c565b601f01601f1916010190565b9060048210156103615752565b600254811015611a885760026000527f405787fa12a823e0f2b7631cc41b3ba8828b3321ca811111fa75cd3aa3bb5ace0190600090565b634e487b7160e01b600052603260045260246000fd5b908082519081815260208091019281808460051b8301019501936000915b848310611acc5750505050505090565b9091929394958480611aea600193601f198682030187528a51611a1f565b9801930193019194939290611abc565b6001600160401b0381116107af5760051b60200190565b818110611b1c575050565b60008155600101611b11565b91909182516001600160401b0381116107af57611b45825461193f565b601f8111611bef575b50602080601f8311600114611b8b575081929394600092611b80575b50508160011b916000199060031b1c1916179055565b015190503880611b6a565b90601f198316958460005282600020926000905b888210611bd757505083600195969710611bbe575b505050811b019055565b015160001960f88460031b161c19169055388080611bb4565b80600185968294968601518155019501930190611b9f565b611c1c90836000526020600020601f840160051c81019160208510611c22575b601f0160051c0190611b11565b38611b4e565b9091508190611c0f565b611c449060206040519282848094519384920161191c565b810103902090565b15611c5357565b60405162461bcd60e51b8152602060048201526014602482015273115d995b9d08191bd95cc81b9bdd08195e1a5cdd60621b6044820152606490fd5b60405160ff82519160208181860194611ca981838861191c565b81016001815203019020541615611ce3576020611cd491600b9360405193849283925192839161191c565b81016000815203019020015490565b505061271090565b908154611cf781611afa565b92611d0560405194856118a5565b818452600090815260208082208186015b848410611d24575050505050565b6001838192611d3285611979565b815201920193019290611d16565b90611d4a82611afa565b611d5760405191826118a5565b8281528092611d68601f1991611afa565b019060005b828110611d7957505050565b806060602080938501015201611d6d565b60001981146108a05760010190565b8051821015611a885760209160051b01019056fea2646970667358221220fe1c723cadf90d247533e6c5cd2e16bc164929e2ad2054fdf346c65aff0b1e2b64736f6c63430008130033","opcodes":"PUSH1 0x80 DUP1 PUSH1 0x40 MSTORE CALLVALUE PUSH2 0x16 JUMPI PUSH2 0x1DE3 SWAP1 DUP2 PUSH2 0x1C DUP3 CODECOPY RETURN JUMPDEST PUSH1 0x0 DUP1 REVERT INVALID PUSH1 0xA0 DUP1 PUSH1 0x40 MSTORE PUSH1 0x4 CALLDATASIZE LT ISZERO PUSH2 0x13 JUMPI PUSH1 0x0 DUP1 REVERT JUMPDEST PUSH1 0x0 CALLDATALOAD PUSH1 0xE0 SHR SWAP1 DUP2 PUSH4 0x17AB06E1 EQ PUSH2 0x1867 JUMPI POP DUP1 PUSH4 0x21349940 EQ PUSH2 0x1534 JUMPI DUP1 PUSH4 0x51330667 EQ PUSH2 0x1394 JUMPI DUP1 PUSH4 0x539AA77F EQ PUSH2 0x1377 JUMPI DUP1 PUSH4 0x6A87B58A EQ PUSH2 0x11A7 JUMPI DUP1 PUSH4 0x6E06A97F EQ PUSH2 0x1165 JUMPI DUP1 PUSH4 0x8ECA37F6 EQ PUSH2 0xF20 JUMPI DUP1 PUSH4 0x923D302C EQ PUSH2 0xEBF JUMPI DUP1 PUSH4 0x998F6AC0 EQ PUSH2 0xE74 JUMPI DUP1 PUSH4 0xD68F15AB EQ PUSH2 0xCCD JUMPI DUP1 PUSH4 0xD9E48F5C EQ PUSH2 0xCAF JUMPI DUP1 PUSH4 0xE1902063 EQ PUSH2 0x9B7 JUMPI DUP1 PUSH4 0xEAD149CA EQ PUSH2 0x3D6 JUMPI DUP1 PUSH4 0xEFF63953 EQ PUSH2 0x194 JUMPI PUSH4 0xFA7FB9DF EQ PUSH2 0xC4 JUMPI PUSH1 0x0 DUP1 REVERT JUMPDEST CALLVALUE PUSH2 0x18F JUMPI PUSH1 0x20 DUP1 PUSH1 0x3 NOT CALLDATASIZE ADD SLT PUSH2 0x18F JUMPI PUSH1 0x4 CALLDATALOAD PUSH1 0x1 PUSH1 0x1 PUSH1 0x40 SHL SUB DUP2 GT PUSH2 0x18F JUMPI PUSH2 0xF5 SWAP1 CALLDATASIZE SWAP1 PUSH1 0x4 ADD PUSH2 0x18C6 JUMP JUMPDEST PUSH1 0x40 MLOAD DUP3 PUSH1 0xFF DUP4 MLOAD SWAP3 DUP3 DUP2 DUP2 DUP8 ADD SWAP6 PUSH2 0x10F DUP2 DUP4 DUP10 PUSH2 0x191C JUMP JUMPDEST DUP2 ADD PUSH1 0x1 DUP2 MSTORE SUB ADD SWAP1 KECCAK256 SLOAD AND SWAP2 DUP3 PUSH2 0x164 JUMPI JUMPDEST DUP3 PUSH2 0x134 JUMPI JUMPDEST POP SWAP1 PUSH1 0x40 MLOAD SWAP1 ISZERO ISZERO DUP2 MSTORE RETURN JUMPDEST PUSH2 0x14D SWAP3 POP PUSH1 0x5 SWAP4 PUSH1 0x40 MLOAD SWAP4 DUP5 SWAP3 DUP4 SWAP3 MLOAD SWAP3 DUP4 SWAP2 PUSH2 0x191C JUMP JUMPDEST DUP2 ADD PUSH1 0x0 DUP2 MSTORE SUB ADD SWAP1 KECCAK256 ADD SLOAD TIMESTAMP GT ISZERO DUP1 DUP3 CODESIZE PUSH2 0x128 JUMP JUMPDEST SWAP2 POP PUSH1 0x4 PUSH1 0x40 MLOAD DUP3 DUP2 DUP7 MLOAD PUSH2 0x17A DUP2 DUP4 DUP10 PUSH2 0x191C JUMP JUMPDEST DUP2 ADD PUSH1 0x0 DUP2 MSTORE SUB ADD SWAP1 KECCAK256 ADD SLOAD TIMESTAMP LT ISZERO SWAP2 PUSH2 0x122 JUMP JUMPDEST PUSH1 0x0 DUP1 REVERT JUMPDEST CALLVALUE PUSH2 0x18F JUMPI PUSH1 0x20 DUP1 PUSH1 0x3 NOT CALLDATASIZE ADD SLT PUSH2 0x18F JUMPI PUSH1 0x4 CALLDATALOAD PUSH1 0x1 PUSH1 0x1 PUSH1 0x40 SHL SUB DUP2 GT PUSH2 0x18F JUMPI PUSH2 0x1C5 SWAP1 CALLDATASIZE SWAP1 PUSH1 0x4 ADD PUSH2 0x18C6 JUMP JUMPDEST SWAP1 PUSH1 0x40 MLOAD DUP3 MLOAD SWAP2 DUP1 DUP5 ADD SWAP3 PUSH2 0x1DB DUP2 DUP5 DUP7 PUSH2 0x191C JUMP JUMPDEST DUP3 ADD PUSH1 0x0 DUP2 MSTORE PUSH1 0x1 DUP4 DUP4 DUP3 DUP1 PUSH1 0xA0 SHL SUB SWAP6 DUP7 SWAP5 SUB ADD SWAP1 KECCAK256 ADD SLOAD AND CALLER EQ DUP1 ISZERO PUSH2 0x3AC JUMPI JUMPDEST ISZERO PUSH2 0x377 JUMPI PUSH1 0xFF PUSH1 0xE PUSH1 0x40 MLOAD DUP4 DUP2 DUP9 MLOAD PUSH2 0x219 DUP2 DUP4 DUP12 PUSH2 0x191C JUMP JUMPDEST DUP2 ADD PUSH1 0x0 DUP2 MSTORE SUB ADD SWAP1 KECCAK256 ADD SLOAD AND PUSH1 0x4 DUP2 LT ISZERO PUSH2 0x361 JUMPI PUSH1 0x2 EQ PUSH2 0x31D JUMPI PUSH1 0xE PUSH1 0x40 MLOAD DUP3 DUP2 DUP8 MLOAD PUSH2 0x24A DUP2 DUP4 DUP11 PUSH2 0x191C JUMP JUMPDEST DUP2 ADD PUSH1 0x0 DUP2 MSTORE SUB ADD SWAP1 KECCAK256 ADD PUSH1 0xFF NOT SWAP1 PUSH1 0x3 DUP3 DUP3 SLOAD AND OR SWAP1 SSTORE PUSH1 0x40 MLOAD DUP3 DUP2 DUP8 MLOAD PUSH2 0x274 DUP2 DUP4 DUP11 PUSH2 0x191C JUMP JUMPDEST DUP2 ADD PUSH1 0x1 DUP2 MSTORE SUB ADD SWAP1 KECCAK256 SWAP1 DUP2 SLOAD AND SWAP1 SSTORE PUSH1 0xA PUSH1 0x40 MLOAD DUP3 DUP2 DUP8 MLOAD PUSH2 0x298 DUP2 DUP4 DUP11 PUSH2 0x191C JUMP JUMPDEST DUP2 ADD PUSH1 0x0 DUP2 MSTORE SUB ADD SWAP1 KECCAK256 ADD SLOAD PUSH2 0x2AA JUMPI STOP JUMPDEST PUSH1 0x0 SWAP4 PUSH1 0xA PUSH2 0x2EC DUP7 SWAP6 SWAP4 DUP7 SWAP6 SWAP5 DUP7 SWAP6 PUSH1 0x8 PUSH1 0x40 MLOAD DUP5 DUP2 DUP10 MLOAD PUSH2 0x2CE DUP2 DUP4 DUP10 PUSH2 0x191C JUMP JUMPDEST DUP2 ADD DUP12 DUP2 MSTORE SUB ADD SWAP1 KECCAK256 ADD SLOAD AND SWAP5 PUSH1 0x40 MLOAD SWAP4 DUP5 SWAP3 DUP4 SWAP3 MLOAD SWAP3 DUP4 SWAP2 PUSH2 0x191C JUMP JUMPDEST DUP2 ADD DUP7 DUP2 MSTORE SUB ADD SWAP1 KECCAK256 ADD SLOAD SWAP1 DUP3 DUP3 ISZERO PUSH2 0x314 JUMPI JUMPDEST CALL ISZERO PUSH2 0x308 JUMPI STOP JUMPDEST PUSH1 0x40 MLOAD RETURNDATASIZE PUSH1 0x0 DUP3 RETURNDATACOPY RETURNDATASIZE SWAP1 REVERT JUMPDEST POP PUSH2 0x8FC PUSH2 0x300 JUMP JUMPDEST PUSH1 0x64 SWAP1 PUSH1 0x40 MLOAD SWAP1 PUSH3 0x461BCD PUSH1 0xE5 SHL DUP3 MSTORE PUSH1 0x4 DUP3 ADD MSTORE PUSH1 0x17 PUSH1 0x24 DUP3 ADD MSTORE PUSH32 0x4576656E7420616C726561647920636F6D706C65746564000000000000000000 PUSH1 0x44 DUP3 ADD MSTORE REVERT JUMPDEST PUSH4 0x4E487B71 PUSH1 0xE0 SHL PUSH1 0x0 MSTORE PUSH1 0x21 PUSH1 0x4 MSTORE PUSH1 0x24 PUSH1 0x0 REVERT JUMPDEST PUSH1 0x64 SWAP1 PUSH1 0x40 MLOAD SWAP1 PUSH3 0x461BCD PUSH1 0xE5 SHL DUP3 MSTORE PUSH1 0x4 DUP3 ADD MSTORE PUSH1 0xE PUSH1 0x24 DUP3 ADD MSTORE PUSH14 0x139BDD08185D5D1A1BDC9A5E9959 PUSH1 0x92 SHL PUSH1 0x44 DUP3 ADD MSTORE REVERT JUMPDEST POP DUP2 PUSH1 0x8 PUSH1 0x40 MLOAD DUP4 DUP2 DUP9 MLOAD PUSH2 0x3C2 DUP2 DUP4 DUP12 PUSH2 0x191C JUMP JUMPDEST DUP2 ADD PUSH1 0x0 DUP2 MSTORE SUB ADD SWAP1 KECCAK256 ADD SLOAD AND CALLER EQ PUSH2 0x1FE JUMP JUMPDEST CALLVALUE PUSH2 0x18F JUMPI PUSH1 0xE0 CALLDATASIZE PUSH1 0x3 NOT ADD SLT PUSH2 0x18F JUMPI PUSH1 0x1 PUSH1 0x1 PUSH1 0x40 SHL SUB PUSH1 0x4 CALLDATALOAD DUP2 DUP2 GT PUSH2 0x18F JUMPI PUSH2 0x407 SWAP1 CALLDATASIZE SWAP1 PUSH1 0x4 ADD PUSH2 0x18C6 JUMP JUMPDEST SWAP1 PUSH1 0x24 CALLDATALOAD DUP2 DUP2 GT PUSH2 0x18F JUMPI PUSH2 0x420 SWAP1 CALLDATASIZE SWAP1 PUSH1 0x4 ADD PUSH2 0x18C6 JUMP JUMPDEST SWAP2 PUSH1 0x44 CALLDATALOAD SWAP2 DUP1 DUP4 GT PUSH2 0x18F JUMPI CALLDATASIZE PUSH1 0x23 DUP5 ADD SLT ISZERO PUSH2 0x18F JUMPI DUP3 PUSH1 0x4 ADD CALLDATALOAD PUSH2 0x445 DUP2 PUSH2 0x1AFA JUMP JUMPDEST SWAP4 PUSH2 0x453 PUSH1 0x40 MLOAD SWAP6 DUP7 PUSH2 0x18A5 JUMP JUMPDEST DUP2 DUP6 MSTORE PUSH1 0x24 PUSH1 0x20 DUP7 ADD SWAP3 PUSH1 0x5 SHL DUP3 ADD ADD SWAP2 CALLDATASIZE DUP4 GT PUSH2 0x18F JUMPI PUSH1 0x24 DUP3 ADD SWAP1 JUMPDEST DUP4 DUP3 LT PUSH2 0x98F JUMPI POP POP POP POP PUSH1 0xC4 CALLDATALOAD DUP2 DUP2 GT PUSH2 0x18F JUMPI PUSH2 0x494 SWAP1 CALLDATASIZE SWAP1 PUSH1 0x4 ADD PUSH2 0x18C6 JUMP JUMPDEST SWAP1 PUSH2 0x4BD PUSH1 0x40 MLOAD PUSH1 0x20 DUP2 DUP7 MLOAD PUSH2 0x4AD DUP2 DUP4 DUP6 DUP12 ADD PUSH2 0x191C JUMP JUMPDEST DUP2 ADD PUSH1 0x0 DUP2 MSTORE SUB ADD SWAP1 KECCAK256 SLOAD PUSH2 0x193F JUMP JUMPDEST PUSH2 0x94A JUMPI TIMESTAMP PUSH1 0x64 CALLDATALOAD GT ISZERO PUSH2 0x905 JUMPI PUSH1 0x64 CALLDATALOAD PUSH1 0x84 CALLDATALOAD GT ISZERO PUSH2 0x8B6 JUMPI PUSH3 0x127500 PUSH1 0x64 CALLDATALOAD ADD DUP1 PUSH1 0x64 CALLDATALOAD GT PUSH2 0x8A0 JUMPI PUSH1 0x84 CALLDATALOAD GT PUSH2 0x85B JUMPI PUSH1 0x40 MLOAD SWAP2 PUSH2 0x4FD DUP4 PUSH2 0x1889 JUMP JUMPDEST DUP4 DUP4 MSTORE CALLER PUSH1 0x20 DUP5 ADD MSTORE DUP6 PUSH1 0x40 DUP5 ADD MSTORE DUP5 PUSH1 0x60 DUP5 ADD MSTORE PUSH1 0x64 CALLDATALOAD PUSH1 0x80 DUP5 ADD MSTORE PUSH1 0x84 CALLDATALOAD PUSH1 0xA0 DUP5 ADD MSTORE PUSH1 0xA4 CALLDATALOAD PUSH1 0xC0 DUP5 ADD MSTORE PUSH1 0xE0 DUP4 ADD MSTORE PUSH1 0x0 PUSH2 0x100 DUP4 ADD MSTORE PUSH1 0x40 MLOAD SWAP1 DUP2 PUSH1 0x20 DUP2 ADD LT SWAP1 PUSH1 0x20 DUP4 ADD GT OR PUSH2 0x7AF JUMPI PUSH1 0x20 DUP2 ADD PUSH1 0x40 MSTORE PUSH1 0x0 DUP2 MSTORE PUSH2 0x120 DUP3 ADD MSTORE PUSH1 0x0 PUSH2 0x140 DUP3 ADD MSTORE PUSH2 0x2710 PUSH2 0x160 DUP3 ADD MSTORE PUSH1 0x0 PUSH2 0x180 DUP3 ADD MSTORE PUSH1 0x0 PUSH2 0x1A0 DUP3 ADD MSTORE PUSH1 0x0 PUSH2 0x1C0 DUP3 ADD MSTORE PUSH1 0x0 PUSH2 0x1E0 DUP3 ADD MSTORE TIMESTAMP PUSH2 0x200 DUP3 ADD MSTORE PUSH1 0x40 MLOAD PUSH1 0x20 DUP2 DUP5 MLOAD PUSH2 0x5AA DUP2 DUP4 DUP6 DUP10 ADD PUSH2 0x191C JUMP JUMPDEST DUP2 ADD PUSH1 0x0 DUP2 MSTORE SUB ADD SWAP1 KECCAK256 SWAP1 PUSH2 0x5C0 DUP2 MLOAD DUP4 PUSH2 0x1B28 JUMP JUMPDEST PUSH1 0x1 DUP3 ADD PUSH1 0x1 DUP1 PUSH1 0xA0 SHL SUB PUSH1 0x20 DUP4 ADD MLOAD AND PUSH1 0x1 PUSH1 0x1 PUSH1 0x60 SHL SUB PUSH1 0xA0 SHL DUP3 SLOAD AND OR SWAP1 SSTORE PUSH2 0x5F3 PUSH1 0x40 DUP3 ADD MLOAD PUSH1 0x2 DUP5 ADD PUSH2 0x1B28 JUMP JUMPDEST PUSH1 0x60 DUP2 ADD MLOAD DUP1 MLOAD SWAP1 PUSH1 0x1 PUSH1 0x40 SHL DUP3 GT PUSH2 0x7AF JUMPI PUSH1 0x3 DUP5 ADD SLOAD DUP3 PUSH1 0x3 DUP7 ADD SSTORE DUP1 DUP4 LT PUSH2 0x7E2 JUMPI JUMPDEST POP PUSH1 0x20 ADD PUSH1 0x3 DUP5 ADD PUSH1 0x0 MSTORE PUSH1 0x20 PUSH1 0x0 KECCAK256 PUSH1 0x0 SWAP2 JUMPDEST DUP4 DUP4 LT PUSH2 0x7C5 JUMPI POP POP POP POP PUSH1 0x80 DUP2 ADD MLOAD PUSH1 0x4 DUP4 ADD SSTORE PUSH1 0xA0 DUP2 ADD MLOAD PUSH1 0x5 DUP4 ADD SSTORE PUSH1 0xC0 DUP2 ADD MLOAD PUSH1 0x6 DUP4 ADD SSTORE PUSH2 0x667 PUSH1 0xE0 DUP3 ADD MLOAD PUSH1 0x7 DUP5 ADD PUSH2 0x1B28 JUMP JUMPDEST PUSH1 0x8 DUP3 ADD PUSH1 0x1 DUP1 PUSH1 0xA0 SHL SUB PUSH2 0x100 DUP4 ADD MLOAD AND PUSH1 0x1 PUSH1 0x1 PUSH1 0x60 SHL SUB PUSH1 0xA0 SHL DUP3 SLOAD AND OR SWAP1 SSTORE PUSH2 0x69C PUSH2 0x120 DUP3 ADD MLOAD PUSH1 0x9 DUP5 ADD PUSH2 0x1B28 JUMP JUMPDEST PUSH2 0x140 DUP2 ADD MLOAD PUSH1 0xA DUP4 ADD SSTORE PUSH2 0x160 DUP2 ADD MLOAD PUSH1 0xB DUP4 ADD SSTORE PUSH2 0x180 DUP2 ADD MLOAD PUSH1 0xC DUP4 ADD SSTORE PUSH2 0x1A0 DUP2 ADD MLOAD PUSH1 0xD DUP4 ADD SSTORE PUSH2 0x1C0 DUP2 ADD MLOAD PUSH1 0xE DUP4 ADD SWAP2 PUSH1 0x4 DUP3 LT ISZERO PUSH2 0x361 JUMPI PUSH1 0x10 SWAP3 PUSH2 0x200 SWAP3 PUSH1 0xFF DUP1 NOT DUP4 SLOAD AND SWAP2 AND OR SWAP1 SSTORE PUSH2 0x1E0 DUP2 ADD MLOAD PUSH1 0xF DUP6 ADD SSTORE ADD MLOAD SWAP2 ADD SSTORE PUSH1 0x2 SLOAD PUSH1 0x1 PUSH1 0x40 SHL DUP2 LT ISZERO PUSH2 0x7AF JUMPI DUP1 PUSH1 0x1 PUSH2 0x71E SWAP3 ADD PUSH1 0x2 SSTORE PUSH2 0x1A51 JUMP JUMPDEST SWAP2 SWAP1 SWAP2 PUSH2 0x799 JUMPI PUSH2 0x75C DUP2 PUSH2 0x757 PUSH2 0x780 SWAP4 PUSH32 0xBE7A1815D02600470BAF49741A76112BFEE6A4F1CF0290E445DB85D38BFD5A32 SWAP6 PUSH2 0x1B28 JUMP JUMPDEST PUSH2 0x1C2C JUMP JUMPDEST SWAP3 PUSH2 0x772 PUSH1 0x40 MLOAD SWAP6 PUSH1 0x80 DUP8 MSTORE PUSH1 0x80 DUP8 ADD SWAP1 PUSH2 0x1A1F JUMP JUMPDEST SWAP1 DUP6 DUP3 SUB PUSH1 0x20 DUP8 ADD MSTORE PUSH2 0x1A9E JUMP JUMPDEST SWAP3 PUSH1 0x64 CALLDATALOAD PUSH1 0x40 DUP3 ADD MSTORE PUSH1 0x84 CALLDATALOAD PUSH1 0x60 DUP3 ADD MSTORE DUP1 CALLER SWAP5 SUB SWAP1 LOG3 STOP JUMPDEST PUSH4 0x4E487B71 PUSH1 0xE0 SHL PUSH1 0x0 MSTORE PUSH1 0x0 PUSH1 0x4 MSTORE PUSH1 0x24 PUSH1 0x0 REVERT JUMPDEST PUSH4 0x4E487B71 PUSH1 0xE0 SHL PUSH1 0x0 MSTORE PUSH1 0x41 PUSH1 0x4 MSTORE PUSH1 0x24 PUSH1 0x0 REVERT JUMPDEST PUSH1 0x1 PUSH1 0x20 DUP3 PUSH2 0x7D6 DUP4 SWAP5 MLOAD DUP7 PUSH2 0x1B28 JUMP JUMPDEST ADD SWAP3 ADD SWAP3 ADD SWAP2 SWAP1 PUSH2 0x62D JUMP JUMPDEST PUSH1 0x3 DUP6 ADD PUSH1 0x0 MSTORE PUSH1 0x20 PUSH1 0x0 KECCAK256 SWAP1 DUP4 DUP3 ADD JUMPDEST DUP2 DUP4 ADD DUP2 LT PUSH2 0x803 JUMPI POP POP PUSH2 0x619 JUMP JUMPDEST DUP1 PUSH2 0x810 PUSH1 0x1 SWAP3 SLOAD PUSH2 0x193F JUMP JUMPDEST DUP1 PUSH2 0x81D JUMPI JUMPDEST POP ADD PUSH2 0x7F3 JUMP JUMPDEST PUSH1 0x1F SWAP1 DUP2 DUP2 GT DUP5 EQ PUSH2 0x836 JUMPI POP POP PUSH1 0x0 DUP2 SSTORE JUMPDEST DUP12 PUSH2 0x816 JUMP JUMPDEST PUSH2 0x852 PUSH1 0x0 SWAP3 DUP5 DUP5 MSTORE PUSH1 0x20 DUP5 KECCAK256 SWAP3 ADD PUSH1 0x5 SHR DUP3 ADD DUP6 DUP4 ADD PUSH2 0x1B11 JUMP JUMPDEST DUP2 DUP4 SSTORE SSTORE PUSH2 0x830 JUMP JUMPDEST PUSH1 0x40 MLOAD PUSH3 0x461BCD PUSH1 0xE5 SHL DUP2 MSTORE PUSH1 0x20 PUSH1 0x4 DUP3 ADD MSTORE PUSH1 0x1A PUSH1 0x24 DUP3 ADD MSTORE PUSH32 0x4576656E74206475726174696F6E206D61782031342064617973000000000000 PUSH1 0x44 DUP3 ADD MSTORE PUSH1 0x64 SWAP1 REVERT JUMPDEST PUSH4 0x4E487B71 PUSH1 0xE0 SHL PUSH1 0x0 MSTORE PUSH1 0x11 PUSH1 0x4 MSTORE PUSH1 0x24 PUSH1 0x0 REVERT JUMPDEST PUSH1 0x40 MLOAD PUSH3 0x461BCD PUSH1 0xE5 SHL DUP2 MSTORE PUSH1 0x20 PUSH1 0x4 DUP3 ADD MSTORE PUSH1 0x21 PUSH1 0x24 DUP3 ADD MSTORE PUSH32 0x456E642064617465206D75737420626520616674657220737461727420646174 PUSH1 0x44 DUP3 ADD MSTORE PUSH1 0x65 PUSH1 0xF8 SHL PUSH1 0x64 DUP3 ADD MSTORE PUSH1 0x84 SWAP1 REVERT JUMPDEST PUSH1 0x40 MLOAD PUSH3 0x461BCD PUSH1 0xE5 SHL DUP2 MSTORE PUSH1 0x20 PUSH1 0x4 DUP3 ADD MSTORE PUSH1 0x1C PUSH1 0x24 DUP3 ADD MSTORE PUSH32 0x53746172742064617465206D75737420626520696E2066757475726500000000 PUSH1 0x44 DUP3 ADD MSTORE PUSH1 0x64 SWAP1 REVERT JUMPDEST PUSH1 0x40 MLOAD PUSH3 0x461BCD PUSH1 0xE5 SHL DUP2 MSTORE PUSH1 0x20 PUSH1 0x4 DUP3 ADD MSTORE PUSH1 0x17 PUSH1 0x24 DUP3 ADD MSTORE PUSH32 0x4576656E7420494420616C726561647920657869737473000000000000000000 PUSH1 0x44 DUP3 ADD MSTORE PUSH1 0x64 SWAP1 REVERT JUMPDEST DUP2 CALLDATALOAD DUP6 DUP2 GT PUSH2 0x18F JUMPI PUSH1 0x20 SWAP2 PUSH2 0x9AC DUP4 SWAP3 PUSH1 0x24 CALLDATASIZE SWAP2 DUP9 ADD ADD PUSH2 0x18C6 JUMP JUMPDEST DUP2 MSTORE ADD SWAP2 ADD SWAP1 PUSH2 0x471 JUMP JUMPDEST CALLVALUE PUSH2 0x18F JUMPI PUSH1 0x20 CALLDATASIZE PUSH1 0x3 NOT ADD SLT PUSH2 0x18F JUMPI PUSH1 0x4 CALLDATALOAD PUSH1 0x1 PUSH1 0x1 PUSH1 0x40 SHL SUB DUP2 GT PUSH2 0x18F JUMPI PUSH1 0x20 PUSH2 0x9EC PUSH2 0xA7A SWAP3 CALLDATASIZE SWAP1 PUSH1 0x4 ADD PUSH2 0x18C6 JUMP JUMPDEST PUSH1 0x0 PUSH2 0x200 PUSH1 0x40 MLOAD PUSH2 0x9FD DUP2 PUSH2 0x1889 JUMP JUMPDEST PUSH1 0x60 DUP2 MSTORE DUP3 DUP6 DUP3 ADD MSTORE PUSH1 0x60 PUSH1 0x40 DUP3 ADD MSTORE PUSH1 0x60 DUP1 DUP3 ADD MSTORE DUP3 PUSH1 0x80 DUP3 ADD MSTORE DUP3 PUSH1 0xA0 DUP3 ADD MSTORE DUP3 PUSH1 0xC0 DUP3 ADD MSTORE PUSH1 0x60 PUSH1 0xE0 DUP3 ADD MSTORE DUP3 PUSH2 0x100 DUP3 ADD MSTORE PUSH1 0x60 PUSH2 0x120 DUP3 ADD MSTORE DUP3 PUSH2 0x140 DUP3 ADD MSTORE DUP3 PUSH2 0x160 DUP3 ADD MSTORE DUP3 PUSH2 0x180 DUP3 ADD MSTORE DUP3 PUSH2 0x1A0 DUP3 ADD MSTORE DUP3 PUSH2 0x1C0 DUP3 ADD MSTORE DUP3 PUSH2 0x1E0 DUP3 ADD MSTORE ADD MSTORE DUP2 PUSH1 0x40 MLOAD SWAP4 DUP3 DUP6 DUP1 SWAP5 MLOAD SWAP4 DUP5 SWAP3 ADD PUSH2 0x191C JUMP JUMPDEST DUP2 ADD PUSH1 0x0 DUP2 MSTORE SUB ADD SWAP1 KECCAK256 PUSH1 0x40 MLOAD SWAP1 PUSH2 0xA91 DUP3 PUSH2 0x1889 JUMP JUMPDEST PUSH2 0xA9A DUP2 PUSH2 0x1979 JUMP JUMPDEST DUP3 MSTORE PUSH1 0x1 DUP2 ADD SLOAD PUSH1 0x1 PUSH1 0x1 PUSH1 0xA0 SHL SUB AND PUSH1 0x20 DUP4 ADD MSTORE PUSH2 0xABB PUSH1 0x2 DUP3 ADD PUSH2 0x1979 JUMP JUMPDEST PUSH1 0x40 DUP4 ADD MSTORE PUSH2 0xACC PUSH1 0x3 DUP3 ADD PUSH2 0x1CEB JUMP JUMPDEST PUSH1 0x60 DUP4 ADD MSTORE PUSH1 0x4 DUP2 ADD SLOAD PUSH1 0x80 DUP4 ADD MSTORE PUSH1 0x5 DUP2 ADD SLOAD PUSH1 0xA0 DUP4 ADD MSTORE PUSH1 0x6 DUP2 ADD SLOAD PUSH1 0xC0 DUP4 ADD MSTORE PUSH2 0xAFB PUSH1 0x7 DUP3 ADD PUSH2 0x1979 JUMP JUMPDEST PUSH1 0xE0 DUP4 ADD MSTORE PUSH1 0x8 DUP2 ADD SLOAD PUSH1 0x1 PUSH1 0x1 PUSH1 0xA0 SHL SUB AND PUSH2 0x100 DUP4 ADD MSTORE PUSH2 0xB20 PUSH1 0x9 DUP3 ADD PUSH2 0x1979 JUMP JUMPDEST PUSH2 0x120 DUP4 ADD MSTORE PUSH1 0xA DUP2 ADD SLOAD PUSH2 0x140 DUP4 ADD MSTORE PUSH1 0xB DUP2 ADD SLOAD PUSH2 0x160 DUP4 ADD MSTORE PUSH1 0xC DUP2 ADD SLOAD PUSH2 0x180 DUP4 ADD MSTORE PUSH1 0xD DUP2 ADD SLOAD PUSH2 0x1A0 DUP4 ADD MSTORE PUSH1 0xFF PUSH1 0xE DUP3 ADD SLOAD AND SWAP1 PUSH1 0x4 DUP3 LT ISZERO PUSH2 0x361 JUMPI PUSH1 0x10 SWAP2 PUSH2 0x1C0 DUP5 ADD MSTORE PUSH1 0xF DUP2 ADD SLOAD PUSH2 0x1E0 DUP5 ADD MSTORE ADD SLOAD PUSH2 0x200 DUP3 ADD MSTORE PUSH1 0x40 MLOAD DUP1 SWAP2 PUSH1 0x20 DUP3 MSTORE PUSH2 0x200 PUSH2 0xC54 PUSH2 0xC26 PUSH2 0xBF1 PUSH2 0xBDB PUSH2 0xBB0 DUP7 MLOAD PUSH2 0x220 PUSH1 0x20 DUP11 ADD MSTORE PUSH2 0x240 DUP10 ADD SWAP1 PUSH2 0x1A1F JUMP JUMPDEST PUSH1 0x20 DUP8 ADD MLOAD PUSH1 0x1 PUSH1 0x1 PUSH1 0xA0 SHL SUB AND PUSH1 0x40 DUP10 DUP2 ADD SWAP2 SWAP1 SWAP2 MSTORE DUP8 ADD MLOAD DUP9 DUP3 SUB PUSH1 0x1F NOT ADD PUSH1 0x60 DUP11 ADD MSTORE PUSH2 0x1A1F JUMP JUMPDEST PUSH1 0x60 DUP7 ADD MLOAD DUP8 DUP3 SUB PUSH1 0x1F NOT ADD PUSH1 0x80 DUP10 ADD MSTORE PUSH2 0x1A9E JUMP JUMPDEST PUSH1 0x80 DUP6 ADD MLOAD PUSH1 0xA0 DUP8 ADD MSTORE PUSH1 0xA0 DUP6 ADD MLOAD PUSH1 0xC0 DUP8 ADD MSTORE PUSH1 0xC0 DUP6 ADD MLOAD PUSH1 0xE0 DUP8 ADD MSTORE PUSH1 0xE0 DUP6 ADD MLOAD PUSH1 0x1F NOT DUP8 DUP4 SUB ADD PUSH2 0x100 DUP9 ADD MSTORE PUSH2 0x1A1F JUMP JUMPDEST PUSH2 0x100 DUP5 ADD MLOAD PUSH1 0x1 PUSH1 0x1 PUSH1 0xA0 SHL SUB AND PUSH2 0x120 DUP7 DUP2 ADD SWAP2 SWAP1 SWAP2 MSTORE DUP5 ADD MLOAD DUP6 DUP3 SUB PUSH1 0x1F NOT ADD PUSH2 0x140 DUP8 ADD MSTORE PUSH2 0x1A1F JUMP JUMPDEST SWAP2 PUSH2 0x140 DUP2 ADD MLOAD PUSH2 0x160 DUP6 ADD MSTORE PUSH2 0x160 DUP2 ADD MLOAD PUSH2 0x180 DUP6 ADD MSTORE PUSH2 0x180 DUP2 ADD MLOAD PUSH2 0x1A0 DUP6 ADD MSTORE PUSH2 0x1A0 DUP2 ADD MLOAD PUSH2 0x1C0 DUP6 ADD MSTORE PUSH2 0xC99 PUSH2 0x1C0 DUP3 ADD MLOAD PUSH2 0x1E0 DUP7 ADD SWAP1 PUSH2 0x1A44 JUMP JUMPDEST PUSH2 0x1E0 DUP2 ADD MLOAD DUP3 DUP6 ADD MSTORE ADD MLOAD PUSH2 0x220 DUP4 ADD MSTORE SUB SWAP1 RETURN JUMPDEST CALLVALUE PUSH2 0x18F JUMPI PUSH1 0x0 CALLDATASIZE PUSH1 0x3 NOT ADD SLT PUSH2 0x18F JUMPI PUSH1 0x20 PUSH1 0x2 SLOAD PUSH1 0x40 MLOAD SWAP1 DUP2 MSTORE RETURN JUMPDEST CALLVALUE PUSH2 0x18F JUMPI PUSH1 0x20 DUP1 PUSH1 0x3 NOT CALLDATASIZE ADD SLT PUSH2 0x18F JUMPI PUSH1 0x4 CALLDATALOAD PUSH1 0x1 PUSH1 0x1 PUSH1 0x40 SHL SUB DUP2 GT PUSH2 0x18F JUMPI PUSH2 0xCFE SWAP1 CALLDATASIZE SWAP1 PUSH1 0x4 ADD PUSH2 0x18C6 JUMP JUMPDEST SWAP1 PUSH1 0x2 SLOAD SWAP2 PUSH2 0xD0C DUP4 PUSH2 0x1D40 JUMP JUMPDEST SWAP3 PUSH1 0x0 SWAP2 PUSH1 0x0 JUMPDEST DUP3 DUP2 LT PUSH2 0xD7B JUMPI POP POP POP PUSH2 0xD26 DUP2 PUSH2 0x1D40 JUMP JUMPDEST SWAP3 PUSH1 0x0 JUMPDEST DUP3 DUP2 LT PUSH2 0xD4C JUMPI POP POP POP PUSH2 0xD48 PUSH1 0x40 MLOAD SWAP3 DUP3 DUP5 SWAP4 DUP5 MSTORE DUP4 ADD SWAP1 PUSH2 0x1A9E JUMP JUMPDEST SUB SWAP1 RETURN JUMPDEST DUP1 PUSH2 0xD5A PUSH2 0xD76 SWAP3 DUP5 PUSH2 0x1D99 JUMP JUMPDEST MLOAD PUSH2 0xD65 DUP3 DUP9 PUSH2 0x1D99 JUMP JUMPDEST MSTORE PUSH2 0xD70 DUP2 DUP8 PUSH2 0x1D99 JUMP JUMPDEST POP PUSH2 0x1D8A JUMP JUMPDEST PUSH2 0xD2A JUMP JUMPDEST PUSH2 0xD8D PUSH2 0xD87 DUP3 PUSH2 0x1A51 JUMP JUMPDEST POP PUSH2 0x1979 JUMP JUMPDEST PUSH1 0x40 MLOAD SWAP1 DUP7 DUP2 MLOAD PUSH1 0xFF DUP3 DUP5 ADD SWAP2 PUSH2 0xDA5 DUP2 DUP8 DUP6 PUSH2 0x191C JUMP JUMPDEST DUP6 ADD SWAP5 DUP4 DUP2 PUSH1 0x1 SWAP8 DUP9 DUP2 MSTORE SUB ADD SWAP1 KECCAK256 SLOAD AND PUSH2 0xDCD JUMPI JUMPDEST POP POP POP POP PUSH2 0xDC8 SWAP1 PUSH2 0x1D8A JUMP JUMPDEST PUSH2 0xD13 JUMP JUMPDEST PUSH1 0x3 PUSH2 0xDE9 DUP6 SWAP4 PUSH2 0xDF9 SWAP4 PUSH1 0x40 MLOAD DUP1 SWAP4 DUP2 SWAP3 DUP10 MLOAD SWAP3 DUP4 SWAP2 PUSH2 0x191C JUMP JUMPDEST DUP2 ADD PUSH1 0x0 DUP2 MSTORE SUB ADD SWAP1 KECCAK256 ADD PUSH2 0x1CEB JUMP JUMPDEST PUSH1 0x0 DUP10 DUP8 ADD SWAP3 JUMPDEST PUSH2 0xE0E JUMPI JUMPDEST POP DUP9 SWAP2 POP PUSH2 0xDBB JUMP JUMPDEST DUP2 MLOAD DUP2 LT ISZERO PUSH2 0xE6F JUMPI PUSH2 0xE21 DUP2 DUP4 PUSH2 0x1D99 JUMP JUMPDEST MLOAD DUP11 DUP2 MLOAD SWAP2 ADD KECCAK256 DUP8 MLOAD DUP5 KECCAK256 EQ PUSH2 0xE41 JUMPI PUSH2 0xE3B DUP6 SWAP2 PUSH2 0x1D8A JUMP JUMPDEST SWAP1 PUSH2 0xE00 JUMP JUMPDEST POP POP POP PUSH2 0xE64 SWAP2 POP SWAP5 PUSH2 0xDC8 SWAP3 SWAP6 PUSH2 0xE59 DUP3 DUP11 PUSH2 0x1D99 JUMP JUMPDEST MSTORE PUSH2 0xD70 DUP2 DUP10 PUSH2 0x1D99 JUMP JUMPDEST SWAP4 SWAP1 DUP8 DUP1 DUP1 DUP1 PUSH2 0xE05 JUMP JUMPDEST PUSH2 0xE05 JUMP JUMPDEST CALLVALUE PUSH2 0x18F JUMPI PUSH1 0x20 CALLDATASIZE PUSH1 0x3 NOT ADD SLT PUSH2 0x18F JUMPI PUSH1 0x4 CALLDATALOAD PUSH1 0x2 SLOAD DUP2 LT ISZERO PUSH2 0x18F JUMPI PUSH2 0xE9B SWAP1 PUSH2 0x1A51 JUMP JUMPDEST PUSH2 0x799 JUMPI PUSH2 0xEAB PUSH2 0xD48 SWAP2 PUSH2 0x1979 JUMP JUMPDEST PUSH1 0x40 MLOAD SWAP2 DUP3 SWAP2 PUSH1 0x20 DUP4 MSTORE PUSH1 0x20 DUP4 ADD SWAP1 PUSH2 0x1A1F JUMP JUMPDEST CALLVALUE PUSH2 0x18F JUMPI PUSH1 0x20 CALLDATASIZE PUSH1 0x3 NOT ADD SLT PUSH2 0x18F JUMPI PUSH1 0x4 CALLDATALOAD PUSH1 0x1 PUSH1 0x1 PUSH1 0x40 SHL SUB DUP2 GT PUSH2 0x18F JUMPI PUSH1 0xFF PUSH2 0xF0A PUSH1 0x20 PUSH2 0xEF7 DUP2 SWAP5 CALLDATASIZE SWAP1 PUSH1 0x4 ADD PUSH2 0x18C6 JUMP JUMPDEST DUP2 PUSH1 0x40 MLOAD SWAP4 DUP3 DUP6 DUP1 SWAP5 MLOAD SWAP4 DUP5 SWAP3 ADD PUSH2 0x191C JUMP JUMPDEST DUP2 ADD PUSH1 0x1 DUP2 MSTORE SUB ADD SWAP1 KECCAK256 SLOAD AND PUSH1 0x40 MLOAD SWAP1 ISZERO ISZERO DUP2 MSTORE RETURN JUMPDEST CALLVALUE PUSH2 0x18F JUMPI PUSH1 0x80 CALLDATASIZE PUSH1 0x3 NOT ADD SLT PUSH2 0x18F JUMPI PUSH1 0x4 CALLDATALOAD PUSH1 0x1 PUSH1 0x1 PUSH1 0x40 SHL SUB DUP2 GT PUSH2 0x18F JUMPI PUSH2 0xF50 SWAP1 CALLDATASIZE SWAP1 PUSH1 0x4 ADD PUSH2 0x18C6 JUMP JUMPDEST PUSH1 0x24 CALLDATALOAD PUSH1 0x44 CALLDATALOAD PUSH1 0x40 MLOAD SWAP3 DUP1 MLOAD PUSH2 0xF7D PUSH2 0xF76 PUSH1 0x20 SWAP7 DUP8 DUP2 DUP2 DUP8 ADD SWAP6 PUSH2 0x4AD DUP2 DUP4 DUP10 PUSH2 0x191C JUMP JUMPDEST ISZERO ISZERO PUSH2 0x1C4C JUMP JUMPDEST PUSH1 0xFF PUSH1 0xE PUSH1 0x40 MLOAD DUP8 DUP2 DUP7 MLOAD PUSH2 0xF93 DUP2 DUP4 DUP10 PUSH2 0x191C JUMP JUMPDEST DUP2 ADD PUSH1 0x0 DUP2 MSTORE SUB ADD SWAP1 KECCAK256 ADD SLOAD AND PUSH1 0x4 DUP2 LT ISZERO PUSH2 0x361 JUMPI PUSH1 0x1 SUB PUSH2 0x112D JUMPI PUSH1 0x5 PUSH1 0x40 MLOAD DUP7 DUP2 DUP6 MLOAD PUSH2 0xFC4 DUP2 DUP4 DUP9 PUSH2 0x191C JUMP JUMPDEST DUP2 ADD PUSH1 0x0 DUP2 MSTORE SUB ADD SWAP1 KECCAK256 ADD SLOAD TIMESTAMP LT DUP1 ISZERO SWAP1 PUSH2 0x10FC JUMPI JUMPDEST ISZERO PUSH2 0x10B7 JUMPI SWAP2 PUSH2 0x10A2 PUSH32 0x14C0C689591F22B9491A7710C35EDD0938D7841D50A6C2173DE72FCED88E1C79 SWAP5 SWAP3 PUSH1 0x60 SWAP5 PUSH2 0x108D DUP9 PUSH1 0xE PUSH1 0x40 MLOAD DUP3 DUP2 DUP8 MLOAD PUSH2 0x1021 DUP2 DUP4 DUP11 PUSH2 0x191C JUMP JUMPDEST DUP2 ADD PUSH1 0x0 DUP2 MSTORE SUB ADD SWAP1 KECCAK256 ADD SWAP3 PUSH1 0xFF NOT SWAP4 PUSH1 0x2 DUP6 DUP3 SLOAD AND OR SWAP1 SSTORE DUP8 PUSH1 0xC PUSH1 0x40 MLOAD DUP5 DUP2 DUP10 MLOAD PUSH2 0x104F DUP2 DUP4 DUP10 PUSH2 0x191C JUMP JUMPDEST DUP2 ADD PUSH1 0x0 DUP2 MSTORE SUB ADD SWAP1 KECCAK256 ADD SSTORE DUP7 PUSH1 0xD PUSH1 0x40 MLOAD DUP5 DUP2 DUP10 MLOAD PUSH2 0x1070 DUP2 DUP4 DUP10 PUSH2 0x191C JUMP JUMPDEST DUP2 ADD PUSH1 0x0 DUP2 MSTORE SUB ADD SWAP1 KECCAK256 ADD SSTORE PUSH1 0x40 MLOAD DUP1 SWAP4 DUP2 SWAP3 DUP8 MLOAD SWAP3 DUP4 SWAP2 PUSH2 0x191C JUMP JUMPDEST DUP2 ADD PUSH1 0x1 DUP2 MSTORE SUB ADD SWAP1 KECCAK256 SWAP1 DUP2 SLOAD AND SWAP1 SSTORE PUSH2 0x1C2C JUMP JUMPDEST SWAP5 PUSH1 0x40 MLOAD SWAP3 DUP4 MSTORE DUP3 ADD MSTORE PUSH1 0x64 CALLDATALOAD PUSH1 0x40 DUP3 ADD MSTORE LOG2 STOP JUMPDEST PUSH1 0x40 MLOAD PUSH3 0x461BCD PUSH1 0xE5 SHL DUP2 MSTORE PUSH1 0x4 DUP2 ADD DUP7 SWAP1 MSTORE PUSH1 0x1B PUSH1 0x24 DUP3 ADD MSTORE PUSH32 0x4576656E74206E6F7420726561647920746F20636F6D706C6574650000000000 PUSH1 0x44 DUP3 ADD MSTORE PUSH1 0x64 SWAP1 REVERT JUMPDEST POP PUSH1 0x40 MLOAD PUSH1 0x1 DUP4 MLOAD PUSH2 0x110F DUP2 DUP5 DUP7 PUSH2 0x191C JUMP JUMPDEST DUP3 ADD SWAP2 PUSH1 0x0 DUP4 MSTORE DUP8 DUP2 DUP4 DUP1 PUSH1 0xA0 SHL SUB SWAP5 SUB ADD SWAP1 KECCAK256 ADD SLOAD AND CALLER EQ PUSH2 0xFDA JUMP JUMPDEST PUSH1 0x40 MLOAD PUSH3 0x461BCD PUSH1 0xE5 SHL DUP2 MSTORE PUSH1 0x4 DUP2 ADD DUP7 SWAP1 MSTORE PUSH1 0x10 PUSH1 0x24 DUP3 ADD MSTORE PUSH16 0x4576656E74206E6F7420616374697665 PUSH1 0x80 SHL PUSH1 0x44 DUP3 ADD MSTORE PUSH1 0x64 SWAP1 REVERT JUMPDEST CALLVALUE PUSH2 0x18F JUMPI PUSH1 0x20 CALLDATASIZE PUSH1 0x3 NOT ADD SLT PUSH2 0x18F JUMPI PUSH1 0x4 CALLDATALOAD PUSH1 0x1 PUSH1 0x1 PUSH1 0x40 SHL SUB DUP2 GT PUSH2 0x18F JUMPI PUSH2 0x119F PUSH2 0x119A PUSH1 0x20 SWAP3 CALLDATASIZE SWAP1 PUSH1 0x4 ADD PUSH2 0x18C6 JUMP JUMPDEST PUSH2 0x1C8F JUMP JUMPDEST PUSH1 0x40 MLOAD SWAP1 DUP2 MSTORE RETURN JUMPDEST CALLVALUE PUSH2 0x18F JUMPI PUSH1 0x20 DUP1 PUSH1 0x3 NOT CALLDATASIZE ADD SLT PUSH2 0x18F JUMPI PUSH1 0x4 CALLDATALOAD PUSH1 0x1 PUSH1 0x1 PUSH1 0x40 SHL SUB DUP2 GT PUSH2 0x18F JUMPI PUSH2 0x11D8 SWAP1 CALLDATASIZE SWAP1 PUSH1 0x4 ADD PUSH2 0x18C6 JUMP JUMPDEST SWAP1 PUSH1 0x40 MLOAD PUSH2 0x11F6 PUSH2 0xF76 DUP5 MLOAD SWAP3 DUP5 DUP2 DUP2 DUP9 ADD SWAP6 PUSH2 0x4AD DUP2 DUP4 DUP10 PUSH2 0x191C JUMP JUMPDEST PUSH1 0x4 PUSH1 0x40 MLOAD DUP4 DUP2 DUP7 MLOAD PUSH2 0x120A DUP2 DUP4 DUP9 PUSH2 0x191C JUMP JUMPDEST DUP2 ADD PUSH1 0x0 DUP2 MSTORE SUB ADD SWAP1 KECCAK256 ADD SLOAD TIMESTAMP LT PUSH2 0x1332 JUMPI PUSH1 0xFF PUSH1 0xE PUSH1 0x40 MLOAD DUP5 DUP2 DUP8 MLOAD PUSH2 0x1232 DUP2 DUP4 DUP10 PUSH2 0x191C JUMP JUMPDEST DUP2 ADD PUSH1 0x0 DUP2 MSTORE SUB ADD SWAP1 KECCAK256 ADD SLOAD AND PUSH1 0x4 DUP2 LT ISZERO PUSH2 0x361 JUMPI PUSH2 0x12F5 JUMPI SWAP1 PUSH2 0x12EB PUSH1 0xB PUSH2 0x12D9 DUP4 PUSH32 0x57B05DC7C997AA34E6D25791F9E81BE968ED0D1C14D52794F57D44AD7BFE826 SWAP6 PUSH1 0xE PUSH1 0x40 MLOAD DUP4 DUP2 DUP12 MLOAD PUSH2 0x128C DUP2 DUP4 DUP9 PUSH2 0x191C JUMP JUMPDEST DUP2 ADD PUSH1 0x0 DUP2 MSTORE SUB ADD SWAP1 KECCAK256 ADD PUSH1 0xFF NOT SWAP1 PUSH1 0x1 DUP3 DUP3 SLOAD AND OR SWAP1 SSTORE PUSH1 0x1 PUSH1 0x40 MLOAD DUP5 DUP2 DUP13 MLOAD PUSH2 0x12B8 DUP2 DUP4 DUP10 PUSH2 0x191C JUMP JUMPDEST DUP2 ADD DUP5 DUP2 MSTORE SUB ADD SWAP1 KECCAK256 SWAP2 DUP3 SLOAD AND OR SWAP1 SSTORE PUSH1 0x40 MLOAD DUP1 SWAP4 DUP2 SWAP3 DUP11 MLOAD SWAP3 DUP4 SWAP2 PUSH2 0x191C JUMP JUMPDEST DUP2 ADD PUSH1 0x0 DUP2 MSTORE SUB ADD SWAP1 KECCAK256 ADD SLOAD SWAP4 PUSH2 0x1C2C JUMP JUMPDEST SWAP3 PUSH1 0x40 MLOAD SWAP1 DUP2 MSTORE LOG2 STOP JUMPDEST PUSH1 0x40 MLOAD PUSH3 0x461BCD PUSH1 0xE5 SHL DUP2 MSTORE PUSH1 0x4 DUP2 ADD DUP4 SWAP1 MSTORE PUSH1 0x15 PUSH1 0x24 DUP3 ADD MSTORE PUSH21 0x115D995B9D08185B1C9958591E481CDD185C9D1959 PUSH1 0x5A SHL PUSH1 0x44 DUP3 ADD MSTORE PUSH1 0x64 SWAP1 REVERT JUMPDEST PUSH1 0x40 MLOAD PUSH3 0x461BCD PUSH1 0xE5 SHL DUP2 MSTORE PUSH1 0x4 DUP2 ADD DUP4 SWAP1 MSTORE PUSH1 0x18 PUSH1 0x24 DUP3 ADD MSTORE PUSH32 0x4576656E74206E6F7420726561647920746F2073746172740000000000000000 PUSH1 0x44 DUP3 ADD MSTORE PUSH1 0x64 SWAP1 REVERT JUMPDEST CALLVALUE PUSH2 0x18F JUMPI PUSH1 0x0 CALLDATASIZE PUSH1 0x3 NOT ADD SLT PUSH2 0x18F JUMPI PUSH1 0x20 PUSH1 0x40 MLOAD PUSH2 0x1F4 DUP2 MSTORE RETURN JUMPDEST CALLVALUE PUSH2 0x18F JUMPI PUSH1 0x20 CALLDATASIZE PUSH1 0x3 NOT ADD SLT PUSH2 0x18F JUMPI PUSH1 0x4 CALLDATALOAD PUSH1 0x1 PUSH1 0x1 PUSH1 0x40 SHL SUB DUP2 GT PUSH2 0x18F JUMPI PUSH2 0x13C4 SWAP1 CALLDATASIZE SWAP1 PUSH1 0x4 ADD PUSH2 0x18C6 JUMP JUMPDEST PUSH1 0x40 MLOAD DUP2 DUP2 DUP1 SWAP4 MLOAD PUSH1 0x20 DUP2 SWAP4 ADD SWAP2 PUSH2 0x13DB SWAP3 PUSH2 0x191C JUMP JUMPDEST DUP2 ADD PUSH1 0x0 DUP2 MSTORE SUB PUSH1 0x20 ADD SWAP1 KECCAK256 PUSH2 0x13F0 DUP2 PUSH2 0x1979 JUMP JUMPDEST PUSH1 0x1 DUP3 ADD SLOAD PUSH1 0x1 PUSH1 0x1 PUSH1 0xA0 SHL SUB SWAP3 SWAP1 DUP4 AND PUSH2 0x140D PUSH1 0x2 DUP4 ADD PUSH2 0x1979 JUMP JUMPDEST PUSH1 0x4 DUP4 ADD SLOAD SWAP5 PUSH1 0x5 DUP5 ADD SLOAD SWAP1 PUSH1 0x6 DUP6 ADD SLOAD SWAP1 PUSH1 0x7 DUP7 ADD PUSH2 0x142C SWAP1 PUSH2 0x1979 JUMP JUMPDEST SWAP1 PUSH1 0x8 DUP8 ADD SLOAD AND PUSH1 0x9 DUP8 ADD PUSH2 0x1440 SWAP1 PUSH2 0x1979 JUMP JUMPDEST SWAP2 PUSH1 0xA DUP9 ADD SLOAD SWAP10 PUSH1 0xB DUP10 ADD SLOAD SWAP5 PUSH1 0xC DUP11 ADD SLOAD SWAP7 PUSH1 0xD DUP12 ADD SLOAD SWAP9 PUSH1 0xE DUP13 ADD SLOAD PUSH1 0xFF AND SWAP11 PUSH1 0xF DUP14 ADD SLOAD SWAP13 PUSH1 0x10 ADD SLOAD SWAP14 PUSH1 0x40 MLOAD DUP1 PUSH1 0x80 MSTORE PUSH2 0x200 DUP1 SWAP2 MSTORE PUSH1 0x80 MLOAD ADD PUSH2 0x1487 SWAP2 PUSH2 0x1A1F JUMP JUMPDEST SWAP1 PUSH1 0x80 MLOAD PUSH1 0x20 ADD MSTORE PUSH1 0x80 MLOAD DUP1 DUP3 SUB SWAP1 PUSH1 0x40 ADD MSTORE PUSH2 0x14A3 SWAP2 PUSH2 0x1A1F JUMP JUMPDEST SWAP3 PUSH1 0x80 MLOAD PUSH1 0x60 ADD MSTORE PUSH1 0x80 MLOAD PUSH1 0x80 ADD MSTORE PUSH1 0x80 MLOAD PUSH1 0xA0 ADD MSTORE PUSH1 0x80 MLOAD DUP1 DUP3 SUB SWAP1 PUSH1 0xC0 ADD MSTORE PUSH2 0x14CD SWAP2 PUSH2 0x1A1F JUMP JUMPDEST SWAP1 PUSH1 0x80 MLOAD PUSH1 0xE0 ADD MSTORE PUSH1 0x80 MLOAD DUP1 DUP3 SUB SWAP1 PUSH2 0x100 ADD MSTORE PUSH2 0x14EA SWAP2 PUSH2 0x1A1F JUMP JUMPDEST SWAP7 PUSH1 0x80 MLOAD PUSH2 0x120 ADD MSTORE PUSH1 0x80 MLOAD PUSH2 0x140 ADD MSTORE PUSH1 0x80 MLOAD PUSH2 0x160 ADD MSTORE PUSH1 0x80 MLOAD PUSH2 0x180 ADD MSTORE PUSH1 0x80 MLOAD PUSH2 0x1A0 ADD PUSH2 0x151B SWAP2 PUSH2 0x1A44 JUMP JUMPDEST PUSH1 0x80 MLOAD PUSH2 0x1C0 ADD MSTORE PUSH1 0x80 MLOAD PUSH2 0x1E0 ADD MSTORE PUSH1 0x80 MLOAD DUP1 SWAP2 SUB SWAP1 RETURN JUMPDEST PUSH1 0x60 CALLDATASIZE PUSH1 0x3 NOT ADD SLT PUSH2 0x18F JUMPI PUSH1 0x1 PUSH1 0x1 PUSH1 0x40 SHL SUB PUSH1 0x4 CALLDATALOAD DUP2 DUP2 GT PUSH2 0x18F JUMPI PUSH2 0x1560 SWAP1 CALLDATASIZE SWAP1 PUSH1 0x4 ADD PUSH2 0x18C6 JUMP JUMPDEST PUSH1 0x24 SWAP2 DUP3 CALLDATALOAD SWAP1 DUP2 GT PUSH2 0x18F JUMPI PUSH2 0x157A SWAP1 CALLDATASIZE SWAP1 PUSH1 0x4 ADD PUSH2 0x18C6 JUMP JUMPDEST PUSH1 0x44 CALLDATALOAD SWAP1 PUSH1 0x40 MLOAD SWAP3 DUP1 MLOAD SWAP1 PUSH2 0x159F PUSH2 0xF76 PUSH1 0x20 SWAP7 DUP8 DUP2 DUP2 DUP7 ADD SWAP7 PUSH2 0x4AD DUP2 DUP4 DUP11 PUSH2 0x191C JUMP JUMPDEST PUSH1 0xFF PUSH1 0xE PUSH1 0x40 MLOAD DUP8 DUP2 DUP6 MLOAD PUSH2 0x15B5 DUP2 DUP4 DUP11 PUSH2 0x191C JUMP JUMPDEST DUP2 ADD PUSH1 0x0 DUP2 MSTORE SUB ADD SWAP1 KECCAK256 ADD SLOAD AND PUSH1 0x4 DUP2 LT ISZERO PUSH2 0x1852 JUMPI PUSH2 0x180E JUMPI PUSH9 0x2B5E3AF16B1880000 CALLVALUE LT PUSH2 0x17D2 JUMPI PUSH2 0x1F4 SWAP2 DUP3 CALLVALUE MUL SWAP3 CALLVALUE DUP5 DIV EQ CALLVALUE ISZERO OR ISZERO PUSH2 0x17BD JUMPI PUSH2 0x2710 DUP1 SWAP4 DIV SWAP3 DUP4 CALLVALUE SUB SWAP6 CALLVALUE DUP8 GT PUSH2 0x17A8 JUMPI SWAP8 DUP8 SWAP9 DUP3 SWAP9 SWAP8 SWAP9 SWAP6 DUP2 ISZERO DUP1 ISZERO PUSH2 0x170B JUMPI JUMPDEST POP POP POP POP POP SWAP1 DUP3 PUSH1 0xB PUSH2 0x16D3 PUSH32 0xD874A8CE3CF550948077346970A4F43D7466050DD2D4AAD8F17D8D6DF14EC91B SWAP8 PUSH2 0x16E4 SWAP6 PUSH1 0x8 PUSH1 0x40 MLOAD DUP4 DUP2 DUP10 MLOAD PUSH2 0x165C DUP2 DUP4 DUP9 PUSH2 0x191C JUMP JUMPDEST DUP2 ADD PUSH1 0x0 DUP2 MSTORE SUB ADD SWAP1 KECCAK256 ADD CALLER PUSH1 0x1 PUSH1 0x1 PUSH1 0x60 SHL SUB PUSH1 0xA0 SHL DUP3 SLOAD AND OR SWAP1 SSTORE PUSH2 0x16A1 DUP10 PUSH1 0x9 PUSH1 0x40 MLOAD DUP6 DUP2 DUP12 MLOAD PUSH2 0x1691 DUP2 DUP4 DUP11 PUSH2 0x191C JUMP JUMPDEST DUP2 ADD PUSH1 0x0 DUP2 MSTORE SUB ADD SWAP1 KECCAK256 ADD PUSH2 0x1B28 JUMP JUMPDEST DUP11 PUSH1 0xA PUSH1 0x40 MLOAD DUP5 DUP2 DUP11 MLOAD PUSH2 0x16B6 DUP2 DUP4 DUP10 PUSH2 0x191C JUMP JUMPDEST DUP2 ADD PUSH1 0x0 DUP2 MSTORE SUB ADD SWAP1 KECCAK256 ADD SSTORE PUSH1 0x40 MLOAD DUP1 SWAP4 DUP2 SWAP3 DUP9 MLOAD SWAP3 DUP4 SWAP2 PUSH2 0x191C JUMP JUMPDEST DUP2 ADD PUSH1 0x0 DUP2 MSTORE SUB ADD SWAP1 KECCAK256 ADD SSTORE PUSH2 0x1C2C JUMP JUMPDEST SWAP4 PUSH2 0x16FA PUSH1 0x40 MLOAD SWAP4 PUSH1 0x60 DUP6 MSTORE PUSH1 0x60 DUP6 ADD SWAP1 PUSH2 0x1A1F JUMP JUMPDEST SWAP6 DUP4 ADD MSTORE PUSH1 0x40 DUP3 ADD MSTORE DUP1 CALLER SWAP5 SUB SWAP1 LOG3 STOP JUMPDEST SWAP2 SWAP4 SWAP6 SWAP8 SWAP9 POP SWAP2 SWAP4 SWAP6 POP DUP5 DUP10 MUL SWAP2 DUP10 DUP4 DIV DUP7 EQ SWAP1 CALLVALUE EQ OR ISZERO PUSH2 0x1793 JUMPI PUSH2 0x177E JUMPI DIV DUP3 ADD DUP1 SWAP3 GT PUSH2 0x176A JUMPI POP DUP6 SWAP4 SWAP3 SWAP1 SWAP2 DUP1 PUSH1 0xB PUSH2 0x16D3 PUSH32 0xD874A8CE3CF550948077346970A4F43D7466050DD2D4AAD8F17D8D6DF14EC91B PUSH2 0x16E4 PUSH2 0x1616 JUMP JUMPDEST PUSH4 0x4E487B71 PUSH1 0xE0 SHL PUSH1 0x0 SWAP1 DUP2 MSTORE PUSH1 0x11 PUSH1 0x4 MSTORE REVERT JUMPDEST DUP3 PUSH4 0x4E487B71 PUSH1 0xE0 SHL PUSH1 0x0 MSTORE PUSH1 0x12 PUSH1 0x4 MSTORE PUSH1 0x0 REVERT JUMPDEST DUP4 PUSH4 0x4E487B71 PUSH1 0xE0 SHL PUSH1 0x0 MSTORE PUSH1 0x11 PUSH1 0x4 MSTORE PUSH1 0x0 REVERT JUMPDEST DUP9 PUSH4 0x4E487B71 PUSH1 0xE0 SHL PUSH1 0x0 MSTORE PUSH1 0x11 PUSH1 0x4 MSTORE PUSH1 0x0 REVERT JUMPDEST DUP7 PUSH4 0x4E487B71 PUSH1 0xE0 SHL PUSH1 0x0 MSTORE PUSH1 0x11 PUSH1 0x4 MSTORE PUSH1 0x0 REVERT JUMPDEST PUSH1 0x40 MLOAD PUSH3 0x461BCD PUSH1 0xE5 SHL DUP2 MSTORE PUSH1 0x4 DUP2 ADD DUP7 SWAP1 MSTORE PUSH1 0x15 DUP2 DUP9 ADD MSTORE PUSH21 0x141BDBDB08185B5BDD5B9D081D1BDBC81CDB585B1B PUSH1 0x5A SHL PUSH1 0x44 DUP3 ADD MSTORE PUSH1 0x64 SWAP1 REVERT JUMPDEST PUSH1 0x40 MLOAD PUSH3 0x461BCD PUSH1 0xE5 SHL DUP2 MSTORE PUSH1 0x4 DUP2 ADD DUP7 SWAP1 MSTORE PUSH1 0x1C DUP2 DUP9 ADD MSTORE PUSH32 0x4576656E74206E6F7420696E207570636F6D696E672073746174757300000000 PUSH1 0x44 DUP3 ADD MSTORE PUSH1 0x64 SWAP1 REVERT JUMPDEST DUP7 PUSH4 0x4E487B71 PUSH1 0xE0 SHL PUSH1 0x0 MSTORE PUSH1 0x21 PUSH1 0x4 MSTORE PUSH1 0x0 REVERT JUMPDEST CALLVALUE PUSH2 0x18F JUMPI PUSH1 0x0 CALLDATASIZE PUSH1 0x3 NOT ADD SLT PUSH2 0x18F JUMPI DUP1 PUSH9 0x2B5E3AF16B1880000 PUSH1 0x20 SWAP3 MSTORE RETURN JUMPDEST PUSH2 0x220 DUP2 ADD SWAP1 DUP2 LT PUSH1 0x1 PUSH1 0x1 PUSH1 0x40 SHL SUB DUP3 GT OR PUSH2 0x7AF JUMPI PUSH1 0x40 MSTORE JUMP JUMPDEST SWAP1 PUSH1 0x1F DUP1 NOT SWAP2 ADD AND DUP2 ADD SWAP1 DUP2 LT PUSH1 0x1 PUSH1 0x1 PUSH1 0x40 SHL SUB DUP3 GT OR PUSH2 0x7AF JUMPI PUSH1 0x40 MSTORE JUMP JUMPDEST DUP2 PUSH1 0x1F DUP3 ADD SLT ISZERO PUSH2 0x18F JUMPI DUP1 CALLDATALOAD SWAP1 PUSH1 0x1 PUSH1 0x1 PUSH1 0x40 SHL SUB DUP3 GT PUSH2 0x7AF JUMPI PUSH1 0x40 MLOAD SWAP3 PUSH2 0x18FA PUSH1 0x1F DUP5 ADD PUSH1 0x1F NOT AND PUSH1 0x20 ADD DUP6 PUSH2 0x18A5 JUMP JUMPDEST DUP3 DUP5 MSTORE PUSH1 0x20 DUP4 DUP4 ADD ADD GT PUSH2 0x18F JUMPI DUP2 PUSH1 0x0 SWAP3 PUSH1 0x20 DUP1 SWAP4 ADD DUP4 DUP7 ADD CALLDATACOPY DUP4 ADD ADD MSTORE SWAP1 JUMP JUMPDEST PUSH1 0x0 JUMPDEST DUP4 DUP2 LT PUSH2 0x192F JUMPI POP POP PUSH1 0x0 SWAP2 ADD MSTORE JUMP JUMPDEST DUP2 DUP2 ADD MLOAD DUP4 DUP3 ADD MSTORE PUSH1 0x20 ADD PUSH2 0x191F JUMP JUMPDEST SWAP1 PUSH1 0x1 DUP3 DUP2 SHR SWAP3 AND DUP1 ISZERO PUSH2 0x196F JUMPI JUMPDEST PUSH1 0x20 DUP4 LT EQ PUSH2 0x1959 JUMPI JUMP JUMPDEST PUSH4 0x4E487B71 PUSH1 0xE0 SHL PUSH1 0x0 MSTORE PUSH1 0x22 PUSH1 0x4 MSTORE PUSH1 0x24 PUSH1 0x0 REVERT JUMPDEST SWAP2 PUSH1 0x7F AND SWAP2 PUSH2 0x194E JUMP JUMPDEST SWAP1 PUSH1 0x40 MLOAD SWAP2 DUP3 PUSH1 0x0 DUP3 SLOAD SWAP3 PUSH2 0x198D DUP5 PUSH2 0x193F JUMP JUMPDEST SWAP1 DUP2 DUP5 MSTORE PUSH1 0x1 SWAP5 DUP6 DUP2 AND SWAP1 DUP2 PUSH1 0x0 EQ PUSH2 0x19FC JUMPI POP PUSH1 0x1 EQ PUSH2 0x19B9 JUMPI JUMPDEST POP POP PUSH2 0x19B7 SWAP3 POP SUB DUP4 PUSH2 0x18A5 JUMP JUMPDEST JUMP JUMPDEST SWAP1 SWAP4 SWAP2 POP PUSH1 0x0 MSTORE PUSH1 0x20 SWAP1 DUP2 PUSH1 0x0 KECCAK256 SWAP4 PUSH1 0x0 SWAP2 JUMPDEST DUP2 DUP4 LT PUSH2 0x19E4 JUMPI POP POP PUSH2 0x19B7 SWAP4 POP DUP3 ADD ADD CODESIZE DUP1 PUSH2 0x19A9 JUMP JUMPDEST DUP6 SLOAD DUP9 DUP5 ADD DUP6 ADD MSTORE SWAP5 DUP6 ADD SWAP5 DUP8 SWAP5 POP SWAP2 DUP4 ADD SWAP2 PUSH2 0x19CC JUMP JUMPDEST SWAP2 POP POP PUSH2 0x19B7 SWAP5 POP PUSH1 0x20 SWAP3 POP PUSH1 0xFF NOT AND DUP3 DUP5 ADD MSTORE ISZERO ISZERO PUSH1 0x5 SHL DUP3 ADD ADD CODESIZE DUP1 PUSH2 0x19A9 JUMP JUMPDEST SWAP1 PUSH1 0x20 SWAP2 PUSH2 0x1A38 DUP2 MLOAD DUP1 SWAP3 DUP2 DUP6 MSTORE DUP6 DUP1 DUP7 ADD SWAP2 ADD PUSH2 0x191C JUMP JUMPDEST PUSH1 0x1F ADD PUSH1 0x1F NOT AND ADD ADD SWAP1 JUMP JUMPDEST SWAP1 PUSH1 0x4 DUP3 LT ISZERO PUSH2 0x361 JUMPI MSTORE JUMP JUMPDEST PUSH1 0x2 SLOAD DUP2 LT ISZERO PUSH2 0x1A88 JUMPI PUSH1 0x2 PUSH1 0x0 MSTORE PUSH32 0x405787FA12A823E0F2B7631CC41B3BA8828B3321CA811111FA75CD3AA3BB5ACE ADD SWAP1 PUSH1 0x0 SWAP1 JUMP JUMPDEST PUSH4 0x4E487B71 PUSH1 0xE0 SHL PUSH1 0x0 MSTORE PUSH1 0x32 PUSH1 0x4 MSTORE PUSH1 0x24 PUSH1 0x0 REVERT JUMPDEST SWAP1 DUP1 DUP3 MLOAD SWAP1 DUP2 DUP2 MSTORE PUSH1 0x20 DUP1 SWAP2 ADD SWAP3 DUP2 DUP1 DUP5 PUSH1 0x5 SHL DUP4 ADD ADD SWAP6 ADD SWAP4 PUSH1 0x0 SWAP2 JUMPDEST DUP5 DUP4 LT PUSH2 0x1ACC JUMPI POP POP POP POP POP POP SWAP1 JUMP JUMPDEST SWAP1 SWAP2 SWAP3 SWAP4 SWAP5 SWAP6 DUP5 DUP1 PUSH2 0x1AEA PUSH1 0x1 SWAP4 PUSH1 0x1F NOT DUP7 DUP3 SUB ADD DUP8 MSTORE DUP11 MLOAD PUSH2 0x1A1F JUMP JUMPDEST SWAP9 ADD SWAP4 ADD SWAP4 ADD SWAP2 SWAP5 SWAP4 SWAP3 SWAP1 PUSH2 0x1ABC JUMP JUMPDEST PUSH1 0x1 PUSH1 0x1 PUSH1 0x40 SHL SUB DUP2 GT PUSH2 0x7AF JUMPI PUSH1 0x5 SHL PUSH1 0x20 ADD SWAP1 JUMP JUMPDEST DUP2 DUP2 LT PUSH2 0x1B1C JUMPI POP POP JUMP JUMPDEST PUSH1 0x0 DUP2 SSTORE PUSH1 0x1 ADD PUSH2 0x1B11 JUMP JUMPDEST SWAP2 SWAP1 SWAP2 DUP3 MLOAD PUSH1 0x1 PUSH1 0x1 PUSH1 0x40 SHL SUB DUP2 GT PUSH2 0x7AF JUMPI PUSH2 0x1B45 DUP3 SLOAD PUSH2 0x193F JUMP JUMPDEST PUSH1 0x1F DUP2 GT PUSH2 0x1BEF JUMPI JUMPDEST POP PUSH1 0x20 DUP1 PUSH1 0x1F DUP4 GT PUSH1 0x1 EQ PUSH2 0x1B8B JUMPI POP DUP2 SWAP3 SWAP4 SWAP5 PUSH1 0x0 SWAP3 PUSH2 0x1B80 JUMPI JUMPDEST POP POP DUP2 PUSH1 0x1 SHL SWAP2 PUSH1 0x0 NOT SWAP1 PUSH1 0x3 SHL SHR NOT AND OR SWAP1 SSTORE JUMP JUMPDEST ADD MLOAD SWAP1 POP CODESIZE DUP1 PUSH2 0x1B6A JUMP JUMPDEST SWAP1 PUSH1 0x1F NOT DUP4 AND SWAP6 DUP5 PUSH1 0x0 MSTORE DUP3 PUSH1 0x0 KECCAK256 SWAP3 PUSH1 0x0 SWAP1 JUMPDEST DUP9 DUP3 LT PUSH2 0x1BD7 JUMPI POP POP DUP4 PUSH1 0x1 SWAP6 SWAP7 SWAP8 LT PUSH2 0x1BBE JUMPI JUMPDEST POP POP POP DUP2 SHL ADD SWAP1 SSTORE JUMP JUMPDEST ADD MLOAD PUSH1 0x0 NOT PUSH1 0xF8 DUP5 PUSH1 0x3 SHL AND SHR NOT AND SWAP1 SSTORE CODESIZE DUP1 DUP1 PUSH2 0x1BB4 JUMP JUMPDEST DUP1 PUSH1 0x1 DUP6 SWAP7 DUP3 SWAP5 SWAP7 DUP7 ADD MLOAD DUP2 SSTORE ADD SWAP6 ADD SWAP4 ADD SWAP1 PUSH2 0x1B9F JUMP JUMPDEST PUSH2 0x1C1C SWAP1 DUP4 PUSH1 0x0 MSTORE PUSH1 0x20 PUSH1 0x0 KECCAK256 PUSH1 0x1F DUP5 ADD PUSH1 0x5 SHR DUP2 ADD SWAP2 PUSH1 0x20 DUP6 LT PUSH2 0x1C22 JUMPI JUMPDEST PUSH1 0x1F ADD PUSH1 0x5 SHR ADD SWAP1 PUSH2 0x1B11 JUMP JUMPDEST CODESIZE PUSH2 0x1B4E JUMP JUMPDEST SWAP1 SWAP2 POP DUP2 SWAP1 PUSH2 0x1C0F JUMP JUMPDEST PUSH2 0x1C44 SWAP1 PUSH1 0x20 PUSH1 0x40 MLOAD SWAP3 DUP3 DUP5 DUP1 SWAP5 MLOAD SWAP4 DUP5 SWAP3 ADD PUSH2 0x191C JUMP JUMPDEST DUP2 ADD SUB SWAP1 KECCAK256 SWAP1 JUMP JUMPDEST ISZERO PUSH2 0x1C53 JUMPI JUMP JUMPDEST PUSH1 0x40 MLOAD PUSH3 0x461BCD PUSH1 0xE5 SHL DUP2 MSTORE PUSH1 0x20 PUSH1 0x4 DUP3 ADD MSTORE PUSH1 0x14 PUSH1 0x24 DUP3 ADD MSTORE PUSH20 0x115D995B9D08191BD95CC81B9BDD08195E1A5CDD PUSH1 0x62 SHL PUSH1 0x44 DUP3 ADD MSTORE PUSH1 0x64 SWAP1 REVERT JUMPDEST PUSH1 0x40 MLOAD PUSH1 0xFF DUP3 MLOAD SWAP2 PUSH1 0x20 DUP2 DUP2 DUP7 ADD SWAP5 PUSH2 0x1CA9 DUP2 DUP4 DUP9 PUSH2 0x191C JUMP JUMPDEST DUP2 ADD PUSH1 0x1 DUP2 MSTORE SUB ADD SWAP1 KECCAK256 SLOAD AND ISZERO PUSH2 0x1CE3 JUMPI PUSH1 0x20 PUSH2 0x1CD4 SWAP2 PUSH1 0xB SWAP4 PUSH1 0x40 MLOAD SWAP4 DUP5 SWAP3 DUP4 SWAP3 MLOAD SWAP3 DUP4 SWAP2 PUSH2 0x191C JUMP JUMPDEST DUP2 ADD PUSH1 0x0 DUP2 MSTORE SUB ADD SWAP1 KECCAK256 ADD SLOAD SWAP1 JUMP JUMPDEST POP POP PUSH2 0x2710 SWAP1 JUMP JUMPDEST SWAP1 DUP2 SLOAD PUSH2 0x1CF7 DUP2 PUSH2 0x1AFA JUMP JUMPDEST SWAP3 PUSH2 0x1D05 PUSH1 0x40 MLOAD SWAP5 DUP6 PUSH2 0x18A5 JUMP JUMPDEST DUP2 DUP5 MSTORE PUSH1 0x0 SWAP1 DUP2 MSTORE PUSH1 0x20 DUP1 DUP3 KECCAK256 DUP2 DUP7 ADD JUMPDEST DUP5 DUP5 LT PUSH2 0x1D24 JUMPI POP POP POP POP POP JUMP JUMPDEST PUSH1 0x1 DUP4 DUP2 SWAP3 PUSH2 0x1D32 DUP6 PUSH2 0x1979 JUMP JUMPDEST DUP2 MSTORE ADD SWAP3 ADD SWAP4 ADD SWAP3 SWAP1 PUSH2 0x1D16 JUMP JUMPDEST SWAP1 PUSH2 0x1D4A DUP3 PUSH2 0x1AFA JUMP JUMPDEST PUSH2 0x1D57 PUSH1 0x40 MLOAD SWAP2 DUP3 PUSH2 0x18A5 JUMP JUMPDEST DUP3 DUP2 MSTORE DUP1 SWAP3 PUSH2 0x1D68 PUSH1 0x1F NOT SWAP2 PUSH2 0x1AFA JUMP JUMPDEST ADD SWAP1 PUSH1 0x0 JUMPDEST DUP3 DUP2 LT PUSH2 0x1D79 JUMPI POP POP POP JUMP JUMPDEST DUP1 PUSH1 0x60 PUSH1 0x20 DUP1 SWAP4 DUP6 ADD ADD MSTORE ADD PUSH2 0x1D6D JUMP JUMPDEST PUSH1 0x0 NOT DUP2 EQ PUSH2 0x8A0 JUMPI PUSH1 0x1 ADD SWAP1 JUMP JUMPDEST DUP1 MLOAD DUP3 LT ISZERO PUSH2 0x1A88 JUMPI PUSH1 0x20 SWAP2 PUSH1 0x5 SHL ADD ADD SWAP1 JUMP INVALID LOG2 PUSH5 0x6970667358 0x22 SLT KECCAK256 INVALID SHR PUSH19 0x3CADF90D247533E6C5CD2E16BC164929E2AD20 SLOAD REVERT RETURN CHAINID 0xC6 GAS SELFDESTRUCT SIGNEXTEND 0x1E 0x2B PUSH5 0x736F6C6343 STOP ADDMOD SGT STOP CALLER "},"methodIdentifiers":{"MIN_POOL_AMOUNT()":"17ab06e1","PLATFORM_FEE_BPS()":"539aa77f","activeEvents(string)":"923d302c","cancelEvent(string)":"eff63953","cleanupEvents(string)":"51330667","completeEvent(string,uint256,uint256,uint256)":"8eca37f6","eventIds(uint256)":"998f6ac0","getActiveEventsForZone(string)":"d68f15ab","getEvent(string)":"e1902063","getEventCount()":"d9e48f5c","getEventMultiplier(string)":"6e06a97f","isEventActive(string)":"fa7fb9df","registerEvent(string,string,string[],uint256,uint256,uint256,string)":"ead149ca","sponsorEvent(string,string,uint256)":"21349940","startEvent(string)":"6a87b58a"}}}}}