{"src/CorporateVault.sol":{"CorporateVault":{"abi":[{"inputs":[{"internalType":"address","name":"_prcToken","type":"address"}],"stateMutability":"nonpayable","type":"constructor"},{"anonymous":false,"inputs":[{"indexed":true,"internalType":"address","name":"collector","type":"address"},{"indexed":false,"internalType":"uint256","name":"amount","type":"uint256"},{"indexed":false,"internalType":"string","name":"attestationId","type":"string"}],"name":"CollectorPaid","type":"event"},{"anonymous":false,"inputs":[{"indexed":true,"internalType":"address","name":"buyerAddress","type":"address"},{"indexed":false,"internalType":"string","name":"companyName","type":"string"},{"indexed":false,"internalType":"string","name":"industry","type":"string"}],"name":"CorporateBuyerRegistered","type":"event"},{"anonymous":false,"inputs":[{"indexed":true,"internalType":"address","name":"buyer","type":"address"},{"indexed":false,"internalType":"string","name":"companyName","type":"string"},{"indexed":false,"internalType":"uint256","name":"prcsBought","type":"uint256"},{"indexed":false,"internalType":"uint256","name":"hbarPaid","type":"uint256"}],"name":"PRCPurchased","type":"event"},{"anonymous":false,"inputs":[{"indexed":false,"internalType":"uint256","name":"amount","type":"uint256"}],"name":"PaymentPoolDeposit","type":"event"},{"inputs":[],"name":"DEFAULT_PRC_PRICE","outputs":[{"internalType":"uint256","name":"","type":"uint256"}],"stateMutability":"view","type":"function"},{"inputs":[],"name":"POOL_SHARE_BPS","outputs":[{"internalType":"uint256","name":"","type":"uint256"}],"stateMutability":"view","type":"function"},{"inputs":[],"name":"REGISTRATION_FEE","outputs":[{"internalType":"uint256","name":"","type":"uint256"}],"stateMutability":"view","type":"function"},{"inputs":[],"name":"TREASURY_SHARE_BPS","outputs":[{"internalType":"uint256","name":"","type":"uint256"}],"stateMutability":"view","type":"function"},{"inputs":[],"name":"admin","outputs":[{"internalType":"address","name":"","type":"address"}],"stateMutability":"view","type":"function"},{"inputs":[{"internalType":"uint256","name":"","type":"uint256"}],"name":"buyerAddresses","outputs":[{"internalType":"address","name":"","type":"address"}],"stateMutability":"view","type":"function"},{"inputs":[{"internalType":"uint256","name":"_dailyPayoutEstimate","type":"uint256"}],"name":"checkPaymentPoolHealth","outputs":[{"internalType":"bool","name":"isHealthy","type":"bool"},{"internalType":"uint256","name":"daysRemaining","type":"uint256"}],"stateMutability":"view","type":"function"},{"inputs":[{"internalType":"address","name":"","type":"address"}],"name":"corporateBuyers","outputs":[{"internalType":"address","name":"walletAddress","type":"address"},{"internalType":"string","name":"companyName","type":"string"},{"internalType":"string","name":"industry","type":"string"},{"internalType":"string","name":"contactEmail","type":"string"},{"internalType":"string","name":"registrationNumber","type":"string"},{"internalType":"uint256","name":"totalPrcsOwned","type":"uint256"},{"internalType":"uint256","name":"totalPrcsRetired","type":"uint256"},{"internalType":"uint256","name":"totalHbarSpent","type":"uint256"},{"internalType":"uint256","name":"collectorsSupported","type":"uint256"},{"internalType":"bool","name":"isActive","type":"bool"},{"internalType":"uint256","name":"registeredAt","type":"uint256"}],"stateMutability":"view","type":"function"},{"inputs":[],"name":"getBuyerCount","outputs":[{"internalType":"uint256","name":"","type":"uint256"}],"stateMutability":"view","type":"function"},{"inputs":[{"internalType":"address","name":"_buyer","type":"address"}],"name":"getCorporateBuyer","outputs":[{"components":[{"internalType":"address","name":"walletAddress","type":"address"},{"internalType":"string","name":"companyName","type":"string"},{"internalType":"string","name":"industry","type":"string"},{"internalType":"string","name":"contactEmail","type":"string"},{"internalType":"string","name":"registrationNumber","type":"string"},{"internalType":"uint256","name":"totalPrcsOwned","type":"uint256"},{"internalType":"uint256","name":"totalPrcsRetired","type":"uint256"},{"internalType":"uint256","name":"totalHbarSpent","type":"uint256"},{"internalType":"uint256","name":"collectorsSupported","type":"uint256"},{"internalType":"bool","name":"isActive","type":"bool"},{"internalType":"uint256","name":"registeredAt","type":"uint256"}],"internalType":"struct CorporateVault.CorporateBuyer","name":"","type":"tuple"}],"stateMutability":"view","type":"function"},{"inputs":[],"name":"getPaymentPoolBalance","outputs":[{"internalType":"uint256","name":"","type":"uint256"}],"stateMutability":"view","type":"function"},{"inputs":[],"name":"getTreasuryBalance","outputs":[{"internalType":"uint256","name":"","type":"uint256"}],"stateMutability":"view","type":"function"},{"inputs":[],"name":"paymentPool","outputs":[{"internalType":"uint256","name":"","type":"uint256"}],"stateMutability":"view","type":"function"},{"inputs":[],"name":"prcToken","outputs":[{"internalType":"contract PRCToken","name":"","type":"address"}],"stateMutability":"view","type":"function"},{"inputs":[{"internalType":"uint256","name":"_prcAmount","type":"uint256"}],"name":"purchasePRCs","outputs":[],"stateMutability":"payable","type":"function"},{"inputs":[],"name":"recoveryAgent","outputs":[{"internalType":"address","name":"","type":"address"}],"stateMutability":"view","type":"function"},{"inputs":[{"internalType":"string","name":"_companyName","type":"string"},{"internalType":"string","name":"_industry","type":"string"},{"internalType":"string","name":"_contactEmail","type":"string"},{"internalType":"string","name":"_registrationNumber","type":"string"}],"name":"registerCorporateBuyer","outputs":[],"stateMutability":"payable","type":"function"},{"inputs":[{"internalType":"uint256","name":"_amount","type":"uint256"},{"internalType":"string","name":"_reportRef","type":"string"}],"name":"retirePRCs","outputs":[],"stateMutability":"nonpayable","type":"function"},{"inputs":[{"internalType":"address","name":"_agent","type":"address"}],"name":"setRecoveryAgent","outputs":[],"stateMutability":"nonpayable","type":"function"},{"inputs":[],"name":"treasury","outputs":[{"internalType":"uint256","name":"","type":"uint256"}],"stateMutability":"view","type":"function"},{"inputs":[{"internalType":"address","name":"_collector","type":"address"},{"internalType":"uint256","name":"_amountTinybar","type":"uint256"},{"internalType":"string","name":"_attestationId","type":"string"}],"name":"triggerCollectorPayment","outputs":[],"stateMutability":"nonpayable","type":"function"},{"stateMutability":"payable","type":"receive"}],"evm":{"bytecode":{"linkReferences":{},"object":"60803461007c57601f61181338819003918201601f19168301916001600160401b038311848410176100815780849260209460405283398101031261007c57516001600160a01b0381169081900361007c5760018060a01b0319908160025416176002553390600354161760035560405161177b90816100988239f35b600080fd5b634e487b7160e01b600052604160045260246000fdfe6080806040526004361015610056575b50361561001b57600080fd5b61002734600554611620565b6005557f94895d32e6ec4d14034bf7e666484e939c9632771195a8db0d8c0d98e10aaa576020604051348152a1005b600090813560e01c90816311c511d2146113b657508063261b7815146112b257806328fea9b614610b5c578063389728b614610b3f5780634335ae841461095f5780634a7805c314610936578063556b790f146108f257806361d027b31461024b57806364b4f751146108ce5780636c9b94af146106675780637f5d099d1461063a57806383de24f114610421578063868b93fc1461028757806393084a2a146102695780639b5655dc1461024b5780639bac7669146101cf578063b803e75314610171578063bfaccec0146101b2578063d47ffd221461018f578063e4625fce146101715763f851a4400361000f573461016e578060031936011261016e576003546040516001600160a01b039091168152602090f35b80fd5b503461016e578060031936011261016e576020600554604051908152f35b503461016e578060031936011261016e576020604051670f43fc2c04ee00008152f35b503461016e578060031936011261016e5760206040516121ca8152f35b503461016e57602036600319011261016e576101e96113db565b6003546001600160a01b0391908216330361021a57166bffffffffffffffffffffffff60a01b600454161760045580f35b60405162461bcd60e51b81526020600482015260096024820152682737ba1030b236b4b760b91b6044820152606490fd5b503461016e578060031936011261016e576020600654604051908152f35b503461016e578060031936011261016e576020600154604051908152f35b503461016e57606036600319011261016e576102a16113db565b6024356044356001600160401b039283821161041d573660238301121561041d57816004013593841161041d57366024858401011161041d576003546001600160a01b039190821633148015610410575b156103da57600554848110610395578461030b91611686565b600555169284838582821561038c575b839283928392f115610381577fd291f499d29b089d125f4fd213c70df65f78c1295c99a1b54ec459c5150a0ce49281606092602460405195869485526040602086015282604086015201848401378181018301879052601f01601f19168101030190a280f35b6040513d86823e3d90fd5b506108fc61031b565b60405162461bcd60e51b815260206004820152601960248201527f496e73756666696369656e7420706f6f6c2062616c616e6365000000000000006044820152606490fd5b60405162461bcd60e51b815260206004820152600e60248201526d139bdd08185d5d1a1bdc9a5e995960921b6044820152606490fd5b50816004541633146102f2565b8480fd5b503461016e576003199060403683011261016e576004356001600160401b036024358181116105bd5761045890369060040161158c565b33845260209184835261047460ff600960408820015416611643565b60025460405163f8b2cb4f60e01b81523360048201526001600160a01b03909116969084816024818b5afa90811561062f5790869188916105fa575b50106105c157946104fc8197829697338452838752838961050b6001604084200193604051998a97889687956320652dd160e01b87526004870152606060248701526064860190611693565b9184830301604485015261154c565b03925af1801561038157610551575b505033825281815260056040832001610534848254611686565b90553382525261054c60066040842001918254611620565b905580f35b3d8085843e6105608184611462565b820191838184031261041d57805191821161041d570181601f820112156105bd5780519061058d82611571565b9261059b6040519485611462565b82845284838301011161041d5783806105b694019101611529565b388061051a565b8380fd5b60405162461bcd60e51b8152600481018590526011602482015270496e73756666696369656e74205052437360781b6044820152606490fd5b809250868092503d8311610628575b6106138183611462565b8101031261062457859051386104b0565b8680fd5b503d610609565b6040513d89823e3d90fd5b503461016e57602036600319011261016e576040610659600435611729565b825191151582526020820152f35b50602080600319360112610844576004359133815280825261069260ff600960408420015416611643565b821561089857670f43fc2c04ee00008302670f43fc2c04edffff1984820401610884576103e890043410610848576002546001600160a01b0316803b156108445781809160446040518094819363a9059cbb60e01b83523360048401528960248401525af180156108395761080e575b5090610546928334029334850414341517156107fa576127107f94895d32e6ec4d14034bf7e666484e939c9632771195a8db0d8c0d98e10aaa579394049061076561074d8334611686565b9261075a84600554611620565b600555600654611620565b60065533855284835260056040862001610780828254611620565b90553385528483526007604086200161079a348254611620565b90553385528483527fb99588f37248a1e685205824f5927af54d97ea932bb2d1d6758ce0e78650c484600160408720016107df60405191606083526060830190611693565b92858201523460408201528033930390a2604051908152a180f35b634e487b7160e01b83526011600452602483fd5b6001600160401b0381116108255760405238610702565b634e487b7160e01b82526041600452602482fd5b6040513d84823e3d90fd5b5080fd5b60405162461bcd60e51b8152600481018390526014602482015273125b9cdd59999a58da595b9d081c185e5b595b9d60621b6044820152606490fd5b634e487b7160e01b82526011600452602482fd5b60405162461bcd60e51b815260048101839052600e60248201526d125b9d985b1a5908185b5bdd5b9d60921b6044820152606490fd5b503461016e578060031936011261016e5760206040516802b5e3af16b18800008152f35b503461016e57602036600319011261016e576004359060015482101561016e57602061091d836115d3565b905460405160039290921b1c6001600160a01b03168152f35b503461016e578060031936011261016e576004546040516001600160a01b039091168152602090f35b503461016e57602036600319011261016e5760409061097c6113db565b81610140845161098b81611430565b82815260606020820152606086820152606080820152606060808201528260a08201528260c08201528260e08201528261010082015282610120820152015260018060a01b031681528060205220600a604051916109e883611430565b80546001600160a01b03168352610a0160018201611483565b6020840152610a1260028201611483565b6040840152610a2360038201611483565b6060840152610a3460048201611483565b6080840152600581015460a0840152600681015460c0840152600781015460e0840152600881015461010084015260ff6009820154161515610120840152015461014082015260405180916020825260018060a01b038151166020830152610140610afb610ab36020840151610160604087015261018086019061154c565b610ae6610ad2604086015192601f1993848983030160608a015261154c565b60608601518388830301608089015261154c565b906080850151908683030160a087015261154c565b9160a081015160c085015260c081015160e085015260e081015161010085015261010081015161012085015261012081015115158285015201516101608301520390f35b503461016e578060031936011261016e5760206040516105468152f35b50608036600319011261016e576004356001600160401b03811161084457610b8890369060040161158c565b6024356001600160401b0381116112ae57610ba790369060040161158c565b906044356001600160401b0381116105bd57610bc790369060040161158c565b6064356001600160401b03811161041d57610be690369060040161158c565b338552602085905260408520546001600160a01b0316611274576802b5e3af16b1880000341061122f5760405191610c1d83611430565b338352836020840152846040840152606083015260808201528360a08201528360c08201528360e08201528361010082015260016101208201524261014082015233845283602052604084209060018060a01b038151166bffffffffffffffffffffffff60a01b83541617825560208101518051906001600160401b038211610fbd578190610caf60018601546113f6565b601f81116111df575b50602090601f8311600114611170578892611165575b50508160011b916000199060031b1c19161760018301555b60408101518051906001600160401b038211610fbd578190610d0b60028601546113f6565b601f8111611115575b50602090601f83116001146110a657889261109b575b50508160011b916000199060031b1c19161760028301555b60608101518051906001600160401b038211610fbd578190610d6760038601546113f6565b601f811161104b575b50602090601f8311600114610fdc578892610fd1575b50508160011b916000199060031b1c19161760038301555b60808101518051906001600160401b038211610fbd57610dc160048501546113f6565b601f8111610f79575b50602090601f8311600114610f06579180600a9492610140948a92610efb575b50508160011b916000199060031b1c19161760048501555b60a0810151600585015560c0810151600685015560e08101516007850155610100810151600885015560098401610120820151151560ff801983541691161790550151910155610e5434600654611620565b60065560015468010000000000000000811015610ee7577fc1425ff0ab2b4ed7ee8a80713b5b2218682be775606e700ab65d79794bfd8c6891610ea0826001610ed294016001556115d3565b81546001600160a01b0360039290921b91821b19163390911b17905560408051818152928392610ee19284019061154c565b8281036020840152339561154c565b0390a280f35b634e487b7160e01b84526041600452602484fd5b015190503880610dea565b906004850188526020882091885b601f1985168110610f61575092600a94926001926101409583601f19811610610f48575b505050811b016004850155610e02565b015160001960f88460031b161c19169055388080610f38565b91926020600181928685015181550194019201610f14565b60048501885260208820601f840160051c810160208510610fb6575b601f830160051c82018110610fab575050610dca565b898155600101610f95565b5080610f95565b634e487b7160e01b87526041600452602487fd5b015190503880610d86565b9250600385018852602088209088935b601f1984168510611030576001945083601f19811610611017575b505050811b016003830155610d9e565b015160001960f88460031b161c19169055388080611007565b81810151835560209485019460019093019290910190610fec565b90915060038501885260208820601f840160051c810160208510611094575b90849392915b601f830160051c82018110611086575050610d70565b8a8155859450600101611070565b508061106a565b015190503880610d2a565b9250600285018852602088209088935b601f19841685106110fa576001945083601f198116106110e1575b505050811b016002830155610d42565b015160001960f88460031b161c191690553880806110d1565b818101518355602094850194600190930192909101906110b6565b90915060028501885260208820601f840160051c81016020851061115e575b90849392915b601f830160051c82018110611150575050610d14565b8a815585945060010161113a565b5080611134565b015190503880610cce565b9250600185018852602088209088935b601f19841685106111c4576001945083601f198116106111ab575b505050811b016001830155610ce6565b015160001960f88460031b161c1916905538808061119b565b81810151835560209485019460019093019290910190611180565b90915060018501885260208820601f840160051c810160208510611228575b90849392915b601f830160051c8201811061121a575050610cb8565b8a8155859450600101611204565b50806111fe565b60405162461bcd60e51b815260206004820152601d60248201527f496e73756666696369656e7420726567697374726174696f6e206665650000006044820152606490fd5b60405162461bcd60e51b8152602060048201526012602482015271105b1c9958591e481c9959da5cdd195c995960721b6044820152606490fd5b8280fd5b503461016e57602036600319011261016e576001600160a01b0390604090826112d96113db565b1681528060205220908154166112f160018301611483565b916112fe60028201611483565b61130a60038301611483565b9161131760048201611483565b92600582015493600683015461138e600785015492611380600887015495611372600a60ff60098b015416990154996113646040519e8f9e8f90815261016090816020820152019061154c565b8d810360408f01529061154c565b908b820360608d015261154c565b9089820360808b015261154c565b9560a088015260c087015260e086015261010085015215156101208401526101408301520390f35b9050346108445781600319360112610844576002546001600160a01b03168152602090f35b600435906001600160a01b03821682036113f157565b600080fd5b90600182811c92168015611426575b602083101461141057565b634e487b7160e01b600052602260045260246000fd5b91607f1691611405565b61016081019081106001600160401b0382111761144c57604052565b634e487b7160e01b600052604160045260246000fd5b90601f801991011681019081106001600160401b0382111761144c57604052565b9060405191826000825492611497846113f6565b90818452600194858116908160001461150657506001146114c3575b50506114c192500383611462565b565b9093915060005260209081600020936000915b8183106114ee5750506114c1935082010138806114b3565b855488840185015294850194879450918301916114d6565b9150506114c194506020925060ff191682840152151560051b82010138806114b3565b60005b83811061153c5750506000910152565b818101518382015260200161152c565b9060209161156581518092818552858086019101611529565b601f01601f1916010190565b6001600160401b03811161144c57601f01601f191660200190565b81601f820112156113f1578035906115a382611571565b926115b16040519485611462565b828452602083830101116113f157816000926020809301838601378301015290565b60015481101561160a5760016000527fb10e2d527612073b26eecdfd717e6a320cf44b4afac2b0732d9fcbe2b7fa0cf60190600090565b634e487b7160e01b600052603260045260246000fd5b9190820180921161162d57565b634e487b7160e01b600052601160045260246000fd5b1561164a57565b60405162461bcd60e51b8152602060048201526014602482015273109d5e595c881b9bdd081c9959da5cdd195c995960621b6044820152606490fd5b9190820391821161162d57565b90600092918054916116a4836113f6565b91828252600193848116908160001461170657506001146116c6575b50505050565b90919394506000526020928360002092846000945b8386106116f25750505050010190388080806116c0565b8054858701830152940193859082016116db565b9294505050602093945060ff191683830152151560051b010190388080806116c0565b801561173b5760055404601e81101591565b506001906000199056fea2646970667358221220c76978179e9616db9d365c41d502ed9ac49e8cf07fa252d4ce3f60887f06eb9f64736f6c63430008130033","opcodes":"PUSH1 0x80 CALLVALUE PUSH2 0x7C JUMPI PUSH1 0x1F PUSH2 0x1813 CODESIZE DUP2 SWAP1 SUB SWAP2 DUP3 ADD PUSH1 0x1F NOT AND DUP4 ADD SWAP2 PUSH1 0x1 PUSH1 0x1 PUSH1 0x40 SHL SUB DUP4 GT DUP5 DUP5 LT OR PUSH2 0x81 JUMPI DUP1 DUP5 SWAP3 PUSH1 0x20 SWAP5 PUSH1 0x40 MSTORE DUP4 CODECOPY DUP2 ADD SUB SLT PUSH2 0x7C JUMPI MLOAD PUSH1 0x1 PUSH1 0x1 PUSH1 0xA0 SHL SUB DUP2 AND SWAP1 DUP2 SWAP1 SUB PUSH2 0x7C JUMPI PUSH1 0x1 DUP1 PUSH1 0xA0 SHL SUB NOT SWAP1 DUP2 PUSH1 0x2 SLOAD AND OR PUSH1 0x2 SSTORE CALLER SWAP1 PUSH1 0x3 SLOAD AND OR PUSH1 0x3 SSTORE PUSH1 0x40 MLOAD PUSH2 0x177B SWAP1 DUP2 PUSH2 0x98 DUP3 CODECOPY RETURN JUMPDEST PUSH1 0x0 DUP1 REVERT JUMPDEST PUSH4 0x4E487B71 PUSH1 0xE0 SHL PUSH1 0x0 MSTORE PUSH1 0x41 PUSH1 0x4 MSTORE PUSH1 0x24 PUSH1 0x0 REVERT INVALID PUSH1 0x80 DUP1 PUSH1 0x40 MSTORE PUSH1 0x4 CALLDATASIZE LT ISZERO PUSH2 0x56 JUMPI JUMPDEST POP CALLDATASIZE ISZERO PUSH2 0x1B JUMPI PUSH1 0x0 DUP1 REVERT JUMPDEST PUSH2 0x27 CALLVALUE PUSH1 0x5 SLOAD PUSH2 0x1620 JUMP JUMPDEST PUSH1 0x5 SSTORE PUSH32 0x94895D32E6EC4D14034BF7E666484E939C9632771195A8DB0D8C0D98E10AAA57 PUSH1 0x20 PUSH1 0x40 MLOAD CALLVALUE DUP2 MSTORE LOG1 STOP JUMPDEST PUSH1 0x0 SWAP1 DUP2 CALLDATALOAD PUSH1 0xE0 SHR SWAP1 DUP2 PUSH4 0x11C511D2 EQ PUSH2 0x13B6 JUMPI POP DUP1 PUSH4 0x261B7815 EQ PUSH2 0x12B2 JUMPI DUP1 PUSH4 0x28FEA9B6 EQ PUSH2 0xB5C JUMPI DUP1 PUSH4 0x389728B6 EQ PUSH2 0xB3F JUMPI DUP1 PUSH4 0x4335AE84 EQ PUSH2 0x95F JUMPI DUP1 PUSH4 0x4A7805C3 EQ PUSH2 0x936 JUMPI DUP1 PUSH4 0x556B790F EQ PUSH2 0x8F2 JUMPI DUP1 PUSH4 0x61D027B3 EQ PUSH2 0x24B JUMPI DUP1 PUSH4 0x64B4F751 EQ PUSH2 0x8CE JUMPI DUP1 PUSH4 0x6C9B94AF EQ PUSH2 0x667 JUMPI DUP1 PUSH4 0x7F5D099D EQ PUSH2 0x63A JUMPI DUP1 PUSH4 0x83DE24F1 EQ PUSH2 0x421 JUMPI DUP1 PUSH4 0x868B93FC EQ PUSH2 0x287 JUMPI DUP1 PUSH4 0x93084A2A EQ PUSH2 0x269 JUMPI DUP1 PUSH4 0x9B5655DC EQ PUSH2 0x24B JUMPI DUP1 PUSH4 0x9BAC7669 EQ PUSH2 0x1CF JUMPI DUP1 PUSH4 0xB803E753 EQ PUSH2 0x171 JUMPI DUP1 PUSH4 0xBFACCEC0 EQ PUSH2 0x1B2 JUMPI DUP1 PUSH4 0xD47FFD22 EQ PUSH2 0x18F JUMPI DUP1 PUSH4 0xE4625FCE EQ PUSH2 0x171 JUMPI PUSH4 0xF851A440 SUB PUSH2 0xF JUMPI CALLVALUE PUSH2 0x16E JUMPI DUP1 PUSH1 0x3 NOT CALLDATASIZE ADD SLT PUSH2 0x16E JUMPI PUSH1 0x3 SLOAD PUSH1 0x40 MLOAD PUSH1 0x1 PUSH1 0x1 PUSH1 0xA0 SHL SUB SWAP1 SWAP2 AND DUP2 MSTORE PUSH1 0x20 SWAP1 RETURN JUMPDEST DUP1 REVERT JUMPDEST POP CALLVALUE PUSH2 0x16E JUMPI DUP1 PUSH1 0x3 NOT CALLDATASIZE ADD SLT PUSH2 0x16E JUMPI PUSH1 0x20 PUSH1 0x5 SLOAD PUSH1 0x40 MLOAD SWAP1 DUP2 MSTORE RETURN JUMPDEST POP CALLVALUE PUSH2 0x16E JUMPI DUP1 PUSH1 0x3 NOT CALLDATASIZE ADD SLT PUSH2 0x16E JUMPI PUSH1 0x20 PUSH1 0x40 MLOAD PUSH8 0xF43FC2C04EE0000 DUP2 MSTORE RETURN JUMPDEST POP CALLVALUE PUSH2 0x16E JUMPI DUP1 PUSH1 0x3 NOT CALLDATASIZE ADD SLT PUSH2 0x16E JUMPI PUSH1 0x20 PUSH1 0x40 MLOAD PUSH2 0x21CA DUP2 MSTORE RETURN JUMPDEST POP CALLVALUE PUSH2 0x16E JUMPI PUSH1 0x20 CALLDATASIZE PUSH1 0x3 NOT ADD SLT PUSH2 0x16E JUMPI PUSH2 0x1E9 PUSH2 0x13DB JUMP JUMPDEST PUSH1 0x3 SLOAD PUSH1 0x1 PUSH1 0x1 PUSH1 0xA0 SHL SUB SWAP2 SWAP1 DUP3 AND CALLER SUB PUSH2 0x21A JUMPI AND PUSH12 0xFFFFFFFFFFFFFFFFFFFFFFFF PUSH1 0xA0 SHL PUSH1 0x4 SLOAD AND OR PUSH1 0x4 SSTORE DUP1 RETURN JUMPDEST PUSH1 0x40 MLOAD PUSH3 0x461BCD PUSH1 0xE5 SHL DUP2 MSTORE PUSH1 0x20 PUSH1 0x4 DUP3 ADD MSTORE PUSH1 0x9 PUSH1 0x24 DUP3 ADD MSTORE PUSH9 0x2737BA1030B236B4B7 PUSH1 0xB9 SHL PUSH1 0x44 DUP3 ADD MSTORE PUSH1 0x64 SWAP1 REVERT JUMPDEST POP CALLVALUE PUSH2 0x16E JUMPI DUP1 PUSH1 0x3 NOT CALLDATASIZE ADD SLT PUSH2 0x16E JUMPI PUSH1 0x20 PUSH1 0x6 SLOAD PUSH1 0x40 MLOAD SWAP1 DUP2 MSTORE RETURN JUMPDEST POP CALLVALUE PUSH2 0x16E JUMPI DUP1 PUSH1 0x3 NOT CALLDATASIZE ADD SLT PUSH2 0x16E JUMPI PUSH1 0x20 PUSH1 0x1 SLOAD PUSH1 0x40 MLOAD SWAP1 DUP2 MSTORE RETURN JUMPDEST POP CALLVALUE PUSH2 0x16E JUMPI PUSH1 0x60 CALLDATASIZE PUSH1 0x3 NOT ADD SLT PUSH2 0x16E JUMPI PUSH2 0x2A1 PUSH2 0x13DB JUMP JUMPDEST PUSH1 0x24 CALLDATALOAD PUSH1 0x44 CALLDATALOAD PUSH1 0x1 PUSH1 0x1 PUSH1 0x40 SHL SUB SWAP3 DUP4 DUP3 GT PUSH2 0x41D JUMPI CALLDATASIZE PUSH1 0x23 DUP4 ADD SLT ISZERO PUSH2 0x41D JUMPI DUP2 PUSH1 0x4 ADD CALLDATALOAD SWAP4 DUP5 GT PUSH2 0x41D JUMPI CALLDATASIZE PUSH1 0x24 DUP6 DUP5 ADD ADD GT PUSH2 0x41D JUMPI PUSH1 0x3 SLOAD PUSH1 0x1 PUSH1 0x1 PUSH1 0xA0 SHL SUB SWAP2 SWAP1 DUP3 AND CALLER EQ DUP1 ISZERO PUSH2 0x410 JUMPI JUMPDEST ISZERO PUSH2 0x3DA JUMPI PUSH1 0x5 SLOAD DUP5 DUP2 LT PUSH2 0x395 JUMPI DUP5 PUSH2 0x30B SWAP2 PUSH2 0x1686 JUMP JUMPDEST PUSH1 0x5 SSTORE AND SWAP3 DUP5 DUP4 DUP6 DUP3 DUP3 ISZERO PUSH2 0x38C JUMPI JUMPDEST DUP4 SWAP3 DUP4 SWAP3 DUP4 SWAP3 CALL ISZERO PUSH2 0x381 JUMPI PUSH32 0xD291F499D29B089D125F4FD213C70DF65F78C1295C99A1B54EC459C5150A0CE4 SWAP3 DUP2 PUSH1 0x60 SWAP3 PUSH1 0x24 PUSH1 0x40 MLOAD SWAP6 DUP7 SWAP5 DUP6 MSTORE PUSH1 0x40 PUSH1 0x20 DUP7 ADD MSTORE DUP3 PUSH1 0x40 DUP7 ADD MSTORE ADD DUP5 DUP5 ADD CALLDATACOPY DUP2 DUP2 ADD DUP4 ADD DUP8 SWAP1 MSTORE PUSH1 0x1F ADD PUSH1 0x1F NOT AND DUP2 ADD SUB ADD SWAP1 LOG2 DUP1 RETURN JUMPDEST PUSH1 0x40 MLOAD RETURNDATASIZE DUP7 DUP3 RETURNDATACOPY RETURNDATASIZE SWAP1 REVERT JUMPDEST POP PUSH2 0x8FC PUSH2 0x31B JUMP JUMPDEST PUSH1 0x40 MLOAD PUSH3 0x461BCD PUSH1 0xE5 SHL DUP2 MSTORE PUSH1 0x20 PUSH1 0x4 DUP3 ADD MSTORE PUSH1 0x19 PUSH1 0x24 DUP3 ADD MSTORE PUSH32 0x496E73756666696369656E7420706F6F6C2062616C616E636500000000000000 PUSH1 0x44 DUP3 ADD MSTORE PUSH1 0x64 SWAP1 REVERT JUMPDEST PUSH1 0x40 MLOAD PUSH3 0x461BCD PUSH1 0xE5 SHL DUP2 MSTORE PUSH1 0x20 PUSH1 0x4 DUP3 ADD MSTORE PUSH1 0xE PUSH1 0x24 DUP3 ADD MSTORE PUSH14 0x139BDD08185D5D1A1BDC9A5E9959 PUSH1 0x92 SHL PUSH1 0x44 DUP3 ADD MSTORE PUSH1 0x64 SWAP1 REVERT JUMPDEST POP DUP2 PUSH1 0x4 SLOAD AND CALLER EQ PUSH2 0x2F2 JUMP JUMPDEST DUP5 DUP1 REVERT JUMPDEST POP CALLVALUE PUSH2 0x16E JUMPI PUSH1 0x3 NOT SWAP1 PUSH1 0x40 CALLDATASIZE DUP4 ADD SLT PUSH2 0x16E JUMPI PUSH1 0x4 CALLDATALOAD PUSH1 0x1 PUSH1 0x1 PUSH1 0x40 SHL SUB PUSH1 0x24 CALLDATALOAD DUP2 DUP2 GT PUSH2 0x5BD JUMPI PUSH2 0x458 SWAP1 CALLDATASIZE SWAP1 PUSH1 0x4 ADD PUSH2 0x158C JUMP JUMPDEST CALLER DUP5 MSTORE PUSH1 0x20 SWAP2 DUP5 DUP4 MSTORE PUSH2 0x474 PUSH1 0xFF PUSH1 0x9 PUSH1 0x40 DUP9 KECCAK256 ADD SLOAD AND PUSH2 0x1643 JUMP JUMPDEST PUSH1 0x2 SLOAD PUSH1 0x40 MLOAD PUSH4 0xF8B2CB4F PUSH1 0xE0 SHL DUP2 MSTORE CALLER PUSH1 0x4 DUP3 ADD MSTORE PUSH1 0x1 PUSH1 0x1 PUSH1 0xA0 SHL SUB SWAP1 SWAP2 AND SWAP7 SWAP1 DUP5 DUP2 PUSH1 0x24 DUP2 DUP12 GAS STATICCALL SWAP1 DUP2 ISZERO PUSH2 0x62F JUMPI SWAP1 DUP7 SWAP2 DUP9 SWAP2 PUSH2 0x5FA JUMPI JUMPDEST POP LT PUSH2 0x5C1 JUMPI SWAP5 PUSH2 0x4FC DUP2 SWAP8 DUP3 SWAP7 SWAP8 CALLER DUP5 MSTORE DUP4 DUP8 MSTORE DUP4 DUP10 PUSH2 0x50B PUSH1 0x1 PUSH1 0x40 DUP5 KECCAK256 ADD SWAP4 PUSH1 0x40 MLOAD SWAP10 DUP11 SWAP8 DUP9 SWAP7 DUP8 SWAP6 PUSH4 0x20652DD1 PUSH1 0xE0 SHL DUP8 MSTORE PUSH1 0x4 DUP8 ADD MSTORE PUSH1 0x60 PUSH1 0x24 DUP8 ADD MSTORE PUSH1 0x64 DUP7 ADD SWAP1 PUSH2 0x1693 JUMP JUMPDEST SWAP2 DUP5 DUP4 SUB ADD PUSH1 0x44 DUP6 ADD MSTORE PUSH2 0x154C JUMP JUMPDEST SUB SWAP3 GAS CALL DUP1 ISZERO PUSH2 0x381 JUMPI PUSH2 0x551 JUMPI JUMPDEST POP POP CALLER DUP3 MSTORE DUP2 DUP2 MSTORE PUSH1 0x5 PUSH1 0x40 DUP4 KECCAK256 ADD PUSH2 0x534 DUP5 DUP3 SLOAD PUSH2 0x1686 JUMP JUMPDEST SWAP1 SSTORE CALLER DUP3 MSTORE MSTORE PUSH2 0x54C PUSH1 0x6 PUSH1 0x40 DUP5 KECCAK256 ADD SWAP2 DUP3 SLOAD PUSH2 0x1620 JUMP JUMPDEST SWAP1 SSTORE DUP1 RETURN JUMPDEST RETURNDATASIZE DUP1 DUP6 DUP5 RETURNDATACOPY PUSH2 0x560 DUP2 DUP5 PUSH2 0x1462 JUMP JUMPDEST DUP3 ADD SWAP2 DUP4 DUP2 DUP5 SUB SLT PUSH2 0x41D JUMPI DUP1 MLOAD SWAP2 DUP3 GT PUSH2 0x41D JUMPI ADD DUP2 PUSH1 0x1F DUP3 ADD SLT ISZERO PUSH2 0x5BD JUMPI DUP1 MLOAD SWAP1 PUSH2 0x58D DUP3 PUSH2 0x1571 JUMP JUMPDEST SWAP3 PUSH2 0x59B PUSH1 0x40 MLOAD SWAP5 DUP6 PUSH2 0x1462 JUMP JUMPDEST DUP3 DUP5 MSTORE DUP5 DUP4 DUP4 ADD ADD GT PUSH2 0x41D JUMPI DUP4 DUP1 PUSH2 0x5B6 SWAP5 ADD SWAP2 ADD PUSH2 0x1529 JUMP JUMPDEST CODESIZE DUP1 PUSH2 0x51A JUMP JUMPDEST DUP4 DUP1 REVERT JUMPDEST PUSH1 0x40 MLOAD PUSH3 0x461BCD PUSH1 0xE5 SHL DUP2 MSTORE PUSH1 0x4 DUP2 ADD DUP6 SWAP1 MSTORE PUSH1 0x11 PUSH1 0x24 DUP3 ADD MSTORE PUSH17 0x496E73756666696369656E742050524373 PUSH1 0x78 SHL PUSH1 0x44 DUP3 ADD MSTORE PUSH1 0x64 SWAP1 REVERT JUMPDEST DUP1 SWAP3 POP DUP7 DUP1 SWAP3 POP RETURNDATASIZE DUP4 GT PUSH2 0x628 JUMPI JUMPDEST PUSH2 0x613 DUP2 DUP4 PUSH2 0x1462 JUMP JUMPDEST DUP2 ADD SUB SLT PUSH2 0x624 JUMPI DUP6 SWAP1 MLOAD CODESIZE PUSH2 0x4B0 JUMP JUMPDEST DUP7 DUP1 REVERT JUMPDEST POP RETURNDATASIZE PUSH2 0x609 JUMP JUMPDEST PUSH1 0x40 MLOAD RETURNDATASIZE DUP10 DUP3 RETURNDATACOPY RETURNDATASIZE SWAP1 REVERT JUMPDEST POP CALLVALUE PUSH2 0x16E JUMPI PUSH1 0x20 CALLDATASIZE PUSH1 0x3 NOT ADD SLT PUSH2 0x16E JUMPI PUSH1 0x40 PUSH2 0x659 PUSH1 0x4 CALLDATALOAD PUSH2 0x1729 JUMP JUMPDEST DUP3 MLOAD SWAP2 ISZERO ISZERO DUP3 MSTORE PUSH1 0x20 DUP3 ADD MSTORE RETURN JUMPDEST POP PUSH1 0x20 DUP1 PUSH1 0x3 NOT CALLDATASIZE ADD SLT PUSH2 0x844 JUMPI PUSH1 0x4 CALLDATALOAD SWAP2 CALLER DUP2 MSTORE DUP1 DUP3 MSTORE PUSH2 0x692 PUSH1 0xFF PUSH1 0x9 PUSH1 0x40 DUP5 KECCAK256 ADD SLOAD AND PUSH2 0x1643 JUMP JUMPDEST DUP3 ISZERO PUSH2 0x898 JUMPI PUSH8 0xF43FC2C04EE0000 DUP4 MUL PUSH8 0xF43FC2C04EDFFFF NOT DUP5 DUP3 DIV ADD PUSH2 0x884 JUMPI PUSH2 0x3E8 SWAP1 DIV CALLVALUE LT PUSH2 0x848 JUMPI PUSH1 0x2 SLOAD PUSH1 0x1 PUSH1 0x1 PUSH1 0xA0 SHL SUB AND DUP1 EXTCODESIZE ISZERO PUSH2 0x844 JUMPI DUP2 DUP1 SWAP2 PUSH1 0x44 PUSH1 0x40 MLOAD DUP1 SWAP5 DUP2 SWAP4 PUSH4 0xA9059CBB PUSH1 0xE0 SHL DUP4 MSTORE CALLER PUSH1 0x4 DUP5 ADD MSTORE DUP10 PUSH1 0x24 DUP5 ADD MSTORE GAS CALL DUP1 ISZERO PUSH2 0x839 JUMPI PUSH2 0x80E JUMPI JUMPDEST POP SWAP1 PUSH2 0x546 SWAP3 DUP4 CALLVALUE MUL SWAP4 CALLVALUE DUP6 DIV EQ CALLVALUE ISZERO OR ISZERO PUSH2 0x7FA JUMPI PUSH2 0x2710 PUSH32 0x94895D32E6EC4D14034BF7E666484E939C9632771195A8DB0D8C0D98E10AAA57 SWAP4 SWAP5 DIV SWAP1 PUSH2 0x765 PUSH2 0x74D DUP4 CALLVALUE PUSH2 0x1686 JUMP JUMPDEST SWAP3 PUSH2 0x75A DUP5 PUSH1 0x5 SLOAD PUSH2 0x1620 JUMP JUMPDEST PUSH1 0x5 SSTORE PUSH1 0x6 SLOAD PUSH2 0x1620 JUMP JUMPDEST PUSH1 0x6 SSTORE CALLER DUP6 MSTORE DUP5 DUP4 MSTORE PUSH1 0x5 PUSH1 0x40 DUP7 KECCAK256 ADD PUSH2 0x780 DUP3 DUP3 SLOAD PUSH2 0x1620 JUMP JUMPDEST SWAP1 SSTORE CALLER DUP6 MSTORE DUP5 DUP4 MSTORE PUSH1 0x7 PUSH1 0x40 DUP7 KECCAK256 ADD PUSH2 0x79A CALLVALUE DUP3 SLOAD PUSH2 0x1620 JUMP JUMPDEST SWAP1 SSTORE CALLER DUP6 MSTORE DUP5 DUP4 MSTORE PUSH32 0xB99588F37248A1E685205824F5927AF54D97EA932BB2D1D6758CE0E78650C484 PUSH1 0x1 PUSH1 0x40 DUP8 KECCAK256 ADD PUSH2 0x7DF PUSH1 0x40 MLOAD SWAP2 PUSH1 0x60 DUP4 MSTORE PUSH1 0x60 DUP4 ADD SWAP1 PUSH2 0x1693 JUMP JUMPDEST SWAP3 DUP6 DUP3 ADD MSTORE CALLVALUE PUSH1 0x40 DUP3 ADD MSTORE DUP1 CALLER SWAP4 SUB SWAP1 LOG2 PUSH1 0x40 MLOAD SWAP1 DUP2 MSTORE LOG1 DUP1 RETURN JUMPDEST PUSH4 0x4E487B71 PUSH1 0xE0 SHL DUP4 MSTORE PUSH1 0x11 PUSH1 0x4 MSTORE PUSH1 0x24 DUP4 REVERT JUMPDEST PUSH1 0x1 PUSH1 0x1 PUSH1 0x40 SHL SUB DUP2 GT PUSH2 0x825 JUMPI PUSH1 0x40 MSTORE CODESIZE PUSH2 0x702 JUMP JUMPDEST PUSH4 0x4E487B71 PUSH1 0xE0 SHL DUP3 MSTORE PUSH1 0x41 PUSH1 0x4 MSTORE PUSH1 0x24 DUP3 REVERT JUMPDEST PUSH1 0x40 MLOAD RETURNDATASIZE DUP5 DUP3 RETURNDATACOPY RETURNDATASIZE SWAP1 REVERT JUMPDEST POP DUP1 REVERT JUMPDEST PUSH1 0x40 MLOAD PUSH3 0x461BCD PUSH1 0xE5 SHL DUP2 MSTORE PUSH1 0x4 DUP2 ADD DUP4 SWAP1 MSTORE PUSH1 0x14 PUSH1 0x24 DUP3 ADD MSTORE PUSH20 0x125B9CDD59999A58DA595B9D081C185E5B595B9D PUSH1 0x62 SHL PUSH1 0x44 DUP3 ADD MSTORE PUSH1 0x64 SWAP1 REVERT JUMPDEST PUSH4 0x4E487B71 PUSH1 0xE0 SHL DUP3 MSTORE PUSH1 0x11 PUSH1 0x4 MSTORE PUSH1 0x24 DUP3 REVERT JUMPDEST PUSH1 0x40 MLOAD PUSH3 0x461BCD PUSH1 0xE5 SHL DUP2 MSTORE PUSH1 0x4 DUP2 ADD DUP4 SWAP1 MSTORE PUSH1 0xE PUSH1 0x24 DUP3 ADD MSTORE PUSH14 0x125B9D985B1A5908185B5BDD5B9D PUSH1 0x92 SHL PUSH1 0x44 DUP3 ADD MSTORE PUSH1 0x64 SWAP1 REVERT JUMPDEST POP CALLVALUE PUSH2 0x16E JUMPI DUP1 PUSH1 0x3 NOT CALLDATASIZE ADD SLT PUSH2 0x16E JUMPI PUSH1 0x20 PUSH1 0x40 MLOAD PUSH9 0x2B5E3AF16B1880000 DUP2 MSTORE RETURN JUMPDEST POP CALLVALUE PUSH2 0x16E JUMPI PUSH1 0x20 CALLDATASIZE PUSH1 0x3 NOT ADD SLT PUSH2 0x16E JUMPI PUSH1 0x4 CALLDATALOAD SWAP1 PUSH1 0x1 SLOAD DUP3 LT ISZERO PUSH2 0x16E JUMPI PUSH1 0x20 PUSH2 0x91D DUP4 PUSH2 0x15D3 JUMP JUMPDEST SWAP1 SLOAD PUSH1 0x40 MLOAD PUSH1 0x3 SWAP3 SWAP1 SWAP3 SHL SHR PUSH1 0x1 PUSH1 0x1 PUSH1 0xA0 SHL SUB AND DUP2 MSTORE RETURN JUMPDEST POP CALLVALUE PUSH2 0x16E JUMPI DUP1 PUSH1 0x3 NOT CALLDATASIZE ADD SLT PUSH2 0x16E JUMPI PUSH1 0x4 SLOAD PUSH1 0x40 MLOAD PUSH1 0x1 PUSH1 0x1 PUSH1 0xA0 SHL SUB SWAP1 SWAP2 AND DUP2 MSTORE PUSH1 0x20 SWAP1 RETURN JUMPDEST POP CALLVALUE PUSH2 0x16E JUMPI PUSH1 0x20 CALLDATASIZE PUSH1 0x3 NOT ADD SLT PUSH2 0x16E JUMPI PUSH1 0x40 SWAP1 PUSH2 0x97C PUSH2 0x13DB JUMP JUMPDEST DUP2 PUSH2 0x140 DUP5 MLOAD PUSH2 0x98B DUP2 PUSH2 0x1430 JUMP JUMPDEST DUP3 DUP2 MSTORE PUSH1 0x60 PUSH1 0x20 DUP3 ADD MSTORE PUSH1 0x60 DUP7 DUP3 ADD MSTORE PUSH1 0x60 DUP1 DUP3 ADD MSTORE PUSH1 0x60 PUSH1 0x80 DUP3 ADD MSTORE DUP3 PUSH1 0xA0 DUP3 ADD MSTORE DUP3 PUSH1 0xC0 DUP3 ADD MSTORE DUP3 PUSH1 0xE0 DUP3 ADD MSTORE DUP3 PUSH2 0x100 DUP3 ADD MSTORE DUP3 PUSH2 0x120 DUP3 ADD MSTORE ADD MSTORE PUSH1 0x1 DUP1 PUSH1 0xA0 SHL SUB AND DUP2 MSTORE DUP1 PUSH1 0x20 MSTORE KECCAK256 PUSH1 0xA PUSH1 0x40 MLOAD SWAP2 PUSH2 0x9E8 DUP4 PUSH2 0x1430 JUMP JUMPDEST DUP1 SLOAD PUSH1 0x1 PUSH1 0x1 PUSH1 0xA0 SHL SUB AND DUP4 MSTORE PUSH2 0xA01 PUSH1 0x1 DUP3 ADD PUSH2 0x1483 JUMP JUMPDEST PUSH1 0x20 DUP5 ADD MSTORE PUSH2 0xA12 PUSH1 0x2 DUP3 ADD PUSH2 0x1483 JUMP JUMPDEST PUSH1 0x40 DUP5 ADD MSTORE PUSH2 0xA23 PUSH1 0x3 DUP3 ADD PUSH2 0x1483 JUMP JUMPDEST PUSH1 0x60 DUP5 ADD MSTORE PUSH2 0xA34 PUSH1 0x4 DUP3 ADD PUSH2 0x1483 JUMP JUMPDEST PUSH1 0x80 DUP5 ADD MSTORE PUSH1 0x5 DUP2 ADD SLOAD PUSH1 0xA0 DUP5 ADD MSTORE PUSH1 0x6 DUP2 ADD SLOAD PUSH1 0xC0 DUP5 ADD MSTORE PUSH1 0x7 DUP2 ADD SLOAD PUSH1 0xE0 DUP5 ADD MSTORE PUSH1 0x8 DUP2 ADD SLOAD PUSH2 0x100 DUP5 ADD MSTORE PUSH1 0xFF PUSH1 0x9 DUP3 ADD SLOAD AND ISZERO ISZERO PUSH2 0x120 DUP5 ADD MSTORE ADD SLOAD PUSH2 0x140 DUP3 ADD MSTORE PUSH1 0x40 MLOAD DUP1 SWAP2 PUSH1 0x20 DUP3 MSTORE PUSH1 0x1 DUP1 PUSH1 0xA0 SHL SUB DUP2 MLOAD AND PUSH1 0x20 DUP4 ADD MSTORE PUSH2 0x140 PUSH2 0xAFB PUSH2 0xAB3 PUSH1 0x20 DUP5 ADD MLOAD PUSH2 0x160 PUSH1 0x40 DUP8 ADD MSTORE PUSH2 0x180 DUP7 ADD SWAP1 PUSH2 0x154C JUMP JUMPDEST PUSH2 0xAE6 PUSH2 0xAD2 PUSH1 0x40 DUP7 ADD MLOAD SWAP3 PUSH1 0x1F NOT SWAP4 DUP5 DUP10 DUP4 SUB ADD PUSH1 0x60 DUP11 ADD MSTORE PUSH2 0x154C JUMP JUMPDEST PUSH1 0x60 DUP7 ADD MLOAD DUP4 DUP9 DUP4 SUB ADD PUSH1 0x80 DUP10 ADD MSTORE PUSH2 0x154C JUMP JUMPDEST SWAP1 PUSH1 0x80 DUP6 ADD MLOAD SWAP1 DUP7 DUP4 SUB ADD PUSH1 0xA0 DUP8 ADD MSTORE PUSH2 0x154C JUMP JUMPDEST SWAP2 PUSH1 0xA0 DUP2 ADD MLOAD PUSH1 0xC0 DUP6 ADD MSTORE PUSH1 0xC0 DUP2 ADD MLOAD PUSH1 0xE0 DUP6 ADD MSTORE PUSH1 0xE0 DUP2 ADD MLOAD PUSH2 0x100 DUP6 ADD MSTORE PUSH2 0x100 DUP2 ADD MLOAD PUSH2 0x120 DUP6 ADD MSTORE PUSH2 0x120 DUP2 ADD MLOAD ISZERO ISZERO DUP3 DUP6 ADD MSTORE ADD MLOAD PUSH2 0x160 DUP4 ADD MSTORE SUB SWAP1 RETURN JUMPDEST POP CALLVALUE PUSH2 0x16E JUMPI DUP1 PUSH1 0x3 NOT CALLDATASIZE ADD SLT PUSH2 0x16E JUMPI PUSH1 0x20 PUSH1 0x40 MLOAD PUSH2 0x546 DUP2 MSTORE RETURN JUMPDEST POP PUSH1 0x80 CALLDATASIZE PUSH1 0x3 NOT ADD SLT PUSH2 0x16E JUMPI PUSH1 0x4 CALLDATALOAD PUSH1 0x1 PUSH1 0x1 PUSH1 0x40 SHL SUB DUP2 GT PUSH2 0x844 JUMPI PUSH2 0xB88 SWAP1 CALLDATASIZE SWAP1 PUSH1 0x4 ADD PUSH2 0x158C JUMP JUMPDEST PUSH1 0x24 CALLDATALOAD PUSH1 0x1 PUSH1 0x1 PUSH1 0x40 SHL SUB DUP2 GT PUSH2 0x12AE JUMPI PUSH2 0xBA7 SWAP1 CALLDATASIZE SWAP1 PUSH1 0x4 ADD PUSH2 0x158C JUMP JUMPDEST SWAP1 PUSH1 0x44 CALLDATALOAD PUSH1 0x1 PUSH1 0x1 PUSH1 0x40 SHL SUB DUP2 GT PUSH2 0x5BD JUMPI PUSH2 0xBC7 SWAP1 CALLDATASIZE SWAP1 PUSH1 0x4 ADD PUSH2 0x158C JUMP JUMPDEST PUSH1 0x64 CALLDATALOAD PUSH1 0x1 PUSH1 0x1 PUSH1 0x40 SHL SUB DUP2 GT PUSH2 0x41D JUMPI PUSH2 0xBE6 SWAP1 CALLDATASIZE SWAP1 PUSH1 0x4 ADD PUSH2 0x158C JUMP JUMPDEST CALLER DUP6 MSTORE PUSH1 0x20 DUP6 SWAP1 MSTORE PUSH1 0x40 DUP6 KECCAK256 SLOAD PUSH1 0x1 PUSH1 0x1 PUSH1 0xA0 SHL SUB AND PUSH2 0x1274 JUMPI PUSH9 0x2B5E3AF16B1880000 CALLVALUE LT PUSH2 0x122F JUMPI PUSH1 0x40 MLOAD SWAP2 PUSH2 0xC1D DUP4 PUSH2 0x1430 JUMP JUMPDEST CALLER DUP4 MSTORE DUP4 PUSH1 0x20 DUP5 ADD MSTORE DUP5 PUSH1 0x40 DUP5 ADD MSTORE PUSH1 0x60 DUP4 ADD MSTORE PUSH1 0x80 DUP3 ADD MSTORE DUP4 PUSH1 0xA0 DUP3 ADD MSTORE DUP4 PUSH1 0xC0 DUP3 ADD MSTORE DUP4 PUSH1 0xE0 DUP3 ADD MSTORE DUP4 PUSH2 0x100 DUP3 ADD MSTORE PUSH1 0x1 PUSH2 0x120 DUP3 ADD MSTORE TIMESTAMP PUSH2 0x140 DUP3 ADD MSTORE CALLER DUP5 MSTORE DUP4 PUSH1 0x20 MSTORE PUSH1 0x40 DUP5 KECCAK256 SWAP1 PUSH1 0x1 DUP1 PUSH1 0xA0 SHL SUB DUP2 MLOAD AND PUSH12 0xFFFFFFFFFFFFFFFFFFFFFFFF PUSH1 0xA0 SHL DUP4 SLOAD AND OR DUP3 SSTORE PUSH1 0x20 DUP2 ADD MLOAD DUP1 MLOAD SWAP1 PUSH1 0x1 PUSH1 0x1 PUSH1 0x40 SHL SUB DUP3 GT PUSH2 0xFBD JUMPI DUP2 SWAP1 PUSH2 0xCAF PUSH1 0x1 DUP7 ADD SLOAD PUSH2 0x13F6 JUMP JUMPDEST PUSH1 0x1F DUP2 GT PUSH2 0x11DF JUMPI JUMPDEST POP PUSH1 0x20 SWAP1 PUSH1 0x1F DUP4 GT PUSH1 0x1 EQ PUSH2 0x1170 JUMPI DUP9 SWAP3 PUSH2 0x1165 JUMPI JUMPDEST POP POP DUP2 PUSH1 0x1 SHL SWAP2 PUSH1 0x0 NOT SWAP1 PUSH1 0x3 SHL SHR NOT AND OR PUSH1 0x1 DUP4 ADD SSTORE JUMPDEST PUSH1 0x40 DUP2 ADD MLOAD DUP1 MLOAD SWAP1 PUSH1 0x1 PUSH1 0x1 PUSH1 0x40 SHL SUB DUP3 GT PUSH2 0xFBD JUMPI DUP2 SWAP1 PUSH2 0xD0B PUSH1 0x2 DUP7 ADD SLOAD PUSH2 0x13F6 JUMP JUMPDEST PUSH1 0x1F DUP2 GT PUSH2 0x1115 JUMPI JUMPDEST POP PUSH1 0x20 SWAP1 PUSH1 0x1F DUP4 GT PUSH1 0x1 EQ PUSH2 0x10A6 JUMPI DUP9 SWAP3 PUSH2 0x109B JUMPI JUMPDEST POP POP DUP2 PUSH1 0x1 SHL SWAP2 PUSH1 0x0 NOT SWAP1 PUSH1 0x3 SHL SHR NOT AND OR PUSH1 0x2 DUP4 ADD SSTORE JUMPDEST PUSH1 0x60 DUP2 ADD MLOAD DUP1 MLOAD SWAP1 PUSH1 0x1 PUSH1 0x1 PUSH1 0x40 SHL SUB DUP3 GT PUSH2 0xFBD JUMPI DUP2 SWAP1 PUSH2 0xD67 PUSH1 0x3 DUP7 ADD SLOAD PUSH2 0x13F6 JUMP JUMPDEST PUSH1 0x1F DUP2 GT PUSH2 0x104B JUMPI JUMPDEST POP PUSH1 0x20 SWAP1 PUSH1 0x1F DUP4 GT PUSH1 0x1 EQ PUSH2 0xFDC JUMPI DUP9 SWAP3 PUSH2 0xFD1 JUMPI JUMPDEST POP POP DUP2 PUSH1 0x1 SHL SWAP2 PUSH1 0x0 NOT SWAP1 PUSH1 0x3 SHL SHR NOT AND OR PUSH1 0x3 DUP4 ADD SSTORE JUMPDEST PUSH1 0x80 DUP2 ADD MLOAD DUP1 MLOAD SWAP1 PUSH1 0x1 PUSH1 0x1 PUSH1 0x40 SHL SUB DUP3 GT PUSH2 0xFBD JUMPI PUSH2 0xDC1 PUSH1 0x4 DUP6 ADD SLOAD PUSH2 0x13F6 JUMP JUMPDEST PUSH1 0x1F DUP2 GT PUSH2 0xF79 JUMPI JUMPDEST POP PUSH1 0x20 SWAP1 PUSH1 0x1F DUP4 GT PUSH1 0x1 EQ PUSH2 0xF06 JUMPI SWAP2 DUP1 PUSH1 0xA SWAP5 SWAP3 PUSH2 0x140 SWAP5 DUP11 SWAP3 PUSH2 0xEFB JUMPI JUMPDEST POP POP DUP2 PUSH1 0x1 SHL SWAP2 PUSH1 0x0 NOT SWAP1 PUSH1 0x3 SHL SHR NOT AND OR PUSH1 0x4 DUP6 ADD SSTORE JUMPDEST PUSH1 0xA0 DUP2 ADD MLOAD PUSH1 0x5 DUP6 ADD SSTORE PUSH1 0xC0 DUP2 ADD MLOAD PUSH1 0x6 DUP6 ADD SSTORE PUSH1 0xE0 DUP2 ADD MLOAD PUSH1 0x7 DUP6 ADD SSTORE PUSH2 0x100 DUP2 ADD MLOAD PUSH1 0x8 DUP6 ADD SSTORE PUSH1 0x9 DUP5 ADD PUSH2 0x120 DUP3 ADD MLOAD ISZERO ISZERO PUSH1 0xFF DUP1 NOT DUP4 SLOAD AND SWAP2 AND OR SWAP1 SSTORE ADD MLOAD SWAP2 ADD SSTORE PUSH2 0xE54 CALLVALUE PUSH1 0x6 SLOAD PUSH2 0x1620 JUMP JUMPDEST PUSH1 0x6 SSTORE PUSH1 0x1 SLOAD PUSH9 0x10000000000000000 DUP2 LT ISZERO PUSH2 0xEE7 JUMPI PUSH32 0xC1425FF0AB2B4ED7EE8A80713B5B2218682BE775606E700AB65D79794BFD8C68 SWAP2 PUSH2 0xEA0 DUP3 PUSH1 0x1 PUSH2 0xED2 SWAP5 ADD PUSH1 0x1 SSTORE PUSH2 0x15D3 JUMP JUMPDEST DUP2 SLOAD PUSH1 0x1 PUSH1 0x1 PUSH1 0xA0 SHL SUB PUSH1 0x3 SWAP3 SWAP1 SWAP3 SHL SWAP2 DUP3 SHL NOT AND CALLER SWAP1 SWAP2 SHL OR SWAP1 SSTORE PUSH1 0x40 DUP1 MLOAD DUP2 DUP2 MSTORE SWAP3 DUP4 SWAP3 PUSH2 0xEE1 SWAP3 DUP5 ADD SWAP1 PUSH2 0x154C JUMP JUMPDEST DUP3 DUP2 SUB PUSH1 0x20 DUP5 ADD MSTORE CALLER SWAP6 PUSH2 0x154C JUMP JUMPDEST SUB SWAP1 LOG2 DUP1 RETURN JUMPDEST PUSH4 0x4E487B71 PUSH1 0xE0 SHL DUP5 MSTORE PUSH1 0x41 PUSH1 0x4 MSTORE PUSH1 0x24 DUP5 REVERT JUMPDEST ADD MLOAD SWAP1 POP CODESIZE DUP1 PUSH2 0xDEA JUMP JUMPDEST SWAP1 PUSH1 0x4 DUP6 ADD DUP9 MSTORE PUSH1 0x20 DUP9 KECCAK256 SWAP2 DUP9 JUMPDEST PUSH1 0x1F NOT DUP6 AND DUP2 LT PUSH2 0xF61 JUMPI POP SWAP3 PUSH1 0xA SWAP5 SWAP3 PUSH1 0x1 SWAP3 PUSH2 0x140 SWAP6 DUP4 PUSH1 0x1F NOT DUP2 AND LT PUSH2 0xF48 JUMPI JUMPDEST POP POP POP DUP2 SHL ADD PUSH1 0x4 DUP6 ADD SSTORE PUSH2 0xE02 JUMP JUMPDEST ADD MLOAD PUSH1 0x0 NOT PUSH1 0xF8 DUP5 PUSH1 0x3 SHL AND SHR NOT AND SWAP1 SSTORE CODESIZE DUP1 DUP1 PUSH2 0xF38 JUMP JUMPDEST SWAP2 SWAP3 PUSH1 0x20 PUSH1 0x1 DUP2 SWAP3 DUP7 DUP6 ADD MLOAD DUP2 SSTORE ADD SWAP5 ADD SWAP3 ADD PUSH2 0xF14 JUMP JUMPDEST PUSH1 0x4 DUP6 ADD DUP9 MSTORE PUSH1 0x20 DUP9 KECCAK256 PUSH1 0x1F DUP5 ADD PUSH1 0x5 SHR DUP2 ADD PUSH1 0x20 DUP6 LT PUSH2 0xFB6 JUMPI JUMPDEST PUSH1 0x1F DUP4 ADD PUSH1 0x5 SHR DUP3 ADD DUP2 LT PUSH2 0xFAB JUMPI POP POP PUSH2 0xDCA JUMP JUMPDEST DUP10 DUP2 SSTORE PUSH1 0x1 ADD PUSH2 0xF95 JUMP JUMPDEST POP DUP1 PUSH2 0xF95 JUMP JUMPDEST PUSH4 0x4E487B71 PUSH1 0xE0 SHL DUP8 MSTORE PUSH1 0x41 PUSH1 0x4 MSTORE PUSH1 0x24 DUP8 REVERT JUMPDEST ADD MLOAD SWAP1 POP CODESIZE DUP1 PUSH2 0xD86 JUMP JUMPDEST SWAP3 POP PUSH1 0x3 DUP6 ADD DUP9 MSTORE PUSH1 0x20 DUP9 KECCAK256 SWAP1 DUP9 SWAP4 JUMPDEST PUSH1 0x1F NOT DUP5 AND DUP6 LT PUSH2 0x1030 JUMPI PUSH1 0x1 SWAP5 POP DUP4 PUSH1 0x1F NOT DUP2 AND LT PUSH2 0x1017 JUMPI JUMPDEST POP POP POP DUP2 SHL ADD PUSH1 0x3 DUP4 ADD SSTORE PUSH2 0xD9E JUMP JUMPDEST ADD MLOAD PUSH1 0x0 NOT PUSH1 0xF8 DUP5 PUSH1 0x3 SHL AND SHR NOT AND SWAP1 SSTORE CODESIZE DUP1 DUP1 PUSH2 0x1007 JUMP JUMPDEST DUP2 DUP2 ADD MLOAD DUP4 SSTORE PUSH1 0x20 SWAP5 DUP6 ADD SWAP5 PUSH1 0x1 SWAP1 SWAP4 ADD SWAP3 SWAP1 SWAP2 ADD SWAP1 PUSH2 0xFEC JUMP JUMPDEST SWAP1 SWAP2 POP PUSH1 0x3 DUP6 ADD DUP9 MSTORE PUSH1 0x20 DUP9 KECCAK256 PUSH1 0x1F DUP5 ADD PUSH1 0x5 SHR DUP2 ADD PUSH1 0x20 DUP6 LT PUSH2 0x1094 JUMPI JUMPDEST SWAP1 DUP5 SWAP4 SWAP3 SWAP2 JUMPDEST PUSH1 0x1F DUP4 ADD PUSH1 0x5 SHR DUP3 ADD DUP2 LT PUSH2 0x1086 JUMPI POP POP PUSH2 0xD70 JUMP JUMPDEST DUP11 DUP2 SSTORE DUP6 SWAP5 POP PUSH1 0x1 ADD PUSH2 0x1070 JUMP JUMPDEST POP DUP1 PUSH2 0x106A JUMP JUMPDEST ADD MLOAD SWAP1 POP CODESIZE DUP1 PUSH2 0xD2A JUMP JUMPDEST SWAP3 POP PUSH1 0x2 DUP6 ADD DUP9 MSTORE PUSH1 0x20 DUP9 KECCAK256 SWAP1 DUP9 SWAP4 JUMPDEST PUSH1 0x1F NOT DUP5 AND DUP6 LT PUSH2 0x10FA JUMPI PUSH1 0x1 SWAP5 POP DUP4 PUSH1 0x1F NOT DUP2 AND LT PUSH2 0x10E1 JUMPI JUMPDEST POP POP POP DUP2 SHL ADD PUSH1 0x2 DUP4 ADD SSTORE PUSH2 0xD42 JUMP JUMPDEST ADD MLOAD PUSH1 0x0 NOT PUSH1 0xF8 DUP5 PUSH1 0x3 SHL AND SHR NOT AND SWAP1 SSTORE CODESIZE DUP1 DUP1 PUSH2 0x10D1 JUMP JUMPDEST DUP2 DUP2 ADD MLOAD DUP4 SSTORE PUSH1 0x20 SWAP5 DUP6 ADD SWAP5 PUSH1 0x1 SWAP1 SWAP4 ADD SWAP3 SWAP1 SWAP2 ADD SWAP1 PUSH2 0x10B6 JUMP JUMPDEST SWAP1 SWAP2 POP PUSH1 0x2 DUP6 ADD DUP9 MSTORE PUSH1 0x20 DUP9 KECCAK256 PUSH1 0x1F DUP5 ADD PUSH1 0x5 SHR DUP2 ADD PUSH1 0x20 DUP6 LT PUSH2 0x115E JUMPI JUMPDEST SWAP1 DUP5 SWAP4 SWAP3 SWAP2 JUMPDEST PUSH1 0x1F DUP4 ADD PUSH1 0x5 SHR DUP3 ADD DUP2 LT PUSH2 0x1150 JUMPI POP POP PUSH2 0xD14 JUMP JUMPDEST DUP11 DUP2 SSTORE DUP6 SWAP5 POP PUSH1 0x1 ADD PUSH2 0x113A JUMP JUMPDEST POP DUP1 PUSH2 0x1134 JUMP JUMPDEST ADD MLOAD SWAP1 POP CODESIZE DUP1 PUSH2 0xCCE JUMP JUMPDEST SWAP3 POP PUSH1 0x1 DUP6 ADD DUP9 MSTORE PUSH1 0x20 DUP9 KECCAK256 SWAP1 DUP9 SWAP4 JUMPDEST PUSH1 0x1F NOT DUP5 AND DUP6 LT PUSH2 0x11C4 JUMPI PUSH1 0x1 SWAP5 POP DUP4 PUSH1 0x1F NOT DUP2 AND LT PUSH2 0x11AB JUMPI JUMPDEST POP POP POP DUP2 SHL ADD PUSH1 0x1 DUP4 ADD SSTORE PUSH2 0xCE6 JUMP JUMPDEST ADD MLOAD PUSH1 0x0 NOT PUSH1 0xF8 DUP5 PUSH1 0x3 SHL AND SHR NOT AND SWAP1 SSTORE CODESIZE DUP1 DUP1 PUSH2 0x119B JUMP JUMPDEST DUP2 DUP2 ADD MLOAD DUP4 SSTORE PUSH1 0x20 SWAP5 DUP6 ADD SWAP5 PUSH1 0x1 SWAP1 SWAP4 ADD SWAP3 SWAP1 SWAP2 ADD SWAP1 PUSH2 0x1180 JUMP JUMPDEST SWAP1 SWAP2 POP PUSH1 0x1 DUP6 ADD DUP9 MSTORE PUSH1 0x20 DUP9 KECCAK256 PUSH1 0x1F DUP5 ADD PUSH1 0x5 SHR DUP2 ADD PUSH1 0x20 DUP6 LT PUSH2 0x1228 JUMPI JUMPDEST SWAP1 DUP5 SWAP4 SWAP3 SWAP2 JUMPDEST PUSH1 0x1F DUP4 ADD PUSH1 0x5 SHR DUP3 ADD DUP2 LT PUSH2 0x121A JUMPI POP POP PUSH2 0xCB8 JUMP JUMPDEST DUP11 DUP2 SSTORE DUP6 SWAP5 POP PUSH1 0x1 ADD PUSH2 0x1204 JUMP JUMPDEST POP DUP1 PUSH2 0x11FE JUMP JUMPDEST PUSH1 0x40 MLOAD PUSH3 0x461BCD PUSH1 0xE5 SHL DUP2 MSTORE PUSH1 0x20 PUSH1 0x4 DUP3 ADD MSTORE PUSH1 0x1D PUSH1 0x24 DUP3 ADD MSTORE PUSH32 0x496E73756666696369656E7420726567697374726174696F6E20666565000000 PUSH1 0x44 DUP3 ADD MSTORE PUSH1 0x64 SWAP1 REVERT JUMPDEST PUSH1 0x40 MLOAD PUSH3 0x461BCD PUSH1 0xE5 SHL DUP2 MSTORE PUSH1 0x20 PUSH1 0x4 DUP3 ADD MSTORE PUSH1 0x12 PUSH1 0x24 DUP3 ADD MSTORE PUSH18 0x105B1C9958591E481C9959DA5CDD195C9959 PUSH1 0x72 SHL PUSH1 0x44 DUP3 ADD MSTORE PUSH1 0x64 SWAP1 REVERT JUMPDEST DUP3 DUP1 REVERT JUMPDEST POP CALLVALUE PUSH2 0x16E JUMPI PUSH1 0x20 CALLDATASIZE PUSH1 0x3 NOT ADD SLT PUSH2 0x16E JUMPI PUSH1 0x1 PUSH1 0x1 PUSH1 0xA0 SHL SUB SWAP1 PUSH1 0x40 SWAP1 DUP3 PUSH2 0x12D9 PUSH2 0x13DB JUMP JUMPDEST AND DUP2 MSTORE DUP1 PUSH1 0x20 MSTORE KECCAK256 SWAP1 DUP2 SLOAD AND PUSH2 0x12F1 PUSH1 0x1 DUP4 ADD PUSH2 0x1483 JUMP JUMPDEST SWAP2 PUSH2 0x12FE PUSH1 0x2 DUP3 ADD PUSH2 0x1483 JUMP JUMPDEST PUSH2 0x130A PUSH1 0x3 DUP4 ADD PUSH2 0x1483 JUMP JUMPDEST SWAP2 PUSH2 0x1317 PUSH1 0x4 DUP3 ADD PUSH2 0x1483 JUMP JUMPDEST SWAP3 PUSH1 0x5 DUP3 ADD SLOAD SWAP4 PUSH1 0x6 DUP4 ADD SLOAD PUSH2 0x138E PUSH1 0x7 DUP6 ADD SLOAD SWAP3 PUSH2 0x1380 PUSH1 0x8 DUP8 ADD SLOAD SWAP6 PUSH2 0x1372 PUSH1 0xA PUSH1 0xFF PUSH1 0x9 DUP12 ADD SLOAD AND SWAP10 ADD SLOAD SWAP10 PUSH2 0x1364 PUSH1 0x40 MLOAD SWAP15 DUP16 SWAP15 DUP16 SWAP1 DUP2 MSTORE PUSH2 0x160 SWAP1 DUP2 PUSH1 0x20 DUP3 ADD MSTORE ADD SWAP1 PUSH2 0x154C JUMP JUMPDEST DUP14 DUP2 SUB PUSH1 0x40 DUP16 ADD MSTORE SWAP1 PUSH2 0x154C JUMP JUMPDEST SWAP1 DUP12 DUP3 SUB PUSH1 0x60 DUP14 ADD MSTORE PUSH2 0x154C JUMP JUMPDEST SWAP1 DUP10 DUP3 SUB PUSH1 0x80 DUP12 ADD MSTORE PUSH2 0x154C JUMP JUMPDEST SWAP6 PUSH1 0xA0 DUP9 ADD MSTORE PUSH1 0xC0 DUP8 ADD MSTORE PUSH1 0xE0 DUP7 ADD MSTORE PUSH2 0x100 DUP6 ADD MSTORE ISZERO ISZERO PUSH2 0x120 DUP5 ADD MSTORE PUSH2 0x140 DUP4 ADD MSTORE SUB SWAP1 RETURN JUMPDEST SWAP1 POP CALLVALUE PUSH2 0x844 JUMPI DUP2 PUSH1 0x3 NOT CALLDATASIZE ADD SLT PUSH2 0x844 JUMPI PUSH1 0x2 SLOAD PUSH1 0x1 PUSH1 0x1 PUSH1 0xA0 SHL SUB AND DUP2 MSTORE PUSH1 0x20 SWAP1 RETURN JUMPDEST PUSH1 0x4 CALLDATALOAD SWAP1 PUSH1 0x1 PUSH1 0x1 PUSH1 0xA0 SHL SUB DUP3 AND DUP3 SUB PUSH2 0x13F1 JUMPI JUMP JUMPDEST PUSH1 0x0 DUP1 REVERT JUMPDEST SWAP1 PUSH1 0x1 DUP3 DUP2 SHR SWAP3 AND DUP1 ISZERO PUSH2 0x1426 JUMPI JUMPDEST PUSH1 0x20 DUP4 LT EQ PUSH2 0x1410 JUMPI JUMP JUMPDEST PUSH4 0x4E487B71 PUSH1 0xE0 SHL PUSH1 0x0 MSTORE PUSH1 0x22 PUSH1 0x4 MSTORE PUSH1 0x24 PUSH1 0x0 REVERT JUMPDEST SWAP2 PUSH1 0x7F AND SWAP2 PUSH2 0x1405 JUMP JUMPDEST PUSH2 0x160 DUP2 ADD SWAP1 DUP2 LT PUSH1 0x1 PUSH1 0x1 PUSH1 0x40 SHL SUB DUP3 GT OR PUSH2 0x144C JUMPI PUSH1 0x40 MSTORE JUMP JUMPDEST PUSH4 0x4E487B71 PUSH1 0xE0 SHL PUSH1 0x0 MSTORE PUSH1 0x41 PUSH1 0x4 MSTORE PUSH1 0x24 PUSH1 0x0 REVERT JUMPDEST SWAP1 PUSH1 0x1F DUP1 NOT SWAP2 ADD AND DUP2 ADD SWAP1 DUP2 LT PUSH1 0x1 PUSH1 0x1 PUSH1 0x40 SHL SUB DUP3 GT OR PUSH2 0x144C JUMPI PUSH1 0x40 MSTORE JUMP JUMPDEST SWAP1 PUSH1 0x40 MLOAD SWAP2 DUP3 PUSH1 0x0 DUP3 SLOAD SWAP3 PUSH2 0x1497 DUP5 PUSH2 0x13F6 JUMP JUMPDEST SWAP1 DUP2 DUP5 MSTORE PUSH1 0x1 SWAP5 DUP6 DUP2 AND SWAP1 DUP2 PUSH1 0x0 EQ PUSH2 0x1506 JUMPI POP PUSH1 0x1 EQ PUSH2 0x14C3 JUMPI JUMPDEST POP POP PUSH2 0x14C1 SWAP3 POP SUB DUP4 PUSH2 0x1462 JUMP JUMPDEST JUMP JUMPDEST SWAP1 SWAP4 SWAP2 POP PUSH1 0x0 MSTORE PUSH1 0x20 SWAP1 DUP2 PUSH1 0x0 KECCAK256 SWAP4 PUSH1 0x0 SWAP2 JUMPDEST DUP2 DUP4 LT PUSH2 0x14EE JUMPI POP POP PUSH2 0x14C1 SWAP4 POP DUP3 ADD ADD CODESIZE DUP1 PUSH2 0x14B3 JUMP JUMPDEST DUP6 SLOAD DUP9 DUP5 ADD DUP6 ADD MSTORE SWAP5 DUP6 ADD SWAP5 DUP8 SWAP5 POP SWAP2 DUP4 ADD SWAP2 PUSH2 0x14D6 JUMP JUMPDEST SWAP2 POP POP PUSH2 0x14C1 SWAP5 POP PUSH1 0x20 SWAP3 POP PUSH1 0xFF NOT AND DUP3 DUP5 ADD MSTORE ISZERO ISZERO PUSH1 0x5 SHL DUP3 ADD ADD CODESIZE DUP1 PUSH2 0x14B3 JUMP JUMPDEST PUSH1 0x0 JUMPDEST DUP4 DUP2 LT PUSH2 0x153C JUMPI POP POP PUSH1 0x0 SWAP2 ADD MSTORE JUMP JUMPDEST DUP2 DUP2 ADD MLOAD DUP4 DUP3 ADD MSTORE PUSH1 0x20 ADD PUSH2 0x152C JUMP JUMPDEST SWAP1 PUSH1 0x20 SWAP2 PUSH2 0x1565 DUP2 MLOAD DUP1 SWAP3 DUP2 DUP6 MSTORE DUP6 DUP1 DUP7 ADD SWAP2 ADD PUSH2 0x1529 JUMP JUMPDEST PUSH1 0x1F ADD PUSH1 0x1F NOT AND ADD ADD SWAP1 JUMP JUMPDEST PUSH1 0x1 PUSH1 0x1 PUSH1 0x40 SHL SUB DUP2 GT PUSH2 0x144C JUMPI PUSH1 0x1F ADD PUSH1 0x1F NOT AND PUSH1 0x20 ADD SWAP1 JUMP JUMPDEST DUP2 PUSH1 0x1F DUP3 ADD SLT ISZERO PUSH2 0x13F1 JUMPI DUP1 CALLDATALOAD SWAP1 PUSH2 0x15A3 DUP3 PUSH2 0x1571 JUMP JUMPDEST SWAP3 PUSH2 0x15B1 PUSH1 0x40 MLOAD SWAP5 DUP6 PUSH2 0x1462 JUMP JUMPDEST DUP3 DUP5 MSTORE PUSH1 0x20 DUP4 DUP4 ADD ADD GT PUSH2 0x13F1 JUMPI DUP2 PUSH1 0x0 SWAP3 PUSH1 0x20 DUP1 SWAP4 ADD DUP4 DUP7 ADD CALLDATACOPY DUP4 ADD ADD MSTORE SWAP1 JUMP JUMPDEST PUSH1 0x1 SLOAD DUP2 LT ISZERO PUSH2 0x160A JUMPI PUSH1 0x1 PUSH1 0x0 MSTORE PUSH32 0xB10E2D527612073B26EECDFD717E6A320CF44B4AFAC2B0732D9FCBE2B7FA0CF6 ADD SWAP1 PUSH1 0x0 SWAP1 JUMP JUMPDEST PUSH4 0x4E487B71 PUSH1 0xE0 SHL PUSH1 0x0 MSTORE PUSH1 0x32 PUSH1 0x4 MSTORE PUSH1 0x24 PUSH1 0x0 REVERT JUMPDEST SWAP2 SWAP1 DUP3 ADD DUP1 SWAP3 GT PUSH2 0x162D JUMPI JUMP JUMPDEST PUSH4 0x4E487B71 PUSH1 0xE0 SHL PUSH1 0x0 MSTORE PUSH1 0x11 PUSH1 0x4 MSTORE PUSH1 0x24 PUSH1 0x0 REVERT JUMPDEST ISZERO PUSH2 0x164A JUMPI JUMP JUMPDEST PUSH1 0x40 MLOAD PUSH3 0x461BCD PUSH1 0xE5 SHL DUP2 MSTORE PUSH1 0x20 PUSH1 0x4 DUP3 ADD MSTORE PUSH1 0x14 PUSH1 0x24 DUP3 ADD MSTORE PUSH20 0x109D5E595C881B9BDD081C9959DA5CDD195C9959 PUSH1 0x62 SHL PUSH1 0x44 DUP3 ADD MSTORE PUSH1 0x64 SWAP1 REVERT JUMPDEST SWAP2 SWAP1 DUP3 SUB SWAP2 DUP3 GT PUSH2 0x162D JUMPI JUMP JUMPDEST SWAP1 PUSH1 0x0 SWAP3 SWAP2 DUP1 SLOAD SWAP2 PUSH2 0x16A4 DUP4 PUSH2 0x13F6 JUMP JUMPDEST SWAP2 DUP3 DUP3 MSTORE PUSH1 0x1 SWAP4 DUP5 DUP2 AND SWAP1 DUP2 PUSH1 0x0 EQ PUSH2 0x1706 JUMPI POP PUSH1 0x1 EQ PUSH2 0x16C6 JUMPI JUMPDEST POP POP POP POP JUMP JUMPDEST SWAP1 SWAP2 SWAP4 SWAP5 POP PUSH1 0x0 MSTORE PUSH1 0x20 SWAP3 DUP4 PUSH1 0x0 KECCAK256 SWAP3 DUP5 PUSH1 0x0 SWAP5 JUMPDEST DUP4 DUP7 LT PUSH2 0x16F2 JUMPI POP POP POP POP ADD ADD SWAP1 CODESIZE DUP1 DUP1 DUP1 PUSH2 0x16C0 JUMP JUMPDEST DUP1 SLOAD DUP6 DUP8 ADD DUP4 ADD MSTORE SWAP5 ADD SWAP4 DUP6 SWAP1 DUP3 ADD PUSH2 0x16DB JUMP JUMPDEST SWAP3 SWAP5 POP POP POP PUSH1 0x20 SWAP4 SWAP5 POP PUSH1 0xFF NOT AND DUP4 DUP4 ADD MSTORE ISZERO ISZERO PUSH1 0x5 SHL ADD ADD SWAP1 CODESIZE DUP1 DUP1 DUP1 PUSH2 0x16C0 JUMP JUMPDEST DUP1 ISZERO PUSH2 0x173B JUMPI PUSH1 0x5 SLOAD DIV PUSH1 0x1E DUP2 LT ISZERO SWAP2 JUMP JUMPDEST POP PUSH1 0x1 SWAP1 PUSH1 0x0 NOT SWAP1 JUMP INVALID LOG2 PUSH5 0x6970667358 0x22 SLT KECCAK256 0xC7 PUSH10 0x78179E9616DB9D365C41 0xD5 MUL 0xED SWAP11 0xC4 SWAP15 DUP13 CREATE PUSH32 0xA252D4CE3F60887F06EB9F64736F6C6343000813003300000000000000000000 "},"methodIdentifiers":{"DEFAULT_PRC_PRICE()":"d47ffd22","POOL_SHARE_BPS()":"bfaccec0","REGISTRATION_FEE()":"64b4f751","TREASURY_SHARE_BPS()":"389728b6","admin()":"f851a440","buyerAddresses(uint256)":"556b790f","checkPaymentPoolHealth(uint256)":"7f5d099d","corporateBuyers(address)":"261b7815","getBuyerCount()":"93084a2a","getCorporateBuyer(address)":"4335ae84","getPaymentPoolBalance()":"e4625fce","getTreasuryBalance()":"9b5655dc","paymentPool()":"b803e753","prcToken()":"11c511d2","purchasePRCs(uint256)":"6c9b94af","recoveryAgent()":"4a7805c3","registerCorporateBuyer(string,string,string,string)":"28fea9b6","retirePRCs(uint256,string)":"83de24f1","setRecoveryAgent(address)":"9bac7669","treasury()":"61d027b3","triggerCollectorPayment(address,uint256,string)":"868b93fc"}}}}}