{"src/PRCToken.sol":{"PRCToken":{"abi":[{"inputs":[{"internalType":"address","name":"_collectorRegistry","type":"address"},{"internalType":"address","name":"_stationRegistry","type":"address"},{"internalType":"address","name":"_prcVault","type":"address"}],"stateMutability":"nonpayable","type":"constructor"},{"anonymous":false,"inputs":[{"indexed":true,"internalType":"string","name":"attestationId","type":"string"},{"indexed":true,"internalType":"address","name":"collector","type":"address"},{"indexed":true,"internalType":"address","name":"station","type":"address"},{"indexed":false,"internalType":"uint256","name":"amount","type":"uint256"},{"indexed":false,"internalType":"string","name":"plasticType","type":"string"},{"indexed":false,"internalType":"string","name":"zone","type":"string"}],"name":"PRCMinted","type":"event"},{"anonymous":false,"inputs":[{"indexed":true,"internalType":"address","name":"company","type":"address"},{"indexed":false,"internalType":"string","name":"companyName","type":"string"},{"indexed":false,"internalType":"uint256","name":"amount","type":"uint256"},{"indexed":false,"internalType":"string","name":"certId","type":"string"},{"indexed":false,"internalType":"string","name":"reportRef","type":"string"}],"name":"PRCRetired","type":"event"},{"anonymous":false,"inputs":[{"indexed":true,"internalType":"address","name":"from","type":"address"},{"indexed":true,"internalType":"address","name":"to","type":"address"},{"indexed":false,"internalType":"uint256","name":"amount","type":"uint256"}],"name":"PRCTransfer","type":"event"},{"inputs":[],"name":"admin","outputs":[{"internalType":"address","name":"","type":"address"}],"stateMutability":"view","type":"function"},{"inputs":[{"internalType":"address","name":"","type":"address"}],"name":"balances","outputs":[{"internalType":"uint256","name":"","type":"uint256"}],"stateMutability":"view","type":"function"},{"inputs":[{"internalType":"uint256","name":"","type":"uint256"}],"name":"batchIds","outputs":[{"internalType":"string","name":"","type":"string"}],"stateMutability":"view","type":"function"},{"inputs":[],"name":"collectorRegistry","outputs":[{"internalType":"contract CollectorRegistry","name":"","type":"address"}],"stateMutability":"view","type":"function"},{"inputs":[],"name":"getAvailablePRCs","outputs":[{"internalType":"uint256","name":"","type":"uint256"}],"stateMutability":"view","type":"function"},{"inputs":[{"internalType":"address","name":"_account","type":"address"}],"name":"getBalance","outputs":[{"internalType":"uint256","name":"","type":"uint256"}],"stateMutability":"view","type":"function"},{"inputs":[],"name":"getBatchCount","outputs":[{"internalType":"uint256","name":"","type":"uint256"}],"stateMutability":"view","type":"function"},{"inputs":[{"internalType":"string","name":"_attestationId","type":"string"}],"name":"getPRCBatch","outputs":[{"components":[{"internalType":"string","name":"attestationId","type":"string"},{"internalType":"address","name":"collectorId","type":"address"},{"internalType":"address","name":"stationId","type":"address"},{"internalType":"string","name":"zone","type":"string"},{"internalType":"string","name":"plasticType","type":"string"},{"internalType":"uint256","name":"weightGrams","type":"uint256"},{"internalType":"uint256","name":"payoutTinybar","type":"uint256"},{"internalType":"uint256","name":"hcsSequence","type":"uint256"},{"internalType":"uint256","name":"mintedAt","type":"uint256"},{"internalType":"string","name":"vintage","type":"string"}],"internalType":"struct PRCToken.PRCBatch","name":"","type":"tuple"}],"stateMutability":"view","type":"function"},{"inputs":[{"internalType":"string","name":"_certId","type":"string"}],"name":"getRetirementCert","outputs":[{"components":[{"internalType":"string","name":"certId","type":"string"},{"internalType":"address","name":"company","type":"address"},{"internalType":"string","name":"companyName","type":"string"},{"internalType":"string","name":"reportRef","type":"string"},{"internalType":"uint256","name":"totalKgRetired","type":"uint256"},{"internalType":"string[]","name":"attestationIds","type":"string[]"},{"internalType":"uint256","name":"collectorsSupported","type":"uint256"},{"internalType":"uint256","name":"hbarPaidToCollectors","type":"uint256"},{"internalType":"uint256","name":"retiredAt","type":"uint256"},{"internalType":"uint256","name":"hcsSequence","type":"uint256"}],"internalType":"struct PRCToken.RetirementCertificate","name":"","type":"tuple"}],"stateMutability":"view","type":"function"},{"inputs":[],"name":"getRetirementCount","outputs":[{"internalType":"uint256","name":"","type":"uint256"}],"stateMutability":"view","type":"function"},{"inputs":[{"internalType":"string","name":"_attestationId","type":"string"},{"internalType":"address","name":"_collectorId","type":"address"},{"internalType":"address","name":"_stationId","type":"address"},{"internalType":"string","name":"_plasticType","type":"string"},{"internalType":"uint256","name":"_weightGrams","type":"uint256"},{"internalType":"string","name":"_zoneId","type":"string"},{"internalType":"uint256","name":"_payoutTinybar","type":"uint256"},{"internalType":"uint256","name":"_hcsSequence","type":"uint256"}],"name":"mintRecovery","outputs":[],"stateMutability":"nonpayable","type":"function"},{"inputs":[{"internalType":"string","name":"","type":"string"}],"name":"prcBatches","outputs":[{"internalType":"string","name":"attestationId","type":"string"},{"internalType":"address","name":"collectorId","type":"address"},{"internalType":"address","name":"stationId","type":"address"},{"internalType":"string","name":"zone","type":"string"},{"internalType":"string","name":"plasticType","type":"string"},{"internalType":"uint256","name":"weightGrams","type":"uint256"},{"internalType":"uint256","name":"payoutTinybar","type":"uint256"},{"internalType":"uint256","name":"hcsSequence","type":"uint256"},{"internalType":"uint256","name":"mintedAt","type":"uint256"},{"internalType":"string","name":"vintage","type":"string"}],"stateMutability":"view","type":"function"},{"inputs":[],"name":"prcVault","outputs":[{"internalType":"address","name":"","type":"address"}],"stateMutability":"view","type":"function"},{"inputs":[],"name":"recoveryAgent","outputs":[{"internalType":"address","name":"","type":"address"}],"stateMutability":"view","type":"function"},{"inputs":[{"internalType":"uint256","name":"_amount","type":"uint256"},{"internalType":"string","name":"_companyName","type":"string"},{"internalType":"string","name":"_reportRef","type":"string"}],"name":"retire","outputs":[{"internalType":"string","name":"certId","type":"string"}],"stateMutability":"nonpayable","type":"function"},{"inputs":[{"internalType":"uint256","name":"","type":"uint256"}],"name":"retirementCertIds","outputs":[{"internalType":"string","name":"","type":"string"}],"stateMutability":"view","type":"function"},{"inputs":[{"internalType":"string","name":"","type":"string"}],"name":"retirementCerts","outputs":[{"internalType":"string","name":"certId","type":"string"},{"internalType":"address","name":"company","type":"address"},{"internalType":"string","name":"companyName","type":"string"},{"internalType":"string","name":"reportRef","type":"string"},{"internalType":"uint256","name":"totalKgRetired","type":"uint256"},{"internalType":"uint256","name":"collectorsSupported","type":"uint256"},{"internalType":"uint256","name":"hbarPaidToCollectors","type":"uint256"},{"internalType":"uint256","name":"retiredAt","type":"uint256"},{"internalType":"uint256","name":"hcsSequence","type":"uint256"}],"stateMutability":"view","type":"function"},{"inputs":[{"internalType":"address","name":"_agent","type":"address"}],"name":"setRecoveryAgent","outputs":[],"stateMutability":"nonpayable","type":"function"},{"inputs":[],"name":"stationRegistry","outputs":[{"internalType":"contract StationRegistry","name":"","type":"address"}],"stateMutability":"view","type":"function"},{"inputs":[],"name":"totalRetired","outputs":[{"internalType":"uint256","name":"","type":"uint256"}],"stateMutability":"view","type":"function"},{"inputs":[],"name":"totalSupply","outputs":[{"internalType":"uint256","name":"","type":"uint256"}],"stateMutability":"view","type":"function"},{"inputs":[{"internalType":"address","name":"_to","type":"address"},{"internalType":"uint256","name":"_amount","type":"uint256"}],"name":"transfer","outputs":[],"stateMutability":"nonpayable","type":"function"}],"evm":{"bytecode":{"linkReferences":{},"object":"608034620000b557601f62001adc38819003918201601f19168301916001600160401b03831184841017620000ba57808492606094604052833981010312620000b5576200004d81620000d0565b906200006a60406200006260208401620000d0565b9201620000d0565b60018060a01b0380928160018060a01b031995168560065416176006551683600754161760075516816005541617600555339060035416176003556040516119f69081620000e68239f35b600080fd5b634e487b7160e01b600052604160045260246000fd5b51906001600160a01b0382168203620000b55756fe608080604052600436101561001357600080fd5b60003560e01c9081630513d078146114935750806318160ddd14611475578063187182a314610f7457806320652dd114610b24578063213c185c1461088b578063237a65ad1461086d57806327e235e3146102165780634a7805c3146108445780634d8f59f01461082657806374a00ce2146106395780638359c07e1461061057806394bda0e0146105e757806398ac24d9146105b35780639bac766914610536578063a8fabfa514610518578063a9059cbb1461043d578063b3d346b9146103ec578063c7c6276b14610387578063e917a03d14610279578063f851a44014610250578063f8b2cb4f146102165763fca767651461011157600080fd5b346102115760203660031901126102115760043567ffffffffffffffff81116102115761015d602061014a6101d193369060040161152e565b816040519382858094519384920161158b565b810160028152030190206101708161160d565b9060018060a01b036001820154169061018b6002820161160d565b906101986003820161160d565b926004820154936101f26006840154916101e460078601549460096008880154970154976040519b8c9b8c6101208091528d01906115ae565b9160208c01528a820360408c01526115ae565b9088820360608a01526115ae565b94608087015260a086015260c085015260e08401526101008301520390f35b600080fd5b34610211576020366003190112610211576001600160a01b03610237611575565b1660005260016020526020604060002054604051908152f35b34610211576000366003190112610211576003546040516001600160a01b039091168152602090f35b346102115760203660031901126102115760043567ffffffffffffffff81116102115761033c6103836102b6602061014a8195369060040161152e565b810160008152030190206102c98161160d565b6001820154600283015491926001600160a01b03918216929091166102f06003830161160d565b61035f6102ff6004850161160d565b610351600586015497600687015494600788015496610325600960088b01549a0161160d565b996040519e8f9e8f956101408088528701906115ae565b94015260408d01528b820360608d01526115ae565b9089820360808b01526115ae565b9460a088015260c087015260e08601526101008501528382036101208501526115ae565b0390f35b3461021157602036600319011261021157600435600c54811015610211576103d861038391600c6000527fdf6966c971051c3d54ec59162606531493a51404a002842f56009d7e5cf4a8c70161160d565b6040519182916020835260208301906115ae565b3461021157602036600319011261021157600435600b54811015610211576103d861038391600b6000527f0175b7a638427703f0dbe7bb9bbf987a2551717b34e79f33b5b1008d1fa01db90161160d565b3461021157604036600319011261021157610456611575565b6024359033600052600160205281604060002054106104dc5733600052600160205260406000206104888382546117f4565b905560018060a01b03169081600052600160205260406000206104ac8282546117e7565b90556040519081527ffcb846185b28e704a8a1fc59409e819a845a05e0e7e0cc37804c97e8dbaa1fc060203392a3005b60405162461bcd60e51b8152602060048201526014602482015273496e73756666696369656e742062616c616e636560601b6044820152606490fd5b34610211576000366003190112610211576020600b54604051908152f35b346102115760203660031901126102115761054f611575565b6003546001600160a01b0391908216330361058257166bffffffffffffffffffffffff60a01b6004541617600455600080f35b60405162461bcd60e51b81526020600482015260096024820152682737ba1030b236b4b760b91b6044820152606490fd5b346102115760003660031901126102115760018060a01b036005541660005260016020526020604060002054604051908152f35b34610211576000366003190112610211576007546040516001600160a01b039091168152602090f35b34610211576000366003190112610211576005546040516001600160a01b039091168152602090f35b346102115760203660031901126102115760043567ffffffffffffffff8111610211576106d0602061067261038393369060040161152e565b6060610120604051610683816114b7565b828152600085820152600060408201528280820152826080820152600060a0820152600060c0820152600060e082015260006101008201520152816040519382858094519384920161158b565b810160008152030190206107686009604051926106ec846114b7565b6106f58161160d565b845260018101546001600160a01b03908116602086015260028201541660408501526107236003820161160d565b60608501526107346004820161160d565b6080850152600581015460a0850152600681015460c0850152600781015460e085015260088101546101008501520161160d565b61012082015260405191829160208352610790815161014060208601526101608501906115ae565b60018060a01b03602083015116604085015260018060a01b0360408301511660608501526101206107ea6107d6606085015193601f1994858983030160808a01526115ae565b6080850151848883030160a08901526115ae565b9260a081015160c087015260c081015160e087015260e081015161010087015261010081015182870152015190848303016101408501526115ae565b34610211576000366003190112610211576020600954604051908152f35b34610211576000366003190112610211576004546040516001600160a01b039091168152602090f35b34610211576000366003190112610211576020600c54604051908152f35b346102115760203660031901126102115767ffffffffffffffff6004358181116102115760206108c261091e92369060040161152e565b60006101206040516108d3816114b7565b60608152828582015260606040820152606080820152826080820152606060a08201528260c08201528260e0820152826101008201520152816040519382858094519384920161158b565b8101600281520301902060405191610935836114b7565b61093e8261160d565b835260018201546001600160a01b0316602084015261095f6002830161160d565b60408401526109706003830161160d565b6060840152600482015460808401526005820154908111610b0e576040519061099f60208260051b01836114f0565b808252602082016005840160005260206000206000915b838310610af157866009878760a0840152600681015460c0840152600781015460e08401526008810154610100840152015461012082015260405160208152610a54610a3e610a13845161014060208601526101608501906115ae565b60208501516001600160a01b0316604085810191909152850151848203601f190160608601526115ae565b6060840151838203601f190160808501526115ae565b608083015160a083015260a083015190601f198382030160c0840152815180825260208201916020808360051b8301019401926000915b838310610ac4578680876101208b60c081015160e085015260e08101516101008501526101008101518285015201516101408301520390f35b9091929394602080610ae2600193601f1986820301875289516115ae565b97019301930191939290610a8b565b600160208192610b008561160d565b8152019201920191906109b6565b634e487b7160e01b600052604160045260246000fd5b346102115760603660031901126102115767ffffffffffffffff60243581811161021157610b5690369060040161152e565b9060443581811161021157610b6f90369060040161152e565b33600052600160205260043560406000205410610f2f57610b91600a54611801565b9182600a556107b26301e187e042048101809111610f19576029610bc0610bba610c1a93611821565b956118de565b946040519586916250432d60e81b6020840152610be781518092602060238701910161158b565b8201652d434f52502d60d01b6023820152610c0b825180936020878501910161158b565b010360098101865201846114f0565b3360005260016020526040600020610c3560043582546117f4565b9055610c456004356009546117e7565b600955604051906020820190811182821017610b0e576040526000815260405190610c6f826114b7565b8382523360208301528460408301528260608301526103e860043504608083015260a0820152600060c0820152600060e08201524261010082015260006101208201526040516020818551610cc78183858a0161158b565b8101600281520301902090610cdd8151836116e2565b6001820160018060a01b036020830151166bffffffffffffffffffffffff60a01b825416179055610d156040820151600284016116e2565b610d266060820151600384016116e2565b6080810151600483015560a0810151805190600160401b8211610b0e576005840154826005860155808310610ea0575b506020016005840160005260206000206000915b838310610e8357505050506101208160c06009930151600685015560e0810151600785015561010081015160088501550151910155600c5492600160401b841015610b0e576001840180600c55841015610e6d57610e317faa8a05d78a9561dffd59d70cfc85b6c0368f681b3ccde689f849863c20e4ec6191610e178561038397600c6000527fdf6966c971051c3d54ec59162606531493a51404a002842f56009d7e5cf4a8c7016116e2565b610e56610e476040519384936080855260808501906115ae565b60043560208501528381036040850152876115ae565b828103606084015233956115ae565b0390a26040519182916020835260208301906115ae565b634e487b7160e01b600052603260045260246000fd5b6001602082610e94839451866116e2565b01920192019190610d6a565b600585016000526020600020908382015b8183018110610ec1575050610d56565b80610ece600192546115d3565b80610edb575b5001610eb1565b601f908181118414610ef4575050600081555b8b610ed4565b610f1060009284845260208420920160051c82018583016116cb565b81835555610eee565b634e487b7160e01b600052601160045260246000fd5b60405162461bcd60e51b815260206004820152601860248201527f496e73756666696369656e74205052432062616c616e636500000000000000006044820152606490fd5b34610211576101003660031901126102115767ffffffffffffffff60043581811161021157610fa790369060040161152e565b906024356001600160a01b0381169190829003610211576044356001600160a01b03811693908490036102115760643582811161021157610fec90369060040161152e565b9160a4359081116102115761100590369060040161152e565b9160018060a01b036003541633148015611461575b1561142b5760065460405163dbcd13df60e01b81526004810186905290602090829060249082906001600160a01b03165afa9081156113c45760009161140c575b50156113d057600754604051630f40786f60e01b81526004810187905290602090829060249082906001600160a01b03165afa9081156113c457600091611395575b501561135b57608435801561132557604051926110d8815194602081818501976110c881838b61158b565b81016000815203019020546115d3565b6112e9576107b26301e187e042048101809111610f19576110f890611821565b60405190611105826114b7565b82825260208201888152604083018a8152606084018981526080850188815260a086019088825260c087019260c435845260e088019460e43586526101008901964288526101208a019889528d8b604051809281925180926111669261158b565b810160008152036020019020995161117e908b6116e2565b5160018a0180546001600160a01b03199081166001600160a01b0393841617909155915160028b0180549093169116179055516111be90600389016116e2565b516111cc90600488016116e2565b516005860155516006850155516007840155516008830155516111f1916009016116e2565b6005546001600160a01b0316600090815260016020526040902080546112189084906117e7565b90558160085490611228916117e7565b600855600b54600160401b811015610b0e576001810180600b55811015610e6d577ff95eb8d923fdebdf4636889000a6f1bc414e99a474219c3e5a71de75c3a4bd3a94826112a36112e4946112b494600b6000527f0175b7a638427703f0dbe7bb9bbf987a2551717b34e79f33b5b1008d1fa01db9016116e2565b60405192839283925192839161158b565b8101039020946112d660405194859485526060602086015260608501906115ae565b9083820360408501526115ae565b0390a4005b60405162461bcd60e51b8152602060048201526014602482015273426174636820616c72656164792065786973747360601b6044820152606490fd5b60405162461bcd60e51b815260206004820152600e60248201526d125b9d985b1a59081dd95a59da1d60921b6044820152606490fd5b60405162461bcd60e51b815260206004820152601260248201527153746174696f6e206e6f742061637469766560701b6044820152606490fd5b6113b7915060203d6020116113bd575b6113af81836114f0565b8101906116b3565b8661109d565b503d6113a5565b6040513d6000823e3d90fd5b60405162461bcd60e51b8152602060048201526014602482015273436f6c6c6563746f72206e6f742061637469766560601b6044820152606490fd5b611425915060203d6020116113bd576113af81836114f0565b8661105b565b60405162461bcd60e51b815260206004820152600e60248201526d139bdd08185d5d1a1bdc9a5e995960921b6044820152606490fd5b506004546001600160a01b0316331461101a565b34610211576000366003190112610211576020600854604051908152f35b34610211576000366003190112610211576006546001600160a01b03168152602090f35b610140810190811067ffffffffffffffff821117610b0e57604052565b6040810190811067ffffffffffffffff821117610b0e57604052565b90601f8019910116810190811067ffffffffffffffff821117610b0e57604052565b67ffffffffffffffff8111610b0e57601f01601f191660200190565b81601f820112156102115780359061154582611512565b9261155360405194856114f0565b8284526020838301011161021157816000926020809301838601378301015290565b600435906001600160a01b038216820361021157565b60005b83811061159e5750506000910152565b818101518382015260200161158e565b906020916115c78151809281855285808601910161158b565b601f01601f1916010190565b90600182811c92168015611603575b60208310146115ed57565b634e487b7160e01b600052602260045260246000fd5b91607f16916115e2565b9060405191826000825492611621846115d3565b908184526001948581169081600014611690575060011461164d575b505061164b925003836114f0565b565b9093915060005260209081600020936000915b81831061167857505061164b9350820101388061163d565b85548884018501529485019487945091830191611660565b91505061164b94506020925060ff191682840152151560051b820101388061163d565b90816020910312610211575180151581036102115790565b8181106116d6575050565b600081556001016116cb565b919091825167ffffffffffffffff8111610b0e5761170082546115d3565b601f81116117aa575b50602080601f831160011461174657508192939460009261173b575b50508160011b916000199060031b1c1916179055565b015190503880611725565b90601f198316958460005282600020926000905b88821061179257505083600195969710611779575b505050811b019055565b015160001960f88460031b161c1916905538808061176f565b8060018596829496860151815501950193019061175a565b6117d790836000526020600020601f840160051c810191602085106117dd575b601f0160051c01906116cb565b38611709565b90915081906117ca565b91908201809211610f1957565b91908203918211610f1957565b6000198114610f195760010190565b908151811015610e6d570160200190565b80156118c05780816000925b6118ac57508061183c83611512565b9261184a60405194856114f0565b808452601f1961185982611512565b01366020860137905b61186b57505090565b8015610f1957600019018091600a9160308383068101809111610f195760f81b6001600160f81b03191660001a906118a39086611810565b53049081611862565b916118b8600a91611801565b92048061182d565b506040516118cd816114d4565b60018152600360fc1b602082015290565b6118e790611821565b9060049081835110156119bc5760405190611901826114d4565b8282526020368184013760005b845184038481116119a75781101561193b578060306119306119369386611810565b53611801565b61190e565b509160005b84518110156119a0576001600160f81b031961195c8287611810565b51168551830383811161198b579061193061197b8461198695946117e7565b9160001a9186611810565b611940565b601184634e487b7160e01b6000525260246000fd5b5090925050565b601185634e487b7160e01b6000525260246000fd5b905056fea2646970667358221220b0b1674f036a5b4e670f29ab7f9d87d1c6e792b688bc5984b53ce19c86cfbabb64736f6c63430008130033","opcodes":"PUSH1 0x80 CALLVALUE PUSH3 0xB5 JUMPI PUSH1 0x1F PUSH3 0x1ADC CODESIZE DUP2 SWAP1 SUB SWAP2 DUP3 ADD PUSH1 0x1F NOT AND DUP4 ADD SWAP2 PUSH1 0x1 PUSH1 0x1 PUSH1 0x40 SHL SUB DUP4 GT DUP5 DUP5 LT OR PUSH3 0xBA JUMPI DUP1 DUP5 SWAP3 PUSH1 0x60 SWAP5 PUSH1 0x40 MSTORE DUP4 CODECOPY DUP2 ADD SUB SLT PUSH3 0xB5 JUMPI PUSH3 0x4D DUP2 PUSH3 0xD0 JUMP JUMPDEST SWAP1 PUSH3 0x6A PUSH1 0x40 PUSH3 0x62 PUSH1 0x20 DUP5 ADD PUSH3 0xD0 JUMP JUMPDEST SWAP3 ADD PUSH3 0xD0 JUMP JUMPDEST PUSH1 0x1 DUP1 PUSH1 0xA0 SHL SUB DUP1 SWAP3 DUP2 PUSH1 0x1 DUP1 PUSH1 0xA0 SHL SUB NOT SWAP6 AND DUP6 PUSH1 0x6 SLOAD AND OR PUSH1 0x6 SSTORE AND DUP4 PUSH1 0x7 SLOAD AND OR PUSH1 0x7 SSTORE AND DUP2 PUSH1 0x5 SLOAD AND OR PUSH1 0x5 SSTORE CALLER SWAP1 PUSH1 0x3 SLOAD AND OR PUSH1 0x3 SSTORE PUSH1 0x40 MLOAD PUSH2 0x19F6 SWAP1 DUP2 PUSH3 0xE6 DUP3 CODECOPY RETURN JUMPDEST PUSH1 0x0 DUP1 REVERT JUMPDEST PUSH4 0x4E487B71 PUSH1 0xE0 SHL PUSH1 0x0 MSTORE PUSH1 0x41 PUSH1 0x4 MSTORE PUSH1 0x24 PUSH1 0x0 REVERT JUMPDEST MLOAD SWAP1 PUSH1 0x1 PUSH1 0x1 PUSH1 0xA0 SHL SUB DUP3 AND DUP3 SUB PUSH3 0xB5 JUMPI JUMP INVALID PUSH1 0x80 DUP1 PUSH1 0x40 MSTORE PUSH1 0x4 CALLDATASIZE LT ISZERO PUSH2 0x13 JUMPI PUSH1 0x0 DUP1 REVERT JUMPDEST PUSH1 0x0 CALLDATALOAD PUSH1 0xE0 SHR SWAP1 DUP2 PUSH4 0x513D078 EQ PUSH2 0x1493 JUMPI POP DUP1 PUSH4 0x18160DDD EQ PUSH2 0x1475 JUMPI DUP1 PUSH4 0x187182A3 EQ PUSH2 0xF74 JUMPI DUP1 PUSH4 0x20652DD1 EQ PUSH2 0xB24 JUMPI DUP1 PUSH4 0x213C185C EQ PUSH2 0x88B JUMPI DUP1 PUSH4 0x237A65AD EQ PUSH2 0x86D JUMPI DUP1 PUSH4 0x27E235E3 EQ PUSH2 0x216 JUMPI DUP1 PUSH4 0x4A7805C3 EQ PUSH2 0x844 JUMPI DUP1 PUSH4 0x4D8F59F0 EQ PUSH2 0x826 JUMPI DUP1 PUSH4 0x74A00CE2 EQ PUSH2 0x639 JUMPI DUP1 PUSH4 0x8359C07E EQ PUSH2 0x610 JUMPI DUP1 PUSH4 0x94BDA0E0 EQ PUSH2 0x5E7 JUMPI DUP1 PUSH4 0x98AC24D9 EQ PUSH2 0x5B3 JUMPI DUP1 PUSH4 0x9BAC7669 EQ PUSH2 0x536 JUMPI DUP1 PUSH4 0xA8FABFA5 EQ PUSH2 0x518 JUMPI DUP1 PUSH4 0xA9059CBB EQ PUSH2 0x43D JUMPI DUP1 PUSH4 0xB3D346B9 EQ PUSH2 0x3EC JUMPI DUP1 PUSH4 0xC7C6276B EQ PUSH2 0x387 JUMPI DUP1 PUSH4 0xE917A03D EQ PUSH2 0x279 JUMPI DUP1 PUSH4 0xF851A440 EQ PUSH2 0x250 JUMPI DUP1 PUSH4 0xF8B2CB4F EQ PUSH2 0x216 JUMPI PUSH4 0xFCA76765 EQ PUSH2 0x111 JUMPI PUSH1 0x0 DUP1 REVERT JUMPDEST CALLVALUE PUSH2 0x211 JUMPI PUSH1 0x20 CALLDATASIZE PUSH1 0x3 NOT ADD SLT PUSH2 0x211 JUMPI PUSH1 0x4 CALLDATALOAD PUSH8 0xFFFFFFFFFFFFFFFF DUP2 GT PUSH2 0x211 JUMPI PUSH2 0x15D PUSH1 0x20 PUSH2 0x14A PUSH2 0x1D1 SWAP4 CALLDATASIZE SWAP1 PUSH1 0x4 ADD PUSH2 0x152E JUMP JUMPDEST DUP2 PUSH1 0x40 MLOAD SWAP4 DUP3 DUP6 DUP1 SWAP5 MLOAD SWAP4 DUP5 SWAP3 ADD PUSH2 0x158B JUMP JUMPDEST DUP2 ADD PUSH1 0x2 DUP2 MSTORE SUB ADD SWAP1 KECCAK256 PUSH2 0x170 DUP2 PUSH2 0x160D JUMP JUMPDEST SWAP1 PUSH1 0x1 DUP1 PUSH1 0xA0 SHL SUB PUSH1 0x1 DUP3 ADD SLOAD AND SWAP1 PUSH2 0x18B PUSH1 0x2 DUP3 ADD PUSH2 0x160D JUMP JUMPDEST SWAP1 PUSH2 0x198 PUSH1 0x3 DUP3 ADD PUSH2 0x160D JUMP JUMPDEST SWAP3 PUSH1 0x4 DUP3 ADD SLOAD SWAP4 PUSH2 0x1F2 PUSH1 0x6 DUP5 ADD SLOAD SWAP2 PUSH2 0x1E4 PUSH1 0x7 DUP7 ADD SLOAD SWAP5 PUSH1 0x9 PUSH1 0x8 DUP9 ADD SLOAD SWAP8 ADD SLOAD SWAP8 PUSH1 0x40 MLOAD SWAP12 DUP13 SWAP12 DUP13 PUSH2 0x120 DUP1 SWAP2 MSTORE DUP14 ADD SWAP1 PUSH2 0x15AE JUMP JUMPDEST SWAP2 PUSH1 0x20 DUP13 ADD MSTORE DUP11 DUP3 SUB PUSH1 0x40 DUP13 ADD MSTORE PUSH2 0x15AE JUMP JUMPDEST SWAP1 DUP9 DUP3 SUB PUSH1 0x60 DUP11 ADD MSTORE PUSH2 0x15AE JUMP JUMPDEST SWAP5 PUSH1 0x80 DUP8 ADD MSTORE PUSH1 0xA0 DUP7 ADD MSTORE PUSH1 0xC0 DUP6 ADD MSTORE PUSH1 0xE0 DUP5 ADD MSTORE PUSH2 0x100 DUP4 ADD MSTORE SUB SWAP1 RETURN JUMPDEST PUSH1 0x0 DUP1 REVERT JUMPDEST CALLVALUE PUSH2 0x211 JUMPI PUSH1 0x20 CALLDATASIZE PUSH1 0x3 NOT ADD SLT PUSH2 0x211 JUMPI PUSH1 0x1 PUSH1 0x1 PUSH1 0xA0 SHL SUB PUSH2 0x237 PUSH2 0x1575 JUMP JUMPDEST AND PUSH1 0x0 MSTORE PUSH1 0x1 PUSH1 0x20 MSTORE PUSH1 0x20 PUSH1 0x40 PUSH1 0x0 KECCAK256 SLOAD PUSH1 0x40 MLOAD SWAP1 DUP2 MSTORE RETURN JUMPDEST CALLVALUE PUSH2 0x211 JUMPI PUSH1 0x0 CALLDATASIZE PUSH1 0x3 NOT ADD SLT PUSH2 0x211 JUMPI PUSH1 0x3 SLOAD PUSH1 0x40 MLOAD PUSH1 0x1 PUSH1 0x1 PUSH1 0xA0 SHL SUB SWAP1 SWAP2 AND DUP2 MSTORE PUSH1 0x20 SWAP1 RETURN JUMPDEST CALLVALUE PUSH2 0x211 JUMPI PUSH1 0x20 CALLDATASIZE PUSH1 0x3 NOT ADD SLT PUSH2 0x211 JUMPI PUSH1 0x4 CALLDATALOAD PUSH8 0xFFFFFFFFFFFFFFFF DUP2 GT PUSH2 0x211 JUMPI PUSH2 0x33C PUSH2 0x383 PUSH2 0x2B6 PUSH1 0x20 PUSH2 0x14A DUP2 SWAP6 CALLDATASIZE SWAP1 PUSH1 0x4 ADD PUSH2 0x152E JUMP JUMPDEST DUP2 ADD PUSH1 0x0 DUP2 MSTORE SUB ADD SWAP1 KECCAK256 PUSH2 0x2C9 DUP2 PUSH2 0x160D JUMP JUMPDEST PUSH1 0x1 DUP3 ADD SLOAD PUSH1 0x2 DUP4 ADD SLOAD SWAP2 SWAP3 PUSH1 0x1 PUSH1 0x1 PUSH1 0xA0 SHL SUB SWAP2 DUP3 AND SWAP3 SWAP1 SWAP2 AND PUSH2 0x2F0 PUSH1 0x3 DUP4 ADD PUSH2 0x160D JUMP JUMPDEST PUSH2 0x35F PUSH2 0x2FF PUSH1 0x4 DUP6 ADD PUSH2 0x160D JUMP JUMPDEST PUSH2 0x351 PUSH1 0x5 DUP7 ADD SLOAD SWAP8 PUSH1 0x6 DUP8 ADD SLOAD SWAP5 PUSH1 0x7 DUP9 ADD SLOAD SWAP7 PUSH2 0x325 PUSH1 0x9 PUSH1 0x8 DUP12 ADD SLOAD SWAP11 ADD PUSH2 0x160D JUMP JUMPDEST SWAP10 PUSH1 0x40 MLOAD SWAP15 DUP16 SWAP15 DUP16 SWAP6 PUSH2 0x140 DUP1 DUP9 MSTORE DUP8 ADD SWAP1 PUSH2 0x15AE JUMP JUMPDEST SWAP5 ADD MSTORE PUSH1 0x40 DUP14 ADD MSTORE DUP12 DUP3 SUB PUSH1 0x60 DUP14 ADD MSTORE PUSH2 0x15AE JUMP JUMPDEST SWAP1 DUP10 DUP3 SUB PUSH1 0x80 DUP12 ADD MSTORE PUSH2 0x15AE JUMP JUMPDEST SWAP5 PUSH1 0xA0 DUP9 ADD MSTORE PUSH1 0xC0 DUP8 ADD MSTORE PUSH1 0xE0 DUP7 ADD MSTORE PUSH2 0x100 DUP6 ADD MSTORE DUP4 DUP3 SUB PUSH2 0x120 DUP6 ADD MSTORE PUSH2 0x15AE JUMP JUMPDEST SUB SWAP1 RETURN JUMPDEST CALLVALUE PUSH2 0x211 JUMPI PUSH1 0x20 CALLDATASIZE PUSH1 0x3 NOT ADD SLT PUSH2 0x211 JUMPI PUSH1 0x4 CALLDATALOAD PUSH1 0xC SLOAD DUP2 LT ISZERO PUSH2 0x211 JUMPI PUSH2 0x3D8 PUSH2 0x383 SWAP2 PUSH1 0xC PUSH1 0x0 MSTORE PUSH32 0xDF6966C971051C3D54EC59162606531493A51404A002842F56009D7E5CF4A8C7 ADD PUSH2 0x160D JUMP JUMPDEST PUSH1 0x40 MLOAD SWAP2 DUP3 SWAP2 PUSH1 0x20 DUP4 MSTORE PUSH1 0x20 DUP4 ADD SWAP1 PUSH2 0x15AE JUMP JUMPDEST CALLVALUE PUSH2 0x211 JUMPI PUSH1 0x20 CALLDATASIZE PUSH1 0x3 NOT ADD SLT PUSH2 0x211 JUMPI PUSH1 0x4 CALLDATALOAD PUSH1 0xB SLOAD DUP2 LT ISZERO PUSH2 0x211 JUMPI PUSH2 0x3D8 PUSH2 0x383 SWAP2 PUSH1 0xB PUSH1 0x0 MSTORE PUSH32 0x175B7A638427703F0DBE7BB9BBF987A2551717B34E79F33B5B1008D1FA01DB9 ADD PUSH2 0x160D JUMP JUMPDEST CALLVALUE PUSH2 0x211 JUMPI PUSH1 0x40 CALLDATASIZE PUSH1 0x3 NOT ADD SLT PUSH2 0x211 JUMPI PUSH2 0x456 PUSH2 0x1575 JUMP JUMPDEST PUSH1 0x24 CALLDATALOAD SWAP1 CALLER PUSH1 0x0 MSTORE PUSH1 0x1 PUSH1 0x20 MSTORE DUP2 PUSH1 0x40 PUSH1 0x0 KECCAK256 SLOAD LT PUSH2 0x4DC JUMPI CALLER PUSH1 0x0 MSTORE PUSH1 0x1 PUSH1 0x20 MSTORE PUSH1 0x40 PUSH1 0x0 KECCAK256 PUSH2 0x488 DUP4 DUP3 SLOAD PUSH2 0x17F4 JUMP JUMPDEST SWAP1 SSTORE PUSH1 0x1 DUP1 PUSH1 0xA0 SHL SUB AND SWAP1 DUP2 PUSH1 0x0 MSTORE PUSH1 0x1 PUSH1 0x20 MSTORE PUSH1 0x40 PUSH1 0x0 KECCAK256 PUSH2 0x4AC DUP3 DUP3 SLOAD PUSH2 0x17E7 JUMP JUMPDEST SWAP1 SSTORE PUSH1 0x40 MLOAD SWAP1 DUP2 MSTORE PUSH32 0xFCB846185B28E704A8A1FC59409E819A845A05E0E7E0CC37804C97E8DBAA1FC0 PUSH1 0x20 CALLER SWAP3 LOG3 STOP JUMPDEST PUSH1 0x40 MLOAD PUSH3 0x461BCD PUSH1 0xE5 SHL DUP2 MSTORE PUSH1 0x20 PUSH1 0x4 DUP3 ADD MSTORE PUSH1 0x14 PUSH1 0x24 DUP3 ADD MSTORE PUSH20 0x496E73756666696369656E742062616C616E6365 PUSH1 0x60 SHL PUSH1 0x44 DUP3 ADD MSTORE PUSH1 0x64 SWAP1 REVERT JUMPDEST CALLVALUE PUSH2 0x211 JUMPI PUSH1 0x0 CALLDATASIZE PUSH1 0x3 NOT ADD SLT PUSH2 0x211 JUMPI PUSH1 0x20 PUSH1 0xB SLOAD PUSH1 0x40 MLOAD SWAP1 DUP2 MSTORE RETURN JUMPDEST CALLVALUE PUSH2 0x211 JUMPI PUSH1 0x20 CALLDATASIZE PUSH1 0x3 NOT ADD SLT PUSH2 0x211 JUMPI PUSH2 0x54F PUSH2 0x1575 JUMP JUMPDEST PUSH1 0x3 SLOAD PUSH1 0x1 PUSH1 0x1 PUSH1 0xA0 SHL SUB SWAP2 SWAP1 DUP3 AND CALLER SUB PUSH2 0x582 JUMPI AND PUSH12 0xFFFFFFFFFFFFFFFFFFFFFFFF PUSH1 0xA0 SHL PUSH1 0x4 SLOAD AND OR PUSH1 0x4 SSTORE PUSH1 0x0 DUP1 RETURN JUMPDEST PUSH1 0x40 MLOAD PUSH3 0x461BCD PUSH1 0xE5 SHL DUP2 MSTORE PUSH1 0x20 PUSH1 0x4 DUP3 ADD MSTORE PUSH1 0x9 PUSH1 0x24 DUP3 ADD MSTORE PUSH9 0x2737BA1030B236B4B7 PUSH1 0xB9 SHL PUSH1 0x44 DUP3 ADD MSTORE PUSH1 0x64 SWAP1 REVERT JUMPDEST CALLVALUE PUSH2 0x211 JUMPI PUSH1 0x0 CALLDATASIZE PUSH1 0x3 NOT ADD SLT PUSH2 0x211 JUMPI PUSH1 0x1 DUP1 PUSH1 0xA0 SHL SUB PUSH1 0x5 SLOAD AND PUSH1 0x0 MSTORE PUSH1 0x1 PUSH1 0x20 MSTORE PUSH1 0x20 PUSH1 0x40 PUSH1 0x0 KECCAK256 SLOAD PUSH1 0x40 MLOAD SWAP1 DUP2 MSTORE RETURN JUMPDEST CALLVALUE PUSH2 0x211 JUMPI PUSH1 0x0 CALLDATASIZE PUSH1 0x3 NOT ADD SLT PUSH2 0x211 JUMPI PUSH1 0x7 SLOAD PUSH1 0x40 MLOAD PUSH1 0x1 PUSH1 0x1 PUSH1 0xA0 SHL SUB SWAP1 SWAP2 AND DUP2 MSTORE PUSH1 0x20 SWAP1 RETURN JUMPDEST CALLVALUE PUSH2 0x211 JUMPI PUSH1 0x0 CALLDATASIZE PUSH1 0x3 NOT ADD SLT PUSH2 0x211 JUMPI PUSH1 0x5 SLOAD PUSH1 0x40 MLOAD PUSH1 0x1 PUSH1 0x1 PUSH1 0xA0 SHL SUB SWAP1 SWAP2 AND DUP2 MSTORE PUSH1 0x20 SWAP1 RETURN JUMPDEST CALLVALUE PUSH2 0x211 JUMPI PUSH1 0x20 CALLDATASIZE PUSH1 0x3 NOT ADD SLT PUSH2 0x211 JUMPI PUSH1 0x4 CALLDATALOAD PUSH8 0xFFFFFFFFFFFFFFFF DUP2 GT PUSH2 0x211 JUMPI PUSH2 0x6D0 PUSH1 0x20 PUSH2 0x672 PUSH2 0x383 SWAP4 CALLDATASIZE SWAP1 PUSH1 0x4 ADD PUSH2 0x152E JUMP JUMPDEST PUSH1 0x60 PUSH2 0x120 PUSH1 0x40 MLOAD PUSH2 0x683 DUP2 PUSH2 0x14B7 JUMP JUMPDEST DUP3 DUP2 MSTORE PUSH1 0x0 DUP6 DUP3 ADD MSTORE PUSH1 0x0 PUSH1 0x40 DUP3 ADD MSTORE DUP3 DUP1 DUP3 ADD MSTORE DUP3 PUSH1 0x80 DUP3 ADD MSTORE PUSH1 0x0 PUSH1 0xA0 DUP3 ADD MSTORE PUSH1 0x0 PUSH1 0xC0 DUP3 ADD MSTORE PUSH1 0x0 PUSH1 0xE0 DUP3 ADD MSTORE PUSH1 0x0 PUSH2 0x100 DUP3 ADD MSTORE ADD MSTORE DUP2 PUSH1 0x40 MLOAD SWAP4 DUP3 DUP6 DUP1 SWAP5 MLOAD SWAP4 DUP5 SWAP3 ADD PUSH2 0x158B JUMP JUMPDEST DUP2 ADD PUSH1 0x0 DUP2 MSTORE SUB ADD SWAP1 KECCAK256 PUSH2 0x768 PUSH1 0x9 PUSH1 0x40 MLOAD SWAP3 PUSH2 0x6EC DUP5 PUSH2 0x14B7 JUMP JUMPDEST PUSH2 0x6F5 DUP2 PUSH2 0x160D JUMP JUMPDEST DUP5 MSTORE PUSH1 0x1 DUP2 ADD SLOAD PUSH1 0x1 PUSH1 0x1 PUSH1 0xA0 SHL SUB SWAP1 DUP2 AND PUSH1 0x20 DUP7 ADD MSTORE PUSH1 0x2 DUP3 ADD SLOAD AND PUSH1 0x40 DUP6 ADD MSTORE PUSH2 0x723 PUSH1 0x3 DUP3 ADD PUSH2 0x160D JUMP JUMPDEST PUSH1 0x60 DUP6 ADD MSTORE PUSH2 0x734 PUSH1 0x4 DUP3 ADD PUSH2 0x160D JUMP JUMPDEST PUSH1 0x80 DUP6 ADD MSTORE PUSH1 0x5 DUP2 ADD SLOAD PUSH1 0xA0 DUP6 ADD MSTORE PUSH1 0x6 DUP2 ADD SLOAD PUSH1 0xC0 DUP6 ADD MSTORE PUSH1 0x7 DUP2 ADD SLOAD PUSH1 0xE0 DUP6 ADD MSTORE PUSH1 0x8 DUP2 ADD SLOAD PUSH2 0x100 DUP6 ADD MSTORE ADD PUSH2 0x160D JUMP JUMPDEST PUSH2 0x120 DUP3 ADD MSTORE PUSH1 0x40 MLOAD SWAP2 DUP3 SWAP2 PUSH1 0x20 DUP4 MSTORE PUSH2 0x790 DUP2 MLOAD PUSH2 0x140 PUSH1 0x20 DUP7 ADD MSTORE PUSH2 0x160 DUP6 ADD SWAP1 PUSH2 0x15AE JUMP JUMPDEST PUSH1 0x1 DUP1 PUSH1 0xA0 SHL SUB PUSH1 0x20 DUP4 ADD MLOAD AND PUSH1 0x40 DUP6 ADD MSTORE PUSH1 0x1 DUP1 PUSH1 0xA0 SHL SUB PUSH1 0x40 DUP4 ADD MLOAD AND PUSH1 0x60 DUP6 ADD MSTORE PUSH2 0x120 PUSH2 0x7EA PUSH2 0x7D6 PUSH1 0x60 DUP6 ADD MLOAD SWAP4 PUSH1 0x1F NOT SWAP5 DUP6 DUP10 DUP4 SUB ADD PUSH1 0x80 DUP11 ADD MSTORE PUSH2 0x15AE JUMP JUMPDEST PUSH1 0x80 DUP6 ADD MLOAD DUP5 DUP9 DUP4 SUB ADD PUSH1 0xA0 DUP10 ADD MSTORE PUSH2 0x15AE JUMP JUMPDEST SWAP3 PUSH1 0xA0 DUP2 ADD MLOAD PUSH1 0xC0 DUP8 ADD MSTORE PUSH1 0xC0 DUP2 ADD MLOAD PUSH1 0xE0 DUP8 ADD MSTORE PUSH1 0xE0 DUP2 ADD MLOAD PUSH2 0x100 DUP8 ADD MSTORE PUSH2 0x100 DUP2 ADD MLOAD DUP3 DUP8 ADD MSTORE ADD MLOAD SWAP1 DUP5 DUP4 SUB ADD PUSH2 0x140 DUP6 ADD MSTORE PUSH2 0x15AE JUMP JUMPDEST CALLVALUE PUSH2 0x211 JUMPI PUSH1 0x0 CALLDATASIZE PUSH1 0x3 NOT ADD SLT PUSH2 0x211 JUMPI PUSH1 0x20 PUSH1 0x9 SLOAD PUSH1 0x40 MLOAD SWAP1 DUP2 MSTORE RETURN JUMPDEST CALLVALUE PUSH2 0x211 JUMPI PUSH1 0x0 CALLDATASIZE PUSH1 0x3 NOT ADD SLT PUSH2 0x211 JUMPI PUSH1 0x4 SLOAD PUSH1 0x40 MLOAD PUSH1 0x1 PUSH1 0x1 PUSH1 0xA0 SHL SUB SWAP1 SWAP2 AND DUP2 MSTORE PUSH1 0x20 SWAP1 RETURN JUMPDEST CALLVALUE PUSH2 0x211 JUMPI PUSH1 0x0 CALLDATASIZE PUSH1 0x3 NOT ADD SLT PUSH2 0x211 JUMPI PUSH1 0x20 PUSH1 0xC SLOAD PUSH1 0x40 MLOAD SWAP1 DUP2 MSTORE RETURN JUMPDEST CALLVALUE PUSH2 0x211 JUMPI PUSH1 0x20 CALLDATASIZE PUSH1 0x3 NOT ADD SLT PUSH2 0x211 JUMPI PUSH8 0xFFFFFFFFFFFFFFFF PUSH1 0x4 CALLDATALOAD DUP2 DUP2 GT PUSH2 0x211 JUMPI PUSH1 0x20 PUSH2 0x8C2 PUSH2 0x91E SWAP3 CALLDATASIZE SWAP1 PUSH1 0x4 ADD PUSH2 0x152E JUMP JUMPDEST PUSH1 0x0 PUSH2 0x120 PUSH1 0x40 MLOAD PUSH2 0x8D3 DUP2 PUSH2 0x14B7 JUMP JUMPDEST PUSH1 0x60 DUP2 MSTORE DUP3 DUP6 DUP3 ADD MSTORE PUSH1 0x60 PUSH1 0x40 DUP3 ADD MSTORE PUSH1 0x60 DUP1 DUP3 ADD MSTORE DUP3 PUSH1 0x80 DUP3 ADD MSTORE PUSH1 0x60 PUSH1 0xA0 DUP3 ADD MSTORE DUP3 PUSH1 0xC0 DUP3 ADD MSTORE DUP3 PUSH1 0xE0 DUP3 ADD MSTORE DUP3 PUSH2 0x100 DUP3 ADD MSTORE ADD MSTORE DUP2 PUSH1 0x40 MLOAD SWAP4 DUP3 DUP6 DUP1 SWAP5 MLOAD SWAP4 DUP5 SWAP3 ADD PUSH2 0x158B JUMP JUMPDEST DUP2 ADD PUSH1 0x2 DUP2 MSTORE SUB ADD SWAP1 KECCAK256 PUSH1 0x40 MLOAD SWAP2 PUSH2 0x935 DUP4 PUSH2 0x14B7 JUMP JUMPDEST PUSH2 0x93E DUP3 PUSH2 0x160D JUMP JUMPDEST DUP4 MSTORE PUSH1 0x1 DUP3 ADD SLOAD PUSH1 0x1 PUSH1 0x1 PUSH1 0xA0 SHL SUB AND PUSH1 0x20 DUP5 ADD MSTORE PUSH2 0x95F PUSH1 0x2 DUP4 ADD PUSH2 0x160D JUMP JUMPDEST PUSH1 0x40 DUP5 ADD MSTORE PUSH2 0x970 PUSH1 0x3 DUP4 ADD PUSH2 0x160D JUMP JUMPDEST PUSH1 0x60 DUP5 ADD MSTORE PUSH1 0x4 DUP3 ADD SLOAD PUSH1 0x80 DUP5 ADD MSTORE PUSH1 0x5 DUP3 ADD SLOAD SWAP1 DUP2 GT PUSH2 0xB0E JUMPI PUSH1 0x40 MLOAD SWAP1 PUSH2 0x99F PUSH1 0x20 DUP3 PUSH1 0x5 SHL ADD DUP4 PUSH2 0x14F0 JUMP JUMPDEST DUP1 DUP3 MSTORE PUSH1 0x20 DUP3 ADD PUSH1 0x5 DUP5 ADD PUSH1 0x0 MSTORE PUSH1 0x20 PUSH1 0x0 KECCAK256 PUSH1 0x0 SWAP2 JUMPDEST DUP4 DUP4 LT PUSH2 0xAF1 JUMPI DUP7 PUSH1 0x9 DUP8 DUP8 PUSH1 0xA0 DUP5 ADD MSTORE PUSH1 0x6 DUP2 ADD SLOAD PUSH1 0xC0 DUP5 ADD MSTORE PUSH1 0x7 DUP2 ADD SLOAD PUSH1 0xE0 DUP5 ADD MSTORE PUSH1 0x8 DUP2 ADD SLOAD PUSH2 0x100 DUP5 ADD MSTORE ADD SLOAD PUSH2 0x120 DUP3 ADD MSTORE PUSH1 0x40 MLOAD PUSH1 0x20 DUP2 MSTORE PUSH2 0xA54 PUSH2 0xA3E PUSH2 0xA13 DUP5 MLOAD PUSH2 0x140 PUSH1 0x20 DUP7 ADD MSTORE PUSH2 0x160 DUP6 ADD SWAP1 PUSH2 0x15AE JUMP JUMPDEST PUSH1 0x20 DUP6 ADD MLOAD PUSH1 0x1 PUSH1 0x1 PUSH1 0xA0 SHL SUB AND PUSH1 0x40 DUP6 DUP2 ADD SWAP2 SWAP1 SWAP2 MSTORE DUP6 ADD MLOAD DUP5 DUP3 SUB PUSH1 0x1F NOT ADD PUSH1 0x60 DUP7 ADD MSTORE PUSH2 0x15AE JUMP JUMPDEST PUSH1 0x60 DUP5 ADD MLOAD DUP4 DUP3 SUB PUSH1 0x1F NOT ADD PUSH1 0x80 DUP6 ADD MSTORE PUSH2 0x15AE JUMP JUMPDEST PUSH1 0x80 DUP4 ADD MLOAD PUSH1 0xA0 DUP4 ADD MSTORE PUSH1 0xA0 DUP4 ADD MLOAD SWAP1 PUSH1 0x1F NOT DUP4 DUP3 SUB ADD PUSH1 0xC0 DUP5 ADD MSTORE DUP2 MLOAD DUP1 DUP3 MSTORE PUSH1 0x20 DUP3 ADD SWAP2 PUSH1 0x20 DUP1 DUP4 PUSH1 0x5 SHL DUP4 ADD ADD SWAP5 ADD SWAP3 PUSH1 0x0 SWAP2 JUMPDEST DUP4 DUP4 LT PUSH2 0xAC4 JUMPI DUP7 DUP1 DUP8 PUSH2 0x120 DUP12 PUSH1 0xC0 DUP2 ADD MLOAD PUSH1 0xE0 DUP6 ADD MSTORE PUSH1 0xE0 DUP2 ADD MLOAD PUSH2 0x100 DUP6 ADD MSTORE PUSH2 0x100 DUP2 ADD MLOAD DUP3 DUP6 ADD MSTORE ADD MLOAD PUSH2 0x140 DUP4 ADD MSTORE SUB SWAP1 RETURN JUMPDEST SWAP1 SWAP2 SWAP3 SWAP4 SWAP5 PUSH1 0x20 DUP1 PUSH2 0xAE2 PUSH1 0x1 SWAP4 PUSH1 0x1F NOT DUP7 DUP3 SUB ADD DUP8 MSTORE DUP10 MLOAD PUSH2 0x15AE JUMP JUMPDEST SWAP8 ADD SWAP4 ADD SWAP4 ADD SWAP2 SWAP4 SWAP3 SWAP1 PUSH2 0xA8B JUMP JUMPDEST PUSH1 0x1 PUSH1 0x20 DUP2 SWAP3 PUSH2 0xB00 DUP6 PUSH2 0x160D JUMP JUMPDEST DUP2 MSTORE ADD SWAP3 ADD SWAP3 ADD SWAP2 SWAP1 PUSH2 0x9B6 JUMP JUMPDEST PUSH4 0x4E487B71 PUSH1 0xE0 SHL PUSH1 0x0 MSTORE PUSH1 0x41 PUSH1 0x4 MSTORE PUSH1 0x24 PUSH1 0x0 REVERT JUMPDEST CALLVALUE PUSH2 0x211 JUMPI PUSH1 0x60 CALLDATASIZE PUSH1 0x3 NOT ADD SLT PUSH2 0x211 JUMPI PUSH8 0xFFFFFFFFFFFFFFFF PUSH1 0x24 CALLDATALOAD DUP2 DUP2 GT PUSH2 0x211 JUMPI PUSH2 0xB56 SWAP1 CALLDATASIZE SWAP1 PUSH1 0x4 ADD PUSH2 0x152E JUMP JUMPDEST SWAP1 PUSH1 0x44 CALLDATALOAD DUP2 DUP2 GT PUSH2 0x211 JUMPI PUSH2 0xB6F SWAP1 CALLDATASIZE SWAP1 PUSH1 0x4 ADD PUSH2 0x152E JUMP JUMPDEST CALLER PUSH1 0x0 MSTORE PUSH1 0x1 PUSH1 0x20 MSTORE PUSH1 0x4 CALLDATALOAD PUSH1 0x40 PUSH1 0x0 KECCAK256 SLOAD LT PUSH2 0xF2F JUMPI PUSH2 0xB91 PUSH1 0xA SLOAD PUSH2 0x1801 JUMP JUMPDEST SWAP2 DUP3 PUSH1 0xA SSTORE PUSH2 0x7B2 PUSH4 0x1E187E0 TIMESTAMP DIV DUP2 ADD DUP1 SWAP2 GT PUSH2 0xF19 JUMPI PUSH1 0x29 PUSH2 0xBC0 PUSH2 0xBBA PUSH2 0xC1A SWAP4 PUSH2 0x1821 JUMP JUMPDEST SWAP6 PUSH2 0x18DE JUMP JUMPDEST SWAP5 PUSH1 0x40 MLOAD SWAP6 DUP7 SWAP2 PUSH3 0x50432D PUSH1 0xE8 SHL PUSH1 0x20 DUP5 ADD MSTORE PUSH2 0xBE7 DUP2 MLOAD DUP1 SWAP3 PUSH1 0x20 PUSH1 0x23 DUP8 ADD SWAP2 ADD PUSH2 0x158B JUMP JUMPDEST DUP3 ADD PUSH6 0x2D434F52502D PUSH1 0xD0 SHL PUSH1 0x23 DUP3 ADD MSTORE PUSH2 0xC0B DUP3 MLOAD DUP1 SWAP4 PUSH1 0x20 DUP8 DUP6 ADD SWAP2 ADD PUSH2 0x158B JUMP JUMPDEST ADD SUB PUSH1 0x9 DUP2 ADD DUP7 MSTORE ADD DUP5 PUSH2 0x14F0 JUMP JUMPDEST CALLER PUSH1 0x0 MSTORE PUSH1 0x1 PUSH1 0x20 MSTORE PUSH1 0x40 PUSH1 0x0 KECCAK256 PUSH2 0xC35 PUSH1 0x4 CALLDATALOAD DUP3 SLOAD PUSH2 0x17F4 JUMP JUMPDEST SWAP1 SSTORE PUSH2 0xC45 PUSH1 0x4 CALLDATALOAD PUSH1 0x9 SLOAD PUSH2 0x17E7 JUMP JUMPDEST PUSH1 0x9 SSTORE PUSH1 0x40 MLOAD SWAP1 PUSH1 0x20 DUP3 ADD SWAP1 DUP2 GT DUP3 DUP3 LT OR PUSH2 0xB0E JUMPI PUSH1 0x40 MSTORE PUSH1 0x0 DUP2 MSTORE PUSH1 0x40 MLOAD SWAP1 PUSH2 0xC6F DUP3 PUSH2 0x14B7 JUMP JUMPDEST DUP4 DUP3 MSTORE CALLER PUSH1 0x20 DUP4 ADD MSTORE DUP5 PUSH1 0x40 DUP4 ADD MSTORE DUP3 PUSH1 0x60 DUP4 ADD MSTORE PUSH2 0x3E8 PUSH1 0x4 CALLDATALOAD DIV PUSH1 0x80 DUP4 ADD MSTORE PUSH1 0xA0 DUP3 ADD MSTORE PUSH1 0x0 PUSH1 0xC0 DUP3 ADD MSTORE PUSH1 0x0 PUSH1 0xE0 DUP3 ADD MSTORE TIMESTAMP PUSH2 0x100 DUP3 ADD MSTORE PUSH1 0x0 PUSH2 0x120 DUP3 ADD MSTORE PUSH1 0x40 MLOAD PUSH1 0x20 DUP2 DUP6 MLOAD PUSH2 0xCC7 DUP2 DUP4 DUP6 DUP11 ADD PUSH2 0x158B JUMP JUMPDEST DUP2 ADD PUSH1 0x2 DUP2 MSTORE SUB ADD SWAP1 KECCAK256 SWAP1 PUSH2 0xCDD DUP2 MLOAD DUP4 PUSH2 0x16E2 JUMP JUMPDEST PUSH1 0x1 DUP3 ADD PUSH1 0x1 DUP1 PUSH1 0xA0 SHL SUB PUSH1 0x20 DUP4 ADD MLOAD AND PUSH12 0xFFFFFFFFFFFFFFFFFFFFFFFF PUSH1 0xA0 SHL DUP3 SLOAD AND OR SWAP1 SSTORE PUSH2 0xD15 PUSH1 0x40 DUP3 ADD MLOAD PUSH1 0x2 DUP5 ADD PUSH2 0x16E2 JUMP JUMPDEST PUSH2 0xD26 PUSH1 0x60 DUP3 ADD MLOAD PUSH1 0x3 DUP5 ADD PUSH2 0x16E2 JUMP JUMPDEST PUSH1 0x80 DUP2 ADD MLOAD PUSH1 0x4 DUP4 ADD SSTORE PUSH1 0xA0 DUP2 ADD MLOAD DUP1 MLOAD SWAP1 PUSH1 0x1 PUSH1 0x40 SHL DUP3 GT PUSH2 0xB0E JUMPI PUSH1 0x5 DUP5 ADD SLOAD DUP3 PUSH1 0x5 DUP7 ADD SSTORE DUP1 DUP4 LT PUSH2 0xEA0 JUMPI JUMPDEST POP PUSH1 0x20 ADD PUSH1 0x5 DUP5 ADD PUSH1 0x0 MSTORE PUSH1 0x20 PUSH1 0x0 KECCAK256 PUSH1 0x0 SWAP2 JUMPDEST DUP4 DUP4 LT PUSH2 0xE83 JUMPI POP POP POP POP PUSH2 0x120 DUP2 PUSH1 0xC0 PUSH1 0x9 SWAP4 ADD MLOAD PUSH1 0x6 DUP6 ADD SSTORE PUSH1 0xE0 DUP2 ADD MLOAD PUSH1 0x7 DUP6 ADD SSTORE PUSH2 0x100 DUP2 ADD MLOAD PUSH1 0x8 DUP6 ADD SSTORE ADD MLOAD SWAP2 ADD SSTORE PUSH1 0xC SLOAD SWAP3 PUSH1 0x1 PUSH1 0x40 SHL DUP5 LT ISZERO PUSH2 0xB0E JUMPI PUSH1 0x1 DUP5 ADD DUP1 PUSH1 0xC SSTORE DUP5 LT ISZERO PUSH2 0xE6D JUMPI PUSH2 0xE31 PUSH32 0xAA8A05D78A9561DFFD59D70CFC85B6C0368F681B3CCDE689F849863C20E4EC61 SWAP2 PUSH2 0xE17 DUP6 PUSH2 0x383 SWAP8 PUSH1 0xC PUSH1 0x0 MSTORE PUSH32 0xDF6966C971051C3D54EC59162606531493A51404A002842F56009D7E5CF4A8C7 ADD PUSH2 0x16E2 JUMP JUMPDEST PUSH2 0xE56 PUSH2 0xE47 PUSH1 0x40 MLOAD SWAP4 DUP5 SWAP4 PUSH1 0x80 DUP6 MSTORE PUSH1 0x80 DUP6 ADD SWAP1 PUSH2 0x15AE JUMP JUMPDEST PUSH1 0x4 CALLDATALOAD PUSH1 0x20 DUP6 ADD MSTORE DUP4 DUP2 SUB PUSH1 0x40 DUP6 ADD MSTORE DUP8 PUSH2 0x15AE JUMP JUMPDEST DUP3 DUP2 SUB PUSH1 0x60 DUP5 ADD MSTORE CALLER SWAP6 PUSH2 0x15AE JUMP JUMPDEST SUB SWAP1 LOG2 PUSH1 0x40 MLOAD SWAP2 DUP3 SWAP2 PUSH1 0x20 DUP4 MSTORE PUSH1 0x20 DUP4 ADD SWAP1 PUSH2 0x15AE JUMP JUMPDEST PUSH4 0x4E487B71 PUSH1 0xE0 SHL PUSH1 0x0 MSTORE PUSH1 0x32 PUSH1 0x4 MSTORE PUSH1 0x24 PUSH1 0x0 REVERT JUMPDEST PUSH1 0x1 PUSH1 0x20 DUP3 PUSH2 0xE94 DUP4 SWAP5 MLOAD DUP7 PUSH2 0x16E2 JUMP JUMPDEST ADD SWAP3 ADD SWAP3 ADD SWAP2 SWAP1 PUSH2 0xD6A JUMP JUMPDEST PUSH1 0x5 DUP6 ADD PUSH1 0x0 MSTORE PUSH1 0x20 PUSH1 0x0 KECCAK256 SWAP1 DUP4 DUP3 ADD JUMPDEST DUP2 DUP4 ADD DUP2 LT PUSH2 0xEC1 JUMPI POP POP PUSH2 0xD56 JUMP JUMPDEST DUP1 PUSH2 0xECE PUSH1 0x1 SWAP3 SLOAD PUSH2 0x15D3 JUMP JUMPDEST DUP1 PUSH2 0xEDB JUMPI JUMPDEST POP ADD PUSH2 0xEB1 JUMP JUMPDEST PUSH1 0x1F SWAP1 DUP2 DUP2 GT DUP5 EQ PUSH2 0xEF4 JUMPI POP POP PUSH1 0x0 DUP2 SSTORE JUMPDEST DUP12 PUSH2 0xED4 JUMP JUMPDEST PUSH2 0xF10 PUSH1 0x0 SWAP3 DUP5 DUP5 MSTORE PUSH1 0x20 DUP5 KECCAK256 SWAP3 ADD PUSH1 0x5 SHR DUP3 ADD DUP6 DUP4 ADD PUSH2 0x16CB JUMP JUMPDEST DUP2 DUP4 SSTORE SSTORE PUSH2 0xEEE JUMP JUMPDEST PUSH4 0x4E487B71 PUSH1 0xE0 SHL PUSH1 0x0 MSTORE PUSH1 0x11 PUSH1 0x4 MSTORE PUSH1 0x24 PUSH1 0x0 REVERT JUMPDEST PUSH1 0x40 MLOAD PUSH3 0x461BCD PUSH1 0xE5 SHL DUP2 MSTORE PUSH1 0x20 PUSH1 0x4 DUP3 ADD MSTORE PUSH1 0x18 PUSH1 0x24 DUP3 ADD MSTORE PUSH32 0x496E73756666696369656E74205052432062616C616E63650000000000000000 PUSH1 0x44 DUP3 ADD MSTORE PUSH1 0x64 SWAP1 REVERT JUMPDEST CALLVALUE PUSH2 0x211 JUMPI PUSH2 0x100 CALLDATASIZE PUSH1 0x3 NOT ADD SLT PUSH2 0x211 JUMPI PUSH8 0xFFFFFFFFFFFFFFFF PUSH1 0x4 CALLDATALOAD DUP2 DUP2 GT PUSH2 0x211 JUMPI PUSH2 0xFA7 SWAP1 CALLDATASIZE SWAP1 PUSH1 0x4 ADD PUSH2 0x152E JUMP JUMPDEST SWAP1 PUSH1 0x24 CALLDATALOAD PUSH1 0x1 PUSH1 0x1 PUSH1 0xA0 SHL SUB DUP2 AND SWAP2 SWAP1 DUP3 SWAP1 SUB PUSH2 0x211 JUMPI PUSH1 0x44 CALLDATALOAD PUSH1 0x1 PUSH1 0x1 PUSH1 0xA0 SHL SUB DUP2 AND SWAP4 SWAP1 DUP5 SWAP1 SUB PUSH2 0x211 JUMPI PUSH1 0x64 CALLDATALOAD DUP3 DUP2 GT PUSH2 0x211 JUMPI PUSH2 0xFEC SWAP1 CALLDATASIZE SWAP1 PUSH1 0x4 ADD PUSH2 0x152E JUMP JUMPDEST SWAP2 PUSH1 0xA4 CALLDATALOAD SWAP1 DUP2 GT PUSH2 0x211 JUMPI PUSH2 0x1005 SWAP1 CALLDATASIZE SWAP1 PUSH1 0x4 ADD PUSH2 0x152E JUMP JUMPDEST SWAP2 PUSH1 0x1 DUP1 PUSH1 0xA0 SHL SUB PUSH1 0x3 SLOAD AND CALLER EQ DUP1 ISZERO PUSH2 0x1461 JUMPI JUMPDEST ISZERO PUSH2 0x142B JUMPI PUSH1 0x6 SLOAD PUSH1 0x40 MLOAD PUSH4 0xDBCD13DF PUSH1 0xE0 SHL DUP2 MSTORE PUSH1 0x4 DUP2 ADD DUP7 SWAP1 MSTORE SWAP1 PUSH1 0x20 SWAP1 DUP3 SWAP1 PUSH1 0x24 SWAP1 DUP3 SWAP1 PUSH1 0x1 PUSH1 0x1 PUSH1 0xA0 SHL SUB AND GAS STATICCALL SWAP1 DUP2 ISZERO PUSH2 0x13C4 JUMPI PUSH1 0x0 SWAP2 PUSH2 0x140C JUMPI JUMPDEST POP ISZERO PUSH2 0x13D0 JUMPI PUSH1 0x7 SLOAD PUSH1 0x40 MLOAD PUSH4 0xF40786F PUSH1 0xE0 SHL DUP2 MSTORE PUSH1 0x4 DUP2 ADD DUP8 SWAP1 MSTORE SWAP1 PUSH1 0x20 SWAP1 DUP3 SWAP1 PUSH1 0x24 SWAP1 DUP3 SWAP1 PUSH1 0x1 PUSH1 0x1 PUSH1 0xA0 SHL SUB AND GAS STATICCALL SWAP1 DUP2 ISZERO PUSH2 0x13C4 JUMPI PUSH1 0x0 SWAP2 PUSH2 0x1395 JUMPI JUMPDEST POP ISZERO PUSH2 0x135B JUMPI PUSH1 0x84 CALLDATALOAD DUP1 ISZERO PUSH2 0x1325 JUMPI PUSH1 0x40 MLOAD SWAP3 PUSH2 0x10D8 DUP2 MLOAD SWAP5 PUSH1 0x20 DUP2 DUP2 DUP6 ADD SWAP8 PUSH2 0x10C8 DUP2 DUP4 DUP12 PUSH2 0x158B JUMP JUMPDEST DUP2 ADD PUSH1 0x0 DUP2 MSTORE SUB ADD SWAP1 KECCAK256 SLOAD PUSH2 0x15D3 JUMP JUMPDEST PUSH2 0x12E9 JUMPI PUSH2 0x7B2 PUSH4 0x1E187E0 TIMESTAMP DIV DUP2 ADD DUP1 SWAP2 GT PUSH2 0xF19 JUMPI PUSH2 0x10F8 SWAP1 PUSH2 0x1821 JUMP JUMPDEST PUSH1 0x40 MLOAD SWAP1 PUSH2 0x1105 DUP3 PUSH2 0x14B7 JUMP JUMPDEST DUP3 DUP3 MSTORE PUSH1 0x20 DUP3 ADD DUP9 DUP2 MSTORE PUSH1 0x40 DUP4 ADD DUP11 DUP2 MSTORE PUSH1 0x60 DUP5 ADD DUP10 DUP2 MSTORE PUSH1 0x80 DUP6 ADD DUP9 DUP2 MSTORE PUSH1 0xA0 DUP7 ADD SWAP1 DUP9 DUP3 MSTORE PUSH1 0xC0 DUP8 ADD SWAP3 PUSH1 0xC4 CALLDATALOAD DUP5 MSTORE PUSH1 0xE0 DUP9 ADD SWAP5 PUSH1 0xE4 CALLDATALOAD DUP7 MSTORE PUSH2 0x100 DUP10 ADD SWAP7 TIMESTAMP DUP9 MSTORE PUSH2 0x120 DUP11 ADD SWAP9 DUP10 MSTORE DUP14 DUP12 PUSH1 0x40 MLOAD DUP1 SWAP3 DUP2 SWAP3 MLOAD DUP1 SWAP3 PUSH2 0x1166 SWAP3 PUSH2 0x158B JUMP JUMPDEST DUP2 ADD PUSH1 0x0 DUP2 MSTORE SUB PUSH1 0x20 ADD SWAP1 KECCAK256 SWAP10 MLOAD PUSH2 0x117E SWAP1 DUP12 PUSH2 0x16E2 JUMP JUMPDEST MLOAD PUSH1 0x1 DUP11 ADD DUP1 SLOAD PUSH1 0x1 PUSH1 0x1 PUSH1 0xA0 SHL SUB NOT SWAP1 DUP2 AND PUSH1 0x1 PUSH1 0x1 PUSH1 0xA0 SHL SUB SWAP4 DUP5 AND OR SWAP1 SWAP2 SSTORE SWAP2 MLOAD PUSH1 0x2 DUP12 ADD DUP1 SLOAD SWAP1 SWAP4 AND SWAP2 AND OR SWAP1 SSTORE MLOAD PUSH2 0x11BE SWAP1 PUSH1 0x3 DUP10 ADD PUSH2 0x16E2 JUMP JUMPDEST MLOAD PUSH2 0x11CC SWAP1 PUSH1 0x4 DUP9 ADD PUSH2 0x16E2 JUMP JUMPDEST MLOAD PUSH1 0x5 DUP7 ADD SSTORE MLOAD PUSH1 0x6 DUP6 ADD SSTORE MLOAD PUSH1 0x7 DUP5 ADD SSTORE MLOAD PUSH1 0x8 DUP4 ADD SSTORE MLOAD PUSH2 0x11F1 SWAP2 PUSH1 0x9 ADD PUSH2 0x16E2 JUMP JUMPDEST PUSH1 0x5 SLOAD PUSH1 0x1 PUSH1 0x1 PUSH1 0xA0 SHL SUB AND PUSH1 0x0 SWAP1 DUP2 MSTORE PUSH1 0x1 PUSH1 0x20 MSTORE PUSH1 0x40 SWAP1 KECCAK256 DUP1 SLOAD PUSH2 0x1218 SWAP1 DUP5 SWAP1 PUSH2 0x17E7 JUMP JUMPDEST SWAP1 SSTORE DUP2 PUSH1 0x8 SLOAD SWAP1 PUSH2 0x1228 SWAP2 PUSH2 0x17E7 JUMP JUMPDEST PUSH1 0x8 SSTORE PUSH1 0xB SLOAD PUSH1 0x1 PUSH1 0x40 SHL DUP2 LT ISZERO PUSH2 0xB0E JUMPI PUSH1 0x1 DUP2 ADD DUP1 PUSH1 0xB SSTORE DUP2 LT ISZERO PUSH2 0xE6D JUMPI PUSH32 0xF95EB8D923FDEBDF4636889000A6F1BC414E99A474219C3E5A71DE75C3A4BD3A SWAP5 DUP3 PUSH2 0x12A3 PUSH2 0x12E4 SWAP5 PUSH2 0x12B4 SWAP5 PUSH1 0xB PUSH1 0x0 MSTORE PUSH32 0x175B7A638427703F0DBE7BB9BBF987A2551717B34E79F33B5B1008D1FA01DB9 ADD PUSH2 0x16E2 JUMP JUMPDEST PUSH1 0x40 MLOAD SWAP3 DUP4 SWAP3 DUP4 SWAP3 MLOAD SWAP3 DUP4 SWAP2 PUSH2 0x158B JUMP JUMPDEST DUP2 ADD SUB SWAP1 KECCAK256 SWAP5 PUSH2 0x12D6 PUSH1 0x40 MLOAD SWAP5 DUP6 SWAP5 DUP6 MSTORE PUSH1 0x60 PUSH1 0x20 DUP7 ADD MSTORE PUSH1 0x60 DUP6 ADD SWAP1 PUSH2 0x15AE JUMP JUMPDEST SWAP1 DUP4 DUP3 SUB PUSH1 0x40 DUP6 ADD MSTORE PUSH2 0x15AE JUMP JUMPDEST SUB SWAP1 LOG4 STOP JUMPDEST PUSH1 0x40 MLOAD PUSH3 0x461BCD PUSH1 0xE5 SHL DUP2 MSTORE PUSH1 0x20 PUSH1 0x4 DUP3 ADD MSTORE PUSH1 0x14 PUSH1 0x24 DUP3 ADD MSTORE PUSH20 0x426174636820616C726561647920657869737473 PUSH1 0x60 SHL PUSH1 0x44 DUP3 ADD MSTORE PUSH1 0x64 SWAP1 REVERT JUMPDEST PUSH1 0x40 MLOAD PUSH3 0x461BCD PUSH1 0xE5 SHL DUP2 MSTORE PUSH1 0x20 PUSH1 0x4 DUP3 ADD MSTORE PUSH1 0xE PUSH1 0x24 DUP3 ADD MSTORE PUSH14 0x125B9D985B1A59081DD95A59DA1D PUSH1 0x92 SHL PUSH1 0x44 DUP3 ADD MSTORE PUSH1 0x64 SWAP1 REVERT JUMPDEST PUSH1 0x40 MLOAD PUSH3 0x461BCD PUSH1 0xE5 SHL DUP2 MSTORE PUSH1 0x20 PUSH1 0x4 DUP3 ADD MSTORE PUSH1 0x12 PUSH1 0x24 DUP3 ADD MSTORE PUSH18 0x53746174696F6E206E6F7420616374697665 PUSH1 0x70 SHL PUSH1 0x44 DUP3 ADD MSTORE PUSH1 0x64 SWAP1 REVERT JUMPDEST PUSH2 0x13B7 SWAP2 POP PUSH1 0x20 RETURNDATASIZE PUSH1 0x20 GT PUSH2 0x13BD JUMPI JUMPDEST PUSH2 0x13AF DUP2 DUP4 PUSH2 0x14F0 JUMP JUMPDEST DUP2 ADD SWAP1 PUSH2 0x16B3 JUMP JUMPDEST DUP7 PUSH2 0x109D JUMP JUMPDEST POP RETURNDATASIZE PUSH2 0x13A5 JUMP JUMPDEST PUSH1 0x40 MLOAD RETURNDATASIZE PUSH1 0x0 DUP3 RETURNDATACOPY RETURNDATASIZE SWAP1 REVERT JUMPDEST PUSH1 0x40 MLOAD PUSH3 0x461BCD PUSH1 0xE5 SHL DUP2 MSTORE PUSH1 0x20 PUSH1 0x4 DUP3 ADD MSTORE PUSH1 0x14 PUSH1 0x24 DUP3 ADD MSTORE PUSH20 0x436F6C6C6563746F72206E6F7420616374697665 PUSH1 0x60 SHL PUSH1 0x44 DUP3 ADD MSTORE PUSH1 0x64 SWAP1 REVERT JUMPDEST PUSH2 0x1425 SWAP2 POP PUSH1 0x20 RETURNDATASIZE PUSH1 0x20 GT PUSH2 0x13BD JUMPI PUSH2 0x13AF DUP2 DUP4 PUSH2 0x14F0 JUMP JUMPDEST DUP7 PUSH2 0x105B JUMP JUMPDEST PUSH1 0x40 MLOAD PUSH3 0x461BCD PUSH1 0xE5 SHL DUP2 MSTORE PUSH1 0x20 PUSH1 0x4 DUP3 ADD MSTORE PUSH1 0xE PUSH1 0x24 DUP3 ADD MSTORE PUSH14 0x139BDD08185D5D1A1BDC9A5E9959 PUSH1 0x92 SHL PUSH1 0x44 DUP3 ADD MSTORE PUSH1 0x64 SWAP1 REVERT JUMPDEST POP PUSH1 0x4 SLOAD PUSH1 0x1 PUSH1 0x1 PUSH1 0xA0 SHL SUB AND CALLER EQ PUSH2 0x101A JUMP JUMPDEST CALLVALUE PUSH2 0x211 JUMPI PUSH1 0x0 CALLDATASIZE PUSH1 0x3 NOT ADD SLT PUSH2 0x211 JUMPI PUSH1 0x20 PUSH1 0x8 SLOAD PUSH1 0x40 MLOAD SWAP1 DUP2 MSTORE RETURN JUMPDEST CALLVALUE PUSH2 0x211 JUMPI PUSH1 0x0 CALLDATASIZE PUSH1 0x3 NOT ADD SLT PUSH2 0x211 JUMPI PUSH1 0x6 SLOAD PUSH1 0x1 PUSH1 0x1 PUSH1 0xA0 SHL SUB AND DUP2 MSTORE PUSH1 0x20 SWAP1 RETURN JUMPDEST PUSH2 0x140 DUP2 ADD SWAP1 DUP2 LT PUSH8 0xFFFFFFFFFFFFFFFF DUP3 GT OR PUSH2 0xB0E JUMPI PUSH1 0x40 MSTORE JUMP JUMPDEST PUSH1 0x40 DUP2 ADD SWAP1 DUP2 LT PUSH8 0xFFFFFFFFFFFFFFFF DUP3 GT OR PUSH2 0xB0E JUMPI PUSH1 0x40 MSTORE JUMP JUMPDEST SWAP1 PUSH1 0x1F DUP1 NOT SWAP2 ADD AND DUP2 ADD SWAP1 DUP2 LT PUSH8 0xFFFFFFFFFFFFFFFF DUP3 GT OR PUSH2 0xB0E JUMPI PUSH1 0x40 MSTORE JUMP JUMPDEST PUSH8 0xFFFFFFFFFFFFFFFF DUP2 GT PUSH2 0xB0E JUMPI PUSH1 0x1F ADD PUSH1 0x1F NOT AND PUSH1 0x20 ADD SWAP1 JUMP JUMPDEST DUP2 PUSH1 0x1F DUP3 ADD SLT ISZERO PUSH2 0x211 JUMPI DUP1 CALLDATALOAD SWAP1 PUSH2 0x1545 DUP3 PUSH2 0x1512 JUMP JUMPDEST SWAP3 PUSH2 0x1553 PUSH1 0x40 MLOAD SWAP5 DUP6 PUSH2 0x14F0 JUMP JUMPDEST DUP3 DUP5 MSTORE PUSH1 0x20 DUP4 DUP4 ADD ADD GT PUSH2 0x211 JUMPI DUP2 PUSH1 0x0 SWAP3 PUSH1 0x20 DUP1 SWAP4 ADD DUP4 DUP7 ADD CALLDATACOPY DUP4 ADD ADD MSTORE SWAP1 JUMP JUMPDEST PUSH1 0x4 CALLDATALOAD SWAP1 PUSH1 0x1 PUSH1 0x1 PUSH1 0xA0 SHL SUB DUP3 AND DUP3 SUB PUSH2 0x211 JUMPI JUMP JUMPDEST PUSH1 0x0 JUMPDEST DUP4 DUP2 LT PUSH2 0x159E JUMPI POP POP PUSH1 0x0 SWAP2 ADD MSTORE JUMP JUMPDEST DUP2 DUP2 ADD MLOAD DUP4 DUP3 ADD MSTORE PUSH1 0x20 ADD PUSH2 0x158E JUMP JUMPDEST SWAP1 PUSH1 0x20 SWAP2 PUSH2 0x15C7 DUP2 MLOAD DUP1 SWAP3 DUP2 DUP6 MSTORE DUP6 DUP1 DUP7 ADD SWAP2 ADD PUSH2 0x158B JUMP JUMPDEST PUSH1 0x1F ADD PUSH1 0x1F NOT AND ADD ADD SWAP1 JUMP JUMPDEST SWAP1 PUSH1 0x1 DUP3 DUP2 SHR SWAP3 AND DUP1 ISZERO PUSH2 0x1603 JUMPI JUMPDEST PUSH1 0x20 DUP4 LT EQ PUSH2 0x15ED JUMPI JUMP JUMPDEST PUSH4 0x4E487B71 PUSH1 0xE0 SHL PUSH1 0x0 MSTORE PUSH1 0x22 PUSH1 0x4 MSTORE PUSH1 0x24 PUSH1 0x0 REVERT JUMPDEST SWAP2 PUSH1 0x7F AND SWAP2 PUSH2 0x15E2 JUMP JUMPDEST SWAP1 PUSH1 0x40 MLOAD SWAP2 DUP3 PUSH1 0x0 DUP3 SLOAD SWAP3 PUSH2 0x1621 DUP5 PUSH2 0x15D3 JUMP JUMPDEST SWAP1 DUP2 DUP5 MSTORE PUSH1 0x1 SWAP5 DUP6 DUP2 AND SWAP1 DUP2 PUSH1 0x0 EQ PUSH2 0x1690 JUMPI POP PUSH1 0x1 EQ PUSH2 0x164D JUMPI JUMPDEST POP POP PUSH2 0x164B SWAP3 POP SUB DUP4 PUSH2 0x14F0 JUMP JUMPDEST JUMP JUMPDEST SWAP1 SWAP4 SWAP2 POP PUSH1 0x0 MSTORE PUSH1 0x20 SWAP1 DUP2 PUSH1 0x0 KECCAK256 SWAP4 PUSH1 0x0 SWAP2 JUMPDEST DUP2 DUP4 LT PUSH2 0x1678 JUMPI POP POP PUSH2 0x164B SWAP4 POP DUP3 ADD ADD CODESIZE DUP1 PUSH2 0x163D JUMP JUMPDEST DUP6 SLOAD DUP9 DUP5 ADD DUP6 ADD MSTORE SWAP5 DUP6 ADD SWAP5 DUP8 SWAP5 POP SWAP2 DUP4 ADD SWAP2 PUSH2 0x1660 JUMP JUMPDEST SWAP2 POP POP PUSH2 0x164B SWAP5 POP PUSH1 0x20 SWAP3 POP PUSH1 0xFF NOT AND DUP3 DUP5 ADD MSTORE ISZERO ISZERO PUSH1 0x5 SHL DUP3 ADD ADD CODESIZE DUP1 PUSH2 0x163D JUMP JUMPDEST SWAP1 DUP2 PUSH1 0x20 SWAP2 SUB SLT PUSH2 0x211 JUMPI MLOAD DUP1 ISZERO ISZERO DUP2 SUB PUSH2 0x211 JUMPI SWAP1 JUMP JUMPDEST DUP2 DUP2 LT PUSH2 0x16D6 JUMPI POP POP JUMP JUMPDEST PUSH1 0x0 DUP2 SSTORE PUSH1 0x1 ADD PUSH2 0x16CB JUMP JUMPDEST SWAP2 SWAP1 SWAP2 DUP3 MLOAD PUSH8 0xFFFFFFFFFFFFFFFF DUP2 GT PUSH2 0xB0E JUMPI PUSH2 0x1700 DUP3 SLOAD PUSH2 0x15D3 JUMP JUMPDEST PUSH1 0x1F DUP2 GT PUSH2 0x17AA JUMPI JUMPDEST POP PUSH1 0x20 DUP1 PUSH1 0x1F DUP4 GT PUSH1 0x1 EQ PUSH2 0x1746 JUMPI POP DUP2 SWAP3 SWAP4 SWAP5 PUSH1 0x0 SWAP3 PUSH2 0x173B JUMPI JUMPDEST POP POP DUP2 PUSH1 0x1 SHL SWAP2 PUSH1 0x0 NOT SWAP1 PUSH1 0x3 SHL SHR NOT AND OR SWAP1 SSTORE JUMP JUMPDEST ADD MLOAD SWAP1 POP CODESIZE DUP1 PUSH2 0x1725 JUMP JUMPDEST SWAP1 PUSH1 0x1F NOT DUP4 AND SWAP6 DUP5 PUSH1 0x0 MSTORE DUP3 PUSH1 0x0 KECCAK256 SWAP3 PUSH1 0x0 SWAP1 JUMPDEST DUP9 DUP3 LT PUSH2 0x1792 JUMPI POP POP DUP4 PUSH1 0x1 SWAP6 SWAP7 SWAP8 LT PUSH2 0x1779 JUMPI JUMPDEST POP POP POP DUP2 SHL ADD SWAP1 SSTORE JUMP JUMPDEST ADD MLOAD PUSH1 0x0 NOT PUSH1 0xF8 DUP5 PUSH1 0x3 SHL AND SHR NOT AND SWAP1 SSTORE CODESIZE DUP1 DUP1 PUSH2 0x176F JUMP JUMPDEST DUP1 PUSH1 0x1 DUP6 SWAP7 DUP3 SWAP5 SWAP7 DUP7 ADD MLOAD DUP2 SSTORE ADD SWAP6 ADD SWAP4 ADD SWAP1 PUSH2 0x175A JUMP JUMPDEST PUSH2 0x17D7 SWAP1 DUP4 PUSH1 0x0 MSTORE PUSH1 0x20 PUSH1 0x0 KECCAK256 PUSH1 0x1F DUP5 ADD PUSH1 0x5 SHR DUP2 ADD SWAP2 PUSH1 0x20 DUP6 LT PUSH2 0x17DD JUMPI JUMPDEST PUSH1 0x1F ADD PUSH1 0x5 SHR ADD SWAP1 PUSH2 0x16CB JUMP JUMPDEST CODESIZE PUSH2 0x1709 JUMP JUMPDEST SWAP1 SWAP2 POP DUP2 SWAP1 PUSH2 0x17CA JUMP JUMPDEST SWAP2 SWAP1 DUP3 ADD DUP1 SWAP3 GT PUSH2 0xF19 JUMPI JUMP JUMPDEST SWAP2 SWAP1 DUP3 SUB SWAP2 DUP3 GT PUSH2 0xF19 JUMPI JUMP JUMPDEST PUSH1 0x0 NOT DUP2 EQ PUSH2 0xF19 JUMPI PUSH1 0x1 ADD SWAP1 JUMP JUMPDEST SWAP1 DUP2 MLOAD DUP2 LT ISZERO PUSH2 0xE6D JUMPI ADD PUSH1 0x20 ADD SWAP1 JUMP JUMPDEST DUP1 ISZERO PUSH2 0x18C0 JUMPI DUP1 DUP2 PUSH1 0x0 SWAP3 JUMPDEST PUSH2 0x18AC JUMPI POP DUP1 PUSH2 0x183C DUP4 PUSH2 0x1512 JUMP JUMPDEST SWAP3 PUSH2 0x184A PUSH1 0x40 MLOAD SWAP5 DUP6 PUSH2 0x14F0 JUMP JUMPDEST DUP1 DUP5 MSTORE PUSH1 0x1F NOT PUSH2 0x1859 DUP3 PUSH2 0x1512 JUMP JUMPDEST ADD CALLDATASIZE PUSH1 0x20 DUP7 ADD CALLDATACOPY SWAP1 JUMPDEST PUSH2 0x186B JUMPI POP POP SWAP1 JUMP JUMPDEST DUP1 ISZERO PUSH2 0xF19 JUMPI PUSH1 0x0 NOT ADD DUP1 SWAP2 PUSH1 0xA SWAP2 PUSH1 0x30 DUP4 DUP4 MOD DUP2 ADD DUP1 SWAP2 GT PUSH2 0xF19 JUMPI PUSH1 0xF8 SHL PUSH1 0x1 PUSH1 0x1 PUSH1 0xF8 SHL SUB NOT AND PUSH1 0x0 BYTE SWAP1 PUSH2 0x18A3 SWAP1 DUP7 PUSH2 0x1810 JUMP JUMPDEST MSTORE8 DIV SWAP1 DUP2 PUSH2 0x1862 JUMP JUMPDEST SWAP2 PUSH2 0x18B8 PUSH1 0xA SWAP2 PUSH2 0x1801 JUMP JUMPDEST SWAP3 DIV DUP1 PUSH2 0x182D JUMP JUMPDEST POP PUSH1 0x40 MLOAD PUSH2 0x18CD DUP2 PUSH2 0x14D4 JUMP JUMPDEST PUSH1 0x1 DUP2 MSTORE PUSH1 0x3 PUSH1 0xFC SHL PUSH1 0x20 DUP3 ADD MSTORE SWAP1 JUMP JUMPDEST PUSH2 0x18E7 SWAP1 PUSH2 0x1821 JUMP JUMPDEST SWAP1 PUSH1 0x4 SWAP1 DUP2 DUP4 MLOAD LT ISZERO PUSH2 0x19BC JUMPI PUSH1 0x40 MLOAD SWAP1 PUSH2 0x1901 DUP3 PUSH2 0x14D4 JUMP JUMPDEST DUP3 DUP3 MSTORE PUSH1 0x20 CALLDATASIZE DUP2 DUP5 ADD CALLDATACOPY PUSH1 0x0 JUMPDEST DUP5 MLOAD DUP5 SUB DUP5 DUP2 GT PUSH2 0x19A7 JUMPI DUP2 LT ISZERO PUSH2 0x193B JUMPI DUP1 PUSH1 0x30 PUSH2 0x1930 PUSH2 0x1936 SWAP4 DUP7 PUSH2 0x1810 JUMP JUMPDEST MSTORE8 PUSH2 0x1801 JUMP JUMPDEST PUSH2 0x190E JUMP JUMPDEST POP SWAP2 PUSH1 0x0 JUMPDEST DUP5 MLOAD DUP2 LT ISZERO PUSH2 0x19A0 JUMPI PUSH1 0x1 PUSH1 0x1 PUSH1 0xF8 SHL SUB NOT PUSH2 0x195C DUP3 DUP8 PUSH2 0x1810 JUMP JUMPDEST MLOAD AND DUP6 MLOAD DUP4 SUB DUP4 DUP2 GT PUSH2 0x198B JUMPI SWAP1 PUSH2 0x1930 PUSH2 0x197B DUP5 PUSH2 0x1986 SWAP6 SWAP5 PUSH2 0x17E7 JUMP JUMPDEST SWAP2 PUSH1 0x0 BYTE SWAP2 DUP7 PUSH2 0x1810 JUMP JUMPDEST PUSH2 0x1940 JUMP JUMPDEST PUSH1 0x11 DUP5 PUSH4 0x4E487B71 PUSH1 0xE0 SHL PUSH1 0x0 MSTORE MSTORE PUSH1 0x24 PUSH1 0x0 REVERT JUMPDEST POP SWAP1 SWAP3 POP POP JUMP JUMPDEST PUSH1 0x11 DUP6 PUSH4 0x4E487B71 PUSH1 0xE0 SHL PUSH1 0x0 MSTORE MSTORE PUSH1 0x24 PUSH1 0x0 REVERT JUMPDEST SWAP1 POP JUMP INVALID LOG2 PUSH5 0x6970667358 0x22 SLT KECCAK256 0xB0 0xB1 PUSH8 0x4F036A5B4E670F29 0xAB PUSH32 0x9D87D1C6E792B688BC5984B53CE19C86CFBABB64736F6C634300081300330000 "},"methodIdentifiers":{"admin()":"f851a440","balances(address)":"27e235e3","batchIds(uint256)":"b3d346b9","collectorRegistry()":"0513d078","getAvailablePRCs()":"98ac24d9","getBalance(address)":"f8b2cb4f","getBatchCount()":"a8fabfa5","getPRCBatch(string)":"74a00ce2","getRetirementCert(string)":"213c185c","getRetirementCount()":"237a65ad","mintRecovery(string,address,address,string,uint256,string,uint256,uint256)":"187182a3","prcBatches(string)":"e917a03d","prcVault()":"8359c07e","recoveryAgent()":"4a7805c3","retire(uint256,string,string)":"20652dd1","retirementCertIds(uint256)":"c7c6276b","retirementCerts(string)":"fca76765","setRecoveryAgent(address)":"9bac7669","stationRegistry()":"94bda0e0","totalRetired()":"4d8f59f0","totalSupply()":"18160ddd","transfer(address,uint256)":"a9059cbb"}}}}}