{"src/StationRegistry.sol":{"StationRegistry":{"abi":[{"inputs":[],"stateMutability":"nonpayable","type":"constructor"},{"anonymous":false,"inputs":[{"indexed":true,"internalType":"address","name":"stationAddress","type":"address"},{"indexed":false,"internalType":"uint256","name":"newNonce","type":"uint256"}],"name":"AttestationNonceIncremented","type":"event"},{"anonymous":false,"inputs":[{"indexed":true,"internalType":"address","name":"stationAddress","type":"address"},{"indexed":false,"internalType":"bytes32","name":"certHash","type":"bytes32"},{"indexed":false,"internalType":"uint256","name":"expiry","type":"uint256"}],"name":"CalibrationUpdated","type":"event"},{"anonymous":false,"inputs":[{"indexed":true,"internalType":"address","name":"stationAddress","type":"address"},{"indexed":false,"internalType":"uint256","name":"amount","type":"uint256"},{"indexed":false,"internalType":"uint8","name":"strike","type":"uint8"},{"indexed":false,"internalType":"string","name":"reason","type":"string"}],"name":"StakeSlashed","type":"event"},{"anonymous":false,"inputs":[{"indexed":true,"internalType":"address","name":"stationAddress","type":"address"}],"name":"StationApproved","type":"event"},{"anonymous":false,"inputs":[{"indexed":true,"internalType":"address","name":"stationAddress","type":"address"}],"name":"StationBlacklisted","type":"event"},{"anonymous":false,"inputs":[{"indexed":true,"internalType":"address","name":"stationAddress","type":"address"},{"indexed":false,"internalType":"string","name":"stationName","type":"string"},{"indexed":false,"internalType":"string","name":"zone","type":"string"}],"name":"StationRegistered","type":"event"},{"inputs":[],"name":"ANNUAL_RENEWAL","outputs":[{"internalType":"uint256","name":"","type":"uint256"}],"stateMutability":"view","type":"function"},{"inputs":[],"name":"MAX_FRAUD_STRIKES","outputs":[{"internalType":"uint8","name":"","type":"uint8"}],"stateMutability":"view","type":"function"},{"inputs":[],"name":"MINIMUM_STAKE","outputs":[{"internalType":"uint256","name":"","type":"uint256"}],"stateMutability":"view","type":"function"},{"inputs":[],"name":"REGISTRATION_FEE","outputs":[{"internalType":"uint256","name":"","type":"uint256"}],"stateMutability":"view","type":"function"},{"inputs":[{"internalType":"uint256","name":"","type":"uint256"}],"name":"SLASH_PERCENTAGES","outputs":[{"internalType":"uint256","name":"","type":"uint256"}],"stateMutability":"view","type":"function"},{"inputs":[],"name":"admin","outputs":[{"internalType":"address","name":"","type":"address"}],"stateMutability":"view","type":"function"},{"inputs":[{"internalType":"address","name":"_station","type":"address"}],"name":"approveStation","outputs":[],"stateMutability":"nonpayable","type":"function"},{"inputs":[{"internalType":"address","name":"","type":"address"}],"name":"approvedStations","outputs":[{"internalType":"bool","name":"","type":"bool"}],"stateMutability":"view","type":"function"},{"inputs":[{"internalType":"address","name":"_station","type":"address"}],"name":"getStation","outputs":[{"components":[{"internalType":"address","name":"walletAddress","type":"address"},{"internalType":"string","name":"stationName","type":"string"},{"internalType":"string","name":"zone","type":"string"},{"internalType":"int256","name":"gpsLat","type":"int256"},{"internalType":"int256","name":"gpsLng","type":"int256"},{"internalType":"string","name":"facilityType","type":"string"},{"internalType":"string[]","name":"acceptedTypes","type":"string[]"},{"internalType":"uint256","name":"stakeAmount","type":"uint256"},{"internalType":"enum StationRegistry.StakeStatus","name":"stakeStatus","type":"uint8"},{"internalType":"bytes32","name":"calibrationCertHash","type":"bytes32"},{"internalType":"uint256","name":"calibrationExpiry","type":"uint256"},{"internalType":"uint256","name":"attestationNonce","type":"uint256"},{"internalType":"uint8","name":"fraudStrikeCount","type":"uint8"},{"internalType":"bool","name":"isActive","type":"bool"},{"internalType":"uint256","name":"approvedAt","type":"uint256"}],"internalType":"struct StationRegistry.Station","name":"","type":"tuple"}],"stateMutability":"view","type":"function"},{"inputs":[],"name":"getStationCount","outputs":[{"internalType":"uint256","name":"","type":"uint256"}],"stateMutability":"view","type":"function"},{"inputs":[{"internalType":"address","name":"_station","type":"address"}],"name":"incrementNonce","outputs":[],"stateMutability":"nonpayable","type":"function"},{"inputs":[{"internalType":"address","name":"_station","type":"address"}],"name":"isStationActive","outputs":[{"internalType":"bool","name":"","type":"bool"}],"stateMutability":"view","type":"function"},{"inputs":[],"name":"recoveryAgent","outputs":[{"internalType":"address","name":"","type":"address"}],"stateMutability":"view","type":"function"},{"inputs":[{"internalType":"string","name":"_stationName","type":"string"},{"internalType":"string","name":"_zone","type":"string"},{"internalType":"int256","name":"_gpsLat","type":"int256"},{"internalType":"int256","name":"_gpsLng","type":"int256"},{"internalType":"string","name":"_facilityType","type":"string"},{"internalType":"string[]","name":"_acceptedTypes","type":"string[]"},{"internalType":"bytes32","name":"_calibrationCertHash","type":"bytes32"},{"internalType":"uint256","name":"_calibrationExpiry","type":"uint256"}],"name":"registerStation","outputs":[],"stateMutability":"payable","type":"function"},{"inputs":[{"internalType":"address","name":"_agent","type":"address"}],"name":"setRecoveryAgent","outputs":[],"stateMutability":"nonpayable","type":"function"},{"inputs":[{"internalType":"address","name":"_station","type":"address"},{"internalType":"string","name":"_reason","type":"string"}],"name":"slashStake","outputs":[],"stateMutability":"nonpayable","type":"function"},{"inputs":[{"internalType":"uint256","name":"","type":"uint256"}],"name":"stationAddresses","outputs":[{"internalType":"address","name":"","type":"address"}],"stateMutability":"view","type":"function"},{"inputs":[{"internalType":"address","name":"","type":"address"}],"name":"stations","outputs":[{"internalType":"address","name":"walletAddress","type":"address"},{"internalType":"string","name":"stationName","type":"string"},{"internalType":"string","name":"zone","type":"string"},{"internalType":"int256","name":"gpsLat","type":"int256"},{"internalType":"int256","name":"gpsLng","type":"int256"},{"internalType":"string","name":"facilityType","type":"string"},{"internalType":"uint256","name":"stakeAmount","type":"uint256"},{"internalType":"enum StationRegistry.StakeStatus","name":"stakeStatus","type":"uint8"},{"internalType":"bytes32","name":"calibrationCertHash","type":"bytes32"},{"internalType":"uint256","name":"calibrationExpiry","type":"uint256"},{"internalType":"uint256","name":"attestationNonce","type":"uint256"},{"internalType":"uint8","name":"fraudStrikeCount","type":"uint8"},{"internalType":"bool","name":"isActive","type":"bool"},{"internalType":"uint256","name":"approvedAt","type":"uint256"}],"stateMutability":"view","type":"function"},{"inputs":[{"internalType":"bytes32","name":"_certHash","type":"bytes32"},{"internalType":"uint256","name":"_expiry","type":"uint256"}],"name":"updateCalibration","outputs":[],"stateMutability":"payable","type":"function"}],"evm":{"bytecode":{"linkReferences":{},"object":"60803461008b57606081016001600160401b0381118282101761007557604052600f81526020906032828201526064604082015260005b6003811061005f57600380546001600160a01b0319163317905560405161192f90816100918239f35b815160ff16600582015590820190600101610036565b634e487b7160e01b600052604160045260246000fd5b600080fdfe608080604052600436101561001357600080fd5b60003560e01c90816308dbbb03146115e6575080630f40786f1461154a57806331c5d5211461150b5780633544c743146114df5780634a7805c3146114b65780634dcf743b1461149857806353cc291414611387578063563211911461134557806364b4f751146113215780636c949333146111d85780639bac766914611187578063a2b61e2714610f76578063a3ae38df14610f5a578063adee2c6214610c4c578063c7fb4f1214610b29578063d0b0799e1461021f578063d2c8983e146101fb578063f5743c4c1461011e5763f851a440146100f057600080fd5b34610119576000366003190112610119576003546040516001600160a01b039091168152602090f35b600080fd5b3461011957602036600319011261011957610137611608565b6003546001600160a01b0391908216331480156101ee575b6101589061187b565b1680600052600060205261017960ff600c6040600020015460081c166118b8565b806000526000602052600b604060002001805460001981146101d85760010190558060005260006020527f09409c68daba73ff1461a219cc954a35e50c332ad0aaddc7c7e787647d4c2e816020600b60406000200154604051908152a2005b634e487b7160e01b600052601160045260246000fd5b506004548216331461014f565b346101195760003660031901126101195760206040516802b5e3af16b18800008152f35b610100366003190112610119576004356001600160401b0381116101195761024b903690600401611692565b6024356001600160401b0381116101195761026a903690600401611692565b906084356001600160401b0381116101195761028a903690600401611692565b6001600160401b0360a435116101195736602360a4350112156101195760a435600401356102b781611815565b906102c56040519283611671565b80825260208201903660248260051b60a43501011161011957602460a43501915b60248260051b60a43501018310610af65750505033600052600060205260018060a01b0360406000205416610abc57682086ac3510526000003410610a77574260e4351115610a33576040519161033c83611655565b3383528360208401528460408401526044356060840152606435608084015260a083015260c0820152681b1ae4d6e2ef50000060e0820152600061010082015260c43561012082015260e4356101408201526000610160820152600061018082015260006101a082015260006101c082015233600052600060205260406000209060018060a01b038151166bffffffffffffffffffffffff60a01b83541617825560208101518051906001600160401b0382116106595781906104026001860154611735565b601f81116109fe575b50602090601f831160011461098c57600092610981575b50508160011b916000199060031b1c19161760018301555b60408101518051906001600160401b03821161065957819061045f6002860154611735565b601f811161094c575b50602090601f83116001146108da576000926108cf575b50508160011b916000199060031b1c19161760028301555b606081015160038301556080810151600483015560a08101518051906001600160401b0382116106595781906104d06005860154611735565b601f811161089a575b50602090601f83116001146108285760009261081d575b50508160011b916000199060031b1c19161760058301555b60c0810151805190600160401b82116106595760068401548260068601558083106107a5575b5060200190600684016000526020600020916000905b828210610685575050505060e081015160078301556101008101516008830191600482101561066f57600d926101c09260ff801983541691161790556101208101516009850155610140810151600a850155610160810151600b850155600c840160ff6101808301511681549061ff006101a0850151151560081b169161ffff1916171790550151910155600254600160401b811015610659577ff17d6d645c568ad996f160a52382cd5084b649035c3ca5525739e15f3572625e91610613826001610645940160025561161e565b81546001600160a01b0360039290921b91821b19163390911b17905560408051818152928392610654928401906116e8565b828103602084015233956116e8565b0390a2005b634e487b7160e01b600052604160045260246000fd5b634e487b7160e01b600052602160045260246000fd5b80518051906001600160401b038211610659576106a28654611735565b601f8111610768575b50602090601f83116001146106f85792826001949360209386956000926106ed575b5050600019600383901b1c191690841b1787555b01940191019092610544565b015190508d806106cd565b908660005260206000209160005b601f1985168110610750575083602093600196938796938794601f19811610610737575b505050811b0187556106e1565b015160001960f88460031b161c191690558d808061072a565b91926020600181928685015181550194019201610706565b61079590876000526020600020601f850160051c8101916020861061079b575b601f0160051c0190611864565b8a6106ab565b9091508190610788565b600685016000526020600020908382015b81830181106107c657505061052e565b806107d360019254611735565b806107e0575b50016107b6565b601f811183146107f65750600081555b8a6107d9565b600090828252610814601f60208420920160051c8201858301611864565b818355556107f0565b0151905086806104f0565b9250600585016000526020600020906000935b601f198416851061087f576001945083601f19811610610866575b505050811b016005830155610508565b015160001960f88460031b161c19169055868080610856565b8181015183556020948501946001909301929091019061083b565b6108c990600587016000526020600020601f850160051c8101916020861061079b57601f0160051c0190611864565b876104d9565b01519050868061047f565b9250600285016000526020600020906000935b601f1984168510610931576001945083601f19811610610918575b505050811b016002830155610497565b015160001960f88460031b161c19169055868080610908565b818101518355602094850194600190930192909101906108ed565b61097b90600287016000526020600020601f850160051c8101916020861061079b57601f0160051c0190611864565b87610468565b015190508680610422565b9250600185016000526020600020906000935b601f19841685106109e3576001945083601f198116106109ca575b505050811b01600183015561043a565b015160001960f88460031b161c191690558680806109ba565b8181015183556020948501946001909301929091019061099f565b610a2d90600187016000526020600020601f850160051c8101916020861061079b57601f0160051c0190611864565b8761040b565b606460405162461bcd60e51b815260206004820152602060248201527f43616c6962726174696f6e206365727420616c726561647920657870697265646044820152fd5b60405162461bcd60e51b815260206004820152601860248201527f496e73756666696369656e74207374616b65202b2066656500000000000000006044820152606490fd5b60405162461bcd60e51b8152602060048201526012602482015271105b1c9958591e481c9959da5cdd195c995960721b6044820152606490fd5b6001600160401b0383351161011957602080602492610b1c3685883560a4350101611692565b81520193019290506102e6565b34610119576020366003190112610119576001600160a01b0380610b4b611608565b16600052600060205260406000209081541660018201610b6a9061176f565b91610b776002820161176f565b600382015491600481015460058201610b8f9061176f565b93600783015494600884015460ff16600985015491600a86015493600b87015495600c88015497600d0154986040519c8d9c8d528c6101c06020819201528d01610bd8916116e8565b8c810360408e0152610be9916116e8565b9160608c015260808b015289810360a08b0152610c05916116e8565b9660c089015260e08801610c1891611728565b61010087015261012086015261014085015260ff811661016085015260081c60ff1615156101808401526101a08301520390f35b3461011957602036600319011261011957610c65611608565b60006101c0604051610c7681611655565b8281526060602082015260606040820152826060820152826080820152606060a0820152606060c08201528260e08201528261010082015282610120820152826101408201528261016082015282610180820152826101a0820152015260018060a01b03166000526000602052604060002060405190610cf582611655565b80546001600160a01b03168252610d0e6001820161176f565b6020830152610d1f6002820161176f565b60408301526003810154606083015260048101546080830152610d446005820161176f565b60a0830152600681018054610d5881611815565b91610d666040519384611671565b818352602083019060005260206000206000915b838310610f3d575050505060c0830152600781015460e083015260ff60088201541690600482101561066f57600d916101008401526009810154610120840152600a810154610140840152600b81015461016084015260ff600c82015481811661018086015260081c1615156101a084015201546101c08201526040516020815260018060a01b038251166020820152610e6b610e41610e2b60208501516101e060408601526102008501906116e8565b6040850151848203601f190160608601526116e8565b60608401516080840152608084015160a084015260a0840151601f198483030160c08501526116e8565b60c083015190601f198382030160e0840152815180825260208201916020808360051b8301019401926000915b838310610f10578680876101c08b60e0810151610100850152610ec5610100820151610120860190611728565b61012081015161014085015261014081015161016085015261016081015161018085015260ff610180820151166101a08501526101a081015115158285015201516101e08301520390f35b9091929394602080610f2e600193601f1986820301875289516116e8565b97019301930191939290610e98565b600160208192610f4c8561176f565b815201920192019190610d7a565b3461011957600036600319011261011957602060405160038152f35b3461011957604036600319011261011957610f8f611608565b6024356001600160401b03811161011957610fae903690600401611692565b60035490916001600160a01b039182163314801561117a575b610fd09061187b565b16908160005260206000815260ff90610ff582600c6040600020015460081c166118b8565b836000526000815281600c604060002001541660038110600014611172575b600381101561115c576005015484600052600082526007604060002001548181029181830414901517156101d8576064900492846000526000825260076040600020018054908582039182116101d857558460005260008252600c60406000200193845491848316918583146101d85760019688947fc5c48409ed6074a457b11e80a417d6e3fd97c905f762b4244253c0d792339b99948860ff199a8b920116911617905583600052600085526110ed86600c6040600020015416926040519384938452878401526060604084015260608301906116e8565b0390a28360005260008152604060002091600c83019260038454928316101561111257005b60019360089261ff0019169055016003848254161790555260406000209081541690557fdd8d55f4772ee589698659454a1827f3c02b6dbdb4ad9a9df9ff6a3246e61b20600080a2005b634e487b7160e01b600052603260045260246000fd5b506002611014565b5060045482163314610fc7565b34610119576020366003190112610119576111a0611608565b6003546001600160a01b0391906111ba908316331461182c565b166bffffffffffffffffffffffff60a01b6004541617600455600080f35b3461011957602080600319360112610119576111f2611608565b6003546001600160a01b039291839161120e908316331461182c565b1691826000526000825260406000205416156112e457816000526000815260ff600c6040600020015460081c166112ad5781600052600081526001604060002091600c830161010061ff0019825416179055600883019260ff19938385825416179055600d429101555260016040600020918254161790557f44a69fd3e00537a5799aeaf1d809916d12f278e1406ead28c91a1339ca9ad35e600080a2005b6064906040519062461bcd60e51b82526004820152601060248201526f105b1c9958591e48185c1c1c9bdd995960821b6044820152fd5b6064906040519062461bcd60e51b82526004820152601660248201527514dd185d1a5bdb881b9bdd081c9959da5cdd195c995960521b6044820152fd5b3461011957600036600319011261011957602060405168056bc75e2d631000008152f35b34610119576020366003190112610119576004356002548110156101195761136e60209161161e565b905460405160039290921b1c6001600160a01b03168152f35b6040366003190112610119576004356024353360005260006020526113b960ff600c6040600020015460081c166118b8565b6802b5e3af16b18800003410611453574281111561141d5733600052600060205280600a6040600020846009820155015560405191825260208201527f0c875dd1eef067af60dd39cea4726522ed0c29381ab1fdeea9d1cbcc21330f1160403392a2005b60405162461bcd60e51b815260206004820152600e60248201526d496e76616c69642065787069727960901b6044820152606490fd5b60405162461bcd60e51b815260206004820152601860248201527f496e73756666696369656e742072656e6577616c2066656500000000000000006044820152606490fd5b34610119576000366003190112610119576020600254604051908152f35b34610119576000366003190112610119576004546040516001600160a01b039091168152602090f35b346101195760203660031901126101195760043560038110156101195760209060050154604051908152f35b34610119576020366003190112610119576001600160a01b0361152c611608565b166000526001602052602060ff604060002054166040519015158152f35b34610119576020366003190112610119576001600160a01b0361156b611608565b166000526000602052604060002060ff600c82015460081c16806115ca575b602091816115bc575b816115a4575b506040519015158152f35b681b1ae4d6e2ef500000915060070154101582611599565b600a81015442109150611593565b5060ff60088201541690600482101561066f579060011461158a565b346101195760003660031901126101195780681b1ae4d6e2ef50000060209252f35b600435906001600160a01b038216820361011957565b60025481101561115c5760026000527f405787fa12a823e0f2b7631cc41b3ba8828b3321ca811111fa75cd3aa3bb5ace0190600090565b6101e081019081106001600160401b0382111761065957604052565b90601f801991011681019081106001600160401b0382111761065957604052565b81601f82011215610119578035906001600160401b03821161065957604051926116c6601f8401601f191660200185611671565b8284526020838301011161011957816000926020809301838601378301015290565b919082519283825260005b848110611714575050826000602080949584010152601f8019910116010190565b6020818301810151848301820152016116f3565b90600482101561066f5752565b90600182811c92168015611765575b602083101461174f57565b634e487b7160e01b600052602260045260246000fd5b91607f1691611744565b906040519182600082549261178384611735565b9081845260019485811690816000146117f257506001146117af575b50506117ad92500383611671565b565b9093915060005260209081600020936000915b8183106117da5750506117ad9350820101388061179f565b855488840185015294850194879450918301916117c2565b9150506117ad94506020925060ff191682840152151560051b820101388061179f565b6001600160401b0381116106595760051b60200190565b1561183357565b60405162461bcd60e51b81526020600482015260096024820152682737ba1030b236b4b760b91b6044820152606490fd5b81811061186f575050565b60008155600101611864565b1561188257565b60405162461bcd60e51b815260206004820152600e60248201526d139bdd08185d5d1a1bdc9a5e995960921b6044820152606490fd5b156118bf57565b60405162461bcd60e51b815260206004820152601260248201527153746174696f6e206e6f742061637469766560701b6044820152606490fdfea2646970667358221220ea00dd32a8fd8ec43598d796bf8d64f3f880b6a24af4ea3e2bf317260625ce5e64736f6c63430008130033","opcodes":"PUSH1 0x80 CALLVALUE PUSH2 0x8B JUMPI PUSH1 0x60 DUP2 ADD PUSH1 0x1 PUSH1 0x1 PUSH1 0x40 SHL SUB DUP2 GT DUP3 DUP3 LT OR PUSH2 0x75 JUMPI PUSH1 0x40 MSTORE PUSH1 0xF DUP2 MSTORE PUSH1 0x20 SWAP1 PUSH1 0x32 DUP3 DUP3 ADD MSTORE PUSH1 0x64 PUSH1 0x40 DUP3 ADD MSTORE PUSH1 0x0 JUMPDEST PUSH1 0x3 DUP2 LT PUSH2 0x5F JUMPI PUSH1 0x3 DUP1 SLOAD PUSH1 0x1 PUSH1 0x1 PUSH1 0xA0 SHL SUB NOT AND CALLER OR SWAP1 SSTORE PUSH1 0x40 MLOAD PUSH2 0x192F SWAP1 DUP2 PUSH2 0x91 DUP3 CODECOPY RETURN JUMPDEST DUP2 MLOAD PUSH1 0xFF AND PUSH1 0x5 DUP3 ADD SSTORE SWAP1 DUP3 ADD SWAP1 PUSH1 0x1 ADD PUSH2 0x36 JUMP JUMPDEST PUSH4 0x4E487B71 PUSH1 0xE0 SHL PUSH1 0x0 MSTORE PUSH1 0x41 PUSH1 0x4 MSTORE PUSH1 0x24 PUSH1 0x0 REVERT JUMPDEST PUSH1 0x0 DUP1 REVERT INVALID PUSH1 0x80 DUP1 PUSH1 0x40 MSTORE PUSH1 0x4 CALLDATASIZE LT ISZERO PUSH2 0x13 JUMPI PUSH1 0x0 DUP1 REVERT JUMPDEST PUSH1 0x0 CALLDATALOAD PUSH1 0xE0 SHR SWAP1 DUP2 PUSH4 0x8DBBB03 EQ PUSH2 0x15E6 JUMPI POP DUP1 PUSH4 0xF40786F EQ PUSH2 0x154A JUMPI DUP1 PUSH4 0x31C5D521 EQ PUSH2 0x150B JUMPI DUP1 PUSH4 0x3544C743 EQ PUSH2 0x14DF JUMPI DUP1 PUSH4 0x4A7805C3 EQ PUSH2 0x14B6 JUMPI DUP1 PUSH4 0x4DCF743B EQ PUSH2 0x1498 JUMPI DUP1 PUSH4 0x53CC2914 EQ PUSH2 0x1387 JUMPI DUP1 PUSH4 0x56321191 EQ PUSH2 0x1345 JUMPI DUP1 PUSH4 0x64B4F751 EQ PUSH2 0x1321 JUMPI DUP1 PUSH4 0x6C949333 EQ PUSH2 0x11D8 JUMPI DUP1 PUSH4 0x9BAC7669 EQ PUSH2 0x1187 JUMPI DUP1 PUSH4 0xA2B61E27 EQ PUSH2 0xF76 JUMPI DUP1 PUSH4 0xA3AE38DF EQ PUSH2 0xF5A JUMPI DUP1 PUSH4 0xADEE2C62 EQ PUSH2 0xC4C JUMPI DUP1 PUSH4 0xC7FB4F12 EQ PUSH2 0xB29 JUMPI DUP1 PUSH4 0xD0B0799E EQ PUSH2 0x21F JUMPI DUP1 PUSH4 0xD2C8983E EQ PUSH2 0x1FB JUMPI DUP1 PUSH4 0xF5743C4C EQ PUSH2 0x11E JUMPI PUSH4 0xF851A440 EQ PUSH2 0xF0 JUMPI PUSH1 0x0 DUP1 REVERT JUMPDEST CALLVALUE PUSH2 0x119 JUMPI PUSH1 0x0 CALLDATASIZE PUSH1 0x3 NOT ADD SLT PUSH2 0x119 JUMPI PUSH1 0x3 SLOAD PUSH1 0x40 MLOAD PUSH1 0x1 PUSH1 0x1 PUSH1 0xA0 SHL SUB SWAP1 SWAP2 AND DUP2 MSTORE PUSH1 0x20 SWAP1 RETURN JUMPDEST PUSH1 0x0 DUP1 REVERT JUMPDEST CALLVALUE PUSH2 0x119 JUMPI PUSH1 0x20 CALLDATASIZE PUSH1 0x3 NOT ADD SLT PUSH2 0x119 JUMPI PUSH2 0x137 PUSH2 0x1608 JUMP JUMPDEST PUSH1 0x3 SLOAD PUSH1 0x1 PUSH1 0x1 PUSH1 0xA0 SHL SUB SWAP2 SWAP1 DUP3 AND CALLER EQ DUP1 ISZERO PUSH2 0x1EE JUMPI JUMPDEST PUSH2 0x158 SWAP1 PUSH2 0x187B JUMP JUMPDEST AND DUP1 PUSH1 0x0 MSTORE PUSH1 0x0 PUSH1 0x20 MSTORE PUSH2 0x179 PUSH1 0xFF PUSH1 0xC PUSH1 0x40 PUSH1 0x0 KECCAK256 ADD SLOAD PUSH1 0x8 SHR AND PUSH2 0x18B8 JUMP JUMPDEST DUP1 PUSH1 0x0 MSTORE PUSH1 0x0 PUSH1 0x20 MSTORE PUSH1 0xB PUSH1 0x40 PUSH1 0x0 KECCAK256 ADD DUP1 SLOAD PUSH1 0x0 NOT DUP2 EQ PUSH2 0x1D8 JUMPI PUSH1 0x1 ADD SWAP1 SSTORE DUP1 PUSH1 0x0 MSTORE PUSH1 0x0 PUSH1 0x20 MSTORE PUSH32 0x9409C68DABA73FF1461A219CC954A35E50C332AD0AADDC7C7E787647D4C2E81 PUSH1 0x20 PUSH1 0xB PUSH1 0x40 PUSH1 0x0 KECCAK256 ADD SLOAD PUSH1 0x40 MLOAD SWAP1 DUP2 MSTORE LOG2 STOP JUMPDEST PUSH4 0x4E487B71 PUSH1 0xE0 SHL PUSH1 0x0 MSTORE PUSH1 0x11 PUSH1 0x4 MSTORE PUSH1 0x24 PUSH1 0x0 REVERT JUMPDEST POP PUSH1 0x4 SLOAD DUP3 AND CALLER EQ PUSH2 0x14F JUMP JUMPDEST CALLVALUE PUSH2 0x119 JUMPI PUSH1 0x0 CALLDATASIZE PUSH1 0x3 NOT ADD SLT PUSH2 0x119 JUMPI PUSH1 0x20 PUSH1 0x40 MLOAD PUSH9 0x2B5E3AF16B1880000 DUP2 MSTORE RETURN JUMPDEST PUSH2 0x100 CALLDATASIZE PUSH1 0x3 NOT ADD SLT PUSH2 0x119 JUMPI PUSH1 0x4 CALLDATALOAD PUSH1 0x1 PUSH1 0x1 PUSH1 0x40 SHL SUB DUP2 GT PUSH2 0x119 JUMPI PUSH2 0x24B SWAP1 CALLDATASIZE SWAP1 PUSH1 0x4 ADD PUSH2 0x1692 JUMP JUMPDEST PUSH1 0x24 CALLDATALOAD PUSH1 0x1 PUSH1 0x1 PUSH1 0x40 SHL SUB DUP2 GT PUSH2 0x119 JUMPI PUSH2 0x26A SWAP1 CALLDATASIZE SWAP1 PUSH1 0x4 ADD PUSH2 0x1692 JUMP JUMPDEST SWAP1 PUSH1 0x84 CALLDATALOAD PUSH1 0x1 PUSH1 0x1 PUSH1 0x40 SHL SUB DUP2 GT PUSH2 0x119 JUMPI PUSH2 0x28A SWAP1 CALLDATASIZE SWAP1 PUSH1 0x4 ADD PUSH2 0x1692 JUMP JUMPDEST PUSH1 0x1 PUSH1 0x1 PUSH1 0x40 SHL SUB PUSH1 0xA4 CALLDATALOAD GT PUSH2 0x119 JUMPI CALLDATASIZE PUSH1 0x23 PUSH1 0xA4 CALLDATALOAD ADD SLT ISZERO PUSH2 0x119 JUMPI PUSH1 0xA4 CALLDATALOAD PUSH1 0x4 ADD CALLDATALOAD PUSH2 0x2B7 DUP2 PUSH2 0x1815 JUMP JUMPDEST SWAP1 PUSH2 0x2C5 PUSH1 0x40 MLOAD SWAP3 DUP4 PUSH2 0x1671 JUMP JUMPDEST DUP1 DUP3 MSTORE PUSH1 0x20 DUP3 ADD SWAP1 CALLDATASIZE PUSH1 0x24 DUP3 PUSH1 0x5 SHL PUSH1 0xA4 CALLDATALOAD ADD ADD GT PUSH2 0x119 JUMPI PUSH1 0x24 PUSH1 0xA4 CALLDATALOAD ADD SWAP2 JUMPDEST PUSH1 0x24 DUP3 PUSH1 0x5 SHL PUSH1 0xA4 CALLDATALOAD ADD ADD DUP4 LT PUSH2 0xAF6 JUMPI POP POP POP CALLER PUSH1 0x0 MSTORE PUSH1 0x0 PUSH1 0x20 MSTORE PUSH1 0x1 DUP1 PUSH1 0xA0 SHL SUB PUSH1 0x40 PUSH1 0x0 KECCAK256 SLOAD AND PUSH2 0xABC JUMPI PUSH9 0x2086AC351052600000 CALLVALUE LT PUSH2 0xA77 JUMPI TIMESTAMP PUSH1 0xE4 CALLDATALOAD GT ISZERO PUSH2 0xA33 JUMPI PUSH1 0x40 MLOAD SWAP2 PUSH2 0x33C DUP4 PUSH2 0x1655 JUMP JUMPDEST CALLER DUP4 MSTORE DUP4 PUSH1 0x20 DUP5 ADD MSTORE DUP5 PUSH1 0x40 DUP5 ADD MSTORE PUSH1 0x44 CALLDATALOAD PUSH1 0x60 DUP5 ADD MSTORE PUSH1 0x64 CALLDATALOAD PUSH1 0x80 DUP5 ADD MSTORE PUSH1 0xA0 DUP4 ADD MSTORE PUSH1 0xC0 DUP3 ADD MSTORE PUSH9 0x1B1AE4D6E2EF500000 PUSH1 0xE0 DUP3 ADD MSTORE PUSH1 0x0 PUSH2 0x100 DUP3 ADD MSTORE PUSH1 0xC4 CALLDATALOAD PUSH2 0x120 DUP3 ADD MSTORE PUSH1 0xE4 CALLDATALOAD PUSH2 0x140 DUP3 ADD MSTORE PUSH1 0x0 PUSH2 0x160 DUP3 ADD MSTORE PUSH1 0x0 PUSH2 0x180 DUP3 ADD MSTORE PUSH1 0x0 PUSH2 0x1A0 DUP3 ADD MSTORE PUSH1 0x0 PUSH2 0x1C0 DUP3 ADD MSTORE CALLER PUSH1 0x0 MSTORE PUSH1 0x0 PUSH1 0x20 MSTORE PUSH1 0x40 PUSH1 0x0 KECCAK256 SWAP1 PUSH1 0x1 DUP1 PUSH1 0xA0 SHL SUB DUP2 MLOAD AND PUSH12 0xFFFFFFFFFFFFFFFFFFFFFFFF PUSH1 0xA0 SHL DUP4 SLOAD AND OR DUP3 SSTORE PUSH1 0x20 DUP2 ADD MLOAD DUP1 MLOAD SWAP1 PUSH1 0x1 PUSH1 0x1 PUSH1 0x40 SHL SUB DUP3 GT PUSH2 0x659 JUMPI DUP2 SWAP1 PUSH2 0x402 PUSH1 0x1 DUP7 ADD SLOAD PUSH2 0x1735 JUMP JUMPDEST PUSH1 0x1F DUP2 GT PUSH2 0x9FE JUMPI JUMPDEST POP PUSH1 0x20 SWAP1 PUSH1 0x1F DUP4 GT PUSH1 0x1 EQ PUSH2 0x98C JUMPI PUSH1 0x0 SWAP3 PUSH2 0x981 JUMPI JUMPDEST POP POP DUP2 PUSH1 0x1 SHL SWAP2 PUSH1 0x0 NOT SWAP1 PUSH1 0x3 SHL SHR NOT AND OR PUSH1 0x1 DUP4 ADD SSTORE JUMPDEST PUSH1 0x40 DUP2 ADD MLOAD DUP1 MLOAD SWAP1 PUSH1 0x1 PUSH1 0x1 PUSH1 0x40 SHL SUB DUP3 GT PUSH2 0x659 JUMPI DUP2 SWAP1 PUSH2 0x45F PUSH1 0x2 DUP7 ADD SLOAD PUSH2 0x1735 JUMP JUMPDEST PUSH1 0x1F DUP2 GT PUSH2 0x94C JUMPI JUMPDEST POP PUSH1 0x20 SWAP1 PUSH1 0x1F DUP4 GT PUSH1 0x1 EQ PUSH2 0x8DA JUMPI PUSH1 0x0 SWAP3 PUSH2 0x8CF JUMPI JUMPDEST POP POP DUP2 PUSH1 0x1 SHL SWAP2 PUSH1 0x0 NOT SWAP1 PUSH1 0x3 SHL SHR NOT AND OR PUSH1 0x2 DUP4 ADD SSTORE JUMPDEST PUSH1 0x60 DUP2 ADD MLOAD PUSH1 0x3 DUP4 ADD SSTORE PUSH1 0x80 DUP2 ADD MLOAD PUSH1 0x4 DUP4 ADD SSTORE PUSH1 0xA0 DUP2 ADD MLOAD DUP1 MLOAD SWAP1 PUSH1 0x1 PUSH1 0x1 PUSH1 0x40 SHL SUB DUP3 GT PUSH2 0x659 JUMPI DUP2 SWAP1 PUSH2 0x4D0 PUSH1 0x5 DUP7 ADD SLOAD PUSH2 0x1735 JUMP JUMPDEST PUSH1 0x1F DUP2 GT PUSH2 0x89A JUMPI JUMPDEST POP PUSH1 0x20 SWAP1 PUSH1 0x1F DUP4 GT PUSH1 0x1 EQ PUSH2 0x828 JUMPI PUSH1 0x0 SWAP3 PUSH2 0x81D JUMPI JUMPDEST POP POP DUP2 PUSH1 0x1 SHL SWAP2 PUSH1 0x0 NOT SWAP1 PUSH1 0x3 SHL SHR NOT AND OR PUSH1 0x5 DUP4 ADD SSTORE JUMPDEST PUSH1 0xC0 DUP2 ADD MLOAD DUP1 MLOAD SWAP1 PUSH1 0x1 PUSH1 0x40 SHL DUP3 GT PUSH2 0x659 JUMPI PUSH1 0x6 DUP5 ADD SLOAD DUP3 PUSH1 0x6 DUP7 ADD SSTORE DUP1 DUP4 LT PUSH2 0x7A5 JUMPI JUMPDEST POP PUSH1 0x20 ADD SWAP1 PUSH1 0x6 DUP5 ADD PUSH1 0x0 MSTORE PUSH1 0x20 PUSH1 0x0 KECCAK256 SWAP2 PUSH1 0x0 SWAP1 JUMPDEST DUP3 DUP3 LT PUSH2 0x685 JUMPI POP POP POP POP PUSH1 0xE0 DUP2 ADD MLOAD PUSH1 0x7 DUP4 ADD SSTORE PUSH2 0x100 DUP2 ADD MLOAD PUSH1 0x8 DUP4 ADD SWAP2 PUSH1 0x4 DUP3 LT ISZERO PUSH2 0x66F JUMPI PUSH1 0xD SWAP3 PUSH2 0x1C0 SWAP3 PUSH1 0xFF DUP1 NOT DUP4 SLOAD AND SWAP2 AND OR SWAP1 SSTORE PUSH2 0x120 DUP2 ADD MLOAD PUSH1 0x9 DUP6 ADD SSTORE PUSH2 0x140 DUP2 ADD MLOAD PUSH1 0xA DUP6 ADD SSTORE PUSH2 0x160 DUP2 ADD MLOAD PUSH1 0xB DUP6 ADD SSTORE PUSH1 0xC DUP5 ADD PUSH1 0xFF PUSH2 0x180 DUP4 ADD MLOAD AND DUP2 SLOAD SWAP1 PUSH2 0xFF00 PUSH2 0x1A0 DUP6 ADD MLOAD ISZERO ISZERO PUSH1 0x8 SHL AND SWAP2 PUSH2 0xFFFF NOT AND OR OR SWAP1 SSTORE ADD MLOAD SWAP2 ADD SSTORE PUSH1 0x2 SLOAD PUSH1 0x1 PUSH1 0x40 SHL DUP2 LT ISZERO PUSH2 0x659 JUMPI PUSH32 0xF17D6D645C568AD996F160A52382CD5084B649035C3CA5525739E15F3572625E SWAP2 PUSH2 0x613 DUP3 PUSH1 0x1 PUSH2 0x645 SWAP5 ADD PUSH1 0x2 SSTORE PUSH2 0x161E JUMP JUMPDEST DUP2 SLOAD PUSH1 0x1 PUSH1 0x1 PUSH1 0xA0 SHL SUB PUSH1 0x3 SWAP3 SWAP1 SWAP3 SHL SWAP2 DUP3 SHL NOT AND CALLER SWAP1 SWAP2 SHL OR SWAP1 SSTORE PUSH1 0x40 DUP1 MLOAD DUP2 DUP2 MSTORE SWAP3 DUP4 SWAP3 PUSH2 0x654 SWAP3 DUP5 ADD SWAP1 PUSH2 0x16E8 JUMP JUMPDEST DUP3 DUP2 SUB PUSH1 0x20 DUP5 ADD MSTORE CALLER SWAP6 PUSH2 0x16E8 JUMP JUMPDEST SUB SWAP1 LOG2 STOP JUMPDEST PUSH4 0x4E487B71 PUSH1 0xE0 SHL PUSH1 0x0 MSTORE PUSH1 0x41 PUSH1 0x4 MSTORE PUSH1 0x24 PUSH1 0x0 REVERT JUMPDEST PUSH4 0x4E487B71 PUSH1 0xE0 SHL PUSH1 0x0 MSTORE PUSH1 0x21 PUSH1 0x4 MSTORE PUSH1 0x24 PUSH1 0x0 REVERT JUMPDEST DUP1 MLOAD DUP1 MLOAD SWAP1 PUSH1 0x1 PUSH1 0x1 PUSH1 0x40 SHL SUB DUP3 GT PUSH2 0x659 JUMPI PUSH2 0x6A2 DUP7 SLOAD PUSH2 0x1735 JUMP JUMPDEST PUSH1 0x1F DUP2 GT PUSH2 0x768 JUMPI JUMPDEST POP PUSH1 0x20 SWAP1 PUSH1 0x1F DUP4 GT PUSH1 0x1 EQ PUSH2 0x6F8 JUMPI SWAP3 DUP3 PUSH1 0x1 SWAP5 SWAP4 PUSH1 0x20 SWAP4 DUP7 SWAP6 PUSH1 0x0 SWAP3 PUSH2 0x6ED JUMPI JUMPDEST POP POP PUSH1 0x0 NOT PUSH1 0x3 DUP4 SWAP1 SHL SHR NOT AND SWAP1 DUP5 SHL OR DUP8 SSTORE JUMPDEST ADD SWAP5 ADD SWAP2 ADD SWAP1 SWAP3 PUSH2 0x544 JUMP JUMPDEST ADD MLOAD SWAP1 POP DUP14 DUP1 PUSH2 0x6CD JUMP JUMPDEST SWAP1 DUP7 PUSH1 0x0 MSTORE PUSH1 0x20 PUSH1 0x0 KECCAK256 SWAP2 PUSH1 0x0 JUMPDEST PUSH1 0x1F NOT DUP6 AND DUP2 LT PUSH2 0x750 JUMPI POP DUP4 PUSH1 0x20 SWAP4 PUSH1 0x1 SWAP7 SWAP4 DUP8 SWAP7 SWAP4 DUP8 SWAP5 PUSH1 0x1F NOT DUP2 AND LT PUSH2 0x737 JUMPI JUMPDEST POP POP POP DUP2 SHL ADD DUP8 SSTORE PUSH2 0x6E1 JUMP JUMPDEST ADD MLOAD PUSH1 0x0 NOT PUSH1 0xF8 DUP5 PUSH1 0x3 SHL AND SHR NOT AND SWAP1 SSTORE DUP14 DUP1 DUP1 PUSH2 0x72A JUMP JUMPDEST SWAP2 SWAP3 PUSH1 0x20 PUSH1 0x1 DUP2 SWAP3 DUP7 DUP6 ADD MLOAD DUP2 SSTORE ADD SWAP5 ADD SWAP3 ADD PUSH2 0x706 JUMP JUMPDEST PUSH2 0x795 SWAP1 DUP8 PUSH1 0x0 MSTORE PUSH1 0x20 PUSH1 0x0 KECCAK256 PUSH1 0x1F DUP6 ADD PUSH1 0x5 SHR DUP2 ADD SWAP2 PUSH1 0x20 DUP7 LT PUSH2 0x79B JUMPI JUMPDEST PUSH1 0x1F ADD PUSH1 0x5 SHR ADD SWAP1 PUSH2 0x1864 JUMP JUMPDEST DUP11 PUSH2 0x6AB JUMP JUMPDEST SWAP1 SWAP2 POP DUP2 SWAP1 PUSH2 0x788 JUMP JUMPDEST PUSH1 0x6 DUP6 ADD PUSH1 0x0 MSTORE PUSH1 0x20 PUSH1 0x0 KECCAK256 SWAP1 DUP4 DUP3 ADD JUMPDEST DUP2 DUP4 ADD DUP2 LT PUSH2 0x7C6 JUMPI POP POP PUSH2 0x52E JUMP JUMPDEST DUP1 PUSH2 0x7D3 PUSH1 0x1 SWAP3 SLOAD PUSH2 0x1735 JUMP JUMPDEST DUP1 PUSH2 0x7E0 JUMPI JUMPDEST POP ADD PUSH2 0x7B6 JUMP JUMPDEST PUSH1 0x1F DUP2 GT DUP4 EQ PUSH2 0x7F6 JUMPI POP PUSH1 0x0 DUP2 SSTORE JUMPDEST DUP11 PUSH2 0x7D9 JUMP JUMPDEST PUSH1 0x0 SWAP1 DUP3 DUP3 MSTORE PUSH2 0x814 PUSH1 0x1F PUSH1 0x20 DUP5 KECCAK256 SWAP3 ADD PUSH1 0x5 SHR DUP3 ADD DUP6 DUP4 ADD PUSH2 0x1864 JUMP JUMPDEST DUP2 DUP4 SSTORE SSTORE PUSH2 0x7F0 JUMP JUMPDEST ADD MLOAD SWAP1 POP DUP7 DUP1 PUSH2 0x4F0 JUMP JUMPDEST SWAP3 POP PUSH1 0x5 DUP6 ADD PUSH1 0x0 MSTORE PUSH1 0x20 PUSH1 0x0 KECCAK256 SWAP1 PUSH1 0x0 SWAP4 JUMPDEST PUSH1 0x1F NOT DUP5 AND DUP6 LT PUSH2 0x87F JUMPI PUSH1 0x1 SWAP5 POP DUP4 PUSH1 0x1F NOT DUP2 AND LT PUSH2 0x866 JUMPI JUMPDEST POP POP POP DUP2 SHL ADD PUSH1 0x5 DUP4 ADD SSTORE PUSH2 0x508 JUMP JUMPDEST ADD MLOAD PUSH1 0x0 NOT PUSH1 0xF8 DUP5 PUSH1 0x3 SHL AND SHR NOT AND SWAP1 SSTORE DUP7 DUP1 DUP1 PUSH2 0x856 JUMP JUMPDEST DUP2 DUP2 ADD MLOAD DUP4 SSTORE PUSH1 0x20 SWAP5 DUP6 ADD SWAP5 PUSH1 0x1 SWAP1 SWAP4 ADD SWAP3 SWAP1 SWAP2 ADD SWAP1 PUSH2 0x83B JUMP JUMPDEST PUSH2 0x8C9 SWAP1 PUSH1 0x5 DUP8 ADD PUSH1 0x0 MSTORE PUSH1 0x20 PUSH1 0x0 KECCAK256 PUSH1 0x1F DUP6 ADD PUSH1 0x5 SHR DUP2 ADD SWAP2 PUSH1 0x20 DUP7 LT PUSH2 0x79B JUMPI PUSH1 0x1F ADD PUSH1 0x5 SHR ADD SWAP1 PUSH2 0x1864 JUMP JUMPDEST DUP8 PUSH2 0x4D9 JUMP JUMPDEST ADD MLOAD SWAP1 POP DUP7 DUP1 PUSH2 0x47F JUMP JUMPDEST SWAP3 POP PUSH1 0x2 DUP6 ADD PUSH1 0x0 MSTORE PUSH1 0x20 PUSH1 0x0 KECCAK256 SWAP1 PUSH1 0x0 SWAP4 JUMPDEST PUSH1 0x1F NOT DUP5 AND DUP6 LT PUSH2 0x931 JUMPI PUSH1 0x1 SWAP5 POP DUP4 PUSH1 0x1F NOT DUP2 AND LT PUSH2 0x918 JUMPI JUMPDEST POP POP POP DUP2 SHL ADD PUSH1 0x2 DUP4 ADD SSTORE PUSH2 0x497 JUMP JUMPDEST ADD MLOAD PUSH1 0x0 NOT PUSH1 0xF8 DUP5 PUSH1 0x3 SHL AND SHR NOT AND SWAP1 SSTORE DUP7 DUP1 DUP1 PUSH2 0x908 JUMP JUMPDEST DUP2 DUP2 ADD MLOAD DUP4 SSTORE PUSH1 0x20 SWAP5 DUP6 ADD SWAP5 PUSH1 0x1 SWAP1 SWAP4 ADD SWAP3 SWAP1 SWAP2 ADD SWAP1 PUSH2 0x8ED JUMP JUMPDEST PUSH2 0x97B SWAP1 PUSH1 0x2 DUP8 ADD PUSH1 0x0 MSTORE PUSH1 0x20 PUSH1 0x0 KECCAK256 PUSH1 0x1F DUP6 ADD PUSH1 0x5 SHR DUP2 ADD SWAP2 PUSH1 0x20 DUP7 LT PUSH2 0x79B JUMPI PUSH1 0x1F ADD PUSH1 0x5 SHR ADD SWAP1 PUSH2 0x1864 JUMP JUMPDEST DUP8 PUSH2 0x468 JUMP JUMPDEST ADD MLOAD SWAP1 POP DUP7 DUP1 PUSH2 0x422 JUMP JUMPDEST SWAP3 POP PUSH1 0x1 DUP6 ADD PUSH1 0x0 MSTORE PUSH1 0x20 PUSH1 0x0 KECCAK256 SWAP1 PUSH1 0x0 SWAP4 JUMPDEST PUSH1 0x1F NOT DUP5 AND DUP6 LT PUSH2 0x9E3 JUMPI PUSH1 0x1 SWAP5 POP DUP4 PUSH1 0x1F NOT DUP2 AND LT PUSH2 0x9CA JUMPI JUMPDEST POP POP POP DUP2 SHL ADD PUSH1 0x1 DUP4 ADD SSTORE PUSH2 0x43A JUMP JUMPDEST ADD MLOAD PUSH1 0x0 NOT PUSH1 0xF8 DUP5 PUSH1 0x3 SHL AND SHR NOT AND SWAP1 SSTORE DUP7 DUP1 DUP1 PUSH2 0x9BA JUMP JUMPDEST DUP2 DUP2 ADD MLOAD DUP4 SSTORE PUSH1 0x20 SWAP5 DUP6 ADD SWAP5 PUSH1 0x1 SWAP1 SWAP4 ADD SWAP3 SWAP1 SWAP2 ADD SWAP1 PUSH2 0x99F JUMP JUMPDEST PUSH2 0xA2D SWAP1 PUSH1 0x1 DUP8 ADD PUSH1 0x0 MSTORE PUSH1 0x20 PUSH1 0x0 KECCAK256 PUSH1 0x1F DUP6 ADD PUSH1 0x5 SHR DUP2 ADD SWAP2 PUSH1 0x20 DUP7 LT PUSH2 0x79B JUMPI PUSH1 0x1F ADD PUSH1 0x5 SHR ADD SWAP1 PUSH2 0x1864 JUMP JUMPDEST DUP8 PUSH2 0x40B JUMP JUMPDEST PUSH1 0x64 PUSH1 0x40 MLOAD PUSH3 0x461BCD PUSH1 0xE5 SHL DUP2 MSTORE PUSH1 0x20 PUSH1 0x4 DUP3 ADD MSTORE PUSH1 0x20 PUSH1 0x24 DUP3 ADD MSTORE PUSH32 0x43616C6962726174696F6E206365727420616C72656164792065787069726564 PUSH1 0x44 DUP3 ADD MSTORE REVERT JUMPDEST PUSH1 0x40 MLOAD PUSH3 0x461BCD PUSH1 0xE5 SHL DUP2 MSTORE PUSH1 0x20 PUSH1 0x4 DUP3 ADD MSTORE PUSH1 0x18 PUSH1 0x24 DUP3 ADD MSTORE PUSH32 0x496E73756666696369656E74207374616B65202B206665650000000000000000 PUSH1 0x44 DUP3 ADD MSTORE PUSH1 0x64 SWAP1 REVERT JUMPDEST PUSH1 0x40 MLOAD PUSH3 0x461BCD PUSH1 0xE5 SHL DUP2 MSTORE PUSH1 0x20 PUSH1 0x4 DUP3 ADD MSTORE PUSH1 0x12 PUSH1 0x24 DUP3 ADD MSTORE PUSH18 0x105B1C9958591E481C9959DA5CDD195C9959 PUSH1 0x72 SHL PUSH1 0x44 DUP3 ADD MSTORE PUSH1 0x64 SWAP1 REVERT JUMPDEST PUSH1 0x1 PUSH1 0x1 PUSH1 0x40 SHL SUB DUP4 CALLDATALOAD GT PUSH2 0x119 JUMPI PUSH1 0x20 DUP1 PUSH1 0x24 SWAP3 PUSH2 0xB1C CALLDATASIZE DUP6 DUP9 CALLDATALOAD PUSH1 0xA4 CALLDATALOAD ADD ADD PUSH2 0x1692 JUMP JUMPDEST DUP2 MSTORE ADD SWAP4 ADD SWAP3 SWAP1 POP PUSH2 0x2E6 JUMP JUMPDEST CALLVALUE PUSH2 0x119 JUMPI PUSH1 0x20 CALLDATASIZE PUSH1 0x3 NOT ADD SLT PUSH2 0x119 JUMPI PUSH1 0x1 PUSH1 0x1 PUSH1 0xA0 SHL SUB DUP1 PUSH2 0xB4B PUSH2 0x1608 JUMP JUMPDEST AND PUSH1 0x0 MSTORE PUSH1 0x0 PUSH1 0x20 MSTORE PUSH1 0x40 PUSH1 0x0 KECCAK256 SWAP1 DUP2 SLOAD AND PUSH1 0x1 DUP3 ADD PUSH2 0xB6A SWAP1 PUSH2 0x176F JUMP JUMPDEST SWAP2 PUSH2 0xB77 PUSH1 0x2 DUP3 ADD PUSH2 0x176F JUMP JUMPDEST PUSH1 0x3 DUP3 ADD SLOAD SWAP2 PUSH1 0x4 DUP2 ADD SLOAD PUSH1 0x5 DUP3 ADD PUSH2 0xB8F SWAP1 PUSH2 0x176F JUMP JUMPDEST SWAP4 PUSH1 0x7 DUP4 ADD SLOAD SWAP5 PUSH1 0x8 DUP5 ADD SLOAD PUSH1 0xFF AND PUSH1 0x9 DUP6 ADD SLOAD SWAP2 PUSH1 0xA DUP7 ADD SLOAD SWAP4 PUSH1 0xB DUP8 ADD SLOAD SWAP6 PUSH1 0xC DUP9 ADD SLOAD SWAP8 PUSH1 0xD ADD SLOAD SWAP9 PUSH1 0x40 MLOAD SWAP13 DUP14 SWAP13 DUP14 MSTORE DUP13 PUSH2 0x1C0 PUSH1 0x20 DUP2 SWAP3 ADD MSTORE DUP14 ADD PUSH2 0xBD8 SWAP2 PUSH2 0x16E8 JUMP JUMPDEST DUP13 DUP2 SUB PUSH1 0x40 DUP15 ADD MSTORE PUSH2 0xBE9 SWAP2 PUSH2 0x16E8 JUMP JUMPDEST SWAP2 PUSH1 0x60 DUP13 ADD MSTORE PUSH1 0x80 DUP12 ADD MSTORE DUP10 DUP2 SUB PUSH1 0xA0 DUP12 ADD MSTORE PUSH2 0xC05 SWAP2 PUSH2 0x16E8 JUMP JUMPDEST SWAP7 PUSH1 0xC0 DUP10 ADD MSTORE PUSH1 0xE0 DUP9 ADD PUSH2 0xC18 SWAP2 PUSH2 0x1728 JUMP JUMPDEST PUSH2 0x100 DUP8 ADD MSTORE PUSH2 0x120 DUP7 ADD MSTORE PUSH2 0x140 DUP6 ADD MSTORE PUSH1 0xFF DUP2 AND PUSH2 0x160 DUP6 ADD MSTORE PUSH1 0x8 SHR PUSH1 0xFF AND ISZERO ISZERO PUSH2 0x180 DUP5 ADD MSTORE PUSH2 0x1A0 DUP4 ADD MSTORE SUB SWAP1 RETURN JUMPDEST CALLVALUE PUSH2 0x119 JUMPI PUSH1 0x20 CALLDATASIZE PUSH1 0x3 NOT ADD SLT PUSH2 0x119 JUMPI PUSH2 0xC65 PUSH2 0x1608 JUMP JUMPDEST PUSH1 0x0 PUSH2 0x1C0 PUSH1 0x40 MLOAD PUSH2 0xC76 DUP2 PUSH2 0x1655 JUMP JUMPDEST DUP3 DUP2 MSTORE PUSH1 0x60 PUSH1 0x20 DUP3 ADD MSTORE PUSH1 0x60 PUSH1 0x40 DUP3 ADD MSTORE DUP3 PUSH1 0x60 DUP3 ADD MSTORE DUP3 PUSH1 0x80 DUP3 ADD MSTORE PUSH1 0x60 PUSH1 0xA0 DUP3 ADD MSTORE PUSH1 0x60 PUSH1 0xC0 DUP3 ADD MSTORE DUP3 PUSH1 0xE0 DUP3 ADD MSTORE DUP3 PUSH2 0x100 DUP3 ADD MSTORE DUP3 PUSH2 0x120 DUP3 ADD MSTORE DUP3 PUSH2 0x140 DUP3 ADD MSTORE DUP3 PUSH2 0x160 DUP3 ADD MSTORE DUP3 PUSH2 0x180 DUP3 ADD MSTORE DUP3 PUSH2 0x1A0 DUP3 ADD MSTORE ADD MSTORE PUSH1 0x1 DUP1 PUSH1 0xA0 SHL SUB AND PUSH1 0x0 MSTORE PUSH1 0x0 PUSH1 0x20 MSTORE PUSH1 0x40 PUSH1 0x0 KECCAK256 PUSH1 0x40 MLOAD SWAP1 PUSH2 0xCF5 DUP3 PUSH2 0x1655 JUMP JUMPDEST DUP1 SLOAD PUSH1 0x1 PUSH1 0x1 PUSH1 0xA0 SHL SUB AND DUP3 MSTORE PUSH2 0xD0E PUSH1 0x1 DUP3 ADD PUSH2 0x176F JUMP JUMPDEST PUSH1 0x20 DUP4 ADD MSTORE PUSH2 0xD1F PUSH1 0x2 DUP3 ADD PUSH2 0x176F JUMP JUMPDEST PUSH1 0x40 DUP4 ADD MSTORE PUSH1 0x3 DUP2 ADD SLOAD PUSH1 0x60 DUP4 ADD MSTORE PUSH1 0x4 DUP2 ADD SLOAD PUSH1 0x80 DUP4 ADD MSTORE PUSH2 0xD44 PUSH1 0x5 DUP3 ADD PUSH2 0x176F JUMP JUMPDEST PUSH1 0xA0 DUP4 ADD MSTORE PUSH1 0x6 DUP2 ADD DUP1 SLOAD PUSH2 0xD58 DUP2 PUSH2 0x1815 JUMP JUMPDEST SWAP2 PUSH2 0xD66 PUSH1 0x40 MLOAD SWAP4 DUP5 PUSH2 0x1671 JUMP JUMPDEST DUP2 DUP4 MSTORE PUSH1 0x20 DUP4 ADD SWAP1 PUSH1 0x0 MSTORE PUSH1 0x20 PUSH1 0x0 KECCAK256 PUSH1 0x0 SWAP2 JUMPDEST DUP4 DUP4 LT PUSH2 0xF3D JUMPI POP POP POP POP PUSH1 0xC0 DUP4 ADD MSTORE PUSH1 0x7 DUP2 ADD SLOAD PUSH1 0xE0 DUP4 ADD MSTORE PUSH1 0xFF PUSH1 0x8 DUP3 ADD SLOAD AND SWAP1 PUSH1 0x4 DUP3 LT ISZERO PUSH2 0x66F JUMPI PUSH1 0xD SWAP2 PUSH2 0x100 DUP5 ADD MSTORE PUSH1 0x9 DUP2 ADD SLOAD PUSH2 0x120 DUP5 ADD MSTORE PUSH1 0xA DUP2 ADD SLOAD PUSH2 0x140 DUP5 ADD MSTORE PUSH1 0xB DUP2 ADD SLOAD PUSH2 0x160 DUP5 ADD MSTORE PUSH1 0xFF PUSH1 0xC DUP3 ADD SLOAD DUP2 DUP2 AND PUSH2 0x180 DUP7 ADD MSTORE PUSH1 0x8 SHR AND ISZERO ISZERO PUSH2 0x1A0 DUP5 ADD MSTORE ADD SLOAD PUSH2 0x1C0 DUP3 ADD MSTORE PUSH1 0x40 MLOAD PUSH1 0x20 DUP2 MSTORE PUSH1 0x1 DUP1 PUSH1 0xA0 SHL SUB DUP3 MLOAD AND PUSH1 0x20 DUP3 ADD MSTORE PUSH2 0xE6B PUSH2 0xE41 PUSH2 0xE2B PUSH1 0x20 DUP6 ADD MLOAD PUSH2 0x1E0 PUSH1 0x40 DUP7 ADD MSTORE PUSH2 0x200 DUP6 ADD SWAP1 PUSH2 0x16E8 JUMP JUMPDEST PUSH1 0x40 DUP6 ADD MLOAD DUP5 DUP3 SUB PUSH1 0x1F NOT ADD PUSH1 0x60 DUP7 ADD MSTORE PUSH2 0x16E8 JUMP JUMPDEST PUSH1 0x60 DUP5 ADD MLOAD PUSH1 0x80 DUP5 ADD MSTORE PUSH1 0x80 DUP5 ADD MLOAD PUSH1 0xA0 DUP5 ADD MSTORE PUSH1 0xA0 DUP5 ADD MLOAD PUSH1 0x1F NOT DUP5 DUP4 SUB ADD PUSH1 0xC0 DUP6 ADD MSTORE PUSH2 0x16E8 JUMP JUMPDEST PUSH1 0xC0 DUP4 ADD MLOAD SWAP1 PUSH1 0x1F NOT DUP4 DUP3 SUB ADD PUSH1 0xE0 DUP5 ADD MSTORE DUP2 MLOAD DUP1 DUP3 MSTORE PUSH1 0x20 DUP3 ADD SWAP2 PUSH1 0x20 DUP1 DUP4 PUSH1 0x5 SHL DUP4 ADD ADD SWAP5 ADD SWAP3 PUSH1 0x0 SWAP2 JUMPDEST DUP4 DUP4 LT PUSH2 0xF10 JUMPI DUP7 DUP1 DUP8 PUSH2 0x1C0 DUP12 PUSH1 0xE0 DUP2 ADD MLOAD PUSH2 0x100 DUP6 ADD MSTORE PUSH2 0xEC5 PUSH2 0x100 DUP3 ADD MLOAD PUSH2 0x120 DUP7 ADD SWAP1 PUSH2 0x1728 JUMP JUMPDEST PUSH2 0x120 DUP2 ADD MLOAD PUSH2 0x140 DUP6 ADD MSTORE PUSH2 0x140 DUP2 ADD MLOAD PUSH2 0x160 DUP6 ADD MSTORE PUSH2 0x160 DUP2 ADD MLOAD PUSH2 0x180 DUP6 ADD MSTORE PUSH1 0xFF PUSH2 0x180 DUP3 ADD MLOAD AND PUSH2 0x1A0 DUP6 ADD MSTORE PUSH2 0x1A0 DUP2 ADD MLOAD ISZERO ISZERO DUP3 DUP6 ADD MSTORE ADD MLOAD PUSH2 0x1E0 DUP4 ADD MSTORE SUB SWAP1 RETURN JUMPDEST SWAP1 SWAP2 SWAP3 SWAP4 SWAP5 PUSH1 0x20 DUP1 PUSH2 0xF2E PUSH1 0x1 SWAP4 PUSH1 0x1F NOT DUP7 DUP3 SUB ADD DUP8 MSTORE DUP10 MLOAD PUSH2 0x16E8 JUMP JUMPDEST SWAP8 ADD SWAP4 ADD SWAP4 ADD SWAP2 SWAP4 SWAP3 SWAP1 PUSH2 0xE98 JUMP JUMPDEST PUSH1 0x1 PUSH1 0x20 DUP2 SWAP3 PUSH2 0xF4C DUP6 PUSH2 0x176F JUMP JUMPDEST DUP2 MSTORE ADD SWAP3 ADD SWAP3 ADD SWAP2 SWAP1 PUSH2 0xD7A JUMP JUMPDEST CALLVALUE PUSH2 0x119 JUMPI PUSH1 0x0 CALLDATASIZE PUSH1 0x3 NOT ADD SLT PUSH2 0x119 JUMPI PUSH1 0x20 PUSH1 0x40 MLOAD PUSH1 0x3 DUP2 MSTORE RETURN JUMPDEST CALLVALUE PUSH2 0x119 JUMPI PUSH1 0x40 CALLDATASIZE PUSH1 0x3 NOT ADD SLT PUSH2 0x119 JUMPI PUSH2 0xF8F PUSH2 0x1608 JUMP JUMPDEST PUSH1 0x24 CALLDATALOAD PUSH1 0x1 PUSH1 0x1 PUSH1 0x40 SHL SUB DUP2 GT PUSH2 0x119 JUMPI PUSH2 0xFAE SWAP1 CALLDATASIZE SWAP1 PUSH1 0x4 ADD PUSH2 0x1692 JUMP JUMPDEST PUSH1 0x3 SLOAD SWAP1 SWAP2 PUSH1 0x1 PUSH1 0x1 PUSH1 0xA0 SHL SUB SWAP2 DUP3 AND CALLER EQ DUP1 ISZERO PUSH2 0x117A JUMPI JUMPDEST PUSH2 0xFD0 SWAP1 PUSH2 0x187B JUMP JUMPDEST AND SWAP1 DUP2 PUSH1 0x0 MSTORE PUSH1 0x20 PUSH1 0x0 DUP2 MSTORE PUSH1 0xFF SWAP1 PUSH2 0xFF5 DUP3 PUSH1 0xC PUSH1 0x40 PUSH1 0x0 KECCAK256 ADD SLOAD PUSH1 0x8 SHR AND PUSH2 0x18B8 JUMP JUMPDEST DUP4 PUSH1 0x0 MSTORE PUSH1 0x0 DUP2 MSTORE DUP2 PUSH1 0xC PUSH1 0x40 PUSH1 0x0 KECCAK256 ADD SLOAD AND PUSH1 0x3 DUP2 LT PUSH1 0x0 EQ PUSH2 0x1172 JUMPI JUMPDEST PUSH1 0x3 DUP2 LT ISZERO PUSH2 0x115C JUMPI PUSH1 0x5 ADD SLOAD DUP5 PUSH1 0x0 MSTORE PUSH1 0x0 DUP3 MSTORE PUSH1 0x7 PUSH1 0x40 PUSH1 0x0 KECCAK256 ADD SLOAD DUP2 DUP2 MUL SWAP2 DUP2 DUP4 DIV EQ SWAP1 ISZERO OR ISZERO PUSH2 0x1D8 JUMPI PUSH1 0x64 SWAP1 DIV SWAP3 DUP5 PUSH1 0x0 MSTORE PUSH1 0x0 DUP3 MSTORE PUSH1 0x7 PUSH1 0x40 PUSH1 0x0 KECCAK256 ADD DUP1 SLOAD SWAP1 DUP6 DUP3 SUB SWAP2 DUP3 GT PUSH2 0x1D8 JUMPI SSTORE DUP5 PUSH1 0x0 MSTORE PUSH1 0x0 DUP3 MSTORE PUSH1 0xC PUSH1 0x40 PUSH1 0x0 KECCAK256 ADD SWAP4 DUP5 SLOAD SWAP2 DUP5 DUP4 AND SWAP2 DUP6 DUP4 EQ PUSH2 0x1D8 JUMPI PUSH1 0x1 SWAP7 DUP9 SWAP5 PUSH32 0xC5C48409ED6074A457B11E80A417D6E3FD97C905F762B4244253C0D792339B99 SWAP5 DUP9 PUSH1 0xFF NOT SWAP11 DUP12 SWAP3 ADD AND SWAP2 AND OR SWAP1 SSTORE DUP4 PUSH1 0x0 MSTORE PUSH1 0x0 DUP6 MSTORE PUSH2 0x10ED DUP7 PUSH1 0xC PUSH1 0x40 PUSH1 0x0 KECCAK256 ADD SLOAD AND SWAP3 PUSH1 0x40 MLOAD SWAP4 DUP5 SWAP4 DUP5 MSTORE DUP8 DUP5 ADD MSTORE PUSH1 0x60 PUSH1 0x40 DUP5 ADD MSTORE PUSH1 0x60 DUP4 ADD SWAP1 PUSH2 0x16E8 JUMP JUMPDEST SUB SWAP1 LOG2 DUP4 PUSH1 0x0 MSTORE PUSH1 0x0 DUP2 MSTORE PUSH1 0x40 PUSH1 0x0 KECCAK256 SWAP2 PUSH1 0xC DUP4 ADD SWAP3 PUSH1 0x3 DUP5 SLOAD SWAP3 DUP4 AND LT ISZERO PUSH2 0x1112 JUMPI STOP JUMPDEST PUSH1 0x1 SWAP4 PUSH1 0x8 SWAP3 PUSH2 0xFF00 NOT AND SWAP1 SSTORE ADD PUSH1 0x3 DUP5 DUP3 SLOAD AND OR SWAP1 SSTORE MSTORE PUSH1 0x40 PUSH1 0x0 KECCAK256 SWAP1 DUP2 SLOAD AND SWAP1 SSTORE PUSH32 0xDD8D55F4772EE589698659454A1827F3C02B6DBDB4AD9A9DF9FF6A3246E61B20 PUSH1 0x0 DUP1 LOG2 STOP JUMPDEST PUSH4 0x4E487B71 PUSH1 0xE0 SHL PUSH1 0x0 MSTORE PUSH1 0x32 PUSH1 0x4 MSTORE PUSH1 0x24 PUSH1 0x0 REVERT JUMPDEST POP PUSH1 0x2 PUSH2 0x1014 JUMP JUMPDEST POP PUSH1 0x4 SLOAD DUP3 AND CALLER EQ PUSH2 0xFC7 JUMP JUMPDEST CALLVALUE PUSH2 0x119 JUMPI PUSH1 0x20 CALLDATASIZE PUSH1 0x3 NOT ADD SLT PUSH2 0x119 JUMPI PUSH2 0x11A0 PUSH2 0x1608 JUMP JUMPDEST PUSH1 0x3 SLOAD PUSH1 0x1 PUSH1 0x1 PUSH1 0xA0 SHL SUB SWAP2 SWAP1 PUSH2 0x11BA SWAP1 DUP4 AND CALLER EQ PUSH2 0x182C JUMP JUMPDEST AND PUSH12 0xFFFFFFFFFFFFFFFFFFFFFFFF PUSH1 0xA0 SHL PUSH1 0x4 SLOAD AND OR PUSH1 0x4 SSTORE PUSH1 0x0 DUP1 RETURN JUMPDEST CALLVALUE PUSH2 0x119 JUMPI PUSH1 0x20 DUP1 PUSH1 0x3 NOT CALLDATASIZE ADD SLT PUSH2 0x119 JUMPI PUSH2 0x11F2 PUSH2 0x1608 JUMP JUMPDEST PUSH1 0x3 SLOAD PUSH1 0x1 PUSH1 0x1 PUSH1 0xA0 SHL SUB SWAP3 SWAP2 DUP4 SWAP2 PUSH2 0x120E SWAP1 DUP4 AND CALLER EQ PUSH2 0x182C JUMP JUMPDEST AND SWAP2 DUP3 PUSH1 0x0 MSTORE PUSH1 0x0 DUP3 MSTORE PUSH1 0x40 PUSH1 0x0 KECCAK256 SLOAD AND ISZERO PUSH2 0x12E4 JUMPI DUP2 PUSH1 0x0 MSTORE PUSH1 0x0 DUP2 MSTORE PUSH1 0xFF PUSH1 0xC PUSH1 0x40 PUSH1 0x0 KECCAK256 ADD SLOAD PUSH1 0x8 SHR AND PUSH2 0x12AD JUMPI DUP2 PUSH1 0x0 MSTORE PUSH1 0x0 DUP2 MSTORE PUSH1 0x1 PUSH1 0x40 PUSH1 0x0 KECCAK256 SWAP2 PUSH1 0xC DUP4 ADD PUSH2 0x100 PUSH2 0xFF00 NOT DUP3 SLOAD AND OR SWAP1 SSTORE PUSH1 0x8 DUP4 ADD SWAP3 PUSH1 0xFF NOT SWAP4 DUP4 DUP6 DUP3 SLOAD AND OR SWAP1 SSTORE PUSH1 0xD TIMESTAMP SWAP2 ADD SSTORE MSTORE PUSH1 0x1 PUSH1 0x40 PUSH1 0x0 KECCAK256 SWAP2 DUP3 SLOAD AND OR SWAP1 SSTORE PUSH32 0x44A69FD3E00537A5799AEAF1D809916D12F278E1406EAD28C91A1339CA9AD35E PUSH1 0x0 DUP1 LOG2 STOP JUMPDEST PUSH1 0x64 SWAP1 PUSH1 0x40 MLOAD SWAP1 PUSH3 0x461BCD PUSH1 0xE5 SHL DUP3 MSTORE PUSH1 0x4 DUP3 ADD MSTORE PUSH1 0x10 PUSH1 0x24 DUP3 ADD MSTORE PUSH16 0x105B1C9958591E48185C1C1C9BDD9959 PUSH1 0x82 SHL PUSH1 0x44 DUP3 ADD MSTORE REVERT JUMPDEST PUSH1 0x64 SWAP1 PUSH1 0x40 MLOAD SWAP1 PUSH3 0x461BCD PUSH1 0xE5 SHL DUP3 MSTORE PUSH1 0x4 DUP3 ADD MSTORE PUSH1 0x16 PUSH1 0x24 DUP3 ADD MSTORE PUSH22 0x14DD185D1A5BDB881B9BDD081C9959DA5CDD195C9959 PUSH1 0x52 SHL PUSH1 0x44 DUP3 ADD MSTORE REVERT JUMPDEST CALLVALUE PUSH2 0x119 JUMPI PUSH1 0x0 CALLDATASIZE PUSH1 0x3 NOT ADD SLT PUSH2 0x119 JUMPI PUSH1 0x20 PUSH1 0x40 MLOAD PUSH9 0x56BC75E2D63100000 DUP2 MSTORE RETURN JUMPDEST CALLVALUE PUSH2 0x119 JUMPI PUSH1 0x20 CALLDATASIZE PUSH1 0x3 NOT ADD SLT PUSH2 0x119 JUMPI PUSH1 0x4 CALLDATALOAD PUSH1 0x2 SLOAD DUP2 LT ISZERO PUSH2 0x119 JUMPI PUSH2 0x136E PUSH1 0x20 SWAP2 PUSH2 0x161E JUMP JUMPDEST SWAP1 SLOAD PUSH1 0x40 MLOAD PUSH1 0x3 SWAP3 SWAP1 SWAP3 SHL SHR PUSH1 0x1 PUSH1 0x1 PUSH1 0xA0 SHL SUB AND DUP2 MSTORE RETURN JUMPDEST PUSH1 0x40 CALLDATASIZE PUSH1 0x3 NOT ADD SLT PUSH2 0x119 JUMPI PUSH1 0x4 CALLDATALOAD PUSH1 0x24 CALLDATALOAD CALLER PUSH1 0x0 MSTORE PUSH1 0x0 PUSH1 0x20 MSTORE PUSH2 0x13B9 PUSH1 0xFF PUSH1 0xC PUSH1 0x40 PUSH1 0x0 KECCAK256 ADD SLOAD PUSH1 0x8 SHR AND PUSH2 0x18B8 JUMP JUMPDEST PUSH9 0x2B5E3AF16B1880000 CALLVALUE LT PUSH2 0x1453 JUMPI TIMESTAMP DUP2 GT ISZERO PUSH2 0x141D JUMPI CALLER PUSH1 0x0 MSTORE PUSH1 0x0 PUSH1 0x20 MSTORE DUP1 PUSH1 0xA PUSH1 0x40 PUSH1 0x0 KECCAK256 DUP5 PUSH1 0x9 DUP3 ADD SSTORE ADD SSTORE PUSH1 0x40 MLOAD SWAP2 DUP3 MSTORE PUSH1 0x20 DUP3 ADD MSTORE PUSH32 0xC875DD1EEF067AF60DD39CEA4726522ED0C29381AB1FDEEA9D1CBCC21330F11 PUSH1 0x40 CALLER SWAP3 LOG2 STOP JUMPDEST PUSH1 0x40 MLOAD PUSH3 0x461BCD PUSH1 0xE5 SHL DUP2 MSTORE PUSH1 0x20 PUSH1 0x4 DUP3 ADD MSTORE PUSH1 0xE PUSH1 0x24 DUP3 ADD MSTORE PUSH14 0x496E76616C696420657870697279 PUSH1 0x90 SHL PUSH1 0x44 DUP3 ADD MSTORE PUSH1 0x64 SWAP1 REVERT JUMPDEST PUSH1 0x40 MLOAD PUSH3 0x461BCD PUSH1 0xE5 SHL DUP2 MSTORE PUSH1 0x20 PUSH1 0x4 DUP3 ADD MSTORE PUSH1 0x18 PUSH1 0x24 DUP3 ADD MSTORE PUSH32 0x496E73756666696369656E742072656E6577616C206665650000000000000000 PUSH1 0x44 DUP3 ADD MSTORE PUSH1 0x64 SWAP1 REVERT JUMPDEST CALLVALUE PUSH2 0x119 JUMPI PUSH1 0x0 CALLDATASIZE PUSH1 0x3 NOT ADD SLT PUSH2 0x119 JUMPI PUSH1 0x20 PUSH1 0x2 SLOAD PUSH1 0x40 MLOAD SWAP1 DUP2 MSTORE RETURN JUMPDEST CALLVALUE PUSH2 0x119 JUMPI PUSH1 0x0 CALLDATASIZE PUSH1 0x3 NOT ADD SLT PUSH2 0x119 JUMPI PUSH1 0x4 SLOAD PUSH1 0x40 MLOAD PUSH1 0x1 PUSH1 0x1 PUSH1 0xA0 SHL SUB SWAP1 SWAP2 AND DUP2 MSTORE PUSH1 0x20 SWAP1 RETURN JUMPDEST CALLVALUE PUSH2 0x119 JUMPI PUSH1 0x20 CALLDATASIZE PUSH1 0x3 NOT ADD SLT PUSH2 0x119 JUMPI PUSH1 0x4 CALLDATALOAD PUSH1 0x3 DUP2 LT ISZERO PUSH2 0x119 JUMPI PUSH1 0x20 SWAP1 PUSH1 0x5 ADD SLOAD PUSH1 0x40 MLOAD SWAP1 DUP2 MSTORE RETURN JUMPDEST CALLVALUE PUSH2 0x119 JUMPI PUSH1 0x20 CALLDATASIZE PUSH1 0x3 NOT ADD SLT PUSH2 0x119 JUMPI PUSH1 0x1 PUSH1 0x1 PUSH1 0xA0 SHL SUB PUSH2 0x152C PUSH2 0x1608 JUMP JUMPDEST AND PUSH1 0x0 MSTORE PUSH1 0x1 PUSH1 0x20 MSTORE PUSH1 0x20 PUSH1 0xFF PUSH1 0x40 PUSH1 0x0 KECCAK256 SLOAD AND PUSH1 0x40 MLOAD SWAP1 ISZERO ISZERO DUP2 MSTORE RETURN JUMPDEST CALLVALUE PUSH2 0x119 JUMPI PUSH1 0x20 CALLDATASIZE PUSH1 0x3 NOT ADD SLT PUSH2 0x119 JUMPI PUSH1 0x1 PUSH1 0x1 PUSH1 0xA0 SHL SUB PUSH2 0x156B PUSH2 0x1608 JUMP JUMPDEST AND PUSH1 0x0 MSTORE PUSH1 0x0 PUSH1 0x20 MSTORE PUSH1 0x40 PUSH1 0x0 KECCAK256 PUSH1 0xFF PUSH1 0xC DUP3 ADD SLOAD PUSH1 0x8 SHR AND DUP1 PUSH2 0x15CA JUMPI JUMPDEST PUSH1 0x20 SWAP2 DUP2 PUSH2 0x15BC JUMPI JUMPDEST DUP2 PUSH2 0x15A4 JUMPI JUMPDEST POP PUSH1 0x40 MLOAD SWAP1 ISZERO ISZERO DUP2 MSTORE RETURN JUMPDEST PUSH9 0x1B1AE4D6E2EF500000 SWAP2 POP PUSH1 0x7 ADD SLOAD LT ISZERO DUP3 PUSH2 0x1599 JUMP JUMPDEST PUSH1 0xA DUP2 ADD SLOAD TIMESTAMP LT SWAP2 POP PUSH2 0x1593 JUMP JUMPDEST POP PUSH1 0xFF PUSH1 0x8 DUP3 ADD SLOAD AND SWAP1 PUSH1 0x4 DUP3 LT ISZERO PUSH2 0x66F JUMPI SWAP1 PUSH1 0x1 EQ PUSH2 0x158A JUMP JUMPDEST CALLVALUE PUSH2 0x119 JUMPI PUSH1 0x0 CALLDATASIZE PUSH1 0x3 NOT ADD SLT PUSH2 0x119 JUMPI DUP1 PUSH9 0x1B1AE4D6E2EF500000 PUSH1 0x20 SWAP3 MSTORE RETURN JUMPDEST PUSH1 0x4 CALLDATALOAD SWAP1 PUSH1 0x1 PUSH1 0x1 PUSH1 0xA0 SHL SUB DUP3 AND DUP3 SUB PUSH2 0x119 JUMPI JUMP JUMPDEST PUSH1 0x2 SLOAD DUP2 LT ISZERO PUSH2 0x115C JUMPI PUSH1 0x2 PUSH1 0x0 MSTORE PUSH32 0x405787FA12A823E0F2B7631CC41B3BA8828B3321CA811111FA75CD3AA3BB5ACE ADD SWAP1 PUSH1 0x0 SWAP1 JUMP JUMPDEST PUSH2 0x1E0 DUP2 ADD SWAP1 DUP2 LT PUSH1 0x1 PUSH1 0x1 PUSH1 0x40 SHL SUB DUP3 GT OR PUSH2 0x659 JUMPI PUSH1 0x40 MSTORE JUMP JUMPDEST SWAP1 PUSH1 0x1F DUP1 NOT SWAP2 ADD AND DUP2 ADD SWAP1 DUP2 LT PUSH1 0x1 PUSH1 0x1 PUSH1 0x40 SHL SUB DUP3 GT OR PUSH2 0x659 JUMPI PUSH1 0x40 MSTORE JUMP JUMPDEST DUP2 PUSH1 0x1F DUP3 ADD SLT ISZERO PUSH2 0x119 JUMPI DUP1 CALLDATALOAD SWAP1 PUSH1 0x1 PUSH1 0x1 PUSH1 0x40 SHL SUB DUP3 GT PUSH2 0x659 JUMPI PUSH1 0x40 MLOAD SWAP3 PUSH2 0x16C6 PUSH1 0x1F DUP5 ADD PUSH1 0x1F NOT AND PUSH1 0x20 ADD DUP6 PUSH2 0x1671 JUMP JUMPDEST DUP3 DUP5 MSTORE PUSH1 0x20 DUP4 DUP4 ADD ADD GT PUSH2 0x119 JUMPI DUP2 PUSH1 0x0 SWAP3 PUSH1 0x20 DUP1 SWAP4 ADD DUP4 DUP7 ADD CALLDATACOPY DUP4 ADD ADD MSTORE SWAP1 JUMP JUMPDEST SWAP2 SWAP1 DUP3 MLOAD SWAP3 DUP4 DUP3 MSTORE PUSH1 0x0 JUMPDEST DUP5 DUP2 LT PUSH2 0x1714 JUMPI POP POP DUP3 PUSH1 0x0 PUSH1 0x20 DUP1 SWAP5 SWAP6 DUP5 ADD ADD MSTORE PUSH1 0x1F DUP1 NOT SWAP2 ADD AND ADD ADD SWAP1 JUMP JUMPDEST PUSH1 0x20 DUP2 DUP4 ADD DUP2 ADD MLOAD DUP5 DUP4 ADD DUP3 ADD MSTORE ADD PUSH2 0x16F3 JUMP JUMPDEST SWAP1 PUSH1 0x4 DUP3 LT ISZERO PUSH2 0x66F JUMPI MSTORE JUMP JUMPDEST SWAP1 PUSH1 0x1 DUP3 DUP2 SHR SWAP3 AND DUP1 ISZERO PUSH2 0x1765 JUMPI JUMPDEST PUSH1 0x20 DUP4 LT EQ PUSH2 0x174F JUMPI JUMP JUMPDEST PUSH4 0x4E487B71 PUSH1 0xE0 SHL PUSH1 0x0 MSTORE PUSH1 0x22 PUSH1 0x4 MSTORE PUSH1 0x24 PUSH1 0x0 REVERT JUMPDEST SWAP2 PUSH1 0x7F AND SWAP2 PUSH2 0x1744 JUMP JUMPDEST SWAP1 PUSH1 0x40 MLOAD SWAP2 DUP3 PUSH1 0x0 DUP3 SLOAD SWAP3 PUSH2 0x1783 DUP5 PUSH2 0x1735 JUMP JUMPDEST SWAP1 DUP2 DUP5 MSTORE PUSH1 0x1 SWAP5 DUP6 DUP2 AND SWAP1 DUP2 PUSH1 0x0 EQ PUSH2 0x17F2 JUMPI POP PUSH1 0x1 EQ PUSH2 0x17AF JUMPI JUMPDEST POP POP PUSH2 0x17AD SWAP3 POP SUB DUP4 PUSH2 0x1671 JUMP JUMPDEST JUMP JUMPDEST SWAP1 SWAP4 SWAP2 POP PUSH1 0x0 MSTORE PUSH1 0x20 SWAP1 DUP2 PUSH1 0x0 KECCAK256 SWAP4 PUSH1 0x0 SWAP2 JUMPDEST DUP2 DUP4 LT PUSH2 0x17DA JUMPI POP POP PUSH2 0x17AD SWAP4 POP DUP3 ADD ADD CODESIZE DUP1 PUSH2 0x179F JUMP JUMPDEST DUP6 SLOAD DUP9 DUP5 ADD DUP6 ADD MSTORE SWAP5 DUP6 ADD SWAP5 DUP8 SWAP5 POP SWAP2 DUP4 ADD SWAP2 PUSH2 0x17C2 JUMP JUMPDEST SWAP2 POP POP PUSH2 0x17AD SWAP5 POP PUSH1 0x20 SWAP3 POP PUSH1 0xFF NOT AND DUP3 DUP5 ADD MSTORE ISZERO ISZERO PUSH1 0x5 SHL DUP3 ADD ADD CODESIZE DUP1 PUSH2 0x179F JUMP JUMPDEST PUSH1 0x1 PUSH1 0x1 PUSH1 0x40 SHL SUB DUP2 GT PUSH2 0x659 JUMPI PUSH1 0x5 SHL PUSH1 0x20 ADD SWAP1 JUMP JUMPDEST ISZERO PUSH2 0x1833 JUMPI JUMP JUMPDEST PUSH1 0x40 MLOAD PUSH3 0x461BCD PUSH1 0xE5 SHL DUP2 MSTORE PUSH1 0x20 PUSH1 0x4 DUP3 ADD MSTORE PUSH1 0x9 PUSH1 0x24 DUP3 ADD MSTORE PUSH9 0x2737BA1030B236B4B7 PUSH1 0xB9 SHL PUSH1 0x44 DUP3 ADD MSTORE PUSH1 0x64 SWAP1 REVERT JUMPDEST DUP2 DUP2 LT PUSH2 0x186F JUMPI POP POP JUMP JUMPDEST PUSH1 0x0 DUP2 SSTORE PUSH1 0x1 ADD PUSH2 0x1864 JUMP JUMPDEST ISZERO PUSH2 0x1882 JUMPI JUMP JUMPDEST PUSH1 0x40 MLOAD PUSH3 0x461BCD PUSH1 0xE5 SHL DUP2 MSTORE PUSH1 0x20 PUSH1 0x4 DUP3 ADD MSTORE PUSH1 0xE PUSH1 0x24 DUP3 ADD MSTORE PUSH14 0x139BDD08185D5D1A1BDC9A5E9959 PUSH1 0x92 SHL PUSH1 0x44 DUP3 ADD MSTORE PUSH1 0x64 SWAP1 REVERT JUMPDEST ISZERO PUSH2 0x18BF JUMPI JUMP JUMPDEST PUSH1 0x40 MLOAD PUSH3 0x461BCD PUSH1 0xE5 SHL DUP2 MSTORE PUSH1 0x20 PUSH1 0x4 DUP3 ADD MSTORE PUSH1 0x12 PUSH1 0x24 DUP3 ADD MSTORE PUSH18 0x53746174696F6E206E6F7420616374697665 PUSH1 0x70 SHL PUSH1 0x44 DUP3 ADD MSTORE PUSH1 0x64 SWAP1 REVERT INVALID LOG2 PUSH5 0x6970667358 0x22 SLT KECCAK256 0xEA STOP 0xDD ORIGIN 0xA8 REVERT DUP15 0xC4 CALLDATALOAD SWAP9 0xD7 SWAP7 0xBF DUP14 PUSH5 0xF3F880B6A2 0x4A DELEGATECALL 0xEA RETURNDATACOPY 0x2B RETURN OR 0x26 MOD 0x25 0xCE 0x5E PUSH5 0x736F6C6343 STOP ADDMOD SGT STOP CALLER "},"methodIdentifiers":{"ANNUAL_RENEWAL()":"d2c8983e","MAX_FRAUD_STRIKES()":"a3ae38df","MINIMUM_STAKE()":"08dbbb03","REGISTRATION_FEE()":"64b4f751","SLASH_PERCENTAGES(uint256)":"3544c743","admin()":"f851a440","approveStation(address)":"6c949333","approvedStations(address)":"31c5d521","getStation(address)":"adee2c62","getStationCount()":"4dcf743b","incrementNonce(address)":"f5743c4c","isStationActive(address)":"0f40786f","recoveryAgent()":"4a7805c3","registerStation(string,string,int256,int256,string,string[],bytes32,uint256)":"d0b0799e","setRecoveryAgent(address)":"9bac7669","slashStake(address,string)":"a2b61e27","stationAddresses(uint256)":"56321191","stations(address)":"c7fb4f12","updateCalibration(bytes32,uint256)":"53cc2914"}}}}}