{"src/ReputationOracle.sol":{"ReputationOracle":{"abi":[{"inputs":[{"internalType":"address","name":"_collectorRegistry","type":"address"}],"stateMutability":"nonpayable","type":"constructor"},{"anonymous":false,"inputs":[{"indexed":true,"internalType":"address","name":"agent","type":"address"}],"name":"RecoveryAgentSet","type":"event"},{"anonymous":false,"inputs":[{"indexed":true,"internalType":"address","name":"collector","type":"address"},{"indexed":false,"internalType":"uint256","name":"oldScore","type":"uint256"},{"indexed":false,"internalType":"uint256","name":"newScore","type":"uint256"},{"indexed":false,"internalType":"uint8","name":"newTier","type":"uint8"}],"name":"ReputationScoreUpdated","type":"event"},{"inputs":[],"name":"admin","outputs":[{"internalType":"address","name":"","type":"address"}],"stateMutability":"view","type":"function"},{"inputs":[{"internalType":"address[]","name":"_collectors","type":"address[]"},{"internalType":"uint256[]","name":"_totalKgs","type":"uint256[]"},{"internalType":"uint8[]","name":"_uniqueStations","type":"uint8[]"},{"internalType":"uint16[]","name":"_activeWeeks","type":"uint16[]"},{"internalType":"uint256[]","name":"_fishingGearKgs","type":"uint256[]"},{"internalType":"uint256[]","name":"_microplasticKgs","type":"uint256[]"}],"name":"batchUpdateReputation","outputs":[],"stateMutability":"nonpayable","type":"function"},{"inputs":[],"name":"collectorRegistry","outputs":[{"internalType":"contract CollectorRegistry","name":"","type":"address"}],"stateMutability":"view","type":"function"},{"inputs":[{"internalType":"address","name":"_collector","type":"address"}],"name":"getPayoutMultiplierBps","outputs":[{"internalType":"uint256","name":"","type":"uint256"}],"stateMutability":"view","type":"function"},{"inputs":[{"internalType":"address","name":"_collector","type":"address"}],"name":"getReputation","outputs":[{"components":[{"internalType":"uint256","name":"score","type":"uint256"},{"internalType":"uint8","name":"tier","type":"uint8"},{"internalType":"uint256","name":"totalKgRecovered","type":"uint256"},{"internalType":"uint8","name":"uniqueStations","type":"uint8"},{"internalType":"uint16","name":"activeWeeks","type":"uint16"},{"internalType":"uint256","name":"fishingGearKg","type":"uint256"},{"internalType":"uint256","name":"microplasticKg","type":"uint256"},{"internalType":"uint256","name":"lastUpdated","type":"uint256"}],"internalType":"struct ReputationOracle.ReputationData","name":"","type":"tuple"}],"stateMutability":"view","type":"function"},{"inputs":[{"internalType":"address","name":"_collector","type":"address"}],"name":"getScore","outputs":[{"internalType":"uint256","name":"","type":"uint256"}],"stateMutability":"view","type":"function"},{"inputs":[{"internalType":"address","name":"_collector","type":"address"}],"name":"getTier","outputs":[{"internalType":"uint8","name":"","type":"uint8"}],"stateMutability":"view","type":"function"},{"inputs":[],"name":"recoveryAgent","outputs":[{"internalType":"address","name":"","type":"address"}],"stateMutability":"view","type":"function"},{"inputs":[{"internalType":"address","name":"","type":"address"}],"name":"reputationData","outputs":[{"internalType":"uint256","name":"score","type":"uint256"},{"internalType":"uint8","name":"tier","type":"uint8"},{"internalType":"uint256","name":"totalKgRecovered","type":"uint256"},{"internalType":"uint8","name":"uniqueStations","type":"uint8"},{"internalType":"uint16","name":"activeWeeks","type":"uint16"},{"internalType":"uint256","name":"fishingGearKg","type":"uint256"},{"internalType":"uint256","name":"microplasticKg","type":"uint256"},{"internalType":"uint256","name":"lastUpdated","type":"uint256"}],"stateMutability":"view","type":"function"},{"inputs":[{"internalType":"address","name":"_agent","type":"address"}],"name":"setRecoveryAgent","outputs":[],"stateMutability":"nonpayable","type":"function"},{"inputs":[{"internalType":"address","name":"_collector","type":"address"},{"internalType":"uint256","name":"_totalKgRecovered","type":"uint256"},{"internalType":"uint8","name":"_uniqueStations","type":"uint8"},{"internalType":"uint16","name":"_activeWeeks","type":"uint16"},{"internalType":"uint256","name":"_fishingGearKg","type":"uint256"},{"internalType":"uint256","name":"_microplasticKg","type":"uint256"}],"name":"updateReputation","outputs":[],"stateMutability":"nonpayable","type":"function"}],"evm":{"bytecode":{"linkReferences":{},"object":"60a03461008c57601f610e4238819003918201601f19168301916001600160401b038311848410176100915780849260209460405283398101031261008c57516001600160a01b0381169081900361008c57608052600180546001600160a01b03191633179055604051610d9a90816100a882396080518181816104d7015281816107770152610ac30152f35b600080fd5b634e487b7160e01b600052604160045260246000fdfe608080604052600436101561001357600080fd5b600090813560e01c9081630513d07814610aaf575080634a7805c314610a865780636f98ebe3146106fb57806390553315146106cf57806396030f071461037a5780639bac7669146102d95780639c89a0e2146101cb578063a87693051461013d578063b45aae52146100fd578063d47875d0146100c55763f851a4401461009a57600080fd5b346100c257806003193601126100c2576001546040516001600160a01b039091168152602090f35b80fd5b50346100c25760203660031901126100c2576020906040906001600160a01b036100ed610af2565b1681528083522054604051908152f35b50346100c25760203660031901126100c25760209060ff906001906040906001600160a01b0361012b610af2565b16815280855220015416604051908152f35b50346100c25760203660031901126100c257610100906040906001600160a01b03610166610af2565b168152806020522080549060ff60018201541690600281015461ffff600383015460048401549260066005860154950154956040519788526020880152604087015260ff8116606087015260081c16608085015260a084015260c083015260e0820152f35b50346100c25760203660031901126100c2576040610100916101eb610af2565b8160e084516101f981610ba5565b82815282602082015282868201528260608201528260808201528260a08201528260c0820152015260018060a01b03168152806020522060405161023c81610ba5565b81549182825260ff6001820154166020830190815260028201546040840190815260038301549060ff606086018184168152608087019261ffff809560081c1684528260048801549660a08a0197885260e0600660058b01549a60c08d019b8c5201549a01998a526040519a8b52511660208a015251604089015251166060870152511660808501525160a08401525160c08301525160e0820152f35b50346100c25760203660031901126100c2576102f3610af2565b6001546001600160a01b039190821633036103495716806bffffffffffffffffffffffff60a01b60025416176002557ff7578aa4efe31be3a6e580abe1584a374cb525536655e38225b96ef0dfc368388280a280f35b60405162461bcd60e51b81526020600482015260096024820152682737ba1030b236b4b760b91b6044820152606490fd5b50346100c25760c03660031901126100c25760043567ffffffffffffffff81116106cb576103ac903690600401610b0d565b9060243567ffffffffffffffff8111610625576103cd903690600401610b0d565b909160443567ffffffffffffffff81116106c7576103ef903690600401610b0d565b909260643567ffffffffffffffff81116106c357610411903690600401610b0d565b909260843567ffffffffffffffff81116106bf57610433903690600401610b0d565b92909167ffffffffffffffff60a435116106bb576104563660a435600401610b0d565b95909760018060a01b0360015416331480156106a7575b61047690610b3e565b818c148061069e575b80610695575b15610658578c905b8d8d83106104985780f35b6104ac6104a78f859085610c2e565b610c54565b60405163dbcd13df60e01b81526001600160a01b0391821660048201529390602090859060249082907f0000000000000000000000000000000000000000000000000000000000000000165afa8015610612578f948f918f91899189918791610629575b5061052b575b5050505061052390610c1f565b92505061048d565b9061054b8580936105456104a78361055298999d8d610c2e565b9a610c2e565b3593610c2e565b3560ff8116810361062557610568838a8f610c2e565b359061ffff82168203610621578e91610590858f8f8f610589918491610c2e565b3595610c2e565b3593303b1561061d57604051636f98ebe360e01b81526001600160a01b0390991660048a0152602489015260ff909116604488015261ffff166064870152608486015260a4850152818460c48183305af1938415610612578f946105f9575b508d8d8787610516565b8291945061060690610b7b565b6100c2578d92386105ef565b6040513d84823e3d90fd5b8680fd5b8480fd5b8380fd5b61064b915060203d602011610651575b6106438183610bc2565b810190610be4565b38610510565b503d610639565b60405162461bcd60e51b8152602060048201526015602482015274082e4e4c2f240d8cadccee8d040dad2e6dac2e8c6d605b1b6044820152606490fd5b50838c14610485565b50828c1461047f565b506002546001600160a01b0316331461046d565b8a80fd5b8980fd5b8780fd5b8580fd5b5080fd5b50346100c25760203660031901126100c25760206106f36106ee610af2565b610c68565b604051908152f35b50346100c25760c03660031901126100c257610715610af2565b60443560ff811691828203610625576064359061ffff8216918281036106c7576001546001600160a01b03959060a4359060843590881633148015610a79575b61075e90610b3e565b876040519563dbcd13df60e01b875216978860048701527f0000000000000000000000000000000000000000000000000000000000000000169260209660249688818981895afa908115610a6e578c91610a51575b5015610a1657898b528a885260408b20958654998835918260028a015560038901908562ffff0083549260081b169162ffffff19161717905584600489015585600589015542600689015561080782610d05565b92601981029080820460191490151715610a0357600a9004938d601e86116109fa575b50600510156109f457506005935b6103fc60ff86169560021b1694808604600414901517156109e157908c95949392918695821591821561097b575b505050509161087c61087c926108819594610bfc565b610bfc565b936103e8808611610973575b5084845560ff600161089e87610cc4565b950194168060ff19865416178555833b1561096f57888387956064936040519788968795630a39a91760e21b8752600487015285015260448401525af1801561096457610925575b50917f77ac235d545f3629a6434c27b333240b6328132ec9a29da1a2fb2ca627fa19db939160ff6060945416916040519384528301526040820152a280f35b9160ff60609492976109587f77ac235d545f3629a6434c27b333240b6328132ec9a29da1a2fb2ca627fa19db9795610b7b565b979294505091936108e6565b6040513d89823e3d90fd5b8280fd5b94503861088d565b909193975061098c92949650610bfc565b90600a820291808304600a14901517156109e1576109ce579161088193918c95930491600a83116109c5575b9193388080959395610866565b600a92506109b8565b634e487b7160e01b8c526012600452878cfd5b634e487b7160e01b8d526011600452888dfd5b93610838565b601e955061082a565b634e487b7160e01b8e526011600452898efd5b60405162461bcd60e51b81526004810189905260148189015273436f6c6c6563746f72206e6f742061637469766560601b6044820152606490fd5b610a689150893d8b11610651576106438183610bc2565b386107b3565b6040513d8e823e3d90fd5b5060025488163314610755565b50346100c257806003193601126100c2576002546040516001600160a01b039091168152602090f35b9050346106cb57816003193601126106cb577f00000000000000000000000000000000000000000000000000000000000000006001600160a01b03168152602090f35b600435906001600160a01b0382168203610b0857565b600080fd5b9181601f84011215610b085782359167ffffffffffffffff8311610b08576020808501948460051b010111610b0857565b15610b4557565b60405162461bcd60e51b815260206004820152600e60248201526d139bdd08185d5d1a1bdc9a5e995960921b6044820152606490fd5b67ffffffffffffffff8111610b8f57604052565b634e487b7160e01b600052604160045260246000fd5b610100810190811067ffffffffffffffff821117610b8f57604052565b90601f8019910116810190811067ffffffffffffffff821117610b8f57604052565b90816020910312610b0857518015158103610b085790565b91908201809211610c0957565b634e487b7160e01b600052601160045260246000fd5b6000198114610c095760010190565b9190811015610c3e5760051b0190565b634e487b7160e01b600052603260045260246000fd5b356001600160a01b0381168103610b085790565b6001600160a01b031660009081526020819052604090206001015460ff168015610cbd5760018114610cb65760028114610caf57600314610ca957613a9890565b6134bc90565b50612ee090565b50612af890565b5061271090565b610321811015610cff576101f5811015610cf95760c9811015610cf35760331115610cee57600090565b600190565b50600290565b50600390565b50600490565b8015610d5e576001808201809211610c0957600090825b610d4a57506104b580820292508115918304141715610c09576064900460288111610d445790565b50602890565b610d5892811c928392610c1f565b91610d1c565b5060009056fea2646970667358221220ca2c8313b10d4a67403738ff3277468aa3b87d233f9455a806be97a662b6e6f364736f6c63430008130033","opcodes":"PUSH1 0xA0 CALLVALUE PUSH2 0x8C JUMPI PUSH1 0x1F PUSH2 0xE42 CODESIZE DUP2 SWAP1 SUB SWAP2 DUP3 ADD PUSH1 0x1F NOT AND DUP4 ADD SWAP2 PUSH1 0x1 PUSH1 0x1 PUSH1 0x40 SHL SUB DUP4 GT DUP5 DUP5 LT OR PUSH2 0x91 JUMPI DUP1 DUP5 SWAP3 PUSH1 0x20 SWAP5 PUSH1 0x40 MSTORE DUP4 CODECOPY DUP2 ADD SUB SLT PUSH2 0x8C JUMPI MLOAD PUSH1 0x1 PUSH1 0x1 PUSH1 0xA0 SHL SUB DUP2 AND SWAP1 DUP2 SWAP1 SUB PUSH2 0x8C JUMPI PUSH1 0x80 MSTORE PUSH1 0x1 DUP1 SLOAD PUSH1 0x1 PUSH1 0x1 PUSH1 0xA0 SHL SUB NOT AND CALLER OR SWAP1 SSTORE PUSH1 0x40 MLOAD PUSH2 0xD9A SWAP1 DUP2 PUSH2 0xA8 DUP3 CODECOPY PUSH1 0x80 MLOAD DUP2 DUP2 DUP2 PUSH2 0x4D7 ADD MSTORE DUP2 DUP2 PUSH2 0x777 ADD MSTORE PUSH2 0xAC3 ADD MSTORE RETURN JUMPDEST PUSH1 0x0 DUP1 REVERT JUMPDEST PUSH4 0x4E487B71 PUSH1 0xE0 SHL PUSH1 0x0 MSTORE PUSH1 0x41 PUSH1 0x4 MSTORE PUSH1 0x24 PUSH1 0x0 REVERT INVALID PUSH1 0x80 DUP1 PUSH1 0x40 MSTORE PUSH1 0x4 CALLDATASIZE LT ISZERO PUSH2 0x13 JUMPI PUSH1 0x0 DUP1 REVERT JUMPDEST PUSH1 0x0 SWAP1 DUP2 CALLDATALOAD PUSH1 0xE0 SHR SWAP1 DUP2 PUSH4 0x513D078 EQ PUSH2 0xAAF JUMPI POP DUP1 PUSH4 0x4A7805C3 EQ PUSH2 0xA86 JUMPI DUP1 PUSH4 0x6F98EBE3 EQ PUSH2 0x6FB JUMPI DUP1 PUSH4 0x90553315 EQ PUSH2 0x6CF JUMPI DUP1 PUSH4 0x96030F07 EQ PUSH2 0x37A JUMPI DUP1 PUSH4 0x9BAC7669 EQ PUSH2 0x2D9 JUMPI DUP1 PUSH4 0x9C89A0E2 EQ PUSH2 0x1CB JUMPI DUP1 PUSH4 0xA8769305 EQ PUSH2 0x13D JUMPI DUP1 PUSH4 0xB45AAE52 EQ PUSH2 0xFD JUMPI DUP1 PUSH4 0xD47875D0 EQ PUSH2 0xC5 JUMPI PUSH4 0xF851A440 EQ PUSH2 0x9A JUMPI PUSH1 0x0 DUP1 REVERT JUMPDEST CALLVALUE PUSH2 0xC2 JUMPI DUP1 PUSH1 0x3 NOT CALLDATASIZE ADD SLT PUSH2 0xC2 JUMPI PUSH1 0x1 SLOAD PUSH1 0x40 MLOAD PUSH1 0x1 PUSH1 0x1 PUSH1 0xA0 SHL SUB SWAP1 SWAP2 AND DUP2 MSTORE PUSH1 0x20 SWAP1 RETURN JUMPDEST DUP1 REVERT JUMPDEST POP CALLVALUE PUSH2 0xC2 JUMPI PUSH1 0x20 CALLDATASIZE PUSH1 0x3 NOT ADD SLT PUSH2 0xC2 JUMPI PUSH1 0x20 SWAP1 PUSH1 0x40 SWAP1 PUSH1 0x1 PUSH1 0x1 PUSH1 0xA0 SHL SUB PUSH2 0xED PUSH2 0xAF2 JUMP JUMPDEST AND DUP2 MSTORE DUP1 DUP4 MSTORE KECCAK256 SLOAD PUSH1 0x40 MLOAD SWAP1 DUP2 MSTORE RETURN JUMPDEST POP CALLVALUE PUSH2 0xC2 JUMPI PUSH1 0x20 CALLDATASIZE PUSH1 0x3 NOT ADD SLT PUSH2 0xC2 JUMPI PUSH1 0x20 SWAP1 PUSH1 0xFF SWAP1 PUSH1 0x1 SWAP1 PUSH1 0x40 SWAP1 PUSH1 0x1 PUSH1 0x1 PUSH1 0xA0 SHL SUB PUSH2 0x12B PUSH2 0xAF2 JUMP JUMPDEST AND DUP2 MSTORE DUP1 DUP6 MSTORE KECCAK256 ADD SLOAD AND PUSH1 0x40 MLOAD SWAP1 DUP2 MSTORE RETURN JUMPDEST POP CALLVALUE PUSH2 0xC2 JUMPI PUSH1 0x20 CALLDATASIZE PUSH1 0x3 NOT ADD SLT PUSH2 0xC2 JUMPI PUSH2 0x100 SWAP1 PUSH1 0x40 SWAP1 PUSH1 0x1 PUSH1 0x1 PUSH1 0xA0 SHL SUB PUSH2 0x166 PUSH2 0xAF2 JUMP JUMPDEST AND DUP2 MSTORE DUP1 PUSH1 0x20 MSTORE KECCAK256 DUP1 SLOAD SWAP1 PUSH1 0xFF PUSH1 0x1 DUP3 ADD SLOAD AND SWAP1 PUSH1 0x2 DUP2 ADD SLOAD PUSH2 0xFFFF PUSH1 0x3 DUP4 ADD SLOAD PUSH1 0x4 DUP5 ADD SLOAD SWAP3 PUSH1 0x6 PUSH1 0x5 DUP7 ADD SLOAD SWAP6 ADD SLOAD SWAP6 PUSH1 0x40 MLOAD SWAP8 DUP9 MSTORE PUSH1 0x20 DUP9 ADD MSTORE PUSH1 0x40 DUP8 ADD MSTORE PUSH1 0xFF DUP2 AND PUSH1 0x60 DUP8 ADD MSTORE PUSH1 0x8 SHR AND PUSH1 0x80 DUP6 ADD MSTORE PUSH1 0xA0 DUP5 ADD MSTORE PUSH1 0xC0 DUP4 ADD MSTORE PUSH1 0xE0 DUP3 ADD MSTORE RETURN JUMPDEST POP CALLVALUE PUSH2 0xC2 JUMPI PUSH1 0x20 CALLDATASIZE PUSH1 0x3 NOT ADD SLT PUSH2 0xC2 JUMPI PUSH1 0x40 PUSH2 0x100 SWAP2 PUSH2 0x1EB PUSH2 0xAF2 JUMP JUMPDEST DUP2 PUSH1 0xE0 DUP5 MLOAD PUSH2 0x1F9 DUP2 PUSH2 0xBA5 JUMP JUMPDEST DUP3 DUP2 MSTORE DUP3 PUSH1 0x20 DUP3 ADD MSTORE DUP3 DUP7 DUP3 ADD MSTORE DUP3 PUSH1 0x60 DUP3 ADD MSTORE DUP3 PUSH1 0x80 DUP3 ADD MSTORE DUP3 PUSH1 0xA0 DUP3 ADD MSTORE DUP3 PUSH1 0xC0 DUP3 ADD MSTORE ADD MSTORE PUSH1 0x1 DUP1 PUSH1 0xA0 SHL SUB AND DUP2 MSTORE DUP1 PUSH1 0x20 MSTORE KECCAK256 PUSH1 0x40 MLOAD PUSH2 0x23C DUP2 PUSH2 0xBA5 JUMP JUMPDEST DUP2 SLOAD SWAP2 DUP3 DUP3 MSTORE PUSH1 0xFF PUSH1 0x1 DUP3 ADD SLOAD AND PUSH1 0x20 DUP4 ADD SWAP1 DUP2 MSTORE PUSH1 0x2 DUP3 ADD SLOAD PUSH1 0x40 DUP5 ADD SWAP1 DUP2 MSTORE PUSH1 0x3 DUP4 ADD SLOAD SWAP1 PUSH1 0xFF PUSH1 0x60 DUP7 ADD DUP2 DUP5 AND DUP2 MSTORE PUSH1 0x80 DUP8 ADD SWAP3 PUSH2 0xFFFF DUP1 SWAP6 PUSH1 0x8 SHR AND DUP5 MSTORE DUP3 PUSH1 0x4 DUP9 ADD SLOAD SWAP7 PUSH1 0xA0 DUP11 ADD SWAP8 DUP9 MSTORE PUSH1 0xE0 PUSH1 0x6 PUSH1 0x5 DUP12 ADD SLOAD SWAP11 PUSH1 0xC0 DUP14 ADD SWAP12 DUP13 MSTORE ADD SLOAD SWAP11 ADD SWAP10 DUP11 MSTORE PUSH1 0x40 MLOAD SWAP11 DUP12 MSTORE MLOAD AND PUSH1 0x20 DUP11 ADD MSTORE MLOAD PUSH1 0x40 DUP10 ADD MSTORE MLOAD AND PUSH1 0x60 DUP8 ADD MSTORE MLOAD AND PUSH1 0x80 DUP6 ADD MSTORE MLOAD PUSH1 0xA0 DUP5 ADD MSTORE MLOAD PUSH1 0xC0 DUP4 ADD MSTORE MLOAD PUSH1 0xE0 DUP3 ADD MSTORE RETURN JUMPDEST POP CALLVALUE PUSH2 0xC2 JUMPI PUSH1 0x20 CALLDATASIZE PUSH1 0x3 NOT ADD SLT PUSH2 0xC2 JUMPI PUSH2 0x2F3 PUSH2 0xAF2 JUMP JUMPDEST PUSH1 0x1 SLOAD PUSH1 0x1 PUSH1 0x1 PUSH1 0xA0 SHL SUB SWAP2 SWAP1 DUP3 AND CALLER SUB PUSH2 0x349 JUMPI AND DUP1 PUSH12 0xFFFFFFFFFFFFFFFFFFFFFFFF PUSH1 0xA0 SHL PUSH1 0x2 SLOAD AND OR PUSH1 0x2 SSTORE PUSH32 0xF7578AA4EFE31BE3A6E580ABE1584A374CB525536655E38225B96EF0DFC36838 DUP3 DUP1 LOG2 DUP1 RETURN JUMPDEST PUSH1 0x40 MLOAD PUSH3 0x461BCD PUSH1 0xE5 SHL DUP2 MSTORE PUSH1 0x20 PUSH1 0x4 DUP3 ADD MSTORE PUSH1 0x9 PUSH1 0x24 DUP3 ADD MSTORE PUSH9 0x2737BA1030B236B4B7 PUSH1 0xB9 SHL PUSH1 0x44 DUP3 ADD MSTORE PUSH1 0x64 SWAP1 REVERT JUMPDEST POP CALLVALUE PUSH2 0xC2 JUMPI PUSH1 0xC0 CALLDATASIZE PUSH1 0x3 NOT ADD SLT PUSH2 0xC2 JUMPI PUSH1 0x4 CALLDATALOAD PUSH8 0xFFFFFFFFFFFFFFFF DUP2 GT PUSH2 0x6CB JUMPI PUSH2 0x3AC SWAP1 CALLDATASIZE SWAP1 PUSH1 0x4 ADD PUSH2 0xB0D JUMP JUMPDEST SWAP1 PUSH1 0x24 CALLDATALOAD PUSH8 0xFFFFFFFFFFFFFFFF DUP2 GT PUSH2 0x625 JUMPI PUSH2 0x3CD SWAP1 CALLDATASIZE SWAP1 PUSH1 0x4 ADD PUSH2 0xB0D JUMP JUMPDEST SWAP1 SWAP2 PUSH1 0x44 CALLDATALOAD PUSH8 0xFFFFFFFFFFFFFFFF DUP2 GT PUSH2 0x6C7 JUMPI PUSH2 0x3EF SWAP1 CALLDATASIZE SWAP1 PUSH1 0x4 ADD PUSH2 0xB0D JUMP JUMPDEST SWAP1 SWAP3 PUSH1 0x64 CALLDATALOAD PUSH8 0xFFFFFFFFFFFFFFFF DUP2 GT PUSH2 0x6C3 JUMPI PUSH2 0x411 SWAP1 CALLDATASIZE SWAP1 PUSH1 0x4 ADD PUSH2 0xB0D JUMP JUMPDEST SWAP1 SWAP3 PUSH1 0x84 CALLDATALOAD PUSH8 0xFFFFFFFFFFFFFFFF DUP2 GT PUSH2 0x6BF JUMPI PUSH2 0x433 SWAP1 CALLDATASIZE SWAP1 PUSH1 0x4 ADD PUSH2 0xB0D JUMP JUMPDEST SWAP3 SWAP1 SWAP2 PUSH8 0xFFFFFFFFFFFFFFFF PUSH1 0xA4 CALLDATALOAD GT PUSH2 0x6BB JUMPI PUSH2 0x456 CALLDATASIZE PUSH1 0xA4 CALLDATALOAD PUSH1 0x4 ADD PUSH2 0xB0D JUMP JUMPDEST SWAP6 SWAP1 SWAP8 PUSH1 0x1 DUP1 PUSH1 0xA0 SHL SUB PUSH1 0x1 SLOAD AND CALLER EQ DUP1 ISZERO PUSH2 0x6A7 JUMPI JUMPDEST PUSH2 0x476 SWAP1 PUSH2 0xB3E JUMP JUMPDEST DUP2 DUP13 EQ DUP1 PUSH2 0x69E JUMPI JUMPDEST DUP1 PUSH2 0x695 JUMPI JUMPDEST ISZERO PUSH2 0x658 JUMPI DUP13 SWAP1 JUMPDEST DUP14 DUP14 DUP4 LT PUSH2 0x498 JUMPI DUP1 RETURN JUMPDEST PUSH2 0x4AC PUSH2 0x4A7 DUP16 DUP6 SWAP1 DUP6 PUSH2 0xC2E JUMP JUMPDEST PUSH2 0xC54 JUMP JUMPDEST PUSH1 0x40 MLOAD PUSH4 0xDBCD13DF PUSH1 0xE0 SHL DUP2 MSTORE PUSH1 0x1 PUSH1 0x1 PUSH1 0xA0 SHL SUB SWAP2 DUP3 AND PUSH1 0x4 DUP3 ADD MSTORE SWAP4 SWAP1 PUSH1 0x20 SWAP1 DUP6 SWAP1 PUSH1 0x24 SWAP1 DUP3 SWAP1 PUSH32 0x0 AND GAS STATICCALL DUP1 ISZERO PUSH2 0x612 JUMPI DUP16 SWAP5 DUP16 SWAP2 DUP16 SWAP2 DUP10 SWAP2 DUP10 SWAP2 DUP8 SWAP2 PUSH2 0x629 JUMPI JUMPDEST POP PUSH2 0x52B JUMPI JUMPDEST POP POP POP POP PUSH2 0x523 SWAP1 PUSH2 0xC1F JUMP JUMPDEST SWAP3 POP POP PUSH2 0x48D JUMP JUMPDEST SWAP1 PUSH2 0x54B DUP6 DUP1 SWAP4 PUSH2 0x545 PUSH2 0x4A7 DUP4 PUSH2 0x552 SWAP9 SWAP10 SWAP14 DUP14 PUSH2 0xC2E JUMP JUMPDEST SWAP11 PUSH2 0xC2E JUMP JUMPDEST CALLDATALOAD SWAP4 PUSH2 0xC2E JUMP JUMPDEST CALLDATALOAD PUSH1 0xFF DUP2 AND DUP2 SUB PUSH2 0x625 JUMPI PUSH2 0x568 DUP4 DUP11 DUP16 PUSH2 0xC2E JUMP JUMPDEST CALLDATALOAD SWAP1 PUSH2 0xFFFF DUP3 AND DUP3 SUB PUSH2 0x621 JUMPI DUP15 SWAP2 PUSH2 0x590 DUP6 DUP16 DUP16 DUP16 PUSH2 0x589 SWAP2 DUP5 SWAP2 PUSH2 0xC2E JUMP JUMPDEST CALLDATALOAD SWAP6 PUSH2 0xC2E JUMP JUMPDEST CALLDATALOAD SWAP4 ADDRESS EXTCODESIZE ISZERO PUSH2 0x61D JUMPI PUSH1 0x40 MLOAD PUSH4 0x6F98EBE3 PUSH1 0xE0 SHL DUP2 MSTORE PUSH1 0x1 PUSH1 0x1 PUSH1 0xA0 SHL SUB SWAP1 SWAP10 AND PUSH1 0x4 DUP11 ADD MSTORE PUSH1 0x24 DUP10 ADD MSTORE PUSH1 0xFF SWAP1 SWAP2 AND PUSH1 0x44 DUP9 ADD MSTORE PUSH2 0xFFFF AND PUSH1 0x64 DUP8 ADD MSTORE PUSH1 0x84 DUP7 ADD MSTORE PUSH1 0xA4 DUP6 ADD MSTORE DUP2 DUP5 PUSH1 0xC4 DUP2 DUP4 ADDRESS GAS CALL SWAP4 DUP5 ISZERO PUSH2 0x612 JUMPI DUP16 SWAP5 PUSH2 0x5F9 JUMPI JUMPDEST POP DUP14 DUP14 DUP8 DUP8 PUSH2 0x516 JUMP JUMPDEST DUP3 SWAP2 SWAP5 POP PUSH2 0x606 SWAP1 PUSH2 0xB7B JUMP JUMPDEST PUSH2 0xC2 JUMPI DUP14 SWAP3 CODESIZE PUSH2 0x5EF JUMP JUMPDEST PUSH1 0x40 MLOAD RETURNDATASIZE DUP5 DUP3 RETURNDATACOPY RETURNDATASIZE SWAP1 REVERT JUMPDEST DUP7 DUP1 REVERT JUMPDEST DUP5 DUP1 REVERT JUMPDEST DUP4 DUP1 REVERT JUMPDEST PUSH2 0x64B SWAP2 POP PUSH1 0x20 RETURNDATASIZE PUSH1 0x20 GT PUSH2 0x651 JUMPI JUMPDEST PUSH2 0x643 DUP2 DUP4 PUSH2 0xBC2 JUMP JUMPDEST DUP2 ADD SWAP1 PUSH2 0xBE4 JUMP JUMPDEST CODESIZE PUSH2 0x510 JUMP JUMPDEST POP RETURNDATASIZE PUSH2 0x639 JUMP JUMPDEST PUSH1 0x40 MLOAD PUSH3 0x461BCD PUSH1 0xE5 SHL DUP2 MSTORE PUSH1 0x20 PUSH1 0x4 DUP3 ADD MSTORE PUSH1 0x15 PUSH1 0x24 DUP3 ADD MSTORE PUSH21 0x82E4E4C2F240D8CADCCEE8D040DAD2E6DAC2E8C6D PUSH1 0x5B SHL PUSH1 0x44 DUP3 ADD MSTORE PUSH1 0x64 SWAP1 REVERT JUMPDEST POP DUP4 DUP13 EQ PUSH2 0x485 JUMP JUMPDEST POP DUP3 DUP13 EQ PUSH2 0x47F JUMP JUMPDEST POP PUSH1 0x2 SLOAD PUSH1 0x1 PUSH1 0x1 PUSH1 0xA0 SHL SUB AND CALLER EQ PUSH2 0x46D JUMP JUMPDEST DUP11 DUP1 REVERT JUMPDEST DUP10 DUP1 REVERT JUMPDEST DUP8 DUP1 REVERT JUMPDEST DUP6 DUP1 REVERT JUMPDEST POP DUP1 REVERT JUMPDEST POP CALLVALUE PUSH2 0xC2 JUMPI PUSH1 0x20 CALLDATASIZE PUSH1 0x3 NOT ADD SLT PUSH2 0xC2 JUMPI PUSH1 0x20 PUSH2 0x6F3 PUSH2 0x6EE PUSH2 0xAF2 JUMP JUMPDEST PUSH2 0xC68 JUMP JUMPDEST PUSH1 0x40 MLOAD SWAP1 DUP2 MSTORE RETURN JUMPDEST POP CALLVALUE PUSH2 0xC2 JUMPI PUSH1 0xC0 CALLDATASIZE PUSH1 0x3 NOT ADD SLT PUSH2 0xC2 JUMPI PUSH2 0x715 PUSH2 0xAF2 JUMP JUMPDEST PUSH1 0x44 CALLDATALOAD PUSH1 0xFF DUP2 AND SWAP2 DUP3 DUP3 SUB PUSH2 0x625 JUMPI PUSH1 0x64 CALLDATALOAD SWAP1 PUSH2 0xFFFF DUP3 AND SWAP2 DUP3 DUP2 SUB PUSH2 0x6C7 JUMPI PUSH1 0x1 SLOAD PUSH1 0x1 PUSH1 0x1 PUSH1 0xA0 SHL SUB SWAP6 SWAP1 PUSH1 0xA4 CALLDATALOAD SWAP1 PUSH1 0x84 CALLDATALOAD SWAP1 DUP9 AND CALLER EQ DUP1 ISZERO PUSH2 0xA79 JUMPI JUMPDEST PUSH2 0x75E SWAP1 PUSH2 0xB3E JUMP JUMPDEST DUP8 PUSH1 0x40 MLOAD SWAP6 PUSH4 0xDBCD13DF PUSH1 0xE0 SHL DUP8 MSTORE AND SWAP8 DUP9 PUSH1 0x4 DUP8 ADD MSTORE PUSH32 0x0 AND SWAP3 PUSH1 0x20 SWAP7 PUSH1 0x24 SWAP7 DUP9 DUP2 DUP10 DUP2 DUP10 GAS STATICCALL SWAP1 DUP2 ISZERO PUSH2 0xA6E JUMPI DUP13 SWAP2 PUSH2 0xA51 JUMPI JUMPDEST POP ISZERO PUSH2 0xA16 JUMPI DUP10 DUP12 MSTORE DUP11 DUP9 MSTORE PUSH1 0x40 DUP12 KECCAK256 SWAP6 DUP7 SLOAD SWAP10 DUP9 CALLDATALOAD SWAP2 DUP3 PUSH1 0x2 DUP11 ADD SSTORE PUSH1 0x3 DUP10 ADD SWAP1 DUP6 PUSH3 0xFFFF00 DUP4 SLOAD SWAP3 PUSH1 0x8 SHL AND SWAP2 PUSH3 0xFFFFFF NOT AND OR OR SWAP1 SSTORE DUP5 PUSH1 0x4 DUP10 ADD SSTORE DUP6 PUSH1 0x5 DUP10 ADD SSTORE TIMESTAMP PUSH1 0x6 DUP10 ADD SSTORE PUSH2 0x807 DUP3 PUSH2 0xD05 JUMP JUMPDEST SWAP3 PUSH1 0x19 DUP2 MUL SWAP1 DUP1 DUP3 DIV PUSH1 0x19 EQ SWAP1 ISZERO OR ISZERO PUSH2 0xA03 JUMPI PUSH1 0xA SWAP1 DIV SWAP4 DUP14 PUSH1 0x1E DUP7 GT PUSH2 0x9FA JUMPI JUMPDEST POP PUSH1 0x5 LT ISZERO PUSH2 0x9F4 JUMPI POP PUSH1 0x5 SWAP4 JUMPDEST PUSH2 0x3FC PUSH1 0xFF DUP7 AND SWAP6 PUSH1 0x2 SHL AND SWAP5 DUP1 DUP7 DIV PUSH1 0x4 EQ SWAP1 ISZERO OR ISZERO PUSH2 0x9E1 JUMPI SWAP1 DUP13 SWAP6 SWAP5 SWAP4 SWAP3 SWAP2 DUP7 SWAP6 DUP3 ISZERO SWAP2 DUP3 ISZERO PUSH2 0x97B JUMPI JUMPDEST POP POP POP POP SWAP2 PUSH2 0x87C PUSH2 0x87C SWAP3 PUSH2 0x881 SWAP6 SWAP5 PUSH2 0xBFC JUMP JUMPDEST PUSH2 0xBFC JUMP JUMPDEST SWAP4 PUSH2 0x3E8 DUP1 DUP7 GT PUSH2 0x973 JUMPI JUMPDEST POP DUP5 DUP5 SSTORE PUSH1 0xFF PUSH1 0x1 PUSH2 0x89E DUP8 PUSH2 0xCC4 JUMP JUMPDEST SWAP6 ADD SWAP5 AND DUP1 PUSH1 0xFF NOT DUP7 SLOAD AND OR DUP6 SSTORE DUP4 EXTCODESIZE ISZERO PUSH2 0x96F JUMPI DUP9 DUP4 DUP8 SWAP6 PUSH1 0x64 SWAP4 PUSH1 0x40 MLOAD SWAP8 DUP9 SWAP7 DUP8 SWAP6 PUSH4 0xA39A917 PUSH1 0xE2 SHL DUP8 MSTORE PUSH1 0x4 DUP8 ADD MSTORE DUP6 ADD MSTORE PUSH1 0x44 DUP5 ADD MSTORE GAS CALL DUP1 ISZERO PUSH2 0x964 JUMPI PUSH2 0x925 JUMPI JUMPDEST POP SWAP2 PUSH32 0x77AC235D545F3629A6434C27B333240B6328132EC9A29DA1A2FB2CA627FA19DB SWAP4 SWAP2 PUSH1 0xFF PUSH1 0x60 SWAP5 SLOAD AND SWAP2 PUSH1 0x40 MLOAD SWAP4 DUP5 MSTORE DUP4 ADD MSTORE PUSH1 0x40 DUP3 ADD MSTORE LOG2 DUP1 RETURN JUMPDEST SWAP2 PUSH1 0xFF PUSH1 0x60 SWAP5 SWAP3 SWAP8 PUSH2 0x958 PUSH32 0x77AC235D545F3629A6434C27B333240B6328132EC9A29DA1A2FB2CA627FA19DB SWAP8 SWAP6 PUSH2 0xB7B JUMP JUMPDEST SWAP8 SWAP3 SWAP5 POP POP SWAP2 SWAP4 PUSH2 0x8E6 JUMP JUMPDEST PUSH1 0x40 MLOAD RETURNDATASIZE DUP10 DUP3 RETURNDATACOPY RETURNDATASIZE SWAP1 REVERT JUMPDEST DUP3 DUP1 REVERT JUMPDEST SWAP5 POP CODESIZE PUSH2 0x88D JUMP JUMPDEST SWAP1 SWAP2 SWAP4 SWAP8 POP PUSH2 0x98C SWAP3 SWAP5 SWAP7 POP PUSH2 0xBFC JUMP JUMPDEST SWAP1 PUSH1 0xA DUP3 MUL SWAP2 DUP1 DUP4 DIV PUSH1 0xA EQ SWAP1 ISZERO OR ISZERO PUSH2 0x9E1 JUMPI PUSH2 0x9CE JUMPI SWAP2 PUSH2 0x881 SWAP4 SWAP2 DUP13 SWAP6 SWAP4 DIV SWAP2 PUSH1 0xA DUP4 GT PUSH2 0x9C5 JUMPI JUMPDEST SWAP2 SWAP4 CODESIZE DUP1 DUP1 SWAP6 SWAP4 SWAP6 PUSH2 0x866 JUMP JUMPDEST PUSH1 0xA SWAP3 POP PUSH2 0x9B8 JUMP JUMPDEST PUSH4 0x4E487B71 PUSH1 0xE0 SHL DUP13 MSTORE PUSH1 0x12 PUSH1 0x4 MSTORE DUP8 DUP13 REVERT JUMPDEST PUSH4 0x4E487B71 PUSH1 0xE0 SHL DUP14 MSTORE PUSH1 0x11 PUSH1 0x4 MSTORE DUP9 DUP14 REVERT JUMPDEST SWAP4 PUSH2 0x838 JUMP JUMPDEST PUSH1 0x1E SWAP6 POP PUSH2 0x82A JUMP JUMPDEST PUSH4 0x4E487B71 PUSH1 0xE0 SHL DUP15 MSTORE PUSH1 0x11 PUSH1 0x4 MSTORE DUP10 DUP15 REVERT JUMPDEST PUSH1 0x40 MLOAD PUSH3 0x461BCD PUSH1 0xE5 SHL DUP2 MSTORE PUSH1 0x4 DUP2 ADD DUP10 SWAP1 MSTORE PUSH1 0x14 DUP2 DUP10 ADD MSTORE PUSH20 0x436F6C6C6563746F72206E6F7420616374697665 PUSH1 0x60 SHL PUSH1 0x44 DUP3 ADD MSTORE PUSH1 0x64 SWAP1 REVERT JUMPDEST PUSH2 0xA68 SWAP2 POP DUP10 RETURNDATASIZE DUP12 GT PUSH2 0x651 JUMPI PUSH2 0x643 DUP2 DUP4 PUSH2 0xBC2 JUMP JUMPDEST CODESIZE PUSH2 0x7B3 JUMP JUMPDEST PUSH1 0x40 MLOAD RETURNDATASIZE DUP15 DUP3 RETURNDATACOPY RETURNDATASIZE SWAP1 REVERT JUMPDEST POP PUSH1 0x2 SLOAD DUP9 AND CALLER EQ PUSH2 0x755 JUMP JUMPDEST POP CALLVALUE PUSH2 0xC2 JUMPI DUP1 PUSH1 0x3 NOT CALLDATASIZE ADD SLT PUSH2 0xC2 JUMPI PUSH1 0x2 SLOAD PUSH1 0x40 MLOAD PUSH1 0x1 PUSH1 0x1 PUSH1 0xA0 SHL SUB SWAP1 SWAP2 AND DUP2 MSTORE PUSH1 0x20 SWAP1 RETURN JUMPDEST SWAP1 POP CALLVALUE PUSH2 0x6CB JUMPI DUP2 PUSH1 0x3 NOT CALLDATASIZE ADD SLT PUSH2 0x6CB JUMPI PUSH32 0x0 PUSH1 0x1 PUSH1 0x1 PUSH1 0xA0 SHL SUB AND DUP2 MSTORE PUSH1 0x20 SWAP1 RETURN JUMPDEST PUSH1 0x4 CALLDATALOAD SWAP1 PUSH1 0x1 PUSH1 0x1 PUSH1 0xA0 SHL SUB DUP3 AND DUP3 SUB PUSH2 0xB08 JUMPI JUMP JUMPDEST PUSH1 0x0 DUP1 REVERT JUMPDEST SWAP2 DUP2 PUSH1 0x1F DUP5 ADD SLT ISZERO PUSH2 0xB08 JUMPI DUP3 CALLDATALOAD SWAP2 PUSH8 0xFFFFFFFFFFFFFFFF DUP4 GT PUSH2 0xB08 JUMPI PUSH1 0x20 DUP1 DUP6 ADD SWAP5 DUP5 PUSH1 0x5 SHL ADD ADD GT PUSH2 0xB08 JUMPI JUMP JUMPDEST ISZERO PUSH2 0xB45 JUMPI JUMP JUMPDEST PUSH1 0x40 MLOAD PUSH3 0x461BCD PUSH1 0xE5 SHL DUP2 MSTORE PUSH1 0x20 PUSH1 0x4 DUP3 ADD MSTORE PUSH1 0xE PUSH1 0x24 DUP3 ADD MSTORE PUSH14 0x139BDD08185D5D1A1BDC9A5E9959 PUSH1 0x92 SHL PUSH1 0x44 DUP3 ADD MSTORE PUSH1 0x64 SWAP1 REVERT JUMPDEST PUSH8 0xFFFFFFFFFFFFFFFF DUP2 GT PUSH2 0xB8F JUMPI PUSH1 0x40 MSTORE JUMP JUMPDEST PUSH4 0x4E487B71 PUSH1 0xE0 SHL PUSH1 0x0 MSTORE PUSH1 0x41 PUSH1 0x4 MSTORE PUSH1 0x24 PUSH1 0x0 REVERT JUMPDEST PUSH2 0x100 DUP2 ADD SWAP1 DUP2 LT PUSH8 0xFFFFFFFFFFFFFFFF DUP3 GT OR PUSH2 0xB8F JUMPI PUSH1 0x40 MSTORE JUMP JUMPDEST SWAP1 PUSH1 0x1F DUP1 NOT SWAP2 ADD AND DUP2 ADD SWAP1 DUP2 LT PUSH8 0xFFFFFFFFFFFFFFFF DUP3 GT OR PUSH2 0xB8F JUMPI PUSH1 0x40 MSTORE JUMP JUMPDEST SWAP1 DUP2 PUSH1 0x20 SWAP2 SUB SLT PUSH2 0xB08 JUMPI MLOAD DUP1 ISZERO ISZERO DUP2 SUB PUSH2 0xB08 JUMPI SWAP1 JUMP JUMPDEST SWAP2 SWAP1 DUP3 ADD DUP1 SWAP3 GT PUSH2 0xC09 JUMPI JUMP JUMPDEST PUSH4 0x4E487B71 PUSH1 0xE0 SHL PUSH1 0x0 MSTORE PUSH1 0x11 PUSH1 0x4 MSTORE PUSH1 0x24 PUSH1 0x0 REVERT JUMPDEST PUSH1 0x0 NOT DUP2 EQ PUSH2 0xC09 JUMPI PUSH1 0x1 ADD SWAP1 JUMP JUMPDEST SWAP2 SWAP1 DUP2 LT ISZERO PUSH2 0xC3E JUMPI PUSH1 0x5 SHL ADD SWAP1 JUMP JUMPDEST PUSH4 0x4E487B71 PUSH1 0xE0 SHL PUSH1 0x0 MSTORE PUSH1 0x32 PUSH1 0x4 MSTORE PUSH1 0x24 PUSH1 0x0 REVERT JUMPDEST CALLDATALOAD PUSH1 0x1 PUSH1 0x1 PUSH1 0xA0 SHL SUB DUP2 AND DUP2 SUB PUSH2 0xB08 JUMPI SWAP1 JUMP JUMPDEST PUSH1 0x1 PUSH1 0x1 PUSH1 0xA0 SHL SUB AND PUSH1 0x0 SWAP1 DUP2 MSTORE PUSH1 0x20 DUP2 SWAP1 MSTORE PUSH1 0x40 SWAP1 KECCAK256 PUSH1 0x1 ADD SLOAD PUSH1 0xFF AND DUP1 ISZERO PUSH2 0xCBD JUMPI PUSH1 0x1 DUP2 EQ PUSH2 0xCB6 JUMPI PUSH1 0x2 DUP2 EQ PUSH2 0xCAF JUMPI PUSH1 0x3 EQ PUSH2 0xCA9 JUMPI PUSH2 0x3A98 SWAP1 JUMP JUMPDEST PUSH2 0x34BC SWAP1 JUMP JUMPDEST POP PUSH2 0x2EE0 SWAP1 JUMP JUMPDEST POP PUSH2 0x2AF8 SWAP1 JUMP JUMPDEST POP PUSH2 0x2710 SWAP1 JUMP JUMPDEST PUSH2 0x321 DUP2 LT ISZERO PUSH2 0xCFF JUMPI PUSH2 0x1F5 DUP2 LT ISZERO PUSH2 0xCF9 JUMPI PUSH1 0xC9 DUP2 LT ISZERO PUSH2 0xCF3 JUMPI PUSH1 0x33 GT ISZERO PUSH2 0xCEE JUMPI PUSH1 0x0 SWAP1 JUMP JUMPDEST PUSH1 0x1 SWAP1 JUMP JUMPDEST POP PUSH1 0x2 SWAP1 JUMP JUMPDEST POP PUSH1 0x3 SWAP1 JUMP JUMPDEST POP PUSH1 0x4 SWAP1 JUMP JUMPDEST DUP1 ISZERO PUSH2 0xD5E JUMPI PUSH1 0x1 DUP1 DUP3 ADD DUP1 SWAP3 GT PUSH2 0xC09 JUMPI PUSH1 0x0 SWAP1 DUP3 JUMPDEST PUSH2 0xD4A JUMPI POP PUSH2 0x4B5 DUP1 DUP3 MUL SWAP3 POP DUP2 ISZERO SWAP2 DUP4 DIV EQ OR ISZERO PUSH2 0xC09 JUMPI PUSH1 0x64 SWAP1 DIV PUSH1 0x28 DUP2 GT PUSH2 0xD44 JUMPI SWAP1 JUMP JUMPDEST POP PUSH1 0x28 SWAP1 JUMP JUMPDEST PUSH2 0xD58 SWAP3 DUP2 SHR SWAP3 DUP4 SWAP3 PUSH2 0xC1F JUMP JUMPDEST SWAP2 PUSH2 0xD1C JUMP JUMPDEST POP PUSH1 0x0 SWAP1 JUMP INVALID LOG2 PUSH5 0x6970667358 0x22 SLT KECCAK256 0xCA 0x2C DUP4 SGT 0xB1 0xD 0x4A PUSH8 0x403738FF3277468A LOG3 0xB8 PUSH30 0x233F9455A806BE97A662B6E6F364736F6C63430008130033000000000000 "},"methodIdentifiers":{"admin()":"f851a440","batchUpdateReputation(address[],uint256[],uint8[],uint16[],uint256[],uint256[])":"96030f07","collectorRegistry()":"0513d078","getPayoutMultiplierBps(address)":"90553315","getReputation(address)":"9c89a0e2","getScore(address)":"d47875d0","getTier(address)":"b45aae52","recoveryAgent()":"4a7805c3","reputationData(address)":"a8769305","setRecoveryAgent(address)":"9bac7669","updateReputation(address,uint256,uint8,uint16,uint256,uint256)":"6f98ebe3"}}}}}