{"src/CollectorRegistry.sol":{"CollectorRegistry":{"abi":[{"inputs":[],"stateMutability":"nonpayable","type":"constructor"},{"anonymous":false,"inputs":[{"indexed":true,"internalType":"address","name":"collectorAddress","type":"address"},{"indexed":false,"internalType":"string","name":"reason","type":"string"}],"name":"CollectorBlacklisted","type":"event"},{"anonymous":false,"inputs":[{"indexed":true,"internalType":"address","name":"collectorAddress","type":"address"},{"indexed":false,"internalType":"string","name":"hederaAccountId","type":"string"},{"indexed":false,"internalType":"bytes32","name":"phoneHash","type":"bytes32"},{"indexed":false,"internalType":"string","name":"zone","type":"string"},{"indexed":false,"internalType":"uint256","name":"didHcsSequence","type":"uint256"}],"name":"CollectorRegistered","type":"event"},{"anonymous":false,"inputs":[{"indexed":true,"internalType":"address","name":"collectorAddress","type":"address"},{"indexed":false,"internalType":"uint256","name":"newScore","type":"uint256"},{"indexed":false,"internalType":"uint8","name":"newTier","type":"uint8"}],"name":"ReputationUpdated","type":"event"},{"inputs":[],"name":"admin","outputs":[{"internalType":"address","name":"","type":"address"}],"stateMutability":"view","type":"function"},{"inputs":[{"internalType":"address","name":"_collector","type":"address"},{"internalType":"string","name":"_reason","type":"string"}],"name":"blacklistCollector","outputs":[],"stateMutability":"nonpayable","type":"function"},{"inputs":[{"internalType":"uint256","name":"","type":"uint256"}],"name":"collectorAddresses","outputs":[{"internalType":"address","name":"","type":"address"}],"stateMutability":"view","type":"function"},{"inputs":[{"internalType":"address","name":"","type":"address"}],"name":"collectors","outputs":[{"internalType":"address","name":"walletAddress","type":"address"},{"internalType":"string","name":"hederaAccountId","type":"string"},{"internalType":"bytes32","name":"phoneHash","type":"bytes32"},{"internalType":"string","name":"zone","type":"string"},{"internalType":"uint256","name":"reputationScore","type":"uint256"},{"internalType":"uint8","name":"reputationTier","type":"uint8"},{"internalType":"uint256","name":"totalKgRecovered","type":"uint256"},{"internalType":"uint256","name":"totalHbarEarned","type":"uint256"},{"internalType":"uint8","name":"uniqueStationCount","type":"uint8"},{"internalType":"uint16","name":"activeWeeks","type":"uint16"},{"internalType":"bool","name":"isActive","type":"bool"},{"internalType":"uint256","name":"registeredAt","type":"uint256"},{"internalType":"uint256","name":"didHcsSequence","type":"uint256"}],"stateMutability":"view","type":"function"},{"inputs":[{"internalType":"address","name":"_collector","type":"address"}],"name":"getCollector","outputs":[{"components":[{"internalType":"address","name":"walletAddress","type":"address"},{"internalType":"string","name":"hederaAccountId","type":"string"},{"internalType":"bytes32","name":"phoneHash","type":"bytes32"},{"internalType":"string","name":"zone","type":"string"},{"internalType":"uint256","name":"reputationScore","type":"uint256"},{"internalType":"uint8","name":"reputationTier","type":"uint8"},{"internalType":"uint256","name":"totalKgRecovered","type":"uint256"},{"internalType":"uint256","name":"totalHbarEarned","type":"uint256"},{"internalType":"uint8","name":"uniqueStationCount","type":"uint8"},{"internalType":"uint16","name":"activeWeeks","type":"uint16"},{"internalType":"bool","name":"isActive","type":"bool"},{"internalType":"uint256","name":"registeredAt","type":"uint256"},{"internalType":"uint256","name":"didHcsSequence","type":"uint256"}],"internalType":"struct CollectorRegistry.Collector","name":"","type":"tuple"}],"stateMutability":"view","type":"function"},{"inputs":[{"internalType":"bytes32","name":"_phoneHash","type":"bytes32"}],"name":"getCollectorByPhone","outputs":[{"internalType":"address","name":"","type":"address"}],"stateMutability":"view","type":"function"},{"inputs":[],"name":"getCollectorCount","outputs":[{"internalType":"uint256","name":"","type":"uint256"}],"stateMutability":"view","type":"function"},{"inputs":[{"internalType":"string","name":"","type":"string"}],"name":"hederaIdToAddress","outputs":[{"internalType":"address","name":"","type":"address"}],"stateMutability":"view","type":"function"},{"inputs":[{"internalType":"address","name":"_collector","type":"address"}],"name":"isCollectorActive","outputs":[{"internalType":"bool","name":"","type":"bool"}],"stateMutability":"view","type":"function"},{"inputs":[{"internalType":"bytes32","name":"","type":"bytes32"}],"name":"phoneHashToAddress","outputs":[{"internalType":"address","name":"","type":"address"}],"stateMutability":"view","type":"function"},{"inputs":[],"name":"recoveryAgent","outputs":[{"internalType":"address","name":"","type":"address"}],"stateMutability":"view","type":"function"},{"inputs":[{"internalType":"string","name":"_hederaAccountId","type":"string"},{"internalType":"bytes32","name":"_phoneHash","type":"bytes32"},{"internalType":"string","name":"_zone","type":"string"},{"internalType":"uint256","name":"_didHcsSequence","type":"uint256"}],"name":"registerCollector","outputs":[],"stateMutability":"nonpayable","type":"function"},{"inputs":[],"name":"reputationOracle","outputs":[{"internalType":"address","name":"","type":"address"}],"stateMutability":"view","type":"function"},{"inputs":[{"internalType":"address","name":"_agent","type":"address"}],"name":"setRecoveryAgent","outputs":[],"stateMutability":"nonpayable","type":"function"},{"inputs":[{"internalType":"address","name":"_oracle","type":"address"}],"name":"setReputationOracle","outputs":[],"stateMutability":"nonpayable","type":"function"},{"inputs":[{"internalType":"address","name":"_collector","type":"address"},{"internalType":"uint256","name":"_score","type":"uint256"},{"internalType":"uint8","name":"_tier","type":"uint8"}],"name":"updateReputation","outputs":[],"stateMutability":"nonpayable","type":"function"},{"inputs":[{"internalType":"address","name":"_collector","type":"address"},{"internalType":"uint256","name":"_kgRecovered","type":"uint256"},{"internalType":"uint256","name":"_hbarEarned","type":"uint256"}],"name":"updateStats","outputs":[],"stateMutability":"nonpayable","type":"function"}],"evm":{"bytecode":{"linkReferences":{},"object":"6080806040523461002857600480546001600160a01b031916331790556111ab908161002e8239f35b600080fdfe608080604052600436101561001357600080fd5b60003560e01c908163255599d914610e5e5750806328e6a45c14610d8057806333eff52614610d3e578063460cd1ed14610c815780634a7805c314610c585780638a67fc3b14610ba95780639228244d146105a95780639593b523146104af57806399658f2e146101315780639bac7669146104635780639e0572521461025f578063d19cfdac14610213578063dbcd13df146101ce578063ddc4f8aa14610165578063e728989514610131578063f851a440146101085763fad844c1146100da57600080fd5b34610103576000366003190112610103576006546040516001600160a01b039091168152602090f35b600080fd5b34610103576000366003190112610103576004546040516001600160a01b039091168152602090f35b34610103576020366003190112610103576004356000526001602052602060018060a01b0360406000205416604051908152f35b346101035760203660031901126101035760043567ffffffffffffffff8111610103576101986020913690600401610f1b565b816101ac6040519283815193849201611052565b600290820190815281900382019020546040516001600160a01b039091168152f35b34610103576020366003190112610103576001600160a01b036101ef610e79565b166000526000602052602060ff60086040600020015460181c166040519015158152f35b346101035760203660031901126101035761022c610e79565b6004546001600160a01b039190610246908316331461109a565b166001600160601b0360a01b6006541617600655600080f35b3461010357602036600319011261010357610278610e79565b600061018060405161028981610edc565b828152606060208201528260408201526060808201528260808201528260a08201528260c08201528260e082015282610100820152826101208201528261014082015282610160820152015260018060a01b031660005260006020526040600020600a604051916102f983610edc565b80546001600160a01b0316835261031260018201610fac565b60208401526002810154604084015261032d60038201610fac565b60608401526004810154608084015260ff60058201541660a0840152600681015460c0840152600781015460e084015260ff600882015481811661010086015261ffff8160081c1661012086015260181c1615156101408401526009810154610160840152015461018082015260405180916020825260018060a01b0381511660208301526101806103f36103d360208401516101a060408701526101c0860190611075565b604084015160608601526060840151601f19868303016080870152611075565b91608081015160a085015260ff60a08201511660c085015260c081015160e085015260e081015161010085015260ff6101008201511661012085015261ffff6101208201511661014085015261014081015115156101608501526101608101518285015201516101a08301520390f35b346101035760203660031901126101035761047c610e79565b6004546001600160a01b039190610496908316331461109a565b166001600160601b0360a01b6005541617600555600080f35b34610103576020366003190112610103576001600160a01b03806104d1610e79565b1660005260006020526040600020908154166104ef60018301610fac565b9160028101549061050260038201610fac565b9060ff600482015493816005840154166006840154600785015491610561600887015494600a60098901549801549861054e6040519d8e9d8e528d6101a0908160208201520190611075565b9160408d01528b820360608d0152611075565b9760808a015260a089015260c088015260e087015281811661010087015261ffff8160081c1661012087015260181c1615156101408501526101608401526101808301520390f35b346101035760803660031901126101035760043567ffffffffffffffff8111610103576105da903690600401610f1b565b60443567ffffffffffffffff8111610103576105fa903690600401610f1b565b336000908152602081905260409020546001600160a01b0316610b6f576024356000908152600160205260409020546001600160a01b0316610b2a576040518251610649818360208701611052565b60029082019081528190036020019020546001600160a01b0316610ae55760405161067381610edc565b338152826020820152602435604082015281606082015260006080820152600060a0820152600060c0820152600060e08201526000610100820152600061012082015260016101408201524261016082015260643561018082015233600052600060205260406000209060018060a01b038151166001600160601b0360a01b835416178255602081015180519067ffffffffffffffff821161093757819061071e6001860154610f72565b601f8111610a92575b50602090601f8311600114610a2057600092610a15575b50508160011b916000199060031b1c19161760018301555b60408101516002830155606081015180519067ffffffffffffffff8211610937576107846003850154610f72565b601f81116109ce575b50602090601f8311600114610958579180600a94926101809460009261094d575b50508160011b916000199060031b1c19161760038501555b608081015160048501556005840160ff60a08301511660ff1982541617905560c0810151600685015560e081015160078501556008840160ff6101008301511681549062ffff0061012085015160081b169063ff000000610140860151151560181b169263ffffffff191617171790556101608101516009850155015191015560243560005260016020526040600020336001600160601b0360a01b825416179055604051602081845161087d8183858901611052565b81016002815203019020336001600160601b0360a01b82541617905560035468010000000000000000811015610937577f9eae8cb3346add4647bbb99b8b08db492f532ba3ee0c4404ad2120402cf14b85916108e28260016109269401600355610e8f565b81549060031b9033821b9160018060a01b03901b191617905561091060405194608086526080860190611075565b9060243560208601528482036040860152611075565b9160643560608201528033930390a2005b634e487b7160e01b600052604160045260246000fd5b0151905088806107ae565b906003850160005260206000209160005b601f19851681106109b6575092600a94926001926101809583601f1981161061099d575b505050811b0160038501556107c6565b015160001960f88460031b161c1916905588808061098d565b91926020600181928685015181550194019201610969565b600385016000526020600020601f840160051c810160208510610a0e575b601f830160051c82018110610a0257505061078d565b600081556001016109ec565b50806109ec565b01519050868061073e565b9250600185016000526020600020906000935b601f1984168510610a77576001945083601f19811610610a5e575b505050811b016001830155610756565b015160001960f88460031b161c19169055868080610a4e565b81810151835560209485019460019093019290910190610a33565b909150600185016000526020600020601f840160051c810160208510610ade575b90849392915b601f830160051c82018110610acf575050610727565b60008155859450600101610ab9565b5080610ab3565b60405162461bcd60e51b815260206004820152601c60248201527f48656465726120494420616c72656164792072656769737465726564000000006044820152606490fd5b60405162461bcd60e51b815260206004820152601860248201527f50686f6e6520616c7265616479207265676973746572656400000000000000006044820152606490fd5b60405162461bcd60e51b8152602060048201526012602482015271105b1c9958591e481c9959da5cdd195c995960721b6044820152606490fd5b3461010357604036600319011261010357610bc2610e79565b60243567ffffffffffffffff811161010357610c53610c067f13a391853160cd5d65ff176f108e73409956bea4c611f4d64a935066972835b9923690600401610f1b565b60045490936001600160a01b0391610c21908316331461109a565b1692836000526000602052600860406000200163ff000000198154169055604051918291602083526020830190611075565b0390a2005b34610103576000366003190112610103576005546040516001600160a01b039091168152602090f35b3461010357606036600319011261010357610c9a610e79565b6004546001600160a01b039190821633148015610d31575b8015610d24575b610cc2906110d2565b16806000526000602052610ce360ff60086040600020015460181c1661110f565b8060005260006020526006604060002001610d016024358254611152565b905560005260006020526007604060002001610d206044358254611152565b9055005b5060065482163314610cb9565b5081600554163314610cb2565b346101035760203660031901126101035760043560035481101561010357610d67602091610e8f565b905460405160039290921b1c6001600160a01b03168152f35b3461010357606036600319011261010357610d99610e79565b6024356044359160ff8316809303610103577fe49cf8896948048b69e1531d3f28ce172d4464f874cedc6c5e3b002d1cc2f20b9160409160018060a01b0390816004541633148015610e51575b8015610e44575b610df6906110d2565b1693846000526000602052610e1760ff600885600020015460181c1661110f565b846000526000602052600583600020836004820155018160ff1982541617905582519182526020820152a2005b5060065482163314610ded565b5081600554163314610de6565b34610103576000366003190112610103576020906003548152f35b600435906001600160a01b038216820361010357565b600354811015610ec65760036000527fc2575a0e9e593c00f959f8c92f12db2869c3395a3b0502d05e2516446f71f85b0190600090565b634e487b7160e01b600052603260045260246000fd5b6101a0810190811067ffffffffffffffff82111761093757604052565b90601f8019910116810190811067ffffffffffffffff82111761093757604052565b81601f820112156101035780359067ffffffffffffffff82116109375760405192610f50601f8401601f191660200185610ef9565b8284526020838301011161010357816000926020809301838601378301015290565b90600182811c92168015610fa2575b6020831014610f8c57565b634e487b7160e01b600052602260045260246000fd5b91607f1691610f81565b9060405191826000825492610fc084610f72565b90818452600194858116908160001461102f5750600114610fec575b5050610fea92500383610ef9565b565b9093915060005260209081600020936000915b818310611017575050610fea93508201013880610fdc565b85548884018501529485019487945091830191610fff565b915050610fea94506020925060ff191682840152151560051b8201013880610fdc565b60005b8381106110655750506000910152565b8181015183820152602001611055565b9060209161108e81518092818552858086019101611052565b601f01601f1916010190565b156110a157565b60405162461bcd60e51b81526020600482015260096024820152682737ba1030b236b4b760b91b6044820152606490fd5b156110d957565b60405162461bcd60e51b815260206004820152600e60248201526d139bdd08185d5d1a1bdc9a5e995960921b6044820152606490fd5b1561111657565b60405162461bcd60e51b8152602060048201526014602482015273436f6c6c6563746f72206e6f742061637469766560601b6044820152606490fd5b9190820180921161115f57565b634e487b7160e01b600052601160045260246000fdfea26469706673582212209f5b95042c566c579d01f074098e3f2016ad330df08daaebb17b28a87f1d7efd64736f6c63430008130033","opcodes":"PUSH1 0x80 DUP1 PUSH1 0x40 MSTORE CALLVALUE PUSH2 0x28 JUMPI PUSH1 0x4 DUP1 SLOAD PUSH1 0x1 PUSH1 0x1 PUSH1 0xA0 SHL SUB NOT AND CALLER OR SWAP1 SSTORE PUSH2 0x11AB SWAP1 DUP2 PUSH2 0x2E DUP3 CODECOPY RETURN JUMPDEST PUSH1 0x0 DUP1 REVERT INVALID PUSH1 0x80 DUP1 PUSH1 0x40 MSTORE PUSH1 0x4 CALLDATASIZE LT ISZERO PUSH2 0x13 JUMPI PUSH1 0x0 DUP1 REVERT JUMPDEST PUSH1 0x0 CALLDATALOAD PUSH1 0xE0 SHR SWAP1 DUP2 PUSH4 0x255599D9 EQ PUSH2 0xE5E JUMPI POP DUP1 PUSH4 0x28E6A45C EQ PUSH2 0xD80 JUMPI DUP1 PUSH4 0x33EFF526 EQ PUSH2 0xD3E JUMPI DUP1 PUSH4 0x460CD1ED EQ PUSH2 0xC81 JUMPI DUP1 PUSH4 0x4A7805C3 EQ PUSH2 0xC58 JUMPI DUP1 PUSH4 0x8A67FC3B EQ PUSH2 0xBA9 JUMPI DUP1 PUSH4 0x9228244D EQ PUSH2 0x5A9 JUMPI DUP1 PUSH4 0x9593B523 EQ PUSH2 0x4AF JUMPI DUP1 PUSH4 0x99658F2E EQ PUSH2 0x131 JUMPI DUP1 PUSH4 0x9BAC7669 EQ PUSH2 0x463 JUMPI DUP1 PUSH4 0x9E057252 EQ PUSH2 0x25F JUMPI DUP1 PUSH4 0xD19CFDAC EQ PUSH2 0x213 JUMPI DUP1 PUSH4 0xDBCD13DF EQ PUSH2 0x1CE JUMPI DUP1 PUSH4 0xDDC4F8AA EQ PUSH2 0x165 JUMPI DUP1 PUSH4 0xE7289895 EQ PUSH2 0x131 JUMPI DUP1 PUSH4 0xF851A440 EQ PUSH2 0x108 JUMPI PUSH4 0xFAD844C1 EQ PUSH2 0xDA JUMPI PUSH1 0x0 DUP1 REVERT JUMPDEST CALLVALUE PUSH2 0x103 JUMPI PUSH1 0x0 CALLDATASIZE PUSH1 0x3 NOT ADD SLT PUSH2 0x103 JUMPI PUSH1 0x6 SLOAD PUSH1 0x40 MLOAD PUSH1 0x1 PUSH1 0x1 PUSH1 0xA0 SHL SUB SWAP1 SWAP2 AND DUP2 MSTORE PUSH1 0x20 SWAP1 RETURN JUMPDEST PUSH1 0x0 DUP1 REVERT JUMPDEST CALLVALUE PUSH2 0x103 JUMPI PUSH1 0x0 CALLDATASIZE PUSH1 0x3 NOT ADD SLT PUSH2 0x103 JUMPI PUSH1 0x4 SLOAD PUSH1 0x40 MLOAD PUSH1 0x1 PUSH1 0x1 PUSH1 0xA0 SHL SUB SWAP1 SWAP2 AND DUP2 MSTORE PUSH1 0x20 SWAP1 RETURN JUMPDEST CALLVALUE PUSH2 0x103 JUMPI PUSH1 0x20 CALLDATASIZE PUSH1 0x3 NOT ADD SLT PUSH2 0x103 JUMPI PUSH1 0x4 CALLDATALOAD PUSH1 0x0 MSTORE PUSH1 0x1 PUSH1 0x20 MSTORE PUSH1 0x20 PUSH1 0x1 DUP1 PUSH1 0xA0 SHL SUB PUSH1 0x40 PUSH1 0x0 KECCAK256 SLOAD AND PUSH1 0x40 MLOAD SWAP1 DUP2 MSTORE RETURN JUMPDEST CALLVALUE PUSH2 0x103 JUMPI PUSH1 0x20 CALLDATASIZE PUSH1 0x3 NOT ADD SLT PUSH2 0x103 JUMPI PUSH1 0x4 CALLDATALOAD PUSH8 0xFFFFFFFFFFFFFFFF DUP2 GT PUSH2 0x103 JUMPI PUSH2 0x198 PUSH1 0x20 SWAP2 CALLDATASIZE SWAP1 PUSH1 0x4 ADD PUSH2 0xF1B JUMP JUMPDEST DUP2 PUSH2 0x1AC PUSH1 0x40 MLOAD SWAP3 DUP4 DUP2 MLOAD SWAP4 DUP5 SWAP3 ADD PUSH2 0x1052 JUMP JUMPDEST PUSH1 0x2 SWAP1 DUP3 ADD SWAP1 DUP2 MSTORE DUP2 SWAP1 SUB DUP3 ADD SWAP1 KECCAK256 SLOAD PUSH1 0x40 MLOAD PUSH1 0x1 PUSH1 0x1 PUSH1 0xA0 SHL SUB SWAP1 SWAP2 AND DUP2 MSTORE RETURN JUMPDEST CALLVALUE PUSH2 0x103 JUMPI PUSH1 0x20 CALLDATASIZE PUSH1 0x3 NOT ADD SLT PUSH2 0x103 JUMPI PUSH1 0x1 PUSH1 0x1 PUSH1 0xA0 SHL SUB PUSH2 0x1EF PUSH2 0xE79 JUMP JUMPDEST AND PUSH1 0x0 MSTORE PUSH1 0x0 PUSH1 0x20 MSTORE PUSH1 0x20 PUSH1 0xFF PUSH1 0x8 PUSH1 0x40 PUSH1 0x0 KECCAK256 ADD SLOAD PUSH1 0x18 SHR AND PUSH1 0x40 MLOAD SWAP1 ISZERO ISZERO DUP2 MSTORE RETURN JUMPDEST CALLVALUE PUSH2 0x103 JUMPI PUSH1 0x20 CALLDATASIZE PUSH1 0x3 NOT ADD SLT PUSH2 0x103 JUMPI PUSH2 0x22C PUSH2 0xE79 JUMP JUMPDEST PUSH1 0x4 SLOAD PUSH1 0x1 PUSH1 0x1 PUSH1 0xA0 SHL SUB SWAP2 SWAP1 PUSH2 0x246 SWAP1 DUP4 AND CALLER EQ PUSH2 0x109A JUMP JUMPDEST AND PUSH1 0x1 PUSH1 0x1 PUSH1 0x60 SHL SUB PUSH1 0xA0 SHL PUSH1 0x6 SLOAD AND OR PUSH1 0x6 SSTORE PUSH1 0x0 DUP1 RETURN JUMPDEST CALLVALUE PUSH2 0x103 JUMPI PUSH1 0x20 CALLDATASIZE PUSH1 0x3 NOT ADD SLT PUSH2 0x103 JUMPI PUSH2 0x278 PUSH2 0xE79 JUMP JUMPDEST PUSH1 0x0 PUSH2 0x180 PUSH1 0x40 MLOAD PUSH2 0x289 DUP2 PUSH2 0xEDC JUMP JUMPDEST DUP3 DUP2 MSTORE PUSH1 0x60 PUSH1 0x20 DUP3 ADD MSTORE DUP3 PUSH1 0x40 DUP3 ADD MSTORE PUSH1 0x60 DUP1 DUP3 ADD MSTORE DUP3 PUSH1 0x80 DUP3 ADD MSTORE DUP3 PUSH1 0xA0 DUP3 ADD MSTORE DUP3 PUSH1 0xC0 DUP3 ADD MSTORE DUP3 PUSH1 0xE0 DUP3 ADD MSTORE DUP3 PUSH2 0x100 DUP3 ADD MSTORE DUP3 PUSH2 0x120 DUP3 ADD MSTORE DUP3 PUSH2 0x140 DUP3 ADD MSTORE DUP3 PUSH2 0x160 DUP3 ADD MSTORE ADD MSTORE PUSH1 0x1 DUP1 PUSH1 0xA0 SHL SUB AND PUSH1 0x0 MSTORE PUSH1 0x0 PUSH1 0x20 MSTORE PUSH1 0x40 PUSH1 0x0 KECCAK256 PUSH1 0xA PUSH1 0x40 MLOAD SWAP2 PUSH2 0x2F9 DUP4 PUSH2 0xEDC JUMP JUMPDEST DUP1 SLOAD PUSH1 0x1 PUSH1 0x1 PUSH1 0xA0 SHL SUB AND DUP4 MSTORE PUSH2 0x312 PUSH1 0x1 DUP3 ADD PUSH2 0xFAC JUMP JUMPDEST PUSH1 0x20 DUP5 ADD MSTORE PUSH1 0x2 DUP2 ADD SLOAD PUSH1 0x40 DUP5 ADD MSTORE PUSH2 0x32D PUSH1 0x3 DUP3 ADD PUSH2 0xFAC JUMP JUMPDEST PUSH1 0x60 DUP5 ADD MSTORE PUSH1 0x4 DUP2 ADD SLOAD PUSH1 0x80 DUP5 ADD MSTORE PUSH1 0xFF PUSH1 0x5 DUP3 ADD SLOAD AND PUSH1 0xA0 DUP5 ADD MSTORE PUSH1 0x6 DUP2 ADD SLOAD PUSH1 0xC0 DUP5 ADD MSTORE PUSH1 0x7 DUP2 ADD SLOAD PUSH1 0xE0 DUP5 ADD MSTORE PUSH1 0xFF PUSH1 0x8 DUP3 ADD SLOAD DUP2 DUP2 AND PUSH2 0x100 DUP7 ADD MSTORE PUSH2 0xFFFF DUP2 PUSH1 0x8 SHR AND PUSH2 0x120 DUP7 ADD MSTORE PUSH1 0x18 SHR AND ISZERO ISZERO PUSH2 0x140 DUP5 ADD MSTORE PUSH1 0x9 DUP2 ADD SLOAD PUSH2 0x160 DUP5 ADD MSTORE ADD SLOAD PUSH2 0x180 DUP3 ADD MSTORE PUSH1 0x40 MLOAD DUP1 SWAP2 PUSH1 0x20 DUP3 MSTORE PUSH1 0x1 DUP1 PUSH1 0xA0 SHL SUB DUP2 MLOAD AND PUSH1 0x20 DUP4 ADD MSTORE PUSH2 0x180 PUSH2 0x3F3 PUSH2 0x3D3 PUSH1 0x20 DUP5 ADD MLOAD PUSH2 0x1A0 PUSH1 0x40 DUP8 ADD MSTORE PUSH2 0x1C0 DUP7 ADD SWAP1 PUSH2 0x1075 JUMP JUMPDEST PUSH1 0x40 DUP5 ADD MLOAD PUSH1 0x60 DUP7 ADD MSTORE PUSH1 0x60 DUP5 ADD MLOAD PUSH1 0x1F NOT DUP7 DUP4 SUB ADD PUSH1 0x80 DUP8 ADD MSTORE PUSH2 0x1075 JUMP JUMPDEST SWAP2 PUSH1 0x80 DUP2 ADD MLOAD PUSH1 0xA0 DUP6 ADD MSTORE PUSH1 0xFF PUSH1 0xA0 DUP3 ADD MLOAD AND PUSH1 0xC0 DUP6 ADD MSTORE PUSH1 0xC0 DUP2 ADD MLOAD PUSH1 0xE0 DUP6 ADD MSTORE PUSH1 0xE0 DUP2 ADD MLOAD PUSH2 0x100 DUP6 ADD MSTORE PUSH1 0xFF PUSH2 0x100 DUP3 ADD MLOAD AND PUSH2 0x120 DUP6 ADD MSTORE PUSH2 0xFFFF PUSH2 0x120 DUP3 ADD MLOAD AND PUSH2 0x140 DUP6 ADD MSTORE PUSH2 0x140 DUP2 ADD MLOAD ISZERO ISZERO PUSH2 0x160 DUP6 ADD MSTORE PUSH2 0x160 DUP2 ADD MLOAD DUP3 DUP6 ADD MSTORE ADD MLOAD PUSH2 0x1A0 DUP4 ADD MSTORE SUB SWAP1 RETURN JUMPDEST CALLVALUE PUSH2 0x103 JUMPI PUSH1 0x20 CALLDATASIZE PUSH1 0x3 NOT ADD SLT PUSH2 0x103 JUMPI PUSH2 0x47C PUSH2 0xE79 JUMP JUMPDEST PUSH1 0x4 SLOAD PUSH1 0x1 PUSH1 0x1 PUSH1 0xA0 SHL SUB SWAP2 SWAP1 PUSH2 0x496 SWAP1 DUP4 AND CALLER EQ PUSH2 0x109A JUMP JUMPDEST AND PUSH1 0x1 PUSH1 0x1 PUSH1 0x60 SHL SUB PUSH1 0xA0 SHL PUSH1 0x5 SLOAD AND OR PUSH1 0x5 SSTORE PUSH1 0x0 DUP1 RETURN JUMPDEST CALLVALUE PUSH2 0x103 JUMPI PUSH1 0x20 CALLDATASIZE PUSH1 0x3 NOT ADD SLT PUSH2 0x103 JUMPI PUSH1 0x1 PUSH1 0x1 PUSH1 0xA0 SHL SUB DUP1 PUSH2 0x4D1 PUSH2 0xE79 JUMP JUMPDEST AND PUSH1 0x0 MSTORE PUSH1 0x0 PUSH1 0x20 MSTORE PUSH1 0x40 PUSH1 0x0 KECCAK256 SWAP1 DUP2 SLOAD AND PUSH2 0x4EF PUSH1 0x1 DUP4 ADD PUSH2 0xFAC JUMP JUMPDEST SWAP2 PUSH1 0x2 DUP2 ADD SLOAD SWAP1 PUSH2 0x502 PUSH1 0x3 DUP3 ADD PUSH2 0xFAC JUMP JUMPDEST SWAP1 PUSH1 0xFF PUSH1 0x4 DUP3 ADD SLOAD SWAP4 DUP2 PUSH1 0x5 DUP5 ADD SLOAD AND PUSH1 0x6 DUP5 ADD SLOAD PUSH1 0x7 DUP6 ADD SLOAD SWAP2 PUSH2 0x561 PUSH1 0x8 DUP8 ADD SLOAD SWAP5 PUSH1 0xA PUSH1 0x9 DUP10 ADD SLOAD SWAP9 ADD SLOAD SWAP9 PUSH2 0x54E PUSH1 0x40 MLOAD SWAP14 DUP15 SWAP14 DUP15 MSTORE DUP14 PUSH2 0x1A0 SWAP1 DUP2 PUSH1 0x20 DUP3 ADD MSTORE ADD SWAP1 PUSH2 0x1075 JUMP JUMPDEST SWAP2 PUSH1 0x40 DUP14 ADD MSTORE DUP12 DUP3 SUB PUSH1 0x60 DUP14 ADD MSTORE PUSH2 0x1075 JUMP JUMPDEST SWAP8 PUSH1 0x80 DUP11 ADD MSTORE PUSH1 0xA0 DUP10 ADD MSTORE PUSH1 0xC0 DUP9 ADD MSTORE PUSH1 0xE0 DUP8 ADD MSTORE DUP2 DUP2 AND PUSH2 0x100 DUP8 ADD MSTORE PUSH2 0xFFFF DUP2 PUSH1 0x8 SHR AND PUSH2 0x120 DUP8 ADD MSTORE PUSH1 0x18 SHR AND ISZERO ISZERO PUSH2 0x140 DUP6 ADD MSTORE PUSH2 0x160 DUP5 ADD MSTORE PUSH2 0x180 DUP4 ADD MSTORE SUB SWAP1 RETURN JUMPDEST CALLVALUE PUSH2 0x103 JUMPI PUSH1 0x80 CALLDATASIZE PUSH1 0x3 NOT ADD SLT PUSH2 0x103 JUMPI PUSH1 0x4 CALLDATALOAD PUSH8 0xFFFFFFFFFFFFFFFF DUP2 GT PUSH2 0x103 JUMPI PUSH2 0x5DA SWAP1 CALLDATASIZE SWAP1 PUSH1 0x4 ADD PUSH2 0xF1B JUMP JUMPDEST PUSH1 0x44 CALLDATALOAD PUSH8 0xFFFFFFFFFFFFFFFF DUP2 GT PUSH2 0x103 JUMPI PUSH2 0x5FA SWAP1 CALLDATASIZE SWAP1 PUSH1 0x4 ADD PUSH2 0xF1B JUMP JUMPDEST CALLER PUSH1 0x0 SWAP1 DUP2 MSTORE PUSH1 0x20 DUP2 SWAP1 MSTORE PUSH1 0x40 SWAP1 KECCAK256 SLOAD PUSH1 0x1 PUSH1 0x1 PUSH1 0xA0 SHL SUB AND PUSH2 0xB6F JUMPI PUSH1 0x24 CALLDATALOAD PUSH1 0x0 SWAP1 DUP2 MSTORE PUSH1 0x1 PUSH1 0x20 MSTORE PUSH1 0x40 SWAP1 KECCAK256 SLOAD PUSH1 0x1 PUSH1 0x1 PUSH1 0xA0 SHL SUB AND PUSH2 0xB2A JUMPI PUSH1 0x40 MLOAD DUP3 MLOAD PUSH2 0x649 DUP2 DUP4 PUSH1 0x20 DUP8 ADD PUSH2 0x1052 JUMP JUMPDEST PUSH1 0x2 SWAP1 DUP3 ADD SWAP1 DUP2 MSTORE DUP2 SWAP1 SUB PUSH1 0x20 ADD SWAP1 KECCAK256 SLOAD PUSH1 0x1 PUSH1 0x1 PUSH1 0xA0 SHL SUB AND PUSH2 0xAE5 JUMPI PUSH1 0x40 MLOAD PUSH2 0x673 DUP2 PUSH2 0xEDC JUMP JUMPDEST CALLER DUP2 MSTORE DUP3 PUSH1 0x20 DUP3 ADD MSTORE PUSH1 0x24 CALLDATALOAD PUSH1 0x40 DUP3 ADD MSTORE DUP2 PUSH1 0x60 DUP3 ADD MSTORE PUSH1 0x0 PUSH1 0x80 DUP3 ADD MSTORE PUSH1 0x0 PUSH1 0xA0 DUP3 ADD MSTORE PUSH1 0x0 PUSH1 0xC0 DUP3 ADD MSTORE PUSH1 0x0 PUSH1 0xE0 DUP3 ADD MSTORE PUSH1 0x0 PUSH2 0x100 DUP3 ADD MSTORE PUSH1 0x0 PUSH2 0x120 DUP3 ADD MSTORE PUSH1 0x1 PUSH2 0x140 DUP3 ADD MSTORE TIMESTAMP PUSH2 0x160 DUP3 ADD MSTORE PUSH1 0x64 CALLDATALOAD PUSH2 0x180 DUP3 ADD MSTORE CALLER PUSH1 0x0 MSTORE PUSH1 0x0 PUSH1 0x20 MSTORE PUSH1 0x40 PUSH1 0x0 KECCAK256 SWAP1 PUSH1 0x1 DUP1 PUSH1 0xA0 SHL SUB DUP2 MLOAD AND PUSH1 0x1 PUSH1 0x1 PUSH1 0x60 SHL SUB PUSH1 0xA0 SHL DUP4 SLOAD AND OR DUP3 SSTORE PUSH1 0x20 DUP2 ADD MLOAD DUP1 MLOAD SWAP1 PUSH8 0xFFFFFFFFFFFFFFFF DUP3 GT PUSH2 0x937 JUMPI DUP2 SWAP1 PUSH2 0x71E PUSH1 0x1 DUP7 ADD SLOAD PUSH2 0xF72 JUMP JUMPDEST PUSH1 0x1F DUP2 GT PUSH2 0xA92 JUMPI JUMPDEST POP PUSH1 0x20 SWAP1 PUSH1 0x1F DUP4 GT PUSH1 0x1 EQ PUSH2 0xA20 JUMPI PUSH1 0x0 SWAP3 PUSH2 0xA15 JUMPI JUMPDEST POP POP DUP2 PUSH1 0x1 SHL SWAP2 PUSH1 0x0 NOT SWAP1 PUSH1 0x3 SHL SHR NOT AND OR PUSH1 0x1 DUP4 ADD SSTORE JUMPDEST PUSH1 0x40 DUP2 ADD MLOAD PUSH1 0x2 DUP4 ADD SSTORE PUSH1 0x60 DUP2 ADD MLOAD DUP1 MLOAD SWAP1 PUSH8 0xFFFFFFFFFFFFFFFF DUP3 GT PUSH2 0x937 JUMPI PUSH2 0x784 PUSH1 0x3 DUP6 ADD SLOAD PUSH2 0xF72 JUMP JUMPDEST PUSH1 0x1F DUP2 GT PUSH2 0x9CE JUMPI JUMPDEST POP PUSH1 0x20 SWAP1 PUSH1 0x1F DUP4 GT PUSH1 0x1 EQ PUSH2 0x958 JUMPI SWAP2 DUP1 PUSH1 0xA SWAP5 SWAP3 PUSH2 0x180 SWAP5 PUSH1 0x0 SWAP3 PUSH2 0x94D JUMPI JUMPDEST POP POP DUP2 PUSH1 0x1 SHL SWAP2 PUSH1 0x0 NOT SWAP1 PUSH1 0x3 SHL SHR NOT AND OR PUSH1 0x3 DUP6 ADD SSTORE JUMPDEST PUSH1 0x80 DUP2 ADD MLOAD PUSH1 0x4 DUP6 ADD SSTORE PUSH1 0x5 DUP5 ADD PUSH1 0xFF PUSH1 0xA0 DUP4 ADD MLOAD AND PUSH1 0xFF NOT DUP3 SLOAD AND OR SWAP1 SSTORE PUSH1 0xC0 DUP2 ADD MLOAD PUSH1 0x6 DUP6 ADD SSTORE PUSH1 0xE0 DUP2 ADD MLOAD PUSH1 0x7 DUP6 ADD SSTORE PUSH1 0x8 DUP5 ADD PUSH1 0xFF PUSH2 0x100 DUP4 ADD MLOAD AND DUP2 SLOAD SWAP1 PUSH3 0xFFFF00 PUSH2 0x120 DUP6 ADD MLOAD PUSH1 0x8 SHL AND SWAP1 PUSH4 0xFF000000 PUSH2 0x140 DUP7 ADD MLOAD ISZERO ISZERO PUSH1 0x18 SHL AND SWAP3 PUSH4 0xFFFFFFFF NOT AND OR OR OR SWAP1 SSTORE PUSH2 0x160 DUP2 ADD MLOAD PUSH1 0x9 DUP6 ADD SSTORE ADD MLOAD SWAP2 ADD SSTORE PUSH1 0x24 CALLDATALOAD PUSH1 0x0 MSTORE PUSH1 0x1 PUSH1 0x20 MSTORE PUSH1 0x40 PUSH1 0x0 KECCAK256 CALLER PUSH1 0x1 PUSH1 0x1 PUSH1 0x60 SHL SUB PUSH1 0xA0 SHL DUP3 SLOAD AND OR SWAP1 SSTORE PUSH1 0x40 MLOAD PUSH1 0x20 DUP2 DUP5 MLOAD PUSH2 0x87D DUP2 DUP4 DUP6 DUP10 ADD PUSH2 0x1052 JUMP JUMPDEST DUP2 ADD PUSH1 0x2 DUP2 MSTORE SUB ADD SWAP1 KECCAK256 CALLER PUSH1 0x1 PUSH1 0x1 PUSH1 0x60 SHL SUB PUSH1 0xA0 SHL DUP3 SLOAD AND OR SWAP1 SSTORE PUSH1 0x3 SLOAD PUSH9 0x10000000000000000 DUP2 LT ISZERO PUSH2 0x937 JUMPI PUSH32 0x9EAE8CB3346ADD4647BBB99B8B08DB492F532BA3EE0C4404AD2120402CF14B85 SWAP2 PUSH2 0x8E2 DUP3 PUSH1 0x1 PUSH2 0x926 SWAP5 ADD PUSH1 0x3 SSTORE PUSH2 0xE8F JUMP JUMPDEST DUP2 SLOAD SWAP1 PUSH1 0x3 SHL SWAP1 CALLER DUP3 SHL SWAP2 PUSH1 0x1 DUP1 PUSH1 0xA0 SHL SUB SWAP1 SHL NOT AND OR SWAP1 SSTORE PUSH2 0x910 PUSH1 0x40 MLOAD SWAP5 PUSH1 0x80 DUP7 MSTORE PUSH1 0x80 DUP7 ADD SWAP1 PUSH2 0x1075 JUMP JUMPDEST SWAP1 PUSH1 0x24 CALLDATALOAD PUSH1 0x20 DUP7 ADD MSTORE DUP5 DUP3 SUB PUSH1 0x40 DUP7 ADD MSTORE PUSH2 0x1075 JUMP JUMPDEST SWAP2 PUSH1 0x64 CALLDATALOAD PUSH1 0x60 DUP3 ADD MSTORE DUP1 CALLER SWAP4 SUB SWAP1 LOG2 STOP JUMPDEST PUSH4 0x4E487B71 PUSH1 0xE0 SHL PUSH1 0x0 MSTORE PUSH1 0x41 PUSH1 0x4 MSTORE PUSH1 0x24 PUSH1 0x0 REVERT JUMPDEST ADD MLOAD SWAP1 POP DUP9 DUP1 PUSH2 0x7AE JUMP JUMPDEST SWAP1 PUSH1 0x3 DUP6 ADD PUSH1 0x0 MSTORE PUSH1 0x20 PUSH1 0x0 KECCAK256 SWAP2 PUSH1 0x0 JUMPDEST PUSH1 0x1F NOT DUP6 AND DUP2 LT PUSH2 0x9B6 JUMPI POP SWAP3 PUSH1 0xA SWAP5 SWAP3 PUSH1 0x1 SWAP3 PUSH2 0x180 SWAP6 DUP4 PUSH1 0x1F NOT DUP2 AND LT PUSH2 0x99D JUMPI JUMPDEST POP POP POP DUP2 SHL ADD PUSH1 0x3 DUP6 ADD SSTORE PUSH2 0x7C6 JUMP JUMPDEST ADD MLOAD PUSH1 0x0 NOT PUSH1 0xF8 DUP5 PUSH1 0x3 SHL AND SHR NOT AND SWAP1 SSTORE DUP9 DUP1 DUP1 PUSH2 0x98D JUMP JUMPDEST SWAP2 SWAP3 PUSH1 0x20 PUSH1 0x1 DUP2 SWAP3 DUP7 DUP6 ADD MLOAD DUP2 SSTORE ADD SWAP5 ADD SWAP3 ADD PUSH2 0x969 JUMP JUMPDEST PUSH1 0x3 DUP6 ADD PUSH1 0x0 MSTORE PUSH1 0x20 PUSH1 0x0 KECCAK256 PUSH1 0x1F DUP5 ADD PUSH1 0x5 SHR DUP2 ADD PUSH1 0x20 DUP6 LT PUSH2 0xA0E JUMPI JUMPDEST PUSH1 0x1F DUP4 ADD PUSH1 0x5 SHR DUP3 ADD DUP2 LT PUSH2 0xA02 JUMPI POP POP PUSH2 0x78D JUMP JUMPDEST PUSH1 0x0 DUP2 SSTORE PUSH1 0x1 ADD PUSH2 0x9EC JUMP JUMPDEST POP DUP1 PUSH2 0x9EC JUMP JUMPDEST ADD MLOAD SWAP1 POP DUP7 DUP1 PUSH2 0x73E JUMP JUMPDEST SWAP3 POP PUSH1 0x1 DUP6 ADD PUSH1 0x0 MSTORE PUSH1 0x20 PUSH1 0x0 KECCAK256 SWAP1 PUSH1 0x0 SWAP4 JUMPDEST PUSH1 0x1F NOT DUP5 AND DUP6 LT PUSH2 0xA77 JUMPI PUSH1 0x1 SWAP5 POP DUP4 PUSH1 0x1F NOT DUP2 AND LT PUSH2 0xA5E JUMPI JUMPDEST POP POP POP DUP2 SHL ADD PUSH1 0x1 DUP4 ADD SSTORE PUSH2 0x756 JUMP JUMPDEST ADD MLOAD PUSH1 0x0 NOT PUSH1 0xF8 DUP5 PUSH1 0x3 SHL AND SHR NOT AND SWAP1 SSTORE DUP7 DUP1 DUP1 PUSH2 0xA4E JUMP JUMPDEST DUP2 DUP2 ADD MLOAD DUP4 SSTORE PUSH1 0x20 SWAP5 DUP6 ADD SWAP5 PUSH1 0x1 SWAP1 SWAP4 ADD SWAP3 SWAP1 SWAP2 ADD SWAP1 PUSH2 0xA33 JUMP JUMPDEST SWAP1 SWAP2 POP PUSH1 0x1 DUP6 ADD PUSH1 0x0 MSTORE PUSH1 0x20 PUSH1 0x0 KECCAK256 PUSH1 0x1F DUP5 ADD PUSH1 0x5 SHR DUP2 ADD PUSH1 0x20 DUP6 LT PUSH2 0xADE JUMPI JUMPDEST SWAP1 DUP5 SWAP4 SWAP3 SWAP2 JUMPDEST PUSH1 0x1F DUP4 ADD PUSH1 0x5 SHR DUP3 ADD DUP2 LT PUSH2 0xACF JUMPI POP POP PUSH2 0x727 JUMP JUMPDEST PUSH1 0x0 DUP2 SSTORE DUP6 SWAP5 POP PUSH1 0x1 ADD PUSH2 0xAB9 JUMP JUMPDEST POP DUP1 PUSH2 0xAB3 JUMP JUMPDEST PUSH1 0x40 MLOAD PUSH3 0x461BCD PUSH1 0xE5 SHL DUP2 MSTORE PUSH1 0x20 PUSH1 0x4 DUP3 ADD MSTORE PUSH1 0x1C PUSH1 0x24 DUP3 ADD MSTORE PUSH32 0x48656465726120494420616C7265616479207265676973746572656400000000 PUSH1 0x44 DUP3 ADD MSTORE PUSH1 0x64 SWAP1 REVERT JUMPDEST PUSH1 0x40 MLOAD PUSH3 0x461BCD PUSH1 0xE5 SHL DUP2 MSTORE PUSH1 0x20 PUSH1 0x4 DUP3 ADD MSTORE PUSH1 0x18 PUSH1 0x24 DUP3 ADD MSTORE PUSH32 0x50686F6E6520616C726561647920726567697374657265640000000000000000 PUSH1 0x44 DUP3 ADD MSTORE PUSH1 0x64 SWAP1 REVERT JUMPDEST PUSH1 0x40 MLOAD PUSH3 0x461BCD PUSH1 0xE5 SHL DUP2 MSTORE PUSH1 0x20 PUSH1 0x4 DUP3 ADD MSTORE PUSH1 0x12 PUSH1 0x24 DUP3 ADD MSTORE PUSH18 0x105B1C9958591E481C9959DA5CDD195C9959 PUSH1 0x72 SHL PUSH1 0x44 DUP3 ADD MSTORE PUSH1 0x64 SWAP1 REVERT JUMPDEST CALLVALUE PUSH2 0x103 JUMPI PUSH1 0x40 CALLDATASIZE PUSH1 0x3 NOT ADD SLT PUSH2 0x103 JUMPI PUSH2 0xBC2 PUSH2 0xE79 JUMP JUMPDEST PUSH1 0x24 CALLDATALOAD PUSH8 0xFFFFFFFFFFFFFFFF DUP2 GT PUSH2 0x103 JUMPI PUSH2 0xC53 PUSH2 0xC06 PUSH32 0x13A391853160CD5D65FF176F108E73409956BEA4C611F4D64A935066972835B9 SWAP3 CALLDATASIZE SWAP1 PUSH1 0x4 ADD PUSH2 0xF1B JUMP JUMPDEST PUSH1 0x4 SLOAD SWAP1 SWAP4 PUSH1 0x1 PUSH1 0x1 PUSH1 0xA0 SHL SUB SWAP2 PUSH2 0xC21 SWAP1 DUP4 AND CALLER EQ PUSH2 0x109A JUMP JUMPDEST AND SWAP3 DUP4 PUSH1 0x0 MSTORE PUSH1 0x0 PUSH1 0x20 MSTORE PUSH1 0x8 PUSH1 0x40 PUSH1 0x0 KECCAK256 ADD PUSH4 0xFF000000 NOT DUP2 SLOAD AND SWAP1 SSTORE PUSH1 0x40 MLOAD SWAP2 DUP3 SWAP2 PUSH1 0x20 DUP4 MSTORE PUSH1 0x20 DUP4 ADD SWAP1 PUSH2 0x1075 JUMP JUMPDEST SUB SWAP1 LOG2 STOP JUMPDEST CALLVALUE PUSH2 0x103 JUMPI PUSH1 0x0 CALLDATASIZE PUSH1 0x3 NOT ADD SLT PUSH2 0x103 JUMPI PUSH1 0x5 SLOAD PUSH1 0x40 MLOAD PUSH1 0x1 PUSH1 0x1 PUSH1 0xA0 SHL SUB SWAP1 SWAP2 AND DUP2 MSTORE PUSH1 0x20 SWAP1 RETURN JUMPDEST CALLVALUE PUSH2 0x103 JUMPI PUSH1 0x60 CALLDATASIZE PUSH1 0x3 NOT ADD SLT PUSH2 0x103 JUMPI PUSH2 0xC9A PUSH2 0xE79 JUMP JUMPDEST PUSH1 0x4 SLOAD PUSH1 0x1 PUSH1 0x1 PUSH1 0xA0 SHL SUB SWAP2 SWAP1 DUP3 AND CALLER EQ DUP1 ISZERO PUSH2 0xD31 JUMPI JUMPDEST DUP1 ISZERO PUSH2 0xD24 JUMPI JUMPDEST PUSH2 0xCC2 SWAP1 PUSH2 0x10D2 JUMP JUMPDEST AND DUP1 PUSH1 0x0 MSTORE PUSH1 0x0 PUSH1 0x20 MSTORE PUSH2 0xCE3 PUSH1 0xFF PUSH1 0x8 PUSH1 0x40 PUSH1 0x0 KECCAK256 ADD SLOAD PUSH1 0x18 SHR AND PUSH2 0x110F JUMP JUMPDEST DUP1 PUSH1 0x0 MSTORE PUSH1 0x0 PUSH1 0x20 MSTORE PUSH1 0x6 PUSH1 0x40 PUSH1 0x0 KECCAK256 ADD PUSH2 0xD01 PUSH1 0x24 CALLDATALOAD DUP3 SLOAD PUSH2 0x1152 JUMP JUMPDEST SWAP1 SSTORE PUSH1 0x0 MSTORE PUSH1 0x0 PUSH1 0x20 MSTORE PUSH1 0x7 PUSH1 0x40 PUSH1 0x0 KECCAK256 ADD PUSH2 0xD20 PUSH1 0x44 CALLDATALOAD DUP3 SLOAD PUSH2 0x1152 JUMP JUMPDEST SWAP1 SSTORE STOP JUMPDEST POP PUSH1 0x6 SLOAD DUP3 AND CALLER EQ PUSH2 0xCB9 JUMP JUMPDEST POP DUP2 PUSH1 0x5 SLOAD AND CALLER EQ PUSH2 0xCB2 JUMP JUMPDEST CALLVALUE PUSH2 0x103 JUMPI PUSH1 0x20 CALLDATASIZE PUSH1 0x3 NOT ADD SLT PUSH2 0x103 JUMPI PUSH1 0x4 CALLDATALOAD PUSH1 0x3 SLOAD DUP2 LT ISZERO PUSH2 0x103 JUMPI PUSH2 0xD67 PUSH1 0x20 SWAP2 PUSH2 0xE8F JUMP JUMPDEST SWAP1 SLOAD PUSH1 0x40 MLOAD PUSH1 0x3 SWAP3 SWAP1 SWAP3 SHL SHR PUSH1 0x1 PUSH1 0x1 PUSH1 0xA0 SHL SUB AND DUP2 MSTORE RETURN JUMPDEST CALLVALUE PUSH2 0x103 JUMPI PUSH1 0x60 CALLDATASIZE PUSH1 0x3 NOT ADD SLT PUSH2 0x103 JUMPI PUSH2 0xD99 PUSH2 0xE79 JUMP JUMPDEST PUSH1 0x24 CALLDATALOAD PUSH1 0x44 CALLDATALOAD SWAP2 PUSH1 0xFF DUP4 AND DUP1 SWAP4 SUB PUSH2 0x103 JUMPI PUSH32 0xE49CF8896948048B69E1531D3F28CE172D4464F874CEDC6C5E3B002D1CC2F20B SWAP2 PUSH1 0x40 SWAP2 PUSH1 0x1 DUP1 PUSH1 0xA0 SHL SUB SWAP1 DUP2 PUSH1 0x4 SLOAD AND CALLER EQ DUP1 ISZERO PUSH2 0xE51 JUMPI JUMPDEST DUP1 ISZERO PUSH2 0xE44 JUMPI JUMPDEST PUSH2 0xDF6 SWAP1 PUSH2 0x10D2 JUMP JUMPDEST AND SWAP4 DUP5 PUSH1 0x0 MSTORE PUSH1 0x0 PUSH1 0x20 MSTORE PUSH2 0xE17 PUSH1 0xFF PUSH1 0x8 DUP6 PUSH1 0x0 KECCAK256 ADD SLOAD PUSH1 0x18 SHR AND PUSH2 0x110F JUMP JUMPDEST DUP5 PUSH1 0x0 MSTORE PUSH1 0x0 PUSH1 0x20 MSTORE PUSH1 0x5 DUP4 PUSH1 0x0 KECCAK256 DUP4 PUSH1 0x4 DUP3 ADD SSTORE ADD DUP2 PUSH1 0xFF NOT DUP3 SLOAD AND OR SWAP1 SSTORE DUP3 MLOAD SWAP2 DUP3 MSTORE PUSH1 0x20 DUP3 ADD MSTORE LOG2 STOP JUMPDEST POP PUSH1 0x6 SLOAD DUP3 AND CALLER EQ PUSH2 0xDED JUMP JUMPDEST POP DUP2 PUSH1 0x5 SLOAD AND CALLER EQ PUSH2 0xDE6 JUMP JUMPDEST CALLVALUE PUSH2 0x103 JUMPI PUSH1 0x0 CALLDATASIZE PUSH1 0x3 NOT ADD SLT PUSH2 0x103 JUMPI PUSH1 0x20 SWAP1 PUSH1 0x3 SLOAD DUP2 MSTORE RETURN JUMPDEST PUSH1 0x4 CALLDATALOAD SWAP1 PUSH1 0x1 PUSH1 0x1 PUSH1 0xA0 SHL SUB DUP3 AND DUP3 SUB PUSH2 0x103 JUMPI JUMP JUMPDEST PUSH1 0x3 SLOAD DUP2 LT ISZERO PUSH2 0xEC6 JUMPI PUSH1 0x3 PUSH1 0x0 MSTORE PUSH32 0xC2575A0E9E593C00F959F8C92F12DB2869C3395A3B0502D05E2516446F71F85B ADD SWAP1 PUSH1 0x0 SWAP1 JUMP JUMPDEST PUSH4 0x4E487B71 PUSH1 0xE0 SHL PUSH1 0x0 MSTORE PUSH1 0x32 PUSH1 0x4 MSTORE PUSH1 0x24 PUSH1 0x0 REVERT JUMPDEST PUSH2 0x1A0 DUP2 ADD SWAP1 DUP2 LT PUSH8 0xFFFFFFFFFFFFFFFF DUP3 GT OR PUSH2 0x937 JUMPI PUSH1 0x40 MSTORE JUMP JUMPDEST SWAP1 PUSH1 0x1F DUP1 NOT SWAP2 ADD AND DUP2 ADD SWAP1 DUP2 LT PUSH8 0xFFFFFFFFFFFFFFFF DUP3 GT OR PUSH2 0x937 JUMPI PUSH1 0x40 MSTORE JUMP JUMPDEST DUP2 PUSH1 0x1F DUP3 ADD SLT ISZERO PUSH2 0x103 JUMPI DUP1 CALLDATALOAD SWAP1 PUSH8 0xFFFFFFFFFFFFFFFF DUP3 GT PUSH2 0x937 JUMPI PUSH1 0x40 MLOAD SWAP3 PUSH2 0xF50 PUSH1 0x1F DUP5 ADD PUSH1 0x1F NOT AND PUSH1 0x20 ADD DUP6 PUSH2 0xEF9 JUMP JUMPDEST DUP3 DUP5 MSTORE PUSH1 0x20 DUP4 DUP4 ADD ADD GT PUSH2 0x103 JUMPI DUP2 PUSH1 0x0 SWAP3 PUSH1 0x20 DUP1 SWAP4 ADD DUP4 DUP7 ADD CALLDATACOPY DUP4 ADD ADD MSTORE SWAP1 JUMP JUMPDEST SWAP1 PUSH1 0x1 DUP3 DUP2 SHR SWAP3 AND DUP1 ISZERO PUSH2 0xFA2 JUMPI JUMPDEST PUSH1 0x20 DUP4 LT EQ PUSH2 0xF8C JUMPI JUMP JUMPDEST PUSH4 0x4E487B71 PUSH1 0xE0 SHL PUSH1 0x0 MSTORE PUSH1 0x22 PUSH1 0x4 MSTORE PUSH1 0x24 PUSH1 0x0 REVERT JUMPDEST SWAP2 PUSH1 0x7F AND SWAP2 PUSH2 0xF81 JUMP JUMPDEST SWAP1 PUSH1 0x40 MLOAD SWAP2 DUP3 PUSH1 0x0 DUP3 SLOAD SWAP3 PUSH2 0xFC0 DUP5 PUSH2 0xF72 JUMP JUMPDEST SWAP1 DUP2 DUP5 MSTORE PUSH1 0x1 SWAP5 DUP6 DUP2 AND SWAP1 DUP2 PUSH1 0x0 EQ PUSH2 0x102F JUMPI POP PUSH1 0x1 EQ PUSH2 0xFEC JUMPI JUMPDEST POP POP PUSH2 0xFEA SWAP3 POP SUB DUP4 PUSH2 0xEF9 JUMP JUMPDEST JUMP JUMPDEST SWAP1 SWAP4 SWAP2 POP PUSH1 0x0 MSTORE PUSH1 0x20 SWAP1 DUP2 PUSH1 0x0 KECCAK256 SWAP4 PUSH1 0x0 SWAP2 JUMPDEST DUP2 DUP4 LT PUSH2 0x1017 JUMPI POP POP PUSH2 0xFEA SWAP4 POP DUP3 ADD ADD CODESIZE DUP1 PUSH2 0xFDC JUMP JUMPDEST DUP6 SLOAD DUP9 DUP5 ADD DUP6 ADD MSTORE SWAP5 DUP6 ADD SWAP5 DUP8 SWAP5 POP SWAP2 DUP4 ADD SWAP2 PUSH2 0xFFF JUMP JUMPDEST SWAP2 POP POP PUSH2 0xFEA SWAP5 POP PUSH1 0x20 SWAP3 POP PUSH1 0xFF NOT AND DUP3 DUP5 ADD MSTORE ISZERO ISZERO PUSH1 0x5 SHL DUP3 ADD ADD CODESIZE DUP1 PUSH2 0xFDC JUMP JUMPDEST PUSH1 0x0 JUMPDEST DUP4 DUP2 LT PUSH2 0x1065 JUMPI POP POP PUSH1 0x0 SWAP2 ADD MSTORE JUMP JUMPDEST DUP2 DUP2 ADD MLOAD DUP4 DUP3 ADD MSTORE PUSH1 0x20 ADD PUSH2 0x1055 JUMP JUMPDEST SWAP1 PUSH1 0x20 SWAP2 PUSH2 0x108E DUP2 MLOAD DUP1 SWAP3 DUP2 DUP6 MSTORE DUP6 DUP1 DUP7 ADD SWAP2 ADD PUSH2 0x1052 JUMP JUMPDEST PUSH1 0x1F ADD PUSH1 0x1F NOT AND ADD ADD SWAP1 JUMP JUMPDEST ISZERO PUSH2 0x10A1 JUMPI JUMP JUMPDEST PUSH1 0x40 MLOAD PUSH3 0x461BCD PUSH1 0xE5 SHL DUP2 MSTORE PUSH1 0x20 PUSH1 0x4 DUP3 ADD MSTORE PUSH1 0x9 PUSH1 0x24 DUP3 ADD MSTORE PUSH9 0x2737BA1030B236B4B7 PUSH1 0xB9 SHL PUSH1 0x44 DUP3 ADD MSTORE PUSH1 0x64 SWAP1 REVERT JUMPDEST ISZERO PUSH2 0x10D9 JUMPI JUMP JUMPDEST PUSH1 0x40 MLOAD PUSH3 0x461BCD PUSH1 0xE5 SHL DUP2 MSTORE PUSH1 0x20 PUSH1 0x4 DUP3 ADD MSTORE PUSH1 0xE PUSH1 0x24 DUP3 ADD MSTORE PUSH14 0x139BDD08185D5D1A1BDC9A5E9959 PUSH1 0x92 SHL PUSH1 0x44 DUP3 ADD MSTORE PUSH1 0x64 SWAP1 REVERT JUMPDEST ISZERO PUSH2 0x1116 JUMPI JUMP JUMPDEST PUSH1 0x40 MLOAD PUSH3 0x461BCD PUSH1 0xE5 SHL DUP2 MSTORE PUSH1 0x20 PUSH1 0x4 DUP3 ADD MSTORE PUSH1 0x14 PUSH1 0x24 DUP3 ADD MSTORE PUSH20 0x436F6C6C6563746F72206E6F7420616374697665 PUSH1 0x60 SHL PUSH1 0x44 DUP3 ADD MSTORE PUSH1 0x64 SWAP1 REVERT JUMPDEST SWAP2 SWAP1 DUP3 ADD DUP1 SWAP3 GT PUSH2 0x115F JUMPI JUMP JUMPDEST PUSH4 0x4E487B71 PUSH1 0xE0 SHL PUSH1 0x0 MSTORE PUSH1 0x11 PUSH1 0x4 MSTORE PUSH1 0x24 PUSH1 0x0 REVERT INVALID LOG2 PUSH5 0x6970667358 0x22 SLT KECCAK256 SWAP16 JUMPDEST SWAP6 DIV 0x2C JUMP PUSH13 0x579D01F074098E3F2016AD330D CREATE DUP14 0xAA 0xEB 0xB1 PUSH28 0x28A87F1D7EFD64736F6C634300081300330000000000000000000000 "},"methodIdentifiers":{"admin()":"f851a440","blacklistCollector(address,string)":"8a67fc3b","collectorAddresses(uint256)":"33eff526","collectors(address)":"9593b523","getCollector(address)":"9e057252","getCollectorByPhone(bytes32)":"e7289895","getCollectorCount()":"255599d9","hederaIdToAddress(string)":"ddc4f8aa","isCollectorActive(address)":"dbcd13df","phoneHashToAddress(bytes32)":"99658f2e","recoveryAgent()":"4a7805c3","registerCollector(string,bytes32,string,uint256)":"9228244d","reputationOracle()":"fad844c1","setRecoveryAgent(address)":"9bac7669","setReputationOracle(address)":"d19cfdac","updateReputation(address,uint256,uint8)":"28e6a45c","updateStats(address,uint256,uint256)":"460cd1ed"}}}}}