{
  "_format": "hh-sol-artifact-1",
  "contractName": "CollectorRegistry",
  "sourceName": "src/CollectorRegistry.sol",
  "abi": [
    {
      "inputs": [],
      "stateMutability": "nonpayable",
      "type": "constructor"
    },
    {
      "anonymous": false,
      "inputs": [
        {
          "indexed": true,
          "internalType": "address",
          "name": "collectorAddress",
          "type": "address"
        },
        {
          "indexed": false,
          "internalType": "string",
          "name": "reason",
          "type": "string"
        }
      ],
      "name": "CollectorBlacklisted",
      "type": "event"
    },
    {
      "anonymous": false,
      "inputs": [
        {
          "indexed": true,
          "internalType": "address",
          "name": "collectorAddress",
          "type": "address"
        },
        {
          "indexed": false,
          "internalType": "string",
          "name": "hederaAccountId",
          "type": "string"
        },
        {
          "indexed": false,
          "internalType": "bytes32",
          "name": "phoneHash",
          "type": "bytes32"
        },
        {
          "indexed": false,
          "internalType": "string",
          "name": "zone",
          "type": "string"
        },
        {
          "indexed": false,
          "internalType": "uint256",
          "name": "didHcsSequence",
          "type": "uint256"
        }
      ],
      "name": "CollectorRegistered",
      "type": "event"
    },
    {
      "anonymous": false,
      "inputs": [
        {
          "indexed": true,
          "internalType": "address",
          "name": "collectorAddress",
          "type": "address"
        },
        {
          "indexed": false,
          "internalType": "uint256",
          "name": "newScore",
          "type": "uint256"
        },
        {
          "indexed": false,
          "internalType": "uint8",
          "name": "newTier",
          "type": "uint8"
        }
      ],
      "name": "ReputationUpdated",
      "type": "event"
    },
    {
      "inputs": [],
      "name": "admin",
      "outputs": [
        {
          "internalType": "address",
          "name": "",
          "type": "address"
        }
      ],
      "stateMutability": "view",
      "type": "function"
    },
    {
      "inputs": [
        {
          "internalType": "address",
          "name": "_collector",
          "type": "address"
        },
        {
          "internalType": "string",
          "name": "_reason",
          "type": "string"
        }
      ],
      "name": "blacklistCollector",
      "outputs": [],
      "stateMutability": "nonpayable",
      "type": "function"
    },
    {
      "inputs": [
        {
          "internalType": "uint256",
          "name": "",
          "type": "uint256"
        }
      ],
      "name": "collectorAddresses",
      "outputs": [
        {
          "internalType": "address",
          "name": "",
          "type": "address"
        }
      ],
      "stateMutability": "view",
      "type": "function"
    },
    {
      "inputs": [
        {
          "internalType": "address",
          "name": "",
          "type": "address"
        }
      ],
      "name": "collectors",
      "outputs": [
        {
          "internalType": "address",
          "name": "walletAddress",
          "type": "address"
        },
        {
          "internalType": "string",
          "name": "hederaAccountId",
          "type": "string"
        },
        {
          "internalType": "bytes32",
          "name": "phoneHash",
          "type": "bytes32"
        },
        {
          "internalType": "string",
          "name": "zone",
          "type": "string"
        },
        {
          "internalType": "uint256",
          "name": "reputationScore",
          "type": "uint256"
        },
        {
          "internalType": "uint8",
          "name": "reputationTier",
          "type": "uint8"
        },
        {
          "internalType": "uint256",
          "name": "totalKgRecovered",
          "type": "uint256"
        },
        {
          "internalType": "uint256",
          "name": "totalHbarEarned",
          "type": "uint256"
        },
        {
          "internalType": "uint8",
          "name": "uniqueStationCount",
          "type": "uint8"
        },
        {
          "internalType": "uint16",
          "name": "activeWeeks",
          "type": "uint16"
        },
        {
          "internalType": "bool",
          "name": "isActive",
          "type": "bool"
        },
        {
          "internalType": "uint256",
          "name": "registeredAt",
          "type": "uint256"
        },
        {
          "internalType": "uint256",
          "name": "didHcsSequence",
          "type": "uint256"
        }
      ],
      "stateMutability": "view",
      "type": "function"
    },
    {
      "inputs": [
        {
          "internalType": "address",
          "name": "_collector",
          "type": "address"
        }
      ],
      "name": "getCollector",
      "outputs": [
        {
          "components": [
            {
              "internalType": "address",
              "name": "walletAddress",
              "type": "address"
            },
            {
              "internalType": "string",
              "name": "hederaAccountId",
              "type": "string"
            },
            {
              "internalType": "bytes32",
              "name": "phoneHash",
              "type": "bytes32"
            },
            {
              "internalType": "string",
              "name": "zone",
              "type": "string"
            },
            {
              "internalType": "uint256",
              "name": "reputationScore",
              "type": "uint256"
            },
            {
              "internalType": "uint8",
              "name": "reputationTier",
              "type": "uint8"
            },
            {
              "internalType": "uint256",
              "name": "totalKgRecovered",
              "type": "uint256"
            },
            {
              "internalType": "uint256",
              "name": "totalHbarEarned",
              "type": "uint256"
            },
            {
              "internalType": "uint8",
              "name": "uniqueStationCount",
              "type": "uint8"
            },
            {
              "internalType": "uint16",
              "name": "activeWeeks",
              "type": "uint16"
            },
            {
              "internalType": "bool",
              "name": "isActive",
              "type": "bool"
            },
            {
              "internalType": "uint256",
              "name": "registeredAt",
              "type": "uint256"
            },
            {
              "internalType": "uint256",
              "name": "didHcsSequence",
              "type": "uint256"
            }
          ],
          "internalType": "struct CollectorRegistry.Collector",
          "name": "",
          "type": "tuple"
        }
      ],
      "stateMutability": "view",
      "type": "function"
    },
    {
      "inputs": [
        {
          "internalType": "bytes32",
          "name": "_phoneHash",
          "type": "bytes32"
        }
      ],
      "name": "getCollectorByPhone",
      "outputs": [
        {
          "internalType": "address",
          "name": "",
          "type": "address"
        }
      ],
      "stateMutability": "view",
      "type": "function"
    },
    {
      "inputs": [],
      "name": "getCollectorCount",
      "outputs": [
        {
          "internalType": "uint256",
          "name": "",
          "type": "uint256"
        }
      ],
      "stateMutability": "view",
      "type": "function"
    },
    {
      "inputs": [
        {
          "internalType": "string",
          "name": "",
          "type": "string"
        }
      ],
      "name": "hederaIdToAddress",
      "outputs": [
        {
          "internalType": "address",
          "name": "",
          "type": "address"
        }
      ],
      "stateMutability": "view",
      "type": "function"
    },
    {
      "inputs": [
        {
          "internalType": "address",
          "name": "_collector",
          "type": "address"
        }
      ],
      "name": "isCollectorActive",
      "outputs": [
        {
          "internalType": "bool",
          "name": "",
          "type": "bool"
        }
      ],
      "stateMutability": "view",
      "type": "function"
    },
    {
      "inputs": [
        {
          "internalType": "bytes32",
          "name": "",
          "type": "bytes32"
        }
      ],
      "name": "phoneHashToAddress",
      "outputs": [
        {
          "internalType": "address",
          "name": "",
          "type": "address"
        }
      ],
      "stateMutability": "view",
      "type": "function"
    },
    {
      "inputs": [],
      "name": "recoveryAgent",
      "outputs": [
        {
          "internalType": "address",
          "name": "",
          "type": "address"
        }
      ],
      "stateMutability": "view",
      "type": "function"
    },
    {
      "inputs": [
        {
          "internalType": "string",
          "name": "_hederaAccountId",
          "type": "string"
        },
        {
          "internalType": "bytes32",
          "name": "_phoneHash",
          "type": "bytes32"
        },
        {
          "internalType": "string",
          "name": "_zone",
          "type": "string"
        },
        {
          "internalType": "uint256",
          "name": "_didHcsSequence",
          "type": "uint256"
        }
      ],
      "name": "registerCollector",
      "outputs": [],
      "stateMutability": "nonpayable",
      "type": "function"
    },
    {
      "inputs": [],
      "name": "reputationOracle",
      "outputs": [
        {
          "internalType": "address",
          "name": "",
          "type": "address"
        }
      ],
      "stateMutability": "view",
      "type": "function"
    },
    {
      "inputs": [
        {
          "internalType": "address",
          "name": "_agent",
          "type": "address"
        }
      ],
      "name": "setRecoveryAgent",
      "outputs": [],
      "stateMutability": "nonpayable",
      "type": "function"
    },
    {
      "inputs": [
        {
          "internalType": "address",
          "name": "_oracle",
          "type": "address"
        }
      ],
      "name": "setReputationOracle",
      "outputs": [],
      "stateMutability": "nonpayable",
      "type": "function"
    },
    {
      "inputs": [
        {
          "internalType": "address",
          "name": "_collector",
          "type": "address"
        },
        {
          "internalType": "uint256",
          "name": "_score",
          "type": "uint256"
        },
        {
          "internalType": "uint8",
          "name": "_tier",
          "type": "uint8"
        }
      ],
      "name": "updateReputation",
      "outputs": [],
      "stateMutability": "nonpayable",
      "type": "function"
    },
    {
      "inputs": [
        {
          "internalType": "address",
          "name": "_collector",
          "type": "address"
        },
        {
          "internalType": "uint256",
          "name": "_kgRecovered",
          "type": "uint256"
        },
        {
          "internalType": "uint256",
          "name": "_hbarEarned",
          "type": "uint256"
        }
      ],
      "name": "updateStats",
      "outputs": [],
      "stateMutability": "nonpayable",
      "type": "function"
    }
  ],
  "bytecode": "0x6080806040523461002857600480546001600160a01b031916331790556111ab908161002e8239f35b600080fdfe608080604052600436101561001357600080fd5b60003560e01c908163255599d914610e5e5750806328e6a45c14610d8057806333eff52614610d3e578063460cd1ed14610c815780634a7805c314610c585780638a67fc3b14610ba95780639228244d146105a95780639593b523146104af57806399658f2e146101315780639bac7669146104635780639e0572521461025f578063d19cfdac14610213578063dbcd13df146101ce578063ddc4f8aa14610165578063e728989514610131578063f851a440146101085763fad844c1146100da57600080fd5b34610103576000366003190112610103576006546040516001600160a01b039091168152602090f35b600080fd5b34610103576000366003190112610103576004546040516001600160a01b039091168152602090f35b34610103576020366003190112610103576004356000526001602052602060018060a01b0360406000205416604051908152f35b346101035760203660031901126101035760043567ffffffffffffffff8111610103576101986020913690600401610f1b565b816101ac6040519283815193849201611052565b600290820190815281900382019020546040516001600160a01b039091168152f35b34610103576020366003190112610103576001600160a01b036101ef610e79565b166000526000602052602060ff60086040600020015460181c166040519015158152f35b346101035760203660031901126101035761022c610e79565b6004546001600160a01b039190610246908316331461109a565b166001600160601b0360a01b6006541617600655600080f35b3461010357602036600319011261010357610278610e79565b600061018060405161028981610edc565b828152606060208201528260408201526060808201528260808201528260a08201528260c08201528260e082015282610100820152826101208201528261014082015282610160820152015260018060a01b031660005260006020526040600020600a604051916102f983610edc565b80546001600160a01b0316835261031260018201610fac565b60208401526002810154604084015261032d60038201610fac565b60608401526004810154608084015260ff60058201541660a0840152600681015460c0840152600781015460e084015260ff600882015481811661010086015261ffff8160081c1661012086015260181c1615156101408401526009810154610160840152015461018082015260405180916020825260018060a01b0381511660208301526101806103f36103d360208401516101a060408701526101c0860190611075565b604084015160608601526060840151601f19868303016080870152611075565b91608081015160a085015260ff60a08201511660c085015260c081015160e085015260e081015161010085015260ff6101008201511661012085015261ffff6101208201511661014085015261014081015115156101608501526101608101518285015201516101a08301520390f35b346101035760203660031901126101035761047c610e79565b6004546001600160a01b039190610496908316331461109a565b166001600160601b0360a01b6005541617600555600080f35b34610103576020366003190112610103576001600160a01b03806104d1610e79565b1660005260006020526040600020908154166104ef60018301610fac565b9160028101549061050260038201610fac565b9060ff600482015493816005840154166006840154600785015491610561600887015494600a60098901549801549861054e6040519d8e9d8e528d6101a0908160208201520190611075565b9160408d01528b820360608d0152611075565b9760808a015260a089015260c088015260e087015281811661010087015261ffff8160081c1661012087015260181c1615156101408501526101608401526101808301520390f35b346101035760803660031901126101035760043567ffffffffffffffff8111610103576105da903690600401610f1b565b60443567ffffffffffffffff8111610103576105fa903690600401610f1b565b336000908152602081905260409020546001600160a01b0316610b6f576024356000908152600160205260409020546001600160a01b0316610b2a576040518251610649818360208701611052565b60029082019081528190036020019020546001600160a01b0316610ae55760405161067381610edc565b338152826020820152602435604082015281606082015260006080820152600060a0820152600060c0820152600060e08201526000610100820152600061012082015260016101408201524261016082015260643561018082015233600052600060205260406000209060018060a01b038151166001600160601b0360a01b835416178255602081015180519067ffffffffffffffff821161093757819061071e6001860154610f72565b601f8111610a92575b50602090601f8311600114610a2057600092610a15575b50508160011b916000199060031b1c19161760018301555b60408101516002830155606081015180519067ffffffffffffffff8211610937576107846003850154610f72565b601f81116109ce575b50602090601f8311600114610958579180600a94926101809460009261094d575b50508160011b916000199060031b1c19161760038501555b608081015160048501556005840160ff60a08301511660ff1982541617905560c0810151600685015560e081015160078501556008840160ff6101008301511681549062ffff0061012085015160081b169063ff000000610140860151151560181b169263ffffffff191617171790556101608101516009850155015191015560243560005260016020526040600020336001600160601b0360a01b825416179055604051602081845161087d8183858901611052565b81016002815203019020336001600160601b0360a01b82541617905560035468010000000000000000811015610937577f9eae8cb3346add4647bbb99b8b08db492f532ba3ee0c4404ad2120402cf14b85916108e28260016109269401600355610e8f565b81549060031b9033821b9160018060a01b03901b191617905561091060405194608086526080860190611075565b9060243560208601528482036040860152611075565b9160643560608201528033930390a2005b634e487b7160e01b600052604160045260246000fd5b0151905088806107ae565b906003850160005260206000209160005b601f19851681106109b6575092600a94926001926101809583601f1981161061099d575b505050811b0160038501556107c6565b015160001960f88460031b161c1916905588808061098d565b91926020600181928685015181550194019201610969565b600385016000526020600020601f840160051c810160208510610a0e575b601f830160051c82018110610a0257505061078d565b600081556001016109ec565b50806109ec565b01519050868061073e565b9250600185016000526020600020906000935b601f1984168510610a77576001945083601f19811610610a5e575b505050811b016001830155610756565b015160001960f88460031b161c19169055868080610a4e565b81810151835560209485019460019093019290910190610a33565b909150600185016000526020600020601f840160051c810160208510610ade575b90849392915b601f830160051c82018110610acf575050610727565b60008155859450600101610ab9565b5080610ab3565b60405162461bcd60e51b815260206004820152601c60248201527f48656465726120494420616c72656164792072656769737465726564000000006044820152606490fd5b60405162461bcd60e51b815260206004820152601860248201527f50686f6e6520616c7265616479207265676973746572656400000000000000006044820152606490fd5b60405162461bcd60e51b8152602060048201526012602482015271105b1c9958591e481c9959da5cdd195c995960721b6044820152606490fd5b3461010357604036600319011261010357610bc2610e79565b60243567ffffffffffffffff811161010357610c53610c067f13a391853160cd5d65ff176f108e73409956bea4c611f4d64a935066972835b9923690600401610f1b565b60045490936001600160a01b0391610c21908316331461109a565b1692836000526000602052600860406000200163ff000000198154169055604051918291602083526020830190611075565b0390a2005b34610103576000366003190112610103576005546040516001600160a01b039091168152602090f35b3461010357606036600319011261010357610c9a610e79565b6004546001600160a01b039190821633148015610d31575b8015610d24575b610cc2906110d2565b16806000526000602052610ce360ff60086040600020015460181c1661110f565b8060005260006020526006604060002001610d016024358254611152565b905560005260006020526007604060002001610d206044358254611152565b9055005b5060065482163314610cb9565b5081600554163314610cb2565b346101035760203660031901126101035760043560035481101561010357610d67602091610e8f565b905460405160039290921b1c6001600160a01b03168152f35b3461010357606036600319011261010357610d99610e79565b6024356044359160ff8316809303610103577fe49cf8896948048b69e1531d3f28ce172d4464f874cedc6c5e3b002d1cc2f20b9160409160018060a01b0390816004541633148015610e51575b8015610e44575b610df6906110d2565b1693846000526000602052610e1760ff600885600020015460181c1661110f565b846000526000602052600583600020836004820155018160ff1982541617905582519182526020820152a2005b5060065482163314610ded565b5081600554163314610de6565b34610103576000366003190112610103576020906003548152f35b600435906001600160a01b038216820361010357565b600354811015610ec65760036000527fc2575a0e9e593c00f959f8c92f12db2869c3395a3b0502d05e2516446f71f85b0190600090565b634e487b7160e01b600052603260045260246000fd5b6101a0810190811067ffffffffffffffff82111761093757604052565b90601f8019910116810190811067ffffffffffffffff82111761093757604052565b81601f820112156101035780359067ffffffffffffffff82116109375760405192610f50601f8401601f191660200185610ef9565b8284526020838301011161010357816000926020809301838601378301015290565b90600182811c92168015610fa2575b6020831014610f8c57565b634e487b7160e01b600052602260045260246000fd5b91607f1691610f81565b9060405191826000825492610fc084610f72565b90818452600194858116908160001461102f5750600114610fec575b5050610fea92500383610ef9565b565b9093915060005260209081600020936000915b818310611017575050610fea93508201013880610fdc565b85548884018501529485019487945091830191610fff565b915050610fea94506020925060ff191682840152151560051b8201013880610fdc565b60005b8381106110655750506000910152565b8181015183820152602001611055565b9060209161108e81518092818552858086019101611052565b601f01601f1916010190565b156110a157565b60405162461bcd60e51b81526020600482015260096024820152682737ba1030b236b4b760b91b6044820152606490fd5b156110d957565b60405162461bcd60e51b815260206004820152600e60248201526d139bdd08185d5d1a1bdc9a5e995960921b6044820152606490fd5b1561111657565b60405162461bcd60e51b8152602060048201526014602482015273436f6c6c6563746f72206e6f742061637469766560601b6044820152606490fd5b9190820180921161115f57565b634e487b7160e01b600052601160045260246000fdfea26469706673582212209f5b95042c566c579d01f074098e3f2016ad330df08daaebb17b28a87f1d7efd64736f6c63430008130033",
  "linkReferences": {},
  "deployedLinkReferences": {}
}