{
  "_format": "hh-sol-artifact-1",
  "contractName": "StationRegistry",
  "sourceName": "src/StationRegistry.sol",
  "abi": [
    {
      "inputs": [],
      "stateMutability": "nonpayable",
      "type": "constructor"
    },
    {
      "anonymous": false,
      "inputs": [
        {
          "indexed": true,
          "internalType": "address",
          "name": "stationAddress",
          "type": "address"
        },
        {
          "indexed": false,
          "internalType": "uint256",
          "name": "newNonce",
          "type": "uint256"
        }
      ],
      "name": "AttestationNonceIncremented",
      "type": "event"
    },
    {
      "anonymous": false,
      "inputs": [
        {
          "indexed": true,
          "internalType": "address",
          "name": "stationAddress",
          "type": "address"
        },
        {
          "indexed": false,
          "internalType": "bytes32",
          "name": "certHash",
          "type": "bytes32"
        },
        {
          "indexed": false,
          "internalType": "uint256",
          "name": "expiry",
          "type": "uint256"
        }
      ],
      "name": "CalibrationUpdated",
      "type": "event"
    },
    {
      "anonymous": false,
      "inputs": [
        {
          "indexed": true,
          "internalType": "address",
          "name": "stationAddress",
          "type": "address"
        },
        {
          "indexed": false,
          "internalType": "uint256",
          "name": "amount",
          "type": "uint256"
        },
        {
          "indexed": false,
          "internalType": "uint8",
          "name": "strike",
          "type": "uint8"
        },
        {
          "indexed": false,
          "internalType": "string",
          "name": "reason",
          "type": "string"
        }
      ],
      "name": "StakeSlashed",
      "type": "event"
    },
    {
      "anonymous": false,
      "inputs": [
        {
          "indexed": true,
          "internalType": "address",
          "name": "stationAddress",
          "type": "address"
        }
      ],
      "name": "StationApproved",
      "type": "event"
    },
    {
      "anonymous": false,
      "inputs": [
        {
          "indexed": true,
          "internalType": "address",
          "name": "stationAddress",
          "type": "address"
        }
      ],
      "name": "StationBlacklisted",
      "type": "event"
    },
    {
      "anonymous": false,
      "inputs": [
        {
          "indexed": true,
          "internalType": "address",
          "name": "stationAddress",
          "type": "address"
        },
        {
          "indexed": false,
          "internalType": "string",
          "name": "stationName",
          "type": "string"
        },
        {
          "indexed": false,
          "internalType": "string",
          "name": "zone",
          "type": "string"
        }
      ],
      "name": "StationRegistered",
      "type": "event"
    },
    {
      "inputs": [],
      "name": "ANNUAL_RENEWAL",
      "outputs": [
        {
          "internalType": "uint256",
          "name": "",
          "type": "uint256"
        }
      ],
      "stateMutability": "view",
      "type": "function"
    },
    {
      "inputs": [],
      "name": "MAX_FRAUD_STRIKES",
      "outputs": [
        {
          "internalType": "uint8",
          "name": "",
          "type": "uint8"
        }
      ],
      "stateMutability": "view",
      "type": "function"
    },
    {
      "inputs": [],
      "name": "MINIMUM_STAKE",
      "outputs": [
        {
          "internalType": "uint256",
          "name": "",
          "type": "uint256"
        }
      ],
      "stateMutability": "view",
      "type": "function"
    },
    {
      "inputs": [],
      "name": "REGISTRATION_FEE",
      "outputs": [
        {
          "internalType": "uint256",
          "name": "",
          "type": "uint256"
        }
      ],
      "stateMutability": "view",
      "type": "function"
    },
    {
      "inputs": [
        {
          "internalType": "uint256",
          "name": "",
          "type": "uint256"
        }
      ],
      "name": "SLASH_PERCENTAGES",
      "outputs": [
        {
          "internalType": "uint256",
          "name": "",
          "type": "uint256"
        }
      ],
      "stateMutability": "view",
      "type": "function"
    },
    {
      "inputs": [],
      "name": "admin",
      "outputs": [
        {
          "internalType": "address",
          "name": "",
          "type": "address"
        }
      ],
      "stateMutability": "view",
      "type": "function"
    },
    {
      "inputs": [
        {
          "internalType": "address",
          "name": "_station",
          "type": "address"
        }
      ],
      "name": "approveStation",
      "outputs": [],
      "stateMutability": "nonpayable",
      "type": "function"
    },
    {
      "inputs": [
        {
          "internalType": "address",
          "name": "",
          "type": "address"
        }
      ],
      "name": "approvedStations",
      "outputs": [
        {
          "internalType": "bool",
          "name": "",
          "type": "bool"
        }
      ],
      "stateMutability": "view",
      "type": "function"
    },
    {
      "inputs": [
        {
          "internalType": "address",
          "name": "_station",
          "type": "address"
        }
      ],
      "name": "getStation",
      "outputs": [
        {
          "components": [
            {
              "internalType": "address",
              "name": "walletAddress",
              "type": "address"
            },
            {
              "internalType": "string",
              "name": "stationName",
              "type": "string"
            },
            {
              "internalType": "string",
              "name": "zone",
              "type": "string"
            },
            {
              "internalType": "int256",
              "name": "gpsLat",
              "type": "int256"
            },
            {
              "internalType": "int256",
              "name": "gpsLng",
              "type": "int256"
            },
            {
              "internalType": "string",
              "name": "facilityType",
              "type": "string"
            },
            {
              "internalType": "string[]",
              "name": "acceptedTypes",
              "type": "string[]"
            },
            {
              "internalType": "uint256",
              "name": "stakeAmount",
              "type": "uint256"
            },
            {
              "internalType": "enum StationRegistry.StakeStatus",
              "name": "stakeStatus",
              "type": "uint8"
            },
            {
              "internalType": "bytes32",
              "name": "calibrationCertHash",
              "type": "bytes32"
            },
            {
              "internalType": "uint256",
              "name": "calibrationExpiry",
              "type": "uint256"
            },
            {
              "internalType": "uint256",
              "name": "attestationNonce",
              "type": "uint256"
            },
            {
              "internalType": "uint8",
              "name": "fraudStrikeCount",
              "type": "uint8"
            },
            {
              "internalType": "bool",
              "name": "isActive",
              "type": "bool"
            },
            {
              "internalType": "uint256",
              "name": "approvedAt",
              "type": "uint256"
            }
          ],
          "internalType": "struct StationRegistry.Station",
          "name": "",
          "type": "tuple"
        }
      ],
      "stateMutability": "view",
      "type": "function"
    },
    {
      "inputs": [],
      "name": "getStationCount",
      "outputs": [
        {
          "internalType": "uint256",
          "name": "",
          "type": "uint256"
        }
      ],
      "stateMutability": "view",
      "type": "function"
    },
    {
      "inputs": [
        {
          "internalType": "address",
          "name": "_station",
          "type": "address"
        }
      ],
      "name": "incrementNonce",
      "outputs": [],
      "stateMutability": "nonpayable",
      "type": "function"
    },
    {
      "inputs": [
        {
          "internalType": "address",
          "name": "_station",
          "type": "address"
        }
      ],
      "name": "isStationActive",
      "outputs": [
        {
          "internalType": "bool",
          "name": "",
          "type": "bool"
        }
      ],
      "stateMutability": "view",
      "type": "function"
    },
    {
      "inputs": [],
      "name": "recoveryAgent",
      "outputs": [
        {
          "internalType": "address",
          "name": "",
          "type": "address"
        }
      ],
      "stateMutability": "view",
      "type": "function"
    },
    {
      "inputs": [
        {
          "internalType": "string",
          "name": "_stationName",
          "type": "string"
        },
        {
          "internalType": "string",
          "name": "_zone",
          "type": "string"
        },
        {
          "internalType": "int256",
          "name": "_gpsLat",
          "type": "int256"
        },
        {
          "internalType": "int256",
          "name": "_gpsLng",
          "type": "int256"
        },
        {
          "internalType": "string",
          "name": "_facilityType",
          "type": "string"
        },
        {
          "internalType": "string[]",
          "name": "_acceptedTypes",
          "type": "string[]"
        },
        {
          "internalType": "bytes32",
          "name": "_calibrationCertHash",
          "type": "bytes32"
        },
        {
          "internalType": "uint256",
          "name": "_calibrationExpiry",
          "type": "uint256"
        }
      ],
      "name": "registerStation",
      "outputs": [],
      "stateMutability": "payable",
      "type": "function"
    },
    {
      "inputs": [
        {
          "internalType": "address",
          "name": "_agent",
          "type": "address"
        }
      ],
      "name": "setRecoveryAgent",
      "outputs": [],
      "stateMutability": "nonpayable",
      "type": "function"
    },
    {
      "inputs": [
        {
          "internalType": "address",
          "name": "_station",
          "type": "address"
        },
        {
          "internalType": "string",
          "name": "_reason",
          "type": "string"
        }
      ],
      "name": "slashStake",
      "outputs": [],
      "stateMutability": "nonpayable",
      "type": "function"
    },
    {
      "inputs": [
        {
          "internalType": "uint256",
          "name": "",
          "type": "uint256"
        }
      ],
      "name": "stationAddresses",
      "outputs": [
        {
          "internalType": "address",
          "name": "",
          "type": "address"
        }
      ],
      "stateMutability": "view",
      "type": "function"
    },
    {
      "inputs": [
        {
          "internalType": "address",
          "name": "",
          "type": "address"
        }
      ],
      "name": "stations",
      "outputs": [
        {
          "internalType": "address",
          "name": "walletAddress",
          "type": "address"
        },
        {
          "internalType": "string",
          "name": "stationName",
          "type": "string"
        },
        {
          "internalType": "string",
          "name": "zone",
          "type": "string"
        },
        {
          "internalType": "int256",
          "name": "gpsLat",
          "type": "int256"
        },
        {
          "internalType": "int256",
          "name": "gpsLng",
          "type": "int256"
        },
        {
          "internalType": "string",
          "name": "facilityType",
          "type": "string"
        },
        {
          "internalType": "uint256",
          "name": "stakeAmount",
          "type": "uint256"
        },
        {
          "internalType": "enum StationRegistry.StakeStatus",
          "name": "stakeStatus",
          "type": "uint8"
        },
        {
          "internalType": "bytes32",
          "name": "calibrationCertHash",
          "type": "bytes32"
        },
        {
          "internalType": "uint256",
          "name": "calibrationExpiry",
          "type": "uint256"
        },
        {
          "internalType": "uint256",
          "name": "attestationNonce",
          "type": "uint256"
        },
        {
          "internalType": "uint8",
          "name": "fraudStrikeCount",
          "type": "uint8"
        },
        {
          "internalType": "bool",
          "name": "isActive",
          "type": "bool"
        },
        {
          "internalType": "uint256",
          "name": "approvedAt",
          "type": "uint256"
        }
      ],
      "stateMutability": "view",
      "type": "function"
    },
    {
      "inputs": [
        {
          "internalType": "bytes32",
          "name": "_certHash",
          "type": "bytes32"
        },
        {
          "internalType": "uint256",
          "name": "_expiry",
          "type": "uint256"
        }
      ],
      "name": "updateCalibration",
      "outputs": [],
      "stateMutability": "payable",
      "type": "function"
    }
  ],
  "bytecode": "0x60803461008b57606081016001600160401b0381118282101761007557604052600f81526020906032828201526064604082015260005b6003811061005f57600380546001600160a01b0319163317905560405161192f90816100918239f35b815160ff16600582015590820190600101610036565b634e487b7160e01b600052604160045260246000fd5b600080fdfe608080604052600436101561001357600080fd5b60003560e01c90816308dbbb03146115e6575080630f40786f1461154a57806331c5d5211461150b5780633544c743146114df5780634a7805c3146114b65780634dcf743b1461149857806353cc291414611387578063563211911461134557806364b4f751146113215780636c949333146111d85780639bac766914611187578063a2b61e2714610f76578063a3ae38df14610f5a578063adee2c6214610c4c578063c7fb4f1214610b29578063d0b0799e1461021f578063d2c8983e146101fb578063f5743c4c1461011e5763f851a440146100f057600080fd5b34610119576000366003190112610119576003546040516001600160a01b039091168152602090f35b600080fd5b3461011957602036600319011261011957610137611608565b6003546001600160a01b0391908216331480156101ee575b6101589061187b565b1680600052600060205261017960ff600c6040600020015460081c166118b8565b806000526000602052600b604060002001805460001981146101d85760010190558060005260006020527f09409c68daba73ff1461a219cc954a35e50c332ad0aaddc7c7e787647d4c2e816020600b60406000200154604051908152a2005b634e487b7160e01b600052601160045260246000fd5b506004548216331461014f565b346101195760003660031901126101195760206040516802b5e3af16b18800008152f35b610100366003190112610119576004356001600160401b0381116101195761024b903690600401611692565b6024356001600160401b0381116101195761026a903690600401611692565b906084356001600160401b0381116101195761028a903690600401611692565b6001600160401b0360a435116101195736602360a4350112156101195760a435600401356102b781611815565b906102c56040519283611671565b80825260208201903660248260051b60a43501011161011957602460a43501915b60248260051b60a43501018310610af65750505033600052600060205260018060a01b0360406000205416610abc57682086ac3510526000003410610a77574260e4351115610a33576040519161033c83611655565b3383528360208401528460408401526044356060840152606435608084015260a083015260c0820152681b1ae4d6e2ef50000060e0820152600061010082015260c43561012082015260e4356101408201526000610160820152600061018082015260006101a082015260006101c082015233600052600060205260406000209060018060a01b038151166bffffffffffffffffffffffff60a01b83541617825560208101518051906001600160401b0382116106595781906104026001860154611735565b601f81116109fe575b50602090601f831160011461098c57600092610981575b50508160011b916000199060031b1c19161760018301555b60408101518051906001600160401b03821161065957819061045f6002860154611735565b601f811161094c575b50602090601f83116001146108da576000926108cf575b50508160011b916000199060031b1c19161760028301555b606081015160038301556080810151600483015560a08101518051906001600160401b0382116106595781906104d06005860154611735565b601f811161089a575b50602090601f83116001146108285760009261081d575b50508160011b916000199060031b1c19161760058301555b60c0810151805190600160401b82116106595760068401548260068601558083106107a5575b5060200190600684016000526020600020916000905b828210610685575050505060e081015160078301556101008101516008830191600482101561066f57600d926101c09260ff801983541691161790556101208101516009850155610140810151600a850155610160810151600b850155600c840160ff6101808301511681549061ff006101a0850151151560081b169161ffff1916171790550151910155600254600160401b811015610659577ff17d6d645c568ad996f160a52382cd5084b649035c3ca5525739e15f3572625e91610613826001610645940160025561161e565b81546001600160a01b0360039290921b91821b19163390911b17905560408051818152928392610654928401906116e8565b828103602084015233956116e8565b0390a2005b634e487b7160e01b600052604160045260246000fd5b634e487b7160e01b600052602160045260246000fd5b80518051906001600160401b038211610659576106a28654611735565b601f8111610768575b50602090601f83116001146106f85792826001949360209386956000926106ed575b5050600019600383901b1c191690841b1787555b01940191019092610544565b015190508d806106cd565b908660005260206000209160005b601f1985168110610750575083602093600196938796938794601f19811610610737575b505050811b0187556106e1565b015160001960f88460031b161c191690558d808061072a565b91926020600181928685015181550194019201610706565b61079590876000526020600020601f850160051c8101916020861061079b575b601f0160051c0190611864565b8a6106ab565b9091508190610788565b600685016000526020600020908382015b81830181106107c657505061052e565b806107d360019254611735565b806107e0575b50016107b6565b601f811183146107f65750600081555b8a6107d9565b600090828252610814601f60208420920160051c8201858301611864565b818355556107f0565b0151905086806104f0565b9250600585016000526020600020906000935b601f198416851061087f576001945083601f19811610610866575b505050811b016005830155610508565b015160001960f88460031b161c19169055868080610856565b8181015183556020948501946001909301929091019061083b565b6108c990600587016000526020600020601f850160051c8101916020861061079b57601f0160051c0190611864565b876104d9565b01519050868061047f565b9250600285016000526020600020906000935b601f1984168510610931576001945083601f19811610610918575b505050811b016002830155610497565b015160001960f88460031b161c19169055868080610908565b818101518355602094850194600190930192909101906108ed565b61097b90600287016000526020600020601f850160051c8101916020861061079b57601f0160051c0190611864565b87610468565b015190508680610422565b9250600185016000526020600020906000935b601f19841685106109e3576001945083601f198116106109ca575b505050811b01600183015561043a565b015160001960f88460031b161c191690558680806109ba565b8181015183556020948501946001909301929091019061099f565b610a2d90600187016000526020600020601f850160051c8101916020861061079b57601f0160051c0190611864565b8761040b565b606460405162461bcd60e51b815260206004820152602060248201527f43616c6962726174696f6e206365727420616c726561647920657870697265646044820152fd5b60405162461bcd60e51b815260206004820152601860248201527f496e73756666696369656e74207374616b65202b2066656500000000000000006044820152606490fd5b60405162461bcd60e51b8152602060048201526012602482015271105b1c9958591e481c9959da5cdd195c995960721b6044820152606490fd5b6001600160401b0383351161011957602080602492610b1c3685883560a4350101611692565b81520193019290506102e6565b34610119576020366003190112610119576001600160a01b0380610b4b611608565b16600052600060205260406000209081541660018201610b6a9061176f565b91610b776002820161176f565b600382015491600481015460058201610b8f9061176f565b93600783015494600884015460ff16600985015491600a86015493600b87015495600c88015497600d0154986040519c8d9c8d528c6101c06020819201528d01610bd8916116e8565b8c810360408e0152610be9916116e8565b9160608c015260808b015289810360a08b0152610c05916116e8565b9660c089015260e08801610c1891611728565b61010087015261012086015261014085015260ff811661016085015260081c60ff1615156101808401526101a08301520390f35b3461011957602036600319011261011957610c65611608565b60006101c0604051610c7681611655565b8281526060602082015260606040820152826060820152826080820152606060a0820152606060c08201528260e08201528261010082015282610120820152826101408201528261016082015282610180820152826101a0820152015260018060a01b03166000526000602052604060002060405190610cf582611655565b80546001600160a01b03168252610d0e6001820161176f565b6020830152610d1f6002820161176f565b60408301526003810154606083015260048101546080830152610d446005820161176f565b60a0830152600681018054610d5881611815565b91610d666040519384611671565b818352602083019060005260206000206000915b838310610f3d575050505060c0830152600781015460e083015260ff60088201541690600482101561066f57600d916101008401526009810154610120840152600a810154610140840152600b81015461016084015260ff600c82015481811661018086015260081c1615156101a084015201546101c08201526040516020815260018060a01b038251166020820152610e6b610e41610e2b60208501516101e060408601526102008501906116e8565b6040850151848203601f190160608601526116e8565b60608401516080840152608084015160a084015260a0840151601f198483030160c08501526116e8565b60c083015190601f198382030160e0840152815180825260208201916020808360051b8301019401926000915b838310610f10578680876101c08b60e0810151610100850152610ec5610100820151610120860190611728565b61012081015161014085015261014081015161016085015261016081015161018085015260ff610180820151166101a08501526101a081015115158285015201516101e08301520390f35b9091929394602080610f2e600193601f1986820301875289516116e8565b97019301930191939290610e98565b600160208192610f4c8561176f565b815201920192019190610d7a565b3461011957600036600319011261011957602060405160038152f35b3461011957604036600319011261011957610f8f611608565b6024356001600160401b03811161011957610fae903690600401611692565b60035490916001600160a01b039182163314801561117a575b610fd09061187b565b16908160005260206000815260ff90610ff582600c6040600020015460081c166118b8565b836000526000815281600c604060002001541660038110600014611172575b600381101561115c576005015484600052600082526007604060002001548181029181830414901517156101d8576064900492846000526000825260076040600020018054908582039182116101d857558460005260008252600c60406000200193845491848316918583146101d85760019688947fc5c48409ed6074a457b11e80a417d6e3fd97c905f762b4244253c0d792339b99948860ff199a8b920116911617905583600052600085526110ed86600c6040600020015416926040519384938452878401526060604084015260608301906116e8565b0390a28360005260008152604060002091600c83019260038454928316101561111257005b60019360089261ff0019169055016003848254161790555260406000209081541690557fdd8d55f4772ee589698659454a1827f3c02b6dbdb4ad9a9df9ff6a3246e61b20600080a2005b634e487b7160e01b600052603260045260246000fd5b506002611014565b5060045482163314610fc7565b34610119576020366003190112610119576111a0611608565b6003546001600160a01b0391906111ba908316331461182c565b166bffffffffffffffffffffffff60a01b6004541617600455600080f35b3461011957602080600319360112610119576111f2611608565b6003546001600160a01b039291839161120e908316331461182c565b1691826000526000825260406000205416156112e457816000526000815260ff600c6040600020015460081c166112ad5781600052600081526001604060002091600c830161010061ff0019825416179055600883019260ff19938385825416179055600d429101555260016040600020918254161790557f44a69fd3e00537a5799aeaf1d809916d12f278e1406ead28c91a1339ca9ad35e600080a2005b6064906040519062461bcd60e51b82526004820152601060248201526f105b1c9958591e48185c1c1c9bdd995960821b6044820152fd5b6064906040519062461bcd60e51b82526004820152601660248201527514dd185d1a5bdb881b9bdd081c9959da5cdd195c995960521b6044820152fd5b3461011957600036600319011261011957602060405168056bc75e2d631000008152f35b34610119576020366003190112610119576004356002548110156101195761136e60209161161e565b905460405160039290921b1c6001600160a01b03168152f35b6040366003190112610119576004356024353360005260006020526113b960ff600c6040600020015460081c166118b8565b6802b5e3af16b18800003410611453574281111561141d5733600052600060205280600a6040600020846009820155015560405191825260208201527f0c875dd1eef067af60dd39cea4726522ed0c29381ab1fdeea9d1cbcc21330f1160403392a2005b60405162461bcd60e51b815260206004820152600e60248201526d496e76616c69642065787069727960901b6044820152606490fd5b60405162461bcd60e51b815260206004820152601860248201527f496e73756666696369656e742072656e6577616c2066656500000000000000006044820152606490fd5b34610119576000366003190112610119576020600254604051908152f35b34610119576000366003190112610119576004546040516001600160a01b039091168152602090f35b346101195760203660031901126101195760043560038110156101195760209060050154604051908152f35b34610119576020366003190112610119576001600160a01b0361152c611608565b166000526001602052602060ff604060002054166040519015158152f35b34610119576020366003190112610119576001600160a01b0361156b611608565b166000526000602052604060002060ff600c82015460081c16806115ca575b602091816115bc575b816115a4575b506040519015158152f35b681b1ae4d6e2ef500000915060070154101582611599565b600a81015442109150611593565b5060ff60088201541690600482101561066f579060011461158a565b346101195760003660031901126101195780681b1ae4d6e2ef50000060209252f35b600435906001600160a01b038216820361011957565b60025481101561115c5760026000527f405787fa12a823e0f2b7631cc41b3ba8828b3321ca811111fa75cd3aa3bb5ace0190600090565b6101e081019081106001600160401b0382111761065957604052565b90601f801991011681019081106001600160401b0382111761065957604052565b81601f82011215610119578035906001600160401b03821161065957604051926116c6601f8401601f191660200185611671565b8284526020838301011161011957816000926020809301838601378301015290565b919082519283825260005b848110611714575050826000602080949584010152601f8019910116010190565b6020818301810151848301820152016116f3565b90600482101561066f5752565b90600182811c92168015611765575b602083101461174f57565b634e487b7160e01b600052602260045260246000fd5b91607f1691611744565b906040519182600082549261178384611735565b9081845260019485811690816000146117f257506001146117af575b50506117ad92500383611671565b565b9093915060005260209081600020936000915b8183106117da5750506117ad9350820101388061179f565b855488840185015294850194879450918301916117c2565b9150506117ad94506020925060ff191682840152151560051b820101388061179f565b6001600160401b0381116106595760051b60200190565b1561183357565b60405162461bcd60e51b81526020600482015260096024820152682737ba1030b236b4b760b91b6044820152606490fd5b81811061186f575050565b60008155600101611864565b1561188257565b60405162461bcd60e51b815260206004820152600e60248201526d139bdd08185d5d1a1bdc9a5e995960921b6044820152606490fd5b156118bf57565b60405162461bcd60e51b815260206004820152601260248201527153746174696f6e206e6f742061637469766560701b6044820152606490fdfea2646970667358221220ea00dd32a8fd8ec43598d796bf8d64f3f880b6a24af4ea3e2bf317260625ce5e64736f6c63430008130033",
  "linkReferences": {},
  "deployedLinkReferences": {}
}