{
  "_format": "hh-sol-artifact-1",
  "contractName": "PRCToken",
  "sourceName": "src/PRCToken.sol",
  "abi": [
    {
      "inputs": [
        {
          "internalType": "address",
          "name": "_collectorRegistry",
          "type": "address"
        },
        {
          "internalType": "address",
          "name": "_stationRegistry",
          "type": "address"
        },
        {
          "internalType": "address",
          "name": "_prcVault",
          "type": "address"
        }
      ],
      "stateMutability": "nonpayable",
      "type": "constructor"
    },
    {
      "anonymous": false,
      "inputs": [
        {
          "indexed": true,
          "internalType": "string",
          "name": "attestationId",
          "type": "string"
        },
        {
          "indexed": true,
          "internalType": "address",
          "name": "collector",
          "type": "address"
        },
        {
          "indexed": true,
          "internalType": "address",
          "name": "station",
          "type": "address"
        },
        {
          "indexed": false,
          "internalType": "uint256",
          "name": "amount",
          "type": "uint256"
        },
        {
          "indexed": false,
          "internalType": "string",
          "name": "plasticType",
          "type": "string"
        },
        {
          "indexed": false,
          "internalType": "string",
          "name": "zone",
          "type": "string"
        }
      ],
      "name": "PRCMinted",
      "type": "event"
    },
    {
      "anonymous": false,
      "inputs": [
        {
          "indexed": true,
          "internalType": "address",
          "name": "company",
          "type": "address"
        },
        {
          "indexed": false,
          "internalType": "string",
          "name": "companyName",
          "type": "string"
        },
        {
          "indexed": false,
          "internalType": "uint256",
          "name": "amount",
          "type": "uint256"
        },
        {
          "indexed": false,
          "internalType": "string",
          "name": "certId",
          "type": "string"
        },
        {
          "indexed": false,
          "internalType": "string",
          "name": "reportRef",
          "type": "string"
        }
      ],
      "name": "PRCRetired",
      "type": "event"
    },
    {
      "anonymous": false,
      "inputs": [
        {
          "indexed": true,
          "internalType": "address",
          "name": "from",
          "type": "address"
        },
        {
          "indexed": true,
          "internalType": "address",
          "name": "to",
          "type": "address"
        },
        {
          "indexed": false,
          "internalType": "uint256",
          "name": "amount",
          "type": "uint256"
        }
      ],
      "name": "PRCTransfer",
      "type": "event"
    },
    {
      "inputs": [],
      "name": "admin",
      "outputs": [
        {
          "internalType": "address",
          "name": "",
          "type": "address"
        }
      ],
      "stateMutability": "view",
      "type": "function"
    },
    {
      "inputs": [
        {
          "internalType": "address",
          "name": "",
          "type": "address"
        }
      ],
      "name": "balances",
      "outputs": [
        {
          "internalType": "uint256",
          "name": "",
          "type": "uint256"
        }
      ],
      "stateMutability": "view",
      "type": "function"
    },
    {
      "inputs": [
        {
          "internalType": "uint256",
          "name": "",
          "type": "uint256"
        }
      ],
      "name": "batchIds",
      "outputs": [
        {
          "internalType": "string",
          "name": "",
          "type": "string"
        }
      ],
      "stateMutability": "view",
      "type": "function"
    },
    {
      "inputs": [],
      "name": "collectorRegistry",
      "outputs": [
        {
          "internalType": "contract CollectorRegistry",
          "name": "",
          "type": "address"
        }
      ],
      "stateMutability": "view",
      "type": "function"
    },
    {
      "inputs": [],
      "name": "getAvailablePRCs",
      "outputs": [
        {
          "internalType": "uint256",
          "name": "",
          "type": "uint256"
        }
      ],
      "stateMutability": "view",
      "type": "function"
    },
    {
      "inputs": [
        {
          "internalType": "address",
          "name": "_account",
          "type": "address"
        }
      ],
      "name": "getBalance",
      "outputs": [
        {
          "internalType": "uint256",
          "name": "",
          "type": "uint256"
        }
      ],
      "stateMutability": "view",
      "type": "function"
    },
    {
      "inputs": [],
      "name": "getBatchCount",
      "outputs": [
        {
          "internalType": "uint256",
          "name": "",
          "type": "uint256"
        }
      ],
      "stateMutability": "view",
      "type": "function"
    },
    {
      "inputs": [
        {
          "internalType": "string",
          "name": "_attestationId",
          "type": "string"
        }
      ],
      "name": "getPRCBatch",
      "outputs": [
        {
          "components": [
            {
              "internalType": "string",
              "name": "attestationId",
              "type": "string"
            },
            {
              "internalType": "address",
              "name": "collectorId",
              "type": "address"
            },
            {
              "internalType": "address",
              "name": "stationId",
              "type": "address"
            },
            {
              "internalType": "string",
              "name": "zone",
              "type": "string"
            },
            {
              "internalType": "string",
              "name": "plasticType",
              "type": "string"
            },
            {
              "internalType": "uint256",
              "name": "weightGrams",
              "type": "uint256"
            },
            {
              "internalType": "uint256",
              "name": "payoutTinybar",
              "type": "uint256"
            },
            {
              "internalType": "uint256",
              "name": "hcsSequence",
              "type": "uint256"
            },
            {
              "internalType": "uint256",
              "name": "mintedAt",
              "type": "uint256"
            },
            {
              "internalType": "string",
              "name": "vintage",
              "type": "string"
            }
          ],
          "internalType": "struct PRCToken.PRCBatch",
          "name": "",
          "type": "tuple"
        }
      ],
      "stateMutability": "view",
      "type": "function"
    },
    {
      "inputs": [
        {
          "internalType": "string",
          "name": "_certId",
          "type": "string"
        }
      ],
      "name": "getRetirementCert",
      "outputs": [
        {
          "components": [
            {
              "internalType": "string",
              "name": "certId",
              "type": "string"
            },
            {
              "internalType": "address",
              "name": "company",
              "type": "address"
            },
            {
              "internalType": "string",
              "name": "companyName",
              "type": "string"
            },
            {
              "internalType": "string",
              "name": "reportRef",
              "type": "string"
            },
            {
              "internalType": "uint256",
              "name": "totalKgRetired",
              "type": "uint256"
            },
            {
              "internalType": "string[]",
              "name": "attestationIds",
              "type": "string[]"
            },
            {
              "internalType": "uint256",
              "name": "collectorsSupported",
              "type": "uint256"
            },
            {
              "internalType": "uint256",
              "name": "hbarPaidToCollectors",
              "type": "uint256"
            },
            {
              "internalType": "uint256",
              "name": "retiredAt",
              "type": "uint256"
            },
            {
              "internalType": "uint256",
              "name": "hcsSequence",
              "type": "uint256"
            }
          ],
          "internalType": "struct PRCToken.RetirementCertificate",
          "name": "",
          "type": "tuple"
        }
      ],
      "stateMutability": "view",
      "type": "function"
    },
    {
      "inputs": [],
      "name": "getRetirementCount",
      "outputs": [
        {
          "internalType": "uint256",
          "name": "",
          "type": "uint256"
        }
      ],
      "stateMutability": "view",
      "type": "function"
    },
    {
      "inputs": [
        {
          "internalType": "string",
          "name": "_attestationId",
          "type": "string"
        },
        {
          "internalType": "address",
          "name": "_collectorId",
          "type": "address"
        },
        {
          "internalType": "address",
          "name": "_stationId",
          "type": "address"
        },
        {
          "internalType": "string",
          "name": "_plasticType",
          "type": "string"
        },
        {
          "internalType": "uint256",
          "name": "_weightGrams",
          "type": "uint256"
        },
        {
          "internalType": "string",
          "name": "_zoneId",
          "type": "string"
        },
        {
          "internalType": "uint256",
          "name": "_payoutTinybar",
          "type": "uint256"
        },
        {
          "internalType": "uint256",
          "name": "_hcsSequence",
          "type": "uint256"
        }
      ],
      "name": "mintRecovery",
      "outputs": [],
      "stateMutability": "nonpayable",
      "type": "function"
    },
    {
      "inputs": [
        {
          "internalType": "string",
          "name": "",
          "type": "string"
        }
      ],
      "name": "prcBatches",
      "outputs": [
        {
          "internalType": "string",
          "name": "attestationId",
          "type": "string"
        },
        {
          "internalType": "address",
          "name": "collectorId",
          "type": "address"
        },
        {
          "internalType": "address",
          "name": "stationId",
          "type": "address"
        },
        {
          "internalType": "string",
          "name": "zone",
          "type": "string"
        },
        {
          "internalType": "string",
          "name": "plasticType",
          "type": "string"
        },
        {
          "internalType": "uint256",
          "name": "weightGrams",
          "type": "uint256"
        },
        {
          "internalType": "uint256",
          "name": "payoutTinybar",
          "type": "uint256"
        },
        {
          "internalType": "uint256",
          "name": "hcsSequence",
          "type": "uint256"
        },
        {
          "internalType": "uint256",
          "name": "mintedAt",
          "type": "uint256"
        },
        {
          "internalType": "string",
          "name": "vintage",
          "type": "string"
        }
      ],
      "stateMutability": "view",
      "type": "function"
    },
    {
      "inputs": [],
      "name": "prcVault",
      "outputs": [
        {
          "internalType": "address",
          "name": "",
          "type": "address"
        }
      ],
      "stateMutability": "view",
      "type": "function"
    },
    {
      "inputs": [],
      "name": "recoveryAgent",
      "outputs": [
        {
          "internalType": "address",
          "name": "",
          "type": "address"
        }
      ],
      "stateMutability": "view",
      "type": "function"
    },
    {
      "inputs": [
        {
          "internalType": "uint256",
          "name": "_amount",
          "type": "uint256"
        },
        {
          "internalType": "string",
          "name": "_companyName",
          "type": "string"
        },
        {
          "internalType": "string",
          "name": "_reportRef",
          "type": "string"
        }
      ],
      "name": "retire",
      "outputs": [
        {
          "internalType": "string",
          "name": "certId",
          "type": "string"
        }
      ],
      "stateMutability": "nonpayable",
      "type": "function"
    },
    {
      "inputs": [
        {
          "internalType": "uint256",
          "name": "",
          "type": "uint256"
        }
      ],
      "name": "retirementCertIds",
      "outputs": [
        {
          "internalType": "string",
          "name": "",
          "type": "string"
        }
      ],
      "stateMutability": "view",
      "type": "function"
    },
    {
      "inputs": [
        {
          "internalType": "string",
          "name": "",
          "type": "string"
        }
      ],
      "name": "retirementCerts",
      "outputs": [
        {
          "internalType": "string",
          "name": "certId",
          "type": "string"
        },
        {
          "internalType": "address",
          "name": "company",
          "type": "address"
        },
        {
          "internalType": "string",
          "name": "companyName",
          "type": "string"
        },
        {
          "internalType": "string",
          "name": "reportRef",
          "type": "string"
        },
        {
          "internalType": "uint256",
          "name": "totalKgRetired",
          "type": "uint256"
        },
        {
          "internalType": "uint256",
          "name": "collectorsSupported",
          "type": "uint256"
        },
        {
          "internalType": "uint256",
          "name": "hbarPaidToCollectors",
          "type": "uint256"
        },
        {
          "internalType": "uint256",
          "name": "retiredAt",
          "type": "uint256"
        },
        {
          "internalType": "uint256",
          "name": "hcsSequence",
          "type": "uint256"
        }
      ],
      "stateMutability": "view",
      "type": "function"
    },
    {
      "inputs": [
        {
          "internalType": "address",
          "name": "_agent",
          "type": "address"
        }
      ],
      "name": "setRecoveryAgent",
      "outputs": [],
      "stateMutability": "nonpayable",
      "type": "function"
    },
    {
      "inputs": [],
      "name": "stationRegistry",
      "outputs": [
        {
          "internalType": "contract StationRegistry",
          "name": "",
          "type": "address"
        }
      ],
      "stateMutability": "view",
      "type": "function"
    },
    {
      "inputs": [],
      "name": "totalRetired",
      "outputs": [
        {
          "internalType": "uint256",
          "name": "",
          "type": "uint256"
        }
      ],
      "stateMutability": "view",
      "type": "function"
    },
    {
      "inputs": [],
      "name": "totalSupply",
      "outputs": [
        {
          "internalType": "uint256",
          "name": "",
          "type": "uint256"
        }
      ],
      "stateMutability": "view",
      "type": "function"
    },
    {
      "inputs": [
        {
          "internalType": "address",
          "name": "_to",
          "type": "address"
        },
        {
          "internalType": "uint256",
          "name": "_amount",
          "type": "uint256"
        }
      ],
      "name": "transfer",
      "outputs": [],
      "stateMutability": "nonpayable",
      "type": "function"
    }
  ],
  "bytecode": "0x608034620000b557601f62001adc38819003918201601f19168301916001600160401b03831184841017620000ba57808492606094604052833981010312620000b5576200004d81620000d0565b906200006a60406200006260208401620000d0565b9201620000d0565b60018060a01b0380928160018060a01b031995168560065416176006551683600754161760075516816005541617600555339060035416176003556040516119f69081620000e68239f35b600080fd5b634e487b7160e01b600052604160045260246000fd5b51906001600160a01b0382168203620000b55756fe608080604052600436101561001357600080fd5b60003560e01c9081630513d078146114935750806318160ddd14611475578063187182a314610f7457806320652dd114610b24578063213c185c1461088b578063237a65ad1461086d57806327e235e3146102165780634a7805c3146108445780634d8f59f01461082657806374a00ce2146106395780638359c07e1461061057806394bda0e0146105e757806398ac24d9146105b35780639bac766914610536578063a8fabfa514610518578063a9059cbb1461043d578063b3d346b9146103ec578063c7c6276b14610387578063e917a03d14610279578063f851a44014610250578063f8b2cb4f146102165763fca767651461011157600080fd5b346102115760203660031901126102115760043567ffffffffffffffff81116102115761015d602061014a6101d193369060040161152e565b816040519382858094519384920161158b565b810160028152030190206101708161160d565b9060018060a01b036001820154169061018b6002820161160d565b906101986003820161160d565b926004820154936101f26006840154916101e460078601549460096008880154970154976040519b8c9b8c6101208091528d01906115ae565b9160208c01528a820360408c01526115ae565b9088820360608a01526115ae565b94608087015260a086015260c085015260e08401526101008301520390f35b600080fd5b34610211576020366003190112610211576001600160a01b03610237611575565b1660005260016020526020604060002054604051908152f35b34610211576000366003190112610211576003546040516001600160a01b039091168152602090f35b346102115760203660031901126102115760043567ffffffffffffffff81116102115761033c6103836102b6602061014a8195369060040161152e565b810160008152030190206102c98161160d565b6001820154600283015491926001600160a01b03918216929091166102f06003830161160d565b61035f6102ff6004850161160d565b610351600586015497600687015494600788015496610325600960088b01549a0161160d565b996040519e8f9e8f956101408088528701906115ae565b94015260408d01528b820360608d01526115ae565b9089820360808b01526115ae565b9460a088015260c087015260e08601526101008501528382036101208501526115ae565b0390f35b3461021157602036600319011261021157600435600c54811015610211576103d861038391600c6000527fdf6966c971051c3d54ec59162606531493a51404a002842f56009d7e5cf4a8c70161160d565b6040519182916020835260208301906115ae565b3461021157602036600319011261021157600435600b54811015610211576103d861038391600b6000527f0175b7a638427703f0dbe7bb9bbf987a2551717b34e79f33b5b1008d1fa01db90161160d565b3461021157604036600319011261021157610456611575565b6024359033600052600160205281604060002054106104dc5733600052600160205260406000206104888382546117f4565b905560018060a01b03169081600052600160205260406000206104ac8282546117e7565b90556040519081527ffcb846185b28e704a8a1fc59409e819a845a05e0e7e0cc37804c97e8dbaa1fc060203392a3005b60405162461bcd60e51b8152602060048201526014602482015273496e73756666696369656e742062616c616e636560601b6044820152606490fd5b34610211576000366003190112610211576020600b54604051908152f35b346102115760203660031901126102115761054f611575565b6003546001600160a01b0391908216330361058257166bffffffffffffffffffffffff60a01b6004541617600455600080f35b60405162461bcd60e51b81526020600482015260096024820152682737ba1030b236b4b760b91b6044820152606490fd5b346102115760003660031901126102115760018060a01b036005541660005260016020526020604060002054604051908152f35b34610211576000366003190112610211576007546040516001600160a01b039091168152602090f35b34610211576000366003190112610211576005546040516001600160a01b039091168152602090f35b346102115760203660031901126102115760043567ffffffffffffffff8111610211576106d0602061067261038393369060040161152e565b6060610120604051610683816114b7565b828152600085820152600060408201528280820152826080820152600060a0820152600060c0820152600060e082015260006101008201520152816040519382858094519384920161158b565b810160008152030190206107686009604051926106ec846114b7565b6106f58161160d565b845260018101546001600160a01b03908116602086015260028201541660408501526107236003820161160d565b60608501526107346004820161160d565b6080850152600581015460a0850152600681015460c0850152600781015460e085015260088101546101008501520161160d565b61012082015260405191829160208352610790815161014060208601526101608501906115ae565b60018060a01b03602083015116604085015260018060a01b0360408301511660608501526101206107ea6107d6606085015193601f1994858983030160808a01526115ae565b6080850151848883030160a08901526115ae565b9260a081015160c087015260c081015160e087015260e081015161010087015261010081015182870152015190848303016101408501526115ae565b34610211576000366003190112610211576020600954604051908152f35b34610211576000366003190112610211576004546040516001600160a01b039091168152602090f35b34610211576000366003190112610211576020600c54604051908152f35b346102115760203660031901126102115767ffffffffffffffff6004358181116102115760206108c261091e92369060040161152e565b60006101206040516108d3816114b7565b60608152828582015260606040820152606080820152826080820152606060a08201528260c08201528260e0820152826101008201520152816040519382858094519384920161158b565b8101600281520301902060405191610935836114b7565b61093e8261160d565b835260018201546001600160a01b0316602084015261095f6002830161160d565b60408401526109706003830161160d565b6060840152600482015460808401526005820154908111610b0e576040519061099f60208260051b01836114f0565b808252602082016005840160005260206000206000915b838310610af157866009878760a0840152600681015460c0840152600781015460e08401526008810154610100840152015461012082015260405160208152610a54610a3e610a13845161014060208601526101608501906115ae565b60208501516001600160a01b0316604085810191909152850151848203601f190160608601526115ae565b6060840151838203601f190160808501526115ae565b608083015160a083015260a083015190601f198382030160c0840152815180825260208201916020808360051b8301019401926000915b838310610ac4578680876101208b60c081015160e085015260e08101516101008501526101008101518285015201516101408301520390f35b9091929394602080610ae2600193601f1986820301875289516115ae565b97019301930191939290610a8b565b600160208192610b008561160d565b8152019201920191906109b6565b634e487b7160e01b600052604160045260246000fd5b346102115760603660031901126102115767ffffffffffffffff60243581811161021157610b5690369060040161152e565b9060443581811161021157610b6f90369060040161152e565b33600052600160205260043560406000205410610f2f57610b91600a54611801565b9182600a556107b26301e187e042048101809111610f19576029610bc0610bba610c1a93611821565b956118de565b946040519586916250432d60e81b6020840152610be781518092602060238701910161158b565b8201652d434f52502d60d01b6023820152610c0b825180936020878501910161158b565b010360098101865201846114f0565b3360005260016020526040600020610c3560043582546117f4565b9055610c456004356009546117e7565b600955604051906020820190811182821017610b0e576040526000815260405190610c6f826114b7565b8382523360208301528460408301528260608301526103e860043504608083015260a0820152600060c0820152600060e08201524261010082015260006101208201526040516020818551610cc78183858a0161158b565b8101600281520301902090610cdd8151836116e2565b6001820160018060a01b036020830151166bffffffffffffffffffffffff60a01b825416179055610d156040820151600284016116e2565b610d266060820151600384016116e2565b6080810151600483015560a0810151805190600160401b8211610b0e576005840154826005860155808310610ea0575b506020016005840160005260206000206000915b838310610e8357505050506101208160c06009930151600685015560e0810151600785015561010081015160088501550151910155600c5492600160401b841015610b0e576001840180600c55841015610e6d57610e317faa8a05d78a9561dffd59d70cfc85b6c0368f681b3ccde689f849863c20e4ec6191610e178561038397600c6000527fdf6966c971051c3d54ec59162606531493a51404a002842f56009d7e5cf4a8c7016116e2565b610e56610e476040519384936080855260808501906115ae565b60043560208501528381036040850152876115ae565b828103606084015233956115ae565b0390a26040519182916020835260208301906115ae565b634e487b7160e01b600052603260045260246000fd5b6001602082610e94839451866116e2565b01920192019190610d6a565b600585016000526020600020908382015b8183018110610ec1575050610d56565b80610ece600192546115d3565b80610edb575b5001610eb1565b601f908181118414610ef4575050600081555b8b610ed4565b610f1060009284845260208420920160051c82018583016116cb565b81835555610eee565b634e487b7160e01b600052601160045260246000fd5b60405162461bcd60e51b815260206004820152601860248201527f496e73756666696369656e74205052432062616c616e636500000000000000006044820152606490fd5b34610211576101003660031901126102115767ffffffffffffffff60043581811161021157610fa790369060040161152e565b906024356001600160a01b0381169190829003610211576044356001600160a01b03811693908490036102115760643582811161021157610fec90369060040161152e565b9160a4359081116102115761100590369060040161152e565b9160018060a01b036003541633148015611461575b1561142b5760065460405163dbcd13df60e01b81526004810186905290602090829060249082906001600160a01b03165afa9081156113c45760009161140c575b50156113d057600754604051630f40786f60e01b81526004810187905290602090829060249082906001600160a01b03165afa9081156113c457600091611395575b501561135b57608435801561132557604051926110d8815194602081818501976110c881838b61158b565b81016000815203019020546115d3565b6112e9576107b26301e187e042048101809111610f19576110f890611821565b60405190611105826114b7565b82825260208201888152604083018a8152606084018981526080850188815260a086019088825260c087019260c435845260e088019460e43586526101008901964288526101208a019889528d8b604051809281925180926111669261158b565b810160008152036020019020995161117e908b6116e2565b5160018a0180546001600160a01b03199081166001600160a01b0393841617909155915160028b0180549093169116179055516111be90600389016116e2565b516111cc90600488016116e2565b516005860155516006850155516007840155516008830155516111f1916009016116e2565b6005546001600160a01b0316600090815260016020526040902080546112189084906117e7565b90558160085490611228916117e7565b600855600b54600160401b811015610b0e576001810180600b55811015610e6d577ff95eb8d923fdebdf4636889000a6f1bc414e99a474219c3e5a71de75c3a4bd3a94826112a36112e4946112b494600b6000527f0175b7a638427703f0dbe7bb9bbf987a2551717b34e79f33b5b1008d1fa01db9016116e2565b60405192839283925192839161158b565b8101039020946112d660405194859485526060602086015260608501906115ae565b9083820360408501526115ae565b0390a4005b60405162461bcd60e51b8152602060048201526014602482015273426174636820616c72656164792065786973747360601b6044820152606490fd5b60405162461bcd60e51b815260206004820152600e60248201526d125b9d985b1a59081dd95a59da1d60921b6044820152606490fd5b60405162461bcd60e51b815260206004820152601260248201527153746174696f6e206e6f742061637469766560701b6044820152606490fd5b6113b7915060203d6020116113bd575b6113af81836114f0565b8101906116b3565b8661109d565b503d6113a5565b6040513d6000823e3d90fd5b60405162461bcd60e51b8152602060048201526014602482015273436f6c6c6563746f72206e6f742061637469766560601b6044820152606490fd5b611425915060203d6020116113bd576113af81836114f0565b8661105b565b60405162461bcd60e51b815260206004820152600e60248201526d139bdd08185d5d1a1bdc9a5e995960921b6044820152606490fd5b506004546001600160a01b0316331461101a565b34610211576000366003190112610211576020600854604051908152f35b34610211576000366003190112610211576006546001600160a01b03168152602090f35b610140810190811067ffffffffffffffff821117610b0e57604052565b6040810190811067ffffffffffffffff821117610b0e57604052565b90601f8019910116810190811067ffffffffffffffff821117610b0e57604052565b67ffffffffffffffff8111610b0e57601f01601f191660200190565b81601f820112156102115780359061154582611512565b9261155360405194856114f0565b8284526020838301011161021157816000926020809301838601378301015290565b600435906001600160a01b038216820361021157565b60005b83811061159e5750506000910152565b818101518382015260200161158e565b906020916115c78151809281855285808601910161158b565b601f01601f1916010190565b90600182811c92168015611603575b60208310146115ed57565b634e487b7160e01b600052602260045260246000fd5b91607f16916115e2565b9060405191826000825492611621846115d3565b908184526001948581169081600014611690575060011461164d575b505061164b925003836114f0565b565b9093915060005260209081600020936000915b81831061167857505061164b9350820101388061163d565b85548884018501529485019487945091830191611660565b91505061164b94506020925060ff191682840152151560051b820101388061163d565b90816020910312610211575180151581036102115790565b8181106116d6575050565b600081556001016116cb565b919091825167ffffffffffffffff8111610b0e5761170082546115d3565b601f81116117aa575b50602080601f831160011461174657508192939460009261173b575b50508160011b916000199060031b1c1916179055565b015190503880611725565b90601f198316958460005282600020926000905b88821061179257505083600195969710611779575b505050811b019055565b015160001960f88460031b161c1916905538808061176f565b8060018596829496860151815501950193019061175a565b6117d790836000526020600020601f840160051c810191602085106117dd575b601f0160051c01906116cb565b38611709565b90915081906117ca565b91908201809211610f1957565b91908203918211610f1957565b6000198114610f195760010190565b908151811015610e6d570160200190565b80156118c05780816000925b6118ac57508061183c83611512565b9261184a60405194856114f0565b808452601f1961185982611512565b01366020860137905b61186b57505090565b8015610f1957600019018091600a9160308383068101809111610f195760f81b6001600160f81b03191660001a906118a39086611810565b53049081611862565b916118b8600a91611801565b92048061182d565b506040516118cd816114d4565b60018152600360fc1b602082015290565b6118e790611821565b9060049081835110156119bc5760405190611901826114d4565b8282526020368184013760005b845184038481116119a75781101561193b578060306119306119369386611810565b53611801565b61190e565b509160005b84518110156119a0576001600160f81b031961195c8287611810565b51168551830383811161198b579061193061197b8461198695946117e7565b9160001a9186611810565b611940565b601184634e487b7160e01b6000525260246000fd5b5090925050565b601185634e487b7160e01b6000525260246000fd5b905056fea2646970667358221220b0b1674f036a5b4e670f29ab7f9d87d1c6e792b688bc5984b53ce19c86cfbabb64736f6c63430008130033",
  "linkReferences": {},
  "deployedLinkReferences": {}
}